:020000040000FA
:040000008DEF22F06E
:10080000004275656E6F7320446961730025302E58
:1008100030664300494E46004E414E00696E660008
:100820006E616E002578200025782D0025783A002D
:100830005765640054756500467269004D6F6E001F
:1008400053756E0053617400546875006C66004106
:100850004D00504D0000000E0001876F000E866FA6
:1008600062C098F063C099F064C09AF065C09BF0D4
:100870009BBF3FEF04F03DEF04F055EF04F0000E96
:10088000876F010E866F98C001F099C002F09AC080
:1008900003F09BC004F045EC24F001C098F002C0C6
:1008A00099F003C09AF004C09BF0000E00019F6F06
:1008B000000E9E6FF4C08AF0F5C08BF08651871150
:1008C000D8A465EF04F067EF04F06EEF04F0F8A52C
:1008D0006CEF04F06EEF04F088EF04F0865187119E
:1008E000D8A475EF04F077EF04F07DEF04F0000E6C
:1008F0006D6F2B0E6C6F81EF04F0000E6D6F2D0E7F
:100900006C6F6CC00EF19E4B9F2B8A07D8A08B0793
:1009100098C001F099C002F09AC003F09BC004F0A7
:100920009FEC1CF001040210D8A499EF04F09BEF97
:1009300004F0F2EF04F0BF0E0001676FFF0E686F66
:100940006651696F6A6B6751692768516A236A51FA
:100950000AE11A0E695DD8A0B0EF04F0B3EF04F01D
:10096000010EB4EF04F0000E6E6F6F6B6E516F11DD
:10097000D8B4BDEF04F0BFEF04F0CDEF04F00E0EDD
:100980009E25016E010E9F21026E140E036E080E4D
:10099000046E86EC21F0D9EF04F00E0E9E25016E58
:1009A000010E9F21026E1C0E036E080E046E86EC73
:1009B00021F00001FD0E8A27FF0E8B2360C011F08D
:1009C00061C012F00E0E136E010E146E8AC015F087
:1009D0008BC016F0EEEC1DF011C060F012C061F09B
:1009E00056EF0AF098C001F099C002F09AC003F0E7
:1009F0009BC004F09FEC1CF001500210D8A403EF40
:100A000005F005EF05F045EF05F0BF0E0001676F3B
:100A1000FF0E686F6651696F6A6B6751692768518D
:100A20006A236A510AE11A0E695DD8A01AEF05F02F
:100A30001DEF05F0010E1EEF05F0000E706F716BDB
:100A400070517111D8B427EF05F029EF05F037EF99
:100A500005F00E0E9E25016E010E9F21026E180EEE
:100A6000036E080E046E86EC21F0D9EF04F00E0E32
:100A70009E25016E010E9F21026E200E036E080E50
:100A8000046E86EC21F0D9EF04F0000E0001A06F97
:100A9000000EA16F800EA26F3F0EA36F000E9D6F20
:100AA000000E9C6F98C001F099C002F09AC003F04C
:100AB0009BC004F0000E056E000E066E000E076E61
:100AC000000E086EC5EC1FF0D8B069EF05F06BEFB3
:100AD00005F0EEEF05F08AEF05F0A0C013F0A1C01D
:100AE00014F0A2C015F0A3C016F0000E176E000E91
:100AF000186E200E196E410E1A6EBEEC0FF013C068
:100B0000A0F014C0A1F015C0A2F016C0A3F000011F
:100B10009C4B9D2B98C02CF099C02DF09AC02EF0C4
:100B20009BC02FF0000E176E000E186E200E196E6F
:100B3000410E1A6EA0C013F0A1C014F0A2C015F0AF
:100B4000A3C016F0BEEC0FF013C030F014C031F0AB
:100B500015C032F016C033F09EEC1BF0D8B0B3EFE6
:100B600005F0B5EF05F06DEF05F0D5EF05F0A0C08D
:100B70002CF0A1C02DF0A2C02EF0A3C02FF0000ECB
:100B8000306E000E316E200E326E410E336ED3EC9D
:100B900011F02CC0A0F02DC0A1F02EC0A2F02FC0EB
:100BA000A3F000019C07D8A09D0798C02CF099C025
:100BB0002DF09AC02EF09BC02FF0A0C030F0A1C045
:100BC00031F0A2C032F0A3C033F09EEC1BF0D8A0ED
:100BD000ECEF05F0EEEF05F0B7EF05F066C007F0BB
:100BE000086AC9EC20F0075000018D6F8DC08CF0B1
:100BF000670E8D19D8A4FFEF05F001EF06F027EF7F
:100C000006F0F651F711D8A408EF06F00AEF06F047
:100C10000EEF06F0000EF76F010EF66FF7BF1BEF39
:100C200006F0F75106E1F605D8B019EF06F01BEF14
:100C300006F021EF06F0000E896F060E886F30EF88
:100C400006F0F6C088F0F7C089F030EF06F0F7BF85
:100C50002CEF06F02EEF06F01BEF06F021EF06F06A
:100C6000670E8D19D8A437EF06F039EF06F068EF5C
:100C700006F09DAF47EF06F0FC0E9C5DFF0E9D5900
:100C8000D8A045EF06F047EF06F066EF06F0FF0E3E
:100C9000676FFF0E686F88C069F089C06AF067519E
:100CA000692768516A239C51695D6A51800A6B6F9C
:100CB0009D51800A6B59D8A060EF06F062EF06F0F4
:100CC00066EF06F0660E8C6F68EF06F0650E8C6FAF
:100CD00088C07EF089C07FF0670E8D19D8A473EFAD
:100CE00006F075EF06F085EF06F0660E8C19D8A4B5
:100CF0007CEF06F07EEF06F087EF06F09DBF85EFF4
:100D000006F083EF06F087EF06F07E4B7F2B660E32
:100D10008C19D8A48EEF06F090EF06F0B0EF06F035
:100D20009DBF97EF06F095EF06F0A3EF06F0000EDB
:100D3000A06F000EA16F800EA26F3F0EA36F000E7A
:100D40009D6F000E9C6F670E8D19D8B4AAEF06F048
:100D5000ACEF06F0B0EF06F09C517E279D517F234B
:100D6000000E976F000E966F98C08EF099C08FF0AE
:100D70009AC090F09BC091F0A0C080F0A1C081F01B
:100D8000A2C082F0A3C083F041EF07F08EC02CF028
:100D90008FC02DF090C02EF091C02FF0A0C030F089
:100DA000A1C031F0A2C032F0A3C033F0D3EC11F0F7
:100DB0002CC045F02DC046F02EC047F02FC048F0A3
:100DC000C4EC17F045C092F046C093F047C094F0D1
:100DD00048C095F092C055F093C056F094C057F0BB
:100DE00095C058F01BEC1BF055C084F056C085F040
:100DF0008EC055F08FC056F090C057F091C058F09B
:100E0000A0C017F0A1C018F0A2C019F0A3C01AF03A
:100E100092C013F093C014F094C015F095C016F072
:100E2000BEEC0FF013C059F014C05AF015C05BF0BF
:100E300016C05CF06DEC23F055C08EF056C08FF0FC
:100E400057C090F058C091F0A0C02CF0A1C02DF078
:100E5000A2C02EF0A3C02FF0000E306E000E316E37
:100E6000200E326E410E336ED3EC11F02CC0A0F088
:100E70002DC0A1F02EC0A2F02FC0A3F00001964B10
:100E8000972B7E51965D9751800A676F7F51800A3C
:100E90006759D8A04EEF07F050EF07F0C6EF06F005
:100EA000A0C013F0A1C014F0A2C015F0A3C016F0AA
:100EB000000E176E000E186EA00E196E400E1A6E00
:100EC000BEEC0FF013C092F014C093F015C094F074
:100ED00016C095F08EC02CF08FC02DF090C02EF073
:100EE00091C02FF092C030F093C031F094C032F036
:100EF00095C033F09EEC1BF0D8B081EF07F083EF84
:100F000007F08EEF07F0000E0001926F000E936F56
:100F1000000E946F000E956FB7EF07F08EC001F0D2
:100F20008FC002F090C003F091C004F092C005F0B1
:100F300093C006F094C007F095C008F0C5EC1FF010
:100F4000D8A0A5EF07F0A7EF07F0B7EF07F0000173
:100F500084B1ADEF07F0AFEF07F0B7EF07F0000E89
:100F6000926F000E936F000E946F000E956F98C0F5
:100F700045F099C046F09AC047F09BC048F092C037
:100F800049F093C04AF094C04BF095C04CF05EEC31
:100F90000DF045C08EF046C08FF047C090F048C0BD
:100FA00091F08EC02CF08FC02DF090C02EF091C02B
:100FB0002FF0000E176E000E186E200E196E410EE7
:100FC0001A6E80C013F081C014F082C015F083C087
:100FD00016F0BEEC0FF013C030F014C031F015C0A5
:100FE00032F016C033F09EEC1BF0D8A0FAEF07F0F9
:100FF000FCEF07F025EF08F000019C4B9D2B80C013
:1010000013F081C014F082C015F083C016F0000EFA
:10101000176E000E186E200E196E410E1A6EBEEC81
:101020000FF013C080F014C081F015C082F016C01C
:1010300083F0660E00018C19D8A421EF08F023EF8D
:1010400008F025EF08F07E4B7F2B80C0A0F081C018
:10105000A1F082C0A2F083C0A3F0650E00018C193C
:10106000D8B435EF08F037EF08F03DEF08F09CC03A
:101070007CF09DC07DF041EF08F0000E7D6F000E0A
:101080007C6F000E7B6F000E7A6F000E796F000E82
:10109000786F000E976F000E966F3CEF09F08EC0D0
:1010A0002CF08FC02DF090C02EF091C02FF0A0C07A
:1010B00030F0A1C031F0A2C032F0A3C033F0D3ECC5
:1010C00011F02CC045F02DC046F02EC047F02FC0C7
:1010D00048F0C4EC17F045C092F046C093F047C00A
:1010E00094F048C095F092C055F093C056F094C06B
:1010F00057F095C058F01BEC1BF055C084F056C05B
:1011000085F00001F8B987EF08F089EF08F0A6EF45
:1011100008F084518511D8A490EF08F092EF08F000
:10112000A6EF08F0670E8D19D8A499EF08F09BEF91
:1011300008F0A6EF08F07DBFA2EF08F0A0EF08F0DE
:10114000A6EF08F0784B792BF0EF08F07A517B117D
:10115000D8A4ADEF08F0AFEF08F0D9EF08F07DBFED
:10116000B6EF08F0B4EF08F0D9EF08F00E0E9E25A8
:10117000D96E010E9F21DA6E2E0EDF6E9E4B9F2BD5
:101180008A07D8A08B07000E7B6F010E7A6FD9EF0C
:1011900008F00E0E9E25D96E010E9F21DA6E300EDC
:1011A000DF6E9E4B9F2B8A07D8A08B077807D8A0AD
:1011B000790778517911D8A4E0EF08F0E2EF08F050
:1011C000C9EF08F00E0E9E25D96E010E9F21DA6E32
:1011D0008451300FDF6E9E4B9F2B8A07D8A08B0760
:1011E0008EC055F08FC056F090C057F091C058F0A7
:1011F000A0C017F0A1C018F0A2C019F0A3C01AF047
:1012000092C013F093C014F094C015F095C016F07E
:10121000BEEC0FF013C059F014C05AF015C05BF0CB
:1012200016C05CF06DEC23F055C08EF056C08FF008
:1012300057C090F058C091F0A0C02CF0A1C02DF084
:10124000A2C02EF0A3C02FF0000E306E000E316E43
:10125000200E326E410E336ED3EC11F02CC0A0F094
:101260002DC0A1F02EC0A2F02FC0A3F000017C077A
:10127000D8A07D07964B972B7E51965D9751800A9B
:10128000676F7F51800A6759D8B049EF09F04BEF7B
:1012900009F059EF09F09FBF57EF09F09F5109E19D
:1012A0004B0E9E5DD8A057EF09F059EF09F04FEFB4
:1012B00008F07A517B11D8A460EF09F062EF09F0D1
:1012C00073EF09F0F8A967EF09F069EF09F073EF20
:1012D00009F00E0E9E25D96E010E9F21DA6E2E0E9C
:1012E000DF6E9E4B9F2B0E0E9E25D96E010E9F2109
:1012F000DA6E000EDF6E650E8C19D8A482EF09F04D
:1013000084EF09F0DEEF04F0000E976F4F0E966F3A
:101310000E0E9625D96E010E9721DA6E000EDF6E45
:10132000000E876F000E866F9DBF9BEF09F099EF4F
:1013300009F0A3EF09F0000E876F010E866F9C6D18
:101340009D1FD8B09D2B000E896F020E886FD4EFC1
:1013500009F09607D8A097070E0E9625D96E010EB4
:101360009721DA6E9CC001F09DC002F0000E046E61
:101370000A0E036E6DEC1FF00150300FDF6E9CC043
:1013800001F09DC002F0000E046E0A0E036E51ECD7
:101390001EF001C09CF002C09DF000018807D8A09B
:1013A00089078A07D8A08B079C519D11D8A4DBEF31
:1013B00009F0DDEF09F0A9EF09F089BFEAEF09F0C4
:1013C000895106E18805D8B0E8EF09F0EAEF09F0A5
:1013D000A9EF09F09607D8A0970786518711D8A4DE
:1013E000F4EF09F0F6EF09F0FCEF09F0000E736F6F
:1013F0002B0E726F00EF0AF0000E736F2D0E726FDE
:101400000E0E9625D96E010E9721DA6E72C0DFFF9F
:101410008A07D8A08B079607D8A09707BF0E676FDB
:10142000FF0E686F6651696F6A6B67516927685173
:101430006A236A510AE11A0E695DD8A022EF0AF008
:1014400025EF0AF0010E26EF0AF0000E766F776B9B
:1014500076517711D8A42FEF0AF031EF0AF037EF69
:101460000AF0000E756F650E746F3BEF0AF0000E08
:10147000756F450E746F0E0E9625D96E010E97216D
:10148000DA6E74C0DFFF8A07D8A08B070E0E9E2588
:10149000016E010E9F21026E0E0E9625036E010E47
:1014A0009721046E86EC21F0DEEF04F01200A6C056
:1014B000D9FFA7C0DAFFDECFF6FFDDCFF7FF0800C8
:1014C000F550250AD8A467EF0AF069EF0AF042EF59
:1014D0000DF0A6C0D9FFA7C0DAFFDE2A000EDD227C
:1014E000000E0001F56F000EF46FF4C0F8F0F5C0C7
:1014F000F9F0F669F769000EB76F000EB66FC7EF27
:101500000AF0F881A6C0D9FFA7C0DAFFDE2A000ED4
:10151000DD22C7EF0AF0F88382EF0AF0F88582EF48
:101520000AF0F88782EF0AF0F88982EF0AF0000EDD
:10153000B76F010EB66FC7EF0AF0A6C0D9FFA7C0FC
:10154000DAFFDECFF6FFDDCFF7FF0800F550AA6F18
:10155000AB6BAB51000AD8B4B0EF0AF097EF0AF0CA
:10156000AA51200AD8B491EF0AF0030AD8B494EF34
:101570000AF0080AD8B48EEF0AF0060AD8B481EF50
:101580000AF01D0AD8B48BEF0AF097EF0AF0B651B3
:10159000B711D8B4CEEF0AF0D0EF0AF09DEF0AF001
:1015A000F8A1D5EF0AF0D7EF0AF0D8EF0AF0F893D8
:1015B000A6C0D9FFA7C0DAFFDECFF6FFDDCFF7FF69
:1015C0000800F5502E0AD8A4E8EF0AF0EAEF0AF076
:1015D00068EF0BF0000EF76F000EF66FA6C0D9FF94
:1015E000A7C0DAFFDE2A000EDD22A6C0D9FFA7C001
:1015F000DAFFDECFF6FFDDCFF7FF0800F5502A0A4D
:10160000D8A405EF0BF007EF0BF024EF0BF0A6C00A
:10161000D9FFA7C0DAFFDE2A000EDD22A8C0D9FF5D
:10162000A9C0DAFFDFCFAAF0020EDE26DFCFABF0D3
:10163000000EDD22AAC0D9FFABC0DAFFDECFF6F084
:10164000DDCFF7F068EF0BF0A6C0D9FFA7C0DAFF37
:10165000DECF08F0DDCF09F0A7EC19F008C0F6F0F6
:1016600009C0F7F03BEF0BF0A6C0D9FFA7C0DAFF27
:10167000DE2A000EDD22D00E0001AA6FFF0EAB6F36
:10168000A6C0D9FFA7C0DAFFDECFF6FFDDCFF7FF98
:101690000800F550AC6FAD6BAA51AC27AB51AD2330
:1016A000AD510AE10A0EAC5DD8A059EF0BF05CEF2A
:1016B0000BF0010E5DEF0BF0000EB86FB96BB85177
:1016C000B911D8A466EF0BF068EF0BF034EF0BF014
:1016D000A6C0D9FFA7C0DAFFDECFF6FFDDCFF7FF48
:1016E0000800F550076E086AC9EC20F007500001A9
:1016F000C06FC051D8B47FEF0BF081EF0BF0BBEFA0
:101700000BF0A6C0D9FFA7C0DAFFDECFAAF0DDCF6D
:10171000ABF0010EAA27000EAB23AAC0F6FFABC0A8
:10172000F7FF0800F550076E086AC9EC20F0075073
:101730000001C16FC151D8B4A0EF0BF0A2EF0BF0C4
:10174000BBEF0BF0A6C0D9FFA7C0DAFFDECFAAF02F
:10175000DDCFABF0020EAA27000EAB23AAC0F6FF26
:10176000ABC0F7FF0800F550076E086AC9EC20F01F
:1017700007500001C26F660EC019D8A4C2EF0BF06B
:10178000C4EF0BF004EF0CF0A6C0D9FFA7C0DAFF3E
:10179000DECFF6FFDDCFF7FF0800F5CFC3F0A6C020
:1017A000D9FFA7C0DAFFDE2A000EDD22A8C0D9FFCC
:1017B000A9C0DAFFDFCFAAF0040EDE26DFCFABF040
:1017C000000EDD22AAC0D9FFABC0DAFFDECFBCF02D
:1017D000DECFBDF0DECFBEF0DECFBFF0A4C060F044
:1017E000A5C061F0BCC062F0BDC063F0BEC064F0D3
:1017F000BFC065F0C3C066F02BEC04F060C0A4F07D
:1018000061C0A5F05DEF0DF0C00E016E000E026E1E
:101810004C0E036E080E046E000E066E020E056E70
:101820001EEC1DF001500210D8A419EF0CF01BEFB4
:101830000CF097EF0CF0A6C0D9FFA7C0DAFFDECFFF
:10184000AAF0DDCFABF0010E0001AA27000EAB23FA
:10185000AAC0F6FFABC0F7FF0800F5CFC3F0BF0E7C
:10186000AA6FFF0EAB6FA6C0D9FFA7C0DAFFDECF0D
:10187000F6FFDDCFF7FF0800F550AC6FAD6BAA5156
:10188000AC27AB51AD23AD510AE11A0EAC5DD8A027
:101890004CEF0CF04FEF0CF0010E50EF0CF0000E7F
:1018A000BA6FBB6BBA51BB11D8B459EF0CF05BEFF8
:1018B0000CF075EF0CF0A8C0D9FFA9C0DAFFDFCF9C
:1018C000AAF0040EDE26DFCFABF0000EDD22AAC0A8
:1018D000D9FFABC0DAFFDECFBCF0DECFBDF0DECF8C
:1018E000BEF0DECFBFF08DEF0CF0A8C0D9FFA9C0CD
:1018F000DAFFDFCFAAF0040EDE26DFCFABF0000E5A
:10190000DD22AAC0D9FFABC0DAFFDECFBCF0DECF4C
:10191000BDF0DECFBEF0DECFBFF0020EA6C0D9FF15
:10192000A7C0DAFFDE26000EDD22EEEF0BF0A6C028
:10193000D9FFA7C0DAFFDECFF6FFDDCFF7FF080043
:10194000F550780AD8B4A7EF0CF0A9EF0CF0BBEF74
:101950000CF0A6C0D9FFA7C0DAFFDECFF6FFDDCFBF
:10196000F7FF0800F550580AD8A4B9EF0CF0BBEF08
:101970000CF00AEF0DF0A6C0D9FFA7C0DAFFDECF4A
:10198000F6FFDDCFF7FF0800F5CFC3F0A6C0D9FF03
:10199000A7C0DAFFDE2A000EDD22A8C0D9FFA9C049
:1019A000DAFFDFCFAAF0020EDE26DFCFABF0000EAB
:1019B000DD22AAC0D9FFABC0DAFFDECFACF0DDCFAD
:1019C000ADF0ACC0AEF0ADC0AFF00001B06BB16B2C
:1019D000B26BB36BB46BB56BA4C01CF0A5C01DF0AB
:1019E000AEC01EF0AFC01FF0B0C020F0B1C021F0FB
:1019F000B2C022F0B3C023F0B4C024F0B5C025F0CB
:101A0000C3C026F018EC15F01CC0A4F01DC0A5F052
:101A10005DEF0DF0A6C0D9FFA7C0DAFFDECFF6FF5D
:101A2000DDCFF7FF0800F550250AD8A41AEF0DF016
:101A30001CEF0DF034EF0DF0A6C0D9FFA7C0DAFF00
:101A4000DE2A000EDD22000E026E250E016EA4C0FD
:101A500003F0A5C004F089EC1DF0000E0001A56F95
:101A6000010EA46F5DEF0DF0A6C0D9FFA7C0DAFF8D
:101A7000DE2A000EDD22000E0001A56F000EA46F0D
:101A80005DEF0DF0A6C0D9FFA7C0DAFFDECFF6FFED
:101A9000DDCFF7FF0800F550016E026AA4C003F025
:101AA000A5C004F089EC1DF0A6C0D9FFA7C0DAFFDD
:101AB000DE2A000EDD222DEF0DF012004850800BC3
:101AC000516E48504824536E47AE69EF0DF06BEFEE
:101AD0000DF06CEF0DF053805350D8B472EF0DF051
:101AE00074EF0DF089EF0DF05328D8A47AEF0DF0C4
:101AF0007CEF0DF084EF0DF0000E456E000E466E8B
:101B0000000E476E000E486E478E000E486E91EF35
:101B10000DF0000E456E000E466E000E476E000E74
:101B2000486E4C50800B526E51505218D8B49BEFF7
:101B30000DF09DEF0DF09EEF0DF0518C4C504C24AC
:101B4000526E4BAEA6EF0DF0A8EF0DF0A9EF0DF021
:101B500052805250D8B4AFEF0DF0B1EF0DF0C6EF98
:101B60000DF05228D8A4B7EF0DF0B9EF0DF0C1EF8A
:101B70000DF0000E496E000E4A6E000E4B6E000E08
:101B80004C6E4B8E000E4C6ECEEF0DF0000E496E7B
:101B9000000E4A6E000E4B6E000E4C6E5350525C9F
:101BA000D8B0D5EF0DF0D7EF0DF0FEEF0DF051AC42
:101BB000DCEF0DF0DEEF0DF0E0EF0DF0800E511ACE
:101BC00053C054F052C053F054C052F045C054F0CA
:101BD00049C045F054C049F046C054F04AC046F0F0
:101BE00054C04AF047C054F04BC047F054C04BF0CB
:101BF00048C054F04CC048F054C04CF0000E546E35
:101C0000535052C04DF04E6A4D5E000E4E5A4EBEBD
:101C100013EF0EF04E5009E11A0E4D5CD8A013EFF1
:101C20000EF015EF0EF04CEF0EF045504610471039
:101C30004810D8A41EEF0EF021EF0EF0010E22EF97
:101C40000EF0000E546E000E456E000E466E000E35
:101C5000476E000E486E52C053F055EF0EF054A080
:101C600034EF0EF036EF0EF03CEF0EF0D89054301B
:101C70000109546E3EEF0EF0D890543245A043EF68
:101C80000EF045EF0EF046EF0EF0548E4834483219
:101C9000473246324532532A5250535CD8A053EF54
:101CA0000EF055EF0EF02FEF0EF051BC5AEF0EF084
:101CB0005CEF0EF09CEF0EF05350D8A462EF0EF0E4
:101CC00064EF0EF06EEF0EF0000E456E000E466EE5
:101CD000000E476E000E486EBDEF0FF049504526CE
:101CE0004A5046224B5047224C50482248A07BEF96
:101CF0000EF07DEF0EF029EF0FF054A082EF0EF002
:101D000084EF0EF08AEF0EF0D89054300109546E33
:101D10008CEF0EF0D890543245A091EF0EF093EF77
:101D20000EF094EF0EF0548E48344832473246326B
:101D30004532532A29EF0FF04950455C4A50465826
:101D40004B5047584850800A4D6E4C50800A4D58B1
:101D5000D8B0ADEF0EF0AFEF0EF0DAEF0EF0455069
:101D6000495C4D6E46504A584E6E47504B584F6E28
:101D700048504C58506EFF0E4D24456EFF0E4E20BD
:101D8000466EFF0E4F20476EFF0E5020486E800EAD
:101D9000511A546C5450D8A4D0EF0EF0D2EF0EF07C
:101DA000E2EF0EF0010E4526000E462247224822A1
:101DB000E2EF0EF04950455E4A50465A4B50475AA2
:101DC0004C50485A4550461047104810D8A4EBEFE5
:101DD0000EF0EDEF0EF022EF0FF05450D8A4F3EF19
:101DE0000EF0F5EF0EF022EF0FF0000E456E000E34
:101DF000466E000E476E000E486EBDEF0FF0D89095
:101E0000453646364736483654AE09EF0FF00BEFED
:101E10000FF00CEF0FF0458054A011EF0FF013EF0F
:101E20000FF017EF0FF0D880543619EF0FF0D8905D
:101E300054365350D8B41FEF0FF021EF0FF022EFBC
:101E40000FF0530647AE27EF0FF029EF0FF0FFEF2B
:101E50000EF0000E526E54AE30EF0FF032EF0FF076
:101E60004AEF0FF054C04DF07F0E4D16D8B43BEF43
:101E70000FF03DEF0FF041EF0FF0010E526E4AEF01
:101E80000FF045A046EF0FF048EF0FF04AEF0FF0CC
:101E90003DEF0FF05250D8B450EF0FF052EF0FF06B
:101EA0007DEF0FF0010E4526000E46224722482204
:101EB00048A05DEF0FF05FEF0FF07DEF0FF045C032
:101EC0004DF046C04EF047C04FF048C050F050347F
:101ED00050324F324E324D324DC045F04EC046F07A
:101EE0004FC047F050C048F05328D8B47AEF0FF0F5
:101EF0007CEF0FF07DEF0FF0532A5328D8B483EF17
:101F00000FF085EF0FF08DEF0FF05350D8A48BEF4B
:101F10000FF08DEF0FF09FEF0FF0000E456E000EEB
:101F2000466E000E476E000E486E5350D8A49BEFCD
:101F30000FF09DEF0FF09FEF0FF0000E516E53A0CA
:101F4000A4EF0FF0A6EF0FF0A9EF0FF0478EAAEF66
:101F50000FF0479ED8905330486E51AEB2EF0FF05D
:101F6000B4EF0FF0B5EF0FF0488E45C045F046C016
:101F700046F047C047F048C048F012001650800BAA
:101F80001F6E16501624256E15AEC9EF0FF0CBEF5D
:101F90000FF0CCEF0FF025802550D8B4D2EF0FF022
:101FA000D4EF0FF0E7EF0FF02528D8A4DAEF0FF009
:101FB000DCEF0FF0E4EF0FF0000E136E000E146E66
:101FC000000E156E000E166E158EEFEF0FF0000E60
:101FD000136E000E146E000E156E000E166E1A5063
:101FE000800B1F1A1A501A24246E19AEFAEF0FF044
:101FF000FCEF0FF0FDEF0FF024802450D8B403EF76
:1020000010F005EF10F018EF10F02428D8A40BEF13
:1020100010F00DEF10F015EF10F0000E176E000E1F
:10202000186E000E196E000E1A6E198E20EF10F049
:10203000000E176E000E186E000E196E000E1A6E4E
:102040002450D8B426EF10F028EF10F030EF10F045
:102050002550D8A42EEF10F030EF10F03AEF10F02A
:10206000000E136E000E146E000E156E000E166E2E
:10207000D2EF11F019501302F3CF2AF0F4CF2BF066
:102080002A50206E216A226A236A2B50266E276A04
:10209000286A296A18501402F3CF2AF0F4CF2BF0E3
:1020A0002A502026000E2122222223222B502626CF
:1020B000000E27222822292217501502F3CF2AF0DA
:1020C000F4CF2BF02A502026000E21222222232298
:1020D0002B502626000E27222822292222C023F058
:1020E00021C022F020C021F0206A17501402F3CF43
:1020F0002AF0F4CF2BF02A5020262B502122000E5C
:102100002222000E232218501302F3CF2AF0F4CF1C
:102110002BF02A5020262B502122000E2222000EC6
:10212000232222C023F021C022F020C021F0206A07
:1021300017501302F3CF2AF0F4CF2BF02A502026A9
:102140002B502122000E2222000E232219501402AD
:10215000F3CF2AF0F4CF2BF02A5026262B5027223B
:10216000000E2822000E292218501502F3CF2AF063
:10217000F4CF2BF02A5026262B502722000E28229F
:10218000000E292219501502F3CF2AF0F4CF2BF0BC
:102190002A501B6E2B501C6E1D6A1E6A1DC01EF03D
:1021A0001CC01DF01BC01CF01B6A1B5026261C50B7
:1021B00027221D5028221E50292220C01BF021C09A
:1021C0001CF022C01DF023C01EF0190EEDEF10F020
:1021D000D8901E321D321C321B32E82EE8EF10F070
:1021E0001B5026261C5027221D5028221E50292213
:1021F00022C023F021C022F020C021F0206A245008
:1022000025C01BF01C6A1B26000E1C22820E1B24FC
:102210002A6EFF0E1C202B6E23EF11F0D89026366D
:1022200027362836293623AE18EF11F01AEF11F0B1
:102230001BEF11F02680D890203621362236233627
:102240002A06D8A02B0628AE28EF11F02AEF11F0AD
:102250000EEF11F0000E246E23AE31EF11F033EFCC
:1022600011F057EF11F0FF0E20141B6EFF0E21141A
:102270001C6EFF0E22141D6E7F0E23141E6E1B504B
:102280001C101D101E10D8B448EF11F04AEF11F0C9
:102290004EEF11F0010E246E57EF11F026A053EF10
:1022A00011F055EF11F057EF11F04AEF11F02450F3
:1022B000D8B45DEF11F05FEF11F083EF11F0010E74
:1022C0002626000E27222822292229A06AEF11F0B3
:1022D0006CEF11F083EF11F026C01BF027C01CF04B
:1022E00028C01DF029C01EF01E341E321D321C32C3
:1022F0001B321BC026F01CC027F01DC028F01EC0DA
:1023000029F02A4A2B2A2BBE8EEF11F02B5008E120
:102310002A28D8A08EEF11F090EF11F09AEF11F06B
:10232000000E266E000E276E800E286E7F0E296E20
:10233000C8EF11F02BBEA7EF11F02B5006E12A04D5
:10234000D8B0A5EF11F0A7EF11F0B3EF11F0000E28
:10235000266E000E276E000E286E000E296E000EEF
:102360001F6EC8EF11F02AC025F0FF0E2616FF0ED3
:1023700027167F0E2816000E291625A0C2EF11F091
:10238000C4EF11F0C5EF11F0288ED8902530296EDA
:102390001F50291226C013F027C014F028C015F0D2
:1023A00029C016F012002F50800B3C6E2F502F24A6
:1023B000436E2EAEDEEF11F0E0EF11F0E1EF11F021
:1023C00043804350D8B4E7EF11F0E9EF11F0FEEF8E
:1023D00011F04328D8A4EFEF11F0F1EF11F0F9EF6D
:1023E00011F0000E2C6E000E2D6E000E2E6E000EE3
:1023F0002F6E2E8E000E2F6E06EF12F0000E2C6E3A
:10240000000E2D6E000E2E6E000E2F6E3350800BC0
:102410003C1A33503324446E32AE11EF12F013EFF6
:1024200012F014EF12F044804450D8B41AEF12F0B6
:102430001CEF12F031EF12F04428D8A422EF12F072
:1024400024EF12F02CEF12F0000E306E000E316E01
:10245000000E326E000E336E328E000E336E39EF88
:1024600012F0000E306E000E316E000E326E000E55
:10247000336E3050311032103310D8A442EF12F0C6
:1024800044EF12F05CEF12F0000E2C6E000E2D6E79
:10249000000E2E6E000E2F6E800E2E127F0E2F124B
:1024A0003C502F122CC02CF02DC02DF02EC02EF041
:1024B0002FC02FF09FEF13F04350D8A462EF12F01B
:1024C00064EF12F06EEF12F0000E2C6E000E2D6E07
:1024D000000E2E6E000E2F6E9FEF13F0445043C07F
:1024E00034F0356A345E000E355A7F0E34243D6E6A
:1024F000000E35203E6E2CC038F02DC039F02EC0B5
:102500003AF02FC03BF0000E2C6E000E2D6E000E28
:102510002E6E000E2F6E000E3F6E000E406E000EEF
:10252000416E000E426E000E446ECFEF12F044502A
:10253000D8B49DEF12F09FEF12F0B6EF12F0D890E2
:10254000383639363A363B36D8902C362D362E363C
:102550002F3642AEAEEF12F0B0EF12F0B1EF12F044
:102560002C80D8903F364036413642363050385C69
:102570003150395832503A5833503B58D8A0C3EFF5
:1025800012F0C5EF12F0CEEF12F0428C3050385EF0
:102590003150395A32503A5A33503B5A442A190E64
:1025A0004464D5EF12F0D7EF12F097EF12F03850E5
:1025B00039103A103B10D8B4E0EF12F0E2EF12F00D
:1025C000FAEF12F03F80FAEF12F0D8902C362D3649
:1025D0002E362F3642AEEFEF12F0F1EF12F0F2EF9F
:1025E00012F02C80D8903F364036413642363D06B8
:1025F000D8A03E062EAEFFEF12F001EF13F0E5EF8C
:1026000012F0000E446E42AE08EF13F00AEF13F022
:102610002EEF13F0FF0E3F14346EFF0E4014356E94
:10262000FF0E4114366E7F0E4214376E3450351053
:1026300036103710D8B41FEF13F021EF13F025EF49
:1026400013F0010E446E2EEF13F02CA02AEF13F0BE
:102650002CEF13F02EEF13F021EF13F04450D8B409
:1026600034EF13F036EF13F05AEF13F0010E2C266F
:10267000000E2D222E222F222FA041EF13F043EF28
:1026800013F05AEF13F02CC034F02DC035F02EC0EB
:1026900036F02FC037F037343732363235323432F5
:1026A00034C02CF035C02DF036C02EF037C02FF0DE
:1026B0003D4A3E2A3EBE65EF13F03E5008E13D28FC
:1026C000D8A065EF13F067EF13F072EF13F0000E70
:1026D0003E6E3D68000E2C6E000E2D6E000E2E6EAE
:1026E000000E2F6E3EBE7FEF13F03E5006E13D041C
:1026F000D8B07DEF13F07FEF13F08DEF13F0000EE5
:102700003E6E000E3D6E000E2C6E000E2D6E000E05
:102710002E6E000E2F6E000E3C6E3DC043F043A0A7
:1027200094EF13F096EF13F099EF13F02E8E9AEFCB
:1027300013F02E9ED89043302F6E50EF12F01200FF
:10274000050E0101B56F21EECEF011EE72F0060E0E
:10275000DBCFE3FFE806FCE2720ED36E52EC25F00D
:10276000E8EC24F088EC25F0000E026E0A0E016EF3
:1027700001EC23F0000E4AEC23F0010108ADC3EF99
:1027800013F0C5EF13F029EF14F008ABCAEF13F004
:10279000CCEF13F0D7EF13F00E0E0B6E520E0C6E43
:1027A000080E0D6E010EB2EC23F0E0EF13F00E0EEA
:1027B0000B6E4F0E0C6E080E0D6E010EB2EC23F078
:1027C0001F0E01010815086F096B970E0001CC6FF1
:1027D000010ECD6F240ECE6F080ECF6F0CC1D0F05E
:1027E0000DC1D1F03BEC22F0A10E0001CC6F010E27
:1027F000CD6F2C0ECE6F080ECF6F0AC1D0F00BC17B
:10280000D1F03BEC22F0AB0E0001CC6F010ECD6F8E
:102810002C0ECE6F080ECF6F08C1D0F009C1D1F0D9
:102820003BEC22F0040E0B6EAB0E0C6E010E0D6E27
:10283000000EB2EC23F0A10E096E010E0A6E57ECE9
:1028400021F0970E096E010E0A6E57EC21F065EF2C
:1028500014F03F0E0815086F096B970E0001CC6F3E
:10286000010ECD6F240ECE6F080ECF6F0CC1D0F0CD
:102870000DC1D1F03BEC22F0A10E0001CC6F010E96
:10288000CD6F2C0ECE6F080ECF6F0AC1D0F00BC1EA
:10289000D1F03BEC22F0AB0E0001CC6F010ECD6FFE
:1028A0002C0ECE6F080ECF6F08C1D0F009C1D1F049
:1028B0003BEC22F0040E0B6EAB0E0C6E010E0D6E97
:1028C000000EB2EC23F01BEF14F0030EE1EC21F04C
:1028D0006AEC25F0790E0001CC6F010ECD6F280E49
:1028E000CE6F080ECF6F04C1D0F005C1D1F03BEC24
:1028F00022F0830E0001CC6F010ECD6F280ECE6F3B
:10290000080ECF6F02C1D0F003C1D1F03BEC22F032
:102910008D0E0001CC6F010ECD6F240ECE6F080E10
:10292000CF6F00C1D0F001C1D1F03BEC22F0020E1C
:102930000B6E790E0C6E010E0D6E020EB2EC23F0D2
:10294000830E096E010E0A6E57EC21F08D0E096E92
:10295000010E0A6E57EC21F0E6EF14F0400E096EFE
:10296000080E0A6E57EC21F017EF15F03C0E096EB9
:10297000080E0A6E57EC21F017EF15F0340E096EB1
:10298000080E0A6E57EC21F017EF15F0300E096EA5
:10299000080E0A6E57EC21F017EF15F0480E096E7D
:1029A000080E0A6E57EC21F017EF15F0380E096E7D
:1029B000080E0A6E57EC21F017EF15F0440E096E61
:1029C000080E0A6E57EC21F017EF15F0720E010198
:1029D0000625D96E010E0721DA6EDF500001DC6F8B
:1029E000DD6BDD51000AD8B4F8EF14F017EF15F0E5
:1029F000DC51460AD8B4D6EF14F00B0AD8B4B6EFBF
:102A000014F01E0AD8B4AEEF14F0070AD8B4BEEF23
:102A100014F0030AD8B4C6EF14F0240AD8B4DEEFD9
:102A200014F0070AD8B4CEEF14F017EF15F0120027
:102A30000001F7BF1EEF15F020EF15F021EF15F0A4
:102A4000F893F7BF2EEF15F0F75106E1F605D8B071
:102A50002CEF15F02EEF15F034EF15F0000E346E5C
:102A6000010E336E38EF15F0F6C033F0F7C034F0D6
:102A7000F4C035F0F5C036F0F8A941EF15F043EF9A
:102A800015F047EF15F0FE0E3526FF0E36221EC05C
:102A900037F01FC038F020C039F021C03AF022C012
:102AA0003BF023C03CF024C03DF025C03EF0000EBA
:102AB000406E4F0E3F6E000E01015D6F13EF16F07A
:102AC0003F06D8A040060F0E3714416E426A42BE40
:102AD00073EF15F0425009E10A0E415CD8A073EF84
:102AE00015F075EF15F07DEF15F0570E4124416E8E
:102AF000000E4220426E83EF15F0300E4124416EED
:102B0000000E4220426EBF0E276EFF0E286E26502A
:102B1000296E2A6A2750292628502A222A500AE19B
:102B20001A0E295CD8A097EF15F09AEF15F0010E58
:102B30009BEF15F0000E2F6E306A2F503010D8B476
:102B4000A4EF15F0A6EF15F0D6EF15F09F0E276E47
:102B5000FF0E286E200E4110296E000E42102A6EC4
:102B60002750292628502A222A500AE11A0E295CC9
:102B7000D8A0BDEF15F0C0EF15F0010EC1EF15F0B4
:102B8000000E316E326A31503210D8B4CAEF15F0EF
:102B9000CCEF15F0D6EF15F041C007F042C008F0B9
:102BA00028EC21F007C041F008C042F00E0E3F248F
:102BB000D96E010E4020DA6E41C0DFFF3306D8A087
:102BC00034063506D8A0360637C027F038C028F0BE
:102BD00039C029F03AC02AF03BC02BF03CC02CF0A1
:102BE0003DC02DF03EC02EF0050E00EF16F0D8903F
:102BF0002E322D322C322B322A32293228322732F1
:102C0000E82EF7EF15F027C037F028C038F029C0BC
:102C100039F02AC03AF02BC03BF02CC03CF02DC05C
:102C20003DF02EC03EF040BE1FEF16F0405009E1CF
:102C3000020E3F5CD8A01FEF16F021EF16F052EF06
:102C400016F03750381039103A103B103C103D1038
:102C50003E10D8A42EEF16F030EF16F060EF15F00E
:102C600034BE3DEF16F0345006E13304D8B03BEFEC
:102C700016F03DEF16F060EF15F036BE48EF16F097
:102C8000365008E13504D8A048EF16F04AEF16F0A8
:102C900052EF16F00001F8B350EF16F052EF16F0B5
:102CA00060EF15F00001F8A958EF16F05AEF16F092
:102CB00070EF16F03F06D8A040060E0E3F24D96EE6
:102CC000010E4020DA6E26C0DFFF3F06D8A0400686
:102CD0000E0E3F24D96E010E4020DA6E300EDF6EEC
:102CE0001CC011F01DC012F00E0E3F24136E010E19
:102CF0004020146E35C015F036C016F0EEEC1DF015
:102D000011C01CF012C01DF0120020EC1CF00001DC
:102D100060C068F061C069F06A6B6B6B68C005F0F9
:102D200069C006F06AC007F06BC008F0000ECDEC79
:102D300018F005C0EEF006C0EFF007C0F0F008C0D4
:102D4000F1F064EC20F001C005F002C006F0076A63
:102D5000086A000ECDEC18F005C0EAF006C0EBF0F2
:102D600007C0ECF008C0EDF0000E2C6E000E2D6ECA
:102D7000700E2E6E410E2F6EEEC030F0EFC031F0AF
:102D8000F0C032F0F1C033F09EEC1BF0D8B0CBEFC6
:102D900016F0CDEF16F008EF17F0000E2C6E000EB7
:102DA0002D6E000E2E6E000E2F6EEAC030F0EBC0BE
:102DB00031F0ECC032F0EDC033F09EEC1BF0D8B037
:102DC000E4EF16F0E6EF16F008EF17F0EAC02CF08B
:102DD000EBC02DF0ECC02EF0EDC02FF0000E306EE9
:102DE000000E316EC80E326E430E336E9EEC1BF039
:102DF000D8B0FDEF16F0FFEF16F008EF17F0000E59
:102E00000001676F010E666FC3EF17F0C3EF17F095
:102E1000EEC02CF0EFC02DF0F0C02EF0F1C02FF07E
:102E2000000E306E000E316E400E326E410E336E6B
:102E30009EEC1BF0D8A01FEF17F021EF17F073EFF7
:102E400017F0000E2C6E000E2D6E700E2E6E410EC1
:102E50002F6EEEC030F0EFC031F0F0C032F0F1C0B4
:102E600033F09EEC1BF0D8A038EF17F03AEF17F0D4
:102E700073EF17F0000E2C6E000E2D6EC80E2E6E26
:102E8000430E2F6EEAC030F0EBC031F0ECC032F0F0
:102E9000EDC033F09EEC1BF0D8B051EF17F053EFBC
:102EA00017F073EF17F0EAC02CF0EBC02DF0ECC078
:102EB0002EF0EDC02FF0000E306E000E316E2F0E92
:102EC000326E440E336E9EEC1BF0D8B06AEF17F0F2
:102ED0006CEF17F073EF17F0000E0001676F020E32
:102EE000666FC3EF17F0EEC02CF0EFC02DF0F0C00E
:102EF0002EF0F1C02FF0000E306E000E316E400E3D
:102F0000326E410E336E9EEC1BF0D8B08AEF17F094
:102F10008CEF17F006EF17F0000E2C6E000E2D6EE2
:102F20002F0E2E6E440E2F6EEAC030F0EBC031F043
:102F3000ECC032F0EDC033F09EEC1BF0D8B0A3EF44
:102F400017F0A5EF17F006EF17F0EAC02CF0EBC072
:102F50002DF0ECC02EF0EDC02FF0000E306E800E84
:102F6000316EBB0E326E440E336E9EEC1BF0D8B049
:102F7000BCEF17F0BEEF17F006EF17F0000E0001E0
:102F8000676F030E666F1200E2C055F0E3C056F0A3
:102F9000E4C057F0E5C058F045C055F046C056F0C3
:102FA00047C057F048C058F0810E496EFF0E4A6E78
:102FB00055C04BF056C04CF057C04DF058C04EF0C5
:102FC000180EE8EF17F0D8904E324D324C324B329B
:102FD000E82EE3EF17F04B504924536E000E4A20C1
:102FE000546E54BEFDEF17F0545009E1170E535CB8
:102FF000D8A0FDEF17F0FFEF17F009EF18F045C06C
:1030000045F046C046F047C047F048C048F0CCEF16
:1030100018F054BE0EEF18F010EF18F080EF18F013
:1030200053C049F0FF0E4A6EFF0E4B6E7F0E4C6E82
:10303000000E4D6E49661FEF18F027EF18F04D3463
:103040004D324C324B324A32492E1AEF18F04AC0F8
:103050004FF04BC050F04CC051F04DC052F04F50AB
:103060005514496E505056144A6E515057144B6EB9
:10307000525058144C6E49504A104B104C10D8A462
:1030800044EF18F046EF18F048EF18F0FFEF17F094
:1030900055C049F056C04AF057C04BF058C04CF0EC
:1030A000200E58EF18F0D8904C324B324A32493249
:1030B000E82E53EF18F049504A104B104C10D8B47A
:1030C00064EF18F066EF18F06EEF18F04F505526C9
:1030D0005050562251505722525058224F1C496E80
:1030E000501C4A6E511C4B6E521C4C6E495055166A
:1030F0004A5056164B5057164C505816C4EF18F0FD
:1031000055C049F056C04AF057C04BF058C04CF07B
:10311000200E90EF18F0D8904C324B324A324932A0
:10312000E82E8BEF18F049504A104B104C10D8A4E1
:103130009CEF18F09EEF18F0A8EF18F0000E556EF7
:10314000000E566E000E576E000E586EC4EF18F04B
:10315000D8905534496E56344A6E57344B6E5834B5
:103160004C6E49504A104B104C10D8B4BAEF18F0BE
:10317000BCEF18F0C4EF18F0000E556E000E566E3E
:10318000800E576EBF0E586E55C045F056C046F0C3
:1031900057C047F058C048F012000D6E0D50D8B41B
:1031A000D4EF18F0D6EF18F0F8EF18F008BEDDEF06
:1031B00018F0DBEF18F0F8EF18F005C009F006C0C2
:1031C0000AF007C00BF008C00CF0091E0A1E0B1E07
:1031D0000C1E092A000E0A220B220C2209C00FF035
:1031E0000AC010F00BC011F00CC012F000EF19F083
:1031F00005C00FF006C010F007C011F008C012F0B3
:103200000550061007100810D8A409EF19F00BEFAD
:1032100019F015EF19F0000E056E000E066E000E87
:10322000076E000E086EA6EF19F0960E0E6E1FEFD9
:1032300019F00E2AD8901232113210320F32000ECD
:103240000F14096E000E10140A6E000E11140B6E8E
:10325000FE0E12140C6E09500A100B100C10D8A49C
:1032600034EF19F036EF19F019EF19F044EF19F0B7
:103270000E2A010E0F26000E102211221222D890C3
:103280001232113210320F32000E0F14096E000E7E
:1032900010140A6E000E11140B6EFF0E12140C6E39
:1032A00009500A100B100C10D8A459EF19F05BEF5D
:1032B00019F038EF19F063EF19F00E06D8900F36B9
:1032C00010361136123611BE68EF19F06AEF19F098
:1032D00072EF19F0020E0E6070EF19F072EF19F034
:1032E0005DEF19F00EB077EF19F079EF19F07AEF82
:1032F00019F0119ED8900E320EC009F00A6A0B6ABE
:103300000C6A09C00CF00B6A0A6A096A09500F12AC
:103310000A5010120B5011120C5012120D50D8B44A
:1033200094EF19F096EF19F09EEF19F008BE9DEF9B
:1033300019F09BEF19F09EEF19F0128E0FC005F0F7
:1033400010C006F011C007F012C008F01200000E05
:10335000166E000E156E000E0F6E000E0E6EB3EFA1
:1033600019F0084A092A010E146E08C0F6FF09C0B8
:10337000F7FF0800F550200AD8B4C1EF19F0C3EFE9
:1033800019F0E0EF19F0F70E0A6EFF0E0B6E08C091
:10339000F6FF09C0F7FF0800F5500C6E0D6A0A50E1
:1033A0000C260B500D220D5009E1050E0C5CD8A027
:1033B000DCEF19F0DEEF19F0E0EF19F0000E146EFB
:1033C00014C010F0116A10501110D8A4EAEF19F0CF
:1033D000ECEF19F0B1EF19F0F6EF19F0000E0F6EE7
:1033E000010E0E6E084A092A2BEF1AF008C0F6FFEC
:1033F00009C0F7FF0800F5500A6E0B6A0B50000A6F
:10340000D8B405EF1AF02BEF1AF00A502B0AD8B4F3
:10341000F2EF19F0060AD8B4EEEF19F02BEF1AF01C
:1034200015C001F016C002F0000E046E0A0E036E05
:103430002EEC25F008C0F6FF09C0F7FF0800F55094
:10344000015E000E025A300E0124156E000E02209D
:10345000166EF2EF19F0D00E0A6EFF0E0B6E08C05A
:10346000F6FF09C0F7FF0800F5500C6E0D6A0A5010
:103470000C260B500D220D500AE10A0E0C5CD8A050
:1034800044EF1AF047EF1AF0010E48EF1AF0000E61
:10349000126E136A12501310D8A451EF1AF053EFA2
:1034A0001AF010EF1AF00E500F10D8A45AEF1AF0BD
:1034B0005CEF1AF06AEF1AF015C00AF016C00BF0B4
:1034C0000A1E0B1E0A4A0B2A0AC008F00BC009F09C
:1034D0006EEF1AF015C008F016C009F01200000EC9
:1034E000076E040E066E000E096E040E086E000EC6
:1034F0000B6E960E0A6EB3EC1EF0820E136EDE0E8D
:10350000E82EFED7132EFCD7000E076E040E066EB3
:10351000000E096E040E086E000E0B6E960E0A6EFB
:10352000B3EC1EF0020E146E860E136E990EE82E8A
:10353000FED7132EFCD7142EFAD700F0000E076E1C
:10354000040E066E000E096E040E086E000E0B6E61
:10355000960E0A6EB3EC1EF0030E146E080E136E78
:10356000770EE82EFED7132EFCD7142EFAD700F0D4
:10357000000E076E000E066E000E096E040E086E39
:10358000000E0B6E7D0E0A6EB3EC1EF0820E136EF3
:10359000DE0EE82EFED7132EFCD7000E076E040EAB
:1035A000066E000E096E040E086E000E0B6E7D0E88
:1035B0000A6EB3EC1EF0020E146E860E136E990E98
:1035C000E82EFED7132EFCD7142EFAD700F0000EEB
:1035D000076E070E066E000E096E040E086E000ED2
:1035E0000B6EC80E0A6EB3EC1EF0050E146E0F0EB5
:1035F000136EF10EE82EFED7132EFCD7142EFAD739
:1036000000F0000E076E070E066E000E096E030E28
:10361000086E010E0B6E5E0E0A6EB3EC1EF0040E09
:10362000146E0C0E136E340EE82EFED7132EFCD73C
:10363000142EFAD71200573458345E6E5E50D8A458
:1036400024EF1BF026EF1BF030EF1BF0000E556E41
:10365000000E566E000E576E000E586E9DEF1BF05A
:1036600055C059F056C05AF057C05BF058C05CF0D6
:10367000200E40EF1BF0D8905C325B325A32593248
:10368000E82E3BEF1BF059505D6E578EFF0E55161E
:10369000FF0E5616FF0E5716000E5816960E5E5E5B
:1036A0005EBE57EF1BF055EF1BF06DEF1BF05E5049
:1036B000800A970FD8B05FEF1BF061EF1BF063EF4C
:1036C0001BF026EF1BF0D890583257325632553245
:1036D0005E3E63EF1BF085EF1BF01F0E5E6473EF21
:1036E0001BF075EF1BF07DEF1BF026EF1BF0D89061
:1036F00055365636573658365E065E50D8A483EF98
:103700001BF085EF1BF077EF1BF05D50D8B48BEF0B
:103710001BF08DEF1BF095EF1BF0581E571E561E29
:10372000556C000E56225722582255C055F056C0EF
:1037300056F057C057F058C058F01200000E2C1425
:10374000346E000E2D14356E800E2E14366E7F0EE4
:103750002F14376E3450351036103710D8A4B3EF0D
:103760001BF0B5EF1BF0BDEF1BF0000E2C6E000E32
:103770002D6E000E2E6E000E2F6E000E3014346E65
:10378000000E3114356E800E3214366E7F0E3314F7
:10379000376E3450351036103710D8A4D2EF1BF0E6
:1037A000D4EF1BF0DCEF1BF0000E306E000E316E1C
:1037B000000E326E000E336E2FAEE1EF1BF0E3EF22
:1037C0001BF0ECEF1BF02C6C2D1ED8B02D2A2E1EFA
:1037D000D8B02E2A800E2F5633AEF1EF1BF0F3EF48
:1037E0001BF0FCEF1BF0306C311ED8B0312A321EBA
:1037F000D8B0322A800E3356000E2C1A000E2D1A25
:10380000000E2E1A800E2F1A000E301A000E311ADA
:10381000000E321A800E331A30502C5C31502D5865
:1038200032502E5833502F58D8B019EF1CF01BEFE0
:103830001CF01EEF1CF0D8901FEF1CF0D880120077
:10384000000E956E9268700ED312D350FC0B0209D5
:10385000D36EC150F00B0E09C16ECF0EC116C30E50
:10386000C216C050C70B1009C06EC050F80B01093A
:10387000C06EC08EC280C282C2B241EF1CF043EF64
:103880001CF03CEF1CF0C4CF64F00001656B645188
:10389000626FC350646F62C065F0000E496E000E27
:1038A0004A6E460E4B6EC20E4C6E000E306EC00E4F
:1038B000316E7F0E326E440E336E000E176E000EA8
:1038C000186EFA0E196E430E1A6E64C005F065C0CC
:1038D00006F0076A086A000ECDEC18F005C013F078
:1038E00006C014F007C015F008C016F0BEEC0FF0CB
:1038F00013C02CF014C02DF015C02EF016C02FF000
:10390000D3EC11F02CC045F02DC046F02EC047F08E
:103910002FC048F05EEC0DF045C055F046C056F0A3
:1039200047C057F048C058F01BEC1BF055C064F07E
:1039300056C065F064C060F065C061F01200E6C07A
:103940000BF0E7C00CF0E8C00DF0E9C00EF001C0CC
:103950000BF002C00CF003C00DF004C00EF00BC061
:1039600005F00CC006F00DC007F00EC008F0180EF0
:10397000BFEF1CF0D8900832073206320532E82E2D
:10398000BAEF1CF00550096E0A6A09500A10D8A453
:10399000CCEF1CF0CEEF1CF0EEEF1CF0D8900B3407
:1039A000056E0C34066E0D34076E0E34086E05502D
:1039B000061007100810D8A4E0EF1CF0E2EF1CF08E
:1039C000E8EF1CF0000E026E020E016E1DEF1DF0FE
:1039D000000E026E030E016E1DEF1DF009280A1085
:1039E000D8A4F5EF1CF0F7EF1CF019EF1DF00BC099
:1039F00005F00CC006F00DC007F00EC008F0090E6F
:103A0000D8900536063607360836E82E00EF1DF04A
:103A10000550061007100810D8B411EF1DF014EF70
:103A20001DF0010E15EF1DF0000E016E026A1DEF74
:103A30001DF0000E026E040E016E120001C008F0AF
:103A400002C009F003C00AF004C00BF00506D8A0BC
:103A50000606052806E10628D8A431EF1DF033EF4D
:103A60001DF040EF1DF0000E026E000E016E88EF9B
:103A70001DF0084A092A0A4A0B2A0506D8A006069C
:103A800008C0D9FF09C0DAFFDF50D8B44AEF1DF0F3
:103A90004CEF1DF077EF1DF00AC0F6FF0BC0F7FFEB
:103AA0000800F5500009D8B458EF1DF05AEF1DF08A
:103AB00077EF1DF005500610D8B461EF1DF063EFED
:103AC0001DF077EF1DF008C0D9FF09C0DAFFDF5005
:103AD000076E0AC0F6FF0BC0F7FF0800F550071885
:103AE000D8B475EF1DF077EF1DF039EF1DF008C069
:103AF000D9FF09C0DAFFDF50076E0AC0F6FF0BC01E
:103B0000F7FF0800F550075C016E026AD8A00206B4
:103B1000120003500410D8B490EF1DF092EF1DF086
:103B20009BEF1DF003500410D8A499EF1DF09BEFFC
:103B30001DF0A0EF1DF00150A4EC25F0EDEF1DF0FD
:103B400020EE04F00350D9260450DA22DE50DE10B5
:103B5000D8B4ADEF1DF0AFEF1DF0CAEF1DF020EEB1
:103B600004F00350D9260450DA2210EE02F003507C
:103B7000E1260450E222DE50E65CE650800A096E3F
:103B8000DE50800A0958D8B0C8EF1DF0CAEF1DF00A
:103B9000EDEF1DF020EE02F00350D9260450DA229A
:103BA000DECF05F0DDCF06F003C0D9FF04C0DAFF99
:103BB000DECF07F0DDCF08F005500724D96E0650A0
:103BC0000820DA6E01C0DFFF20EE02F00350D92694
:103BD0000450DA22DE2A000EDD2212000001F8A1D4
:103BE000F4EF1DF0F6EF1DF000EF1EF013C00AF029
:103BF00014C00BF011C00CF012C00DF090EC23F0CB
:103C000016BE05EF1EF007EF1EF00DEF1EF015C0FB
:103C10001AF016C01BF011EF1EF0000E1B6E000E06
:103C20001A6E000E196E000E186E23EF1EF0000EB5
:103C3000026E200E016E11C003F012C004F089EC78
:103C40001DF0184A192A1A50185C1950800A176E6C
:103C50001B50800A1758D8A030EF1EF032EF1EF02C
:103C600017EF1EF00001F8B138EF1EF03AEF1EF02A
:103C700044EF1EF013C00AF014C00BF011C00CF09A
:103C800012C00DF090EC23F013C001F014C002F04C
:103C900099EC24F01A500124116E1B500220126E70
:103CA0001200000E066E04BE5AEF1EF058EF1EF012
:103CB00060EF1EF0036C041ED8B0042A010E066EDD
:103CC00002BE67EF1EF065EF1EF06DEF1EF0016C97
:103CD000021ED8B0022A010E061A000E086E000E4F
:103CE000076E03500410D8B478EF1EF07AEF1EF080
:103CF000A2EF1EF0010E056E82EF1EF0D890033683
:103D00000436052A04AE87EF1EF089EF1EF07EEF21
:103D10001EF0D890073608360350015C0450025854
:103D2000D8A095EF1EF097EF1EF09CEF1EF0035009
:103D3000015E0450025A0780D89004320332052EE7
:103D400089EF1EF00650D8B4A8EF1EF0AAEF1EF0BF
:103D5000AEEF1EF0076C081ED8B0082A07C001F0AD
:103D600008C002F01200000E0E6E000E0D6E000E66
:103D7000106E000E0F6ED8900634D96E0734DA6ECE
:103D8000B60ED926010EDA22DECF11F0DDCF12F009
:103D900008280C6ECFEF1EF01234123211320C2EA6
:103DA000CCEF1EF094928B8211C001F012C002F091
:103DB000CFEC24F011500F26125010228B9211C01C
:103DC00001F012C002F0CFEC24F011500F26125077
:103DD0001022190E0F26000E1022F7EF1EF0180EFB
:103DE0000F26FC0E10220D4A0E2AE9EF1EF010BE1F
:103DF00005EF1FF0E80E0F5C030E1058D8B003EF6C
:103E00001FF005EF1FF0EFEF1EF00A500D5C0E5093
:103E1000800A0C6E0B50800A0C58D8A012EF1FF0CD
:103E200014EF1FF0D2EF1EF01200720ED36E000ED0
:103E3000966E52EC25F0800E0001606F250E616FCA
:103E4000000E626F000E636F1AEC20F0E8EC24F0B5
:103E5000A0EC13F085EC16F066C0E0F067C0E1F06E
:103E600042EF1FF0F9EC20F061EF1FF00EEC22F0B2
:103E700061EF1FF0B4EC21F061EF1FF09BEC25F037
:103E800061EF1FF0E0C0DEF0E1C0DFF00001DF51C4
:103E9000000AD8B44EEF1FF061EF1FF0DE51010AA7
:103EA000D8B432EF1FF0030AD8B436EF1FF0010A7E
:103EB000D8B43AEF1FF0070AD8B43EEF1FF061EF15
:103EC0001FF00B0E026EB80E016E01EC23F088ECB1
:103ED00025F028EF1FF000EF00F0000E066E02BE86
:103EE00076EF1FF074EF1FF07CEF1FF0016C021EE5
:103EF000D8B0022A010E066E04BE83EF1FF081EFD8
:103F00001FF087EF1FF0036C041ED8B0042A035083
:103F10000410D8B48EEF1FF090EF1FF0B4EF1FF035
:103F2000010E056E98EF1FF0D89003360436052A6F
:103F300004AE9DEF1FF09FEF1FF094EF1FF00350B2
:103F4000015C04500258D8A0A8EF1FF0AAEF1FF0A0
:103F5000AEEF1FF00350015E0450025AD8900432B5
:103F60000332052E9FEF1FF00650D8B4BAEF1FF0B2
:103F7000BCEF1FF0C0EF1FF0016C021ED8B0022A88
:103F800001C001F002C002F01200000E0114096E1F
:103F9000000E02140A6E800E03140B6E7F0E0414C2
:103FA0000C6E09500A100B100C10D8A4DAEF1FF099
:103FB000DCEF1FF0E4EF1FF0000E016E000E026E4A
:103FC000000E036E000E046E000E0514096E000E46
:103FD00006140A6E800E07140B6E7F0E08140C6E0A
:103FE00009500A100B100C10D8A4F9EF1FF0FBEFCA
:103FF0001FF003EF20F0000E056E000E066E000E9F
:10400000076E000E086E055001180FE106500218E9
:104010000CE10750031809E108500418D8B413EF55
:1040200020F015EF20F018EF20F0D89019EF20F0D5
:10403000D8801200949C948E60C005F061C006F098
:1040400062C007F063C008F0010ECDEC18F005C0A7
:1040500030F006C031F007C032F008C033F0000E77
:104060002C6E240E2D6EF40E2E6E470E2F6ED3EC9A
:1040700011F02CC045F02DC046F02EC047F02FC0E7
:1040800048F0000E496E000E4A6E800E4B6EBF0E59
:104090004C6E5EEC0DF045C064F046C065F047C064
:1040A00066F048C067F064C055F065C056F066C061
:1040B00057F067C058F01BEC1BF05550AF6E200E48
:1040C000AC6E900EAB6E1200000E956E9268700E84
:1040D000D312D350FC0B0209D36EC150F00B0D0963
:1040E000C16ECF0EC116C250C30B0409C26EC050C0
:1040F000C70B1009C06EC050F80B0109C06EC08E0E
:10410000C280C282C2B287EF20F089EF20F082EF36
:1041100020F0C4CFFAF00001FB6BFA51036EC350DC
:10412000FA6F03C0FBF0FAC001F0FBC002F012000E
:10413000C6C0CAF0C7C0CBF0000E0001F36F000E7E
:10414000F26FB6EF20F0C4C0A4F0C5C0A5F0CA0E4F
:10415000A66F000EA76FC8C0A8F0C9C0A9F057ECA1
:104160000AF00001A451F227A551F323CAC0F6FFBB
:10417000CBC0F7FF0800F5500009D8A4C2EF20F02B
:10418000C4EF20F0A3EF20F0F2C0C4F0F3C0C5F0FC
:104190001200BF0E096EFF0E0A6E07C00BF008C0BA
:1041A0000CF009500B260A500C220C500AE11A0E92
:1041B0000B5CD8A0DEEF20F0E1EF20F0010EE2EF83
:1041C00020F0000E0D6E0E6A0D500E10D8B4EBEFFD
:1041D00020F0EDEF20F0F4EF20F0200E0710076E36
:1041E0000850086EF8EF20F007C007F008C008F08C
:1041F00012008D908D928D945E0E0001CC6F010E99
:10420000CD6F0D0ECE6F080ECF6FEEC0D0F0EFC0A9
:10421000D1F0F0C0D2F0F1C0D3F03BEC22F0000EB0
:104220000B6E5E0E0C6E010E0D6E010EB2EC23F0E5
:10423000DD0E096E010E0A6E000E26EC23F0C00E94
:10424000B5EC22F0000EDBEC22F06FEC1AF012005D
:104250009F0E096EFF0E0A6E07C00BF008C00CF02F
:1042600009500B260A500C220C500AE11A0E0B5C66
:10427000D8A03DEF21F040EF21F0010E41EF21F0F9
:10428000000E0D6E0E6A0D500E10D8B44AEF21F0DC
:104290004CEF21F052EF21F05F0E0714076E086A11
:1042A00056EF21F007C007F008C008F012006DEFCC
:1042B00021F009C0F6FF0AC0F7FFF86A070EF7649D
:1042C00003D00800F55005D0F6CFE1FFF7CFE2FFAD
:1042D000E750DBEC22F0094A0A2A09C0F6FF0AC0BF
:1042E000F7FFF86A070EF76403D00800F55005D011
:1042F000F6CFE1FFF7CFE2FFE7500009D8A483EF44
:1043000021F085EF21F059EF21F0120003C007F0F2
:1043100004C008F001C009F002C00AF00750056EA1
:104320000850066E074A082A05C0F6FF06C0F7FFC8
:10433000F86A09C0D9FF0AC0DAFF094A0A2A070E3B
:10434000F76403D00800F55005D0F6CFE1FFF7CFB2
:10435000E2FFE750DF6EDF50D8A4B1EF21F0B3EFFA
:1043600021F08EEF21F012008D808D828D845E0E03
:104370000001CC6F010ECD6F0D0ECE6F080ECF6F0A
:10438000EEC0D0F0EFC0D1F0F0C0D2F0F1C0D3F069
:104390003BEC22F0000E0B6E5E0E0C6E010E0D6EED
:1043A000010EB2EC23F0E50E096E010E0A6E000E4E
:1043B00026EC23F0C00EB5EC22F0000EDBEC22F070
:1043C0001200046ED00E00EC25F0045041EC25F0F4
:1043D000D10E17EC25F0000EF0EC23F0036E035025
:1043E0000101066F076B000EF0EC23F0036E035023
:1043F0000101046F056B000EF0EC23F0036E035017
:104400000101026F036B010EF0EC23F0036E035009
:104410000101006F016B6AEC25F012008D808D8226
:104420008D945E0E0001CC6F010ECD6F0D0ECE6F20
:10443000080ECF6FEEC0D0F0EFC0D1F0F0C0D2F0D8
:10444000F1C0D3F03BEC22F0000E0B6E5E0E0C6E52
:10445000010E0D6E010EB2EC23F0D50E096E010EA9
:104460000A6E000E26EC23F0C00EB5EC22F0000E12
:10447000DBEC22F01200D00E0001D46F000ED56FDD
:10448000CCC0D6F0CDC0D7F0000ED96F000ED86FDB
:10449000000EDB6F000EDA6FD60EC46F000EC56F14
:1044A000CEC0C6F0CFC0C7F0D40EC86F000EC96F23
:1044B00098EC20F00001D851CC25D96ED951CD21EE
:1044C000DA6E000EDF6E1200010E076E200E01186C
:1044D0000210D8B46EEF22F070EF22F089EF22F0D4
:1044E000F70E036EFF0E046E01C005F002C006F069
:1044F0000350052604500622065009E1050E055C0E
:10450000D8A085EF22F087EF22F089EF22F0000E8D
:10451000076E07C001F0026A1200FA0EF66E480E2E
:10452000F76E000EF86E01EEB6F010EE37F00900EF
:10453000F5CFEEFFE550E150FAE102EE00F0140E87
:10454000EE6AE806FDE101EE00F0720EEE6AE806A2
:10455000FDE100EEE2F01B0EEE6AE806FDE15F6AA7
:10456000000EF86E000115EF1FF0086E08C007F08E
:10457000F00E07168C500F0B07108C6E8C908C82EF
:1045800000F08C92000E026E010E016E01EC23F021
:1045900008C007F0073AF00E07168C500F0B0710F3
:1045A0008C6E8C8200F08C92000E026E030E016EF7
:1045B00001EC23F01200086E08C007F0F00E071699
:1045C0008C500F0B07108C6E8C808C8200F08C92BC
:1045D000000E026E010E016E01EC23F008C007F020
:1045E000073AF00E07168C500F0B07108C6E8C825A
:1045F00000F08C92000E026E030E016E01EC23F0AF
:104600001200000E046E000E036E1AEF23F0000E6F
:10461000066E000E056E054A062A065009E1A50E33
:10462000055CD8A016EF23F018EF23F00BEF23F072
:10463000034A042A0150035C02500458D8A023EF17
:1046400023F025EF23F007EF23F012000B6E080E86
:104650000B602DEF23F02FEF23F049EF23F00B50E9
:10466000080DF350400FB5EC22F0000E0C6E0C500C
:104670000924D96E000E0A20DA6EDF50DBEC22F03E
:104680000C2A070E0C6447EF23F049EF23F037EFB5
:1046900023F01200046ED00E00EC25F0045041EC23
:1046A00025F0D10E17EC25F0000EF0EC23F0036E90
:1046B000035001010C6F0D6B000EF0EC23F0036E44
:1046C000035001010A6F0B6B010EF0EC23F0036E37
:1046D00003500101086F096B1200000E591A000EF9
:1046E0005A1A000E5B1A800E5C1A55C045F056C06F
:1046F00046F057C047F058C048F059C049F05AC07A
:104700004AF05BC04BF05CC04CF05EEC0DF045C075
:1047100055F046C056F047C057F048C058F0120058
:10472000000E106E000E0F6EA1EF23F00EC001F010
:10473000026A0CC003F00DC004F089EC1DF00F4AB2
:10474000102A0F500A24D96E10500B20DA6EDF5059
:104750000E6E0E50D8A4AFEF23F0B1EF23F096EF1A
:1047600023F012000E6E020E0E60B9EF23F0BBEFC5
:1047700023F0C4EF23F00B500F0B80090F6E0F5086
:10478000B5EC22F0CBEF23F00B500F0BC0090F6EEE
:104790000F50B5EC22F00CC009F00DC00AF057EC38
:1047A00021F012009F0E036EFF0E046E200E01100A
:1047B000056E000E0210066E0350052604500622F8
:1047C00006500AE11A0E055CD8A0E9EF23F0ECEFE1
:1047D00023F0010EEDEF23F0000E016E026A1200CD
:1047E000016EC586C7A0F7EF23F0F9EF23F0F2EFD3
:1047F00023F0C9CF02F00150D8A401EF24F003EF59
:1048000024F007EF24F07EEC25F009EF24F074EC9F
:1048100025F092EC25F0025012009F0E036EFF0E61
:10482000046E01C005F002C006F0035005260450D6
:10483000062206500AE11A0E055CD8A022EF24F0E9
:1048400025EF24F0010E26EF24F0000E016E026A1F
:104850001200BF0E036EFF0E046E01C005F002C011
:1048600006F0035005260450062206500AE11A0EEF
:10487000055CD8A03EEF24F041EF24F0010E42EF9A
:1048800024F0000E016E026A1200015002100310A3
:104890000410D8B44EEF24F050EF24F058EF24F079
:1048A000000E011A000E021A000E031A800E041ADE
:1048B00001C001F002C002F003C003F004C004F024
:1048C0001200D00E036EFF0E046E01C005F002C090
:1048D00006F0035005260450062206500AE10A0E8F
:1048E000055CD8A076EF24F079EF24F0010E7AEF82
:1048F00024F0000E016E026A1200B93B5E383435B6
:104900003832662FBD2C3A2ADC279F25822384214A
:10491000A31F534D54577446730008161F1F1608E3
:1049200000150E11110E1500000E1F1F0E000A0AB1
:014930000086
:1049320001C003F002C004F0A1EF24F0014A022AF0
:1049420001C0D9FF02C0DAFFDF50D8A4ABEF24F0D8
:10495200ADEF24F09FEF24F00350015C016E045090
:104962000258026E1200C0EF24F002C0F6FF03C02C
:10497200F7FF0800F5505FEC25F0024A032A02C057
:10498200F6FF03C0F7FF0800F5500009D8A4CCEFEA
:1049920024F0CEEF24F0B6EF24F01200000E056EE4
:1049A200000E046ED8EF24F000D0044A052A045009
:1049B200015C0250800A036E0550800A0358D8B089
:1049C200E5EF24F0E7EF24F0D5EF24F01200000E1B
:1049D200956E000E026E0F0E016E01EC23F0020EB8
:1049E200B5EC22F0280EB5EC22F0010EB5EC22F067
:1049F2000C0EB5EC22F0060EB5EC22F01200026E9F
:104A0200C580C5B007EF25F009EF25F002EF25F0CC
:104A12009E96C7B60FEF25F011EF25F013EF25F0A4
:104A220016EF25F0025041EC25F01200026EC5820D
:104A3200C5B21EEF25F020EF25F019EF25F09E9666
:104A4200C7B626EF25F028EF25F02AEF25F02DEF47
:104A520025F0025041EC25F0120001500302F3CF81
:104A620005F0F4CF06F001500402F350062602507E
:104A72000302F350062605C001F006C002F0120040
:104A8200016E01C0C9FF92EC25F0C5AC4BEF25F0D9
:104A92004DEF25F050EF25F0010E51EF25F0020EFB
:104AA200120093809382500EC76E280EC66E000EBF
:104AB200C56E130EC86E9D869E961200016E9EA84C
:104AC20065EF25F067EF25F060EF25F001C0ADFF3F
:104AD2001200C584C5B470EF25F072EF25F06BEFBC
:104AE20025F0C7501200C58AC588C5B87BEF25F0EE
:104AF2007DEF25F076EF25F01200C59AC588C5B87E
:104B020085EF25F087EF25F080EF25F01200010EEA
:104B1200B5EC22F0000E026E030E016E01EC23F0E2
:104B220012009EA697EF25F099EF25F092EF25F05F
:104B32009E961200010E026E080E036EB4EC24F073
:084B42006FEC1AF012001200E2
:020000040020DA
:08000000FFFFFFFFFFFFFFFF00
:020000040030CA
:0E0000000009181EFF8180FF0FC00FE00F40A7
:00000001FF
