:020000040000FA
:04000000EEEF21F00E
:100800000025302E30664300494E46004E414E00D2
:10081000696E66006E616E002578200025782D00D7
:1008200025783A0057656400547565004672690082
:100830004D6F6E0053756E005361740054687500FF
:100840006C6600414D00504D0000000E0001896FA4
:10085000000E886F64C09AF065C09BF066C09CF083
:1008600067C09DF09DBF39EF04F037EF04F04FEF04
:1008700004F0000E896F010E886F9AC001F09BC0D2
:1008800002F09CC003F09DC004F0A6EC23F001C070
:100890009AF002C09BF003C09CF004C09DF0000ED3
:1008A0000001A16F000EA06FFAC08CF0FBC08DF0AC
:1008B00088518911D8A45FEF04F061EF04F068EF6C
:1008C00004F0FEA566EF04F068EF04F082EF04F098
:1008D00088518911D8A46FEF04F071EF04F077EF1D
:1008E00004F0000E6F6F2B0E6E6F7BEF04F0000EA6
:1008F0006F6F2D0E6E6F6EC012F1A04BA12B8C0787
:10090000D8A08D079AC001F09BC002F09CC003F0F4
:100910009DC004F02CEC1DF001040210D8A493EF4C
:1009200004F095EF04F0ECEF04F0BF0E0001696FE6
:10093000FF0E6A6F68516B6F6C6B69516B276A5160
:100940006C236C510AE11A0E6B5DD8A0AAEF04F07B
:10095000ADEF04F0010EAEEF04F0000E706F716B9E
:1009600070517111D8B4B7EF04F0B9EF04F0C7EFCC
:1009700004F0120EA025016E010EA121026E080ED8
:10098000036E080E046E41EC21F0D3EF04F0120E5A
:10099000A025016E010EA121026E100E036E080E3D
:1009A000046E41EC21F00001FD0E8C27FF0E8D231B
:1009B00062C011F063C012F0120E136E010E146EBD
:1009C0008CC015F08DC016F07BEC1EF011C062F0EB
:1009D00012C063F050EF0AF09AC001F09BC002F021
:1009E0009CC003F09DC004F02CEC1DF001500210DF
:1009F000D8A4FDEF04F0FFEF04F03FEF05F0BF0EC9
:100A00000001696FFF0E6A6F68516B6F6C6B695103
:100A10006B276A516C236C510AE11A0E6B5DD8A0EA
:100A200014EF05F017EF05F0010E18EF05F0000EBA
:100A3000726F736B72517311D8B421EF05F023EF0D
:100A400005F031EF05F0120EA025016E010EA12177
:100A5000026E0C0E036E080E046E41EC21F0D3EF13
:100A600004F0120EA025016E010EA121026E140EDB
:100A7000036E080E046E41EC21F0D3EF04F0000E7B
:100A80000001A26F000EA36F800EA46F3F0EA56F32
:100A9000000E9F6F000E9E6F9AC001F09BC002F087
:100AA0009CC003F09DC004F0000E056E000E066EA3
:100AB000000E076E000E086EFAEC1FF0D8B063EF60
:100AC00005F065EF05F0E8EF05F084EF05F0A2C052
:100AD00015F0A3C016F0A4C017F0A5C018F0000EC2
:100AE000196E000E1A6E200E1B6E410E1C6EB8ECB5
:100AF0000FF015C0A2F016C0A3F017C0A4F018C0E4
:100B0000A5F000019E4B9F2B9AC02EF09BC02FF0AA
:100B10009CC030F09DC031F0000E196E000E1A6EB0
:100B2000200E1B6E410E1C6EA2C015F0A3C016F065
:100B3000A4C017F0A5C018F0B8EC0FF015C032F043
:100B400016C033F017C034F018C035F02BEC1CF091
:100B5000D8B0ADEF05F0AFEF05F067EF05F0CFEFE0
:100B600005F0A2C02EF0A3C02FF0A4C030F0A5C0A5
:100B700031F0000E326E000E336E200E346E410ED8
:100B8000356E9EEC13F02EC0A2F02FC0A3F030C043
:100B9000A4F031C0A5F000019E07D8A09F079AC01D
:100BA0002EF09BC02FF09CC030F09DC031F0A2C051
:100BB00032F0A3C033F0A4C034F0A5C035F02BEC64
:100BC0001CF0D8A0E6EF05F0E8EF05F0B1EF05F076
:100BD00068C007F0086AB3EC20F0075000018F6F7F
:100BE0008FC08EF0670E8F19D8A4F9EF05F0FBEFD8
:100BF00005F021EF06F0FC51FD11D8A402EF06F03C
:100C000004EF06F008EF06F0000EFD6F010EFC6F1A
:100C1000FDBF15EF06F0FD5106E1FC05D8B013EF5E
:100C200006F015EF06F01BEF06F0000E8B6F060EB8
:100C30008A6F2AEF06F0FCC08AF0FDC08BF02AEF25
:100C400006F0FDBF26EF06F028EF06F015EF06F0E0
:100C50001BEF06F0670E8F19D8A431EF06F033EFC3
:100C600006F062EF06F09FAF41EF06F0FC0E9E5DCE
:100C7000FF0E9F59D8A03FEF06F041EF06F060EF5E
:100C800006F0FF0E696FFF0E6A6F8AC06BF08BC0B3
:100C90006CF069516B276A516C239E516B5D6C51EE
:100CA000800A6D6F9F51800A6D59D8A05AEF06F0E7
:100CB0005CEF06F060EF06F0660E8E6F62EF06F0F6
:100CC000650E8E6F8AC080F08BC081F0670E8F1921
:100CD000D8A46DEF06F06FEF06F07FEF06F0660E1A
:100CE0008E19D8A476EF06F078EF06F081EF06F0C3
:100CF0009FBF7FEF06F07DEF06F081EF06F0804B9F
:100D0000812B660E8E19D8A488EF06F08AEF06F0C4
:100D1000AAEF06F09FBF91EF06F08FEF06F09DEF70
:100D200006F0000EA26F000EA36F800EA46F3F0EA0
:100D3000A56F000E9F6F000E9E6F670E8F19D8B4BF
:100D4000A4EF06F0A6EF06F0AAEF06F09E5180276A
:100D50009F518123000E996F000E986F9AC090F0FA
:100D60009BC091F09CC092F09DC093F0A2C082F015
:100D7000A3C083F0A4C084F0A5C085F03BEF07F0CA
:100D800090C02EF091C02FF092C030F093C031F09F
:100D9000A2C032F0A3C033F0A4C034F0A5C035F037
:100DA0009EEC13F02EC047F02FC048F030C049F041
:100DB00031C04AF050EC18F047C094F048C095F0AC
:100DC00049C096F04AC097F094C057F095C058F0CB
:100DD00096C059F097C05AF0A7EC1BF057C086F0A8
:100DE00058C087F090C057F091C058F092C059F0A9
:100DF00093C05AF0A2C019F0A3C01AF0A4C01BF00F
:100E0000A5C01CF094C015F095C016F096C017F060
:100E100097C018F0B8EC0FF015C05BF016C05CF08E
:100E200017C05DF018C05EF0ABEC22F057C090F038
:100E300058C091F059C092F05AC093F0A2C02EF061
:100E4000A3C02FF0A4C030F0A5C031F0000E326E68
:100E5000000E336E200E346E410E356E9EEC13F094
:100E60002EC0A2F02FC0A3F030C0A4F031C0A5F076
:100E70000001984B992B8051985D9951800A696FB8
:100E80008151800A6959D8A048EF07F04AEF07F06E
:100E9000C0EF06F0A2C015F0A3C016F0A4C017F072
:100EA000A5C018F0000E196E000E1A6EA00E1B6E73
:100EB000400E1C6EB8EC0FF015C094F016C095F003
:100EC00017C096F018C097F090C02EF091C02FF088
:100ED00092C030F093C031F094C032F095C033F03E
:100EE00096C034F097C035F02BEC1CF0D8B07BEFF7
:100EF00007F07DEF07F088EF07F0000E0001946F18
:100F0000000E956F000E966F000E976FB1EF07F011
:100F100090C001F091C002F092C003F093C004F0C1
:100F200094C005F095C006F096C007F097C008F091
:100F3000FAEC1FF0D8A09FEF07F0A1EF07F0B1EF98
:100F400007F0000186B1A7EF07F0A9EF07F0B1EFB6
:100F500007F0000E946F000E956F000E966F000E56
:100F6000976F9AC047F09BC048F09CC049F09DC065
:100F70004AF094C04BF095C04CF096C04DF097C02D
:100F80004EF058EC0DF047C090F048C091F049C0C9
:100F900092F04AC093F090C02EF091C02FF092C012
:100FA00030F093C031F0000E196E000E1A6E200E54
:100FB0001B6E410E1C6E82C015F083C016F084C0FB
:100FC00017F085C018F0B8EC0FF015C032F016C05D
:100FD00033F017C034F018C035F02BEC1CF0D8A05B
:100FE000F4EF07F0F6EF07F01FEF08F000019E4B5B
:100FF0009F2B82C015F083C016F084C017F085C007
:1010000018F0000E196E000E1A6E200E1B6E410EA7
:101010001C6EB8EC0FF015C082F016C083F017C03C
:1010200084F018C085F0660E00018E19D8A41BEF5D
:1010300008F01DEF08F01FEF08F0804B812B82C0F5
:10104000A2F083C0A3F084C0A4F085C0A5F0650E13
:1010500000018E19D8B42FEF08F031EF08F037EF08
:1010600008F09EC07EF09FC07FF03BEF08F0000EBE
:101070007F6F000E7E6F000E7D6F000E7C6F000E86
:101080007B6F000E7A6F000E996F000E986F36EF2F
:1010900009F090C02EF091C02FF092C030F093C0B4
:1010A00031F0A2C032F0A3C033F0A4C034F0A5C028
:1010B00035F09EEC13F02EC047F02FC048F030C042
:1010C00049F031C04AF050EC18F047C094F048C0E5
:1010D00095F049C096F04AC097F094C057F095C07B
:1010E00058F096C059F097C05AF0A7EC1BF057C0C3
:1010F00086F058C087F00001FEB981EF08F083EF59
:1011000008F0A0EF08F086518711D8A48AEF08F004
:101110008CEF08F0A0EF08F0670E8F19D8A493EFBA
:1011200008F095EF08F0A0EF08F07FBF9CEF08F003
:101130009AEF08F0A0EF08F07A4B7B2BEAEF08F06B
:101140007C517D11D8A4A7EF08F0A9EF08F0D3EFE8
:1011500008F07FBFB0EF08F0AEEF08F0D3EF08F073
:10116000120EA025D96E010EA121DA6E2E0EDF6EB1
:10117000A04BA12B8C07D8A08D07000E7D6F010E10
:101180007C6FD3EF08F0120EA025D96E010EA121BD
:10119000DA6E300EDF6EA04BA12B8C07D8A08D0726
:1011A0007A07D8A07B077A517B11D8A4DAEF08F030
:1011B000DCEF08F0C3EF08F0120EA025D96E010E87
:1011C000A121DA6E8651300FDF6EA04BA12B8C0768
:1011D000D8A08D0790C057F091C058F092C059F038
:1011E00093C05AF0A2C019F0A3C01AF0A4C01BF01B
:1011F000A5C01CF094C015F095C016F096C017F06D
:1012000097C018F0B8EC0FF015C05BF016C05CF09A
:1012100017C05DF018C05EF0ABEC22F057C090F044
:1012200058C091F059C092F05AC093F0A2C02EF06D
:10123000A3C02FF0A4C030F0A5C031F0000E326E74
:10124000000E336E200E346E410E356E9EEC13F0A0
:101250002EC0A2F02FC0A3F030C0A4F031C0A5F082
:1012600000017E07D8A07F07984B992B8051985D8D
:101270009951800A696F8151800A6959D8B043EF4A
:1012800009F045EF09F053EF09F0A1BF51EF09F064
:10129000A15109E14B0EA05DD8A051EF09F053EF29
:1012A00009F049EF08F07C517D11D8A45AEF09F0FC
:1012B0005CEF09F06DEF09F0FEA961EF09F063EF53
:1012C00009F06DEF09F0120EA025D96E010EA121D3
:1012D000DA6E2E0EDF6EA04BA12B120EA025D96E5A
:1012E000010EA121DA6E000EDF6E650E8E19D8A4F4
:1012F0007CEF09F07EEF09F0D8EF04F0000E996F53
:101300004F0E986F120E9825D96E010E9921DA6E44
:10131000000EDF6E000E896F000E886F9FBF95EF85
:1013200009F093EF09F09DEF09F0000E896F010EAF
:10133000886F9E6D9F1FD8B09F2B000E8B6F020E83
:101340008A6FCEEF09F09807D8A09907120E98255A
:10135000D96E010E9921DA6E9EC001F09FC002F095
:10136000000E046E0A0E036EA2EC1FF00150300F47
:10137000DF6E9EC001F09FC002F0000E046E0A0EE8
:10138000036EDEEC1EF001C09EF002C09FF0000173
:101390008A07D8A08B078C07D8A08D079E519F1174
:1013A000D8A4D5EF09F0D7EF09F0A3EF09F08BBF70
:1013B000E4EF09F08B5106E18A05D8B0E2EF09F0BD
:1013C000E4EF09F0A3EF09F09807D8A09907885136
:1013D0008911D8A4EEEF09F0F0EF09F0F6EF09F06B
:1013E000000E756F2B0E746FFAEF09F0000E756F1B
:1013F0002D0E746F120E9825D96E010E9921DA6E9A
:1014000074C0DFFF8C07D8A08D079807D8A0990774
:10141000BF0E696FFF0E6A6F68516B6F6C6B69511D
:101420006B276A516C236C510AE11A0E6B5DD8A0D0
:101430001CEF0AF01FEF0AF0010E20EF0AF0000E79
:10144000786F796B78517911D8A429EF0AF02BEFD6
:101450000AF031EF0AF0000E776F650E766F35EF08
:101460000AF0000E776F450E766F120E9825D96E32
:10147000010E9921DA6E76C0DFFF8C07D8A08D07A8
:10148000120EA025016E010EA121026E120E9825EA
:10149000036E010E9921046E41EC21F0D8EF04F0A7
:1014A0001200A8C0D9FFA9C0DAFFDECFF6FFDDCF5A
:1014B000F7FF0800F550250AD8A461EF0AF063EFA2
:1014C0000AF03CEF0DF0A8C0D9FFA9C0DAFFDE2A70
:1014D000000EDD22000E0001FB6F000EFA6FFAC055
:1014E000FEF0FBC0FFF0FC69FD69000EB96F000E55
:1014F000B86FC1EF0AF0FE81A8C0D9FFA9C0DAFF1A
:10150000DE2A000EDD22C1EF0AF0FE837CEF0AF036
:10151000FE857CEF0AF0FE877CEF0AF0FE897CEF07
:101520000AF0000EB96F010EB86FC1EF0AF0A8C043
:10153000D9FFA9C0DAFFDECFF6FFDDCFF7FF080045
:10154000F550AC6FAD6BAD51000AD8B4AAEF0AF0FC
:1015500091EF0AF0AC51200AD8B48BEF0AF0030ADD
:10156000D8B48EEF0AF0080AD8B488EF0AF0060A59
:10157000D8B47BEF0AF01D0AD8B485EF0AF091EFDA
:101580000AF0B851B911D8B4C8EF0AF0CAEF0AF09E
:1015900097EF0AF0FEA1CFEF0AF0D1EF0AF0D2EFF9
:1015A0000AF0FE93A8C0D9FFA9C0DAFFDECFF6FF8C
:1015B000DDCFF7FF0800F5502E0AD8A4E2EF0AF0BD
:1015C000E4EF0AF062EF0BF0000EFD6F000EFC6F0F
:1015D000A8C0D9FFA9C0DAFFDE2A000EDD22A8C00C
:1015E000D9FFA9C0DAFFDECFF6FFDDCFF7FF080095
:1015F000F5502A0AD8A4FFEF0AF001EF0BF01EEF16
:101600000BF0A8C0D9FFA9C0DAFFDE2A000EDD2248
:10161000AAC0D9FFABC0DAFFDFCFACF0020EDE26E6
:10162000DFCFADF0000EDD22ACC0D9FFADC0DAFFD8
:10163000DECFFCF0DDCFFDF062EF0BF0A8C0D9FFEC
:10164000A9C0DAFFDECF08F0DDCF09F033EC1AF0E5
:1016500008C0FCF009C0FDF035EF0BF0A8C0D9FFC1
:10166000A9C0DAFFDE2A000EDD22D00E0001AC6F29
:10167000FF0EAD6FA8C0D9FFA9C0DAFFDECFF6FF1D
:10168000DDCFF7FF0800F550AE6FAF6BAC51AE2762
:10169000AD51AF23AF510AE10A0EAE5DD8A053EFB2
:1016A0000BF056EF0BF0010E57EF0BF0000EBA6F78
:1016B000BB6BBA51BB11D8A460EF0BF062EF0BF01B
:1016C0002EEF0BF0A8C0D9FFA9C0DAFFDECFF6FFDE
:1016D000DDCFF7FF0800F550076E086AB3EC20F085
:1016E00007500001C26FC251D8B479EF0BF07BEF05
:1016F0000BF0B5EF0BF0A8C0D9FFA9C0DAFFDECF21
:10170000ACF0DDCFADF0010EAC27000EAD23ACC0C8
:10171000F6FFADC0F7FF0800F550076E086AB3EC9E
:1017200020F007500001C36FC351D8B49AEF0BF0FB
:101730009CEF0BF0B5EF0BF0A8C0D9FFA9C0DAFF02
:10174000DECFACF0DDCFADF0020EAC27000EAD2346
:10175000ACC0F6FFADC0F7FF0800F550076E086A91
:10176000B3EC20F007500001C46F660EC219D8A474
:10177000BCEF0BF0BEEF0BF0FEEF0BF0A8C0D9FFF3
:10178000A9C0DAFFDECFF6FFDDCFF7FF0800F5CF07
:10179000C5F0A8C0D9FFA9C0DAFFDE2A000EDD22FD
:1017A000AAC0D9FFABC0DAFFDFCFACF0040EDE2653
:1017B000DFCFADF0000EDD22ACC0D9FFADC0DAFF47
:1017C000DECFBEF0DECFBFF0DECFC0F0DECFC1F0A7
:1017D000A6C062F0A7C063F0BEC064F0BFC065F0F1
:1017E000C0C066F0C1C067F0C5C068F025EC04F069
:1017F00062C0A6F063C0A7F057EF0DF0C20E016EF5
:10180000000E026E400E036E080E046E000E066E91
:10181000020E056EABEC1DF001500210D8A413EFC0
:101820000CF015EF0CF091EF0CF0A8C0D9FFA9C097
:10183000DAFFDECFACF0DDCFADF0010E0001AC275A
:10184000000EAD23ACC0F6FFADC0F7FF0800F5CF2A
:10185000C5F0BF0EAC6FFF0EAD6FA8C0D9FFA9C019
:10186000DAFFDECFF6FFDDCFF7FF0800F550AE6FF1
:10187000AF6BAC51AE27AD51AF23AF510AE11A0E99
:10188000AE5DD8A046EF0CF049EF0CF0010E4AEF28
:101890000CF0000EBC6FBD6BBC51BD11D8B453EF42
:1018A0000CF055EF0CF06FEF0CF0AAC0D9FFABC0F5
:1018B000DAFFDFCFACF0040EDE26DFCFADF0000E96
:1018C000DD22ACC0D9FFADC0DAFFDECFBEF0DECF87
:1018D000BFF0DECFC0F0DECFC1F087EF0CF0AAC0C2
:1018E000D9FFABC0DAFFDFCFACF0040EDE26DFCFCE
:1018F000ADF0000EDD22ACC0D9FFADC0DAFFDECF07
:10190000BEF0DECFBFF0DECFC0F0DECFC1F0020E02
:10191000A8C0D9FFA9C0DAFFDE26000EDD22E8EF5D
:101920000BF0A8C0D9FFA9C0DAFFDECFF6FFDDCFEC
:10193000F7FF0800F550780AD8B4A1EF0CF0A3EF38
:101940000CF0B5EF0CF0A8C0D9FFA9C0DAFFDECFCC
:10195000F6FFDDCFF7FF0800F550580AD8A4B3EF23
:101960000CF0B5EF0CF004EF0DF0A8C0D9FFA9C042
:10197000DAFFDECFF6FFDDCFF7FF0800F5CFC5F0C9
:10198000A8C0D9FFA9C0DAFFDE2A000EDD22AAC056
:10199000D9FFABC0DAFFDFCFACF0020EDE26DFCF1F
:1019A000ADF0000EDD22ACC0D9FFADC0DAFFDECF56
:1019B000AEF0DDCFAFF0AEC0B0F0AFC0B1F000011F
:1019C000B26BB36BB46BB56BB66BB76BA6C01CF0E8
:1019D000A7C01DF0B0C01EF0B1C01FF0B2C020F013
:1019E000B3C021F0B4C022F0B5C023F0B6C024F0DB
:1019F000B7C025F0C5C026F0E3EC16F01CC0A6F079
:101A00001DC0A7F057EF0DF0A8C0D9FFA9C0DAFF9D
:101A1000DECFF6FFDDCFF7FF0800F550250AD8A48A
:101A200014EF0DF016EF0DF02EEF0DF0A8C0D9FF5A
:101A3000A9C0DAFFDE2A000EDD22000E026E250E9E
:101A4000016EA6C003F0A7C004F016EC1EF0000E55
:101A50000001A76F010EA66F57EF0DF0A8C0D9FFC8
:101A6000A9C0DAFFDE2A000EDD22000E0001A76FFA
:101A7000000EA66F57EF0DF0A8C0D9FFA9C0DAFF7E
:101A8000DECFF6FFDDCFF7FF0800F550016E026AEA
:101A9000A6C003F0A7C004F016EC1EF0A8C0D9FF42
:101AA000A9C0DAFFDE2A000EDD2227EF0DF01200BA
:101AB0004A50800B536E4A504A24556E49AE63EF2C
:101AC0000DF065EF0DF066EF0DF055805550D8B470
:101AD0006CEF0DF06EEF0DF083EF0DF05528D8A4EC
:101AE00074EF0DF076EF0DF07EEF0DF0000E476E07
:101AF000000E486E000E496E000E4A6E498E000EB2
:101B00004A6E8BEF0DF0000E476E000E486E000E11
:101B1000496E000E4A6E4E50800B546E535054184E
:101B2000D8B495EF0DF097EF0DF098EF0DF0538CC2
:101B30004E504E24546E4DAEA0EF0DF0A2EF0DF0BE
:101B4000A3EF0DF054805450D8B4A9EF0DF0ABEFD3
:101B50000DF0C0EF0DF05428D8A4B1EF0DF0B3EFA5
:101B60000DF0BBEF0DF0000E4B6E000E4C6E000E34
:101B70004D6E000E4E6E4D8E000E4E6EC8EF0DF087
:101B8000000E4B6E000E4C6E000E4D6E000E4E6E33
:101B90005550545CD8B0CFEF0DF0D1EF0DF0F8EF09
:101BA0000DF053ACD6EF0DF0D8EF0DF0DAEF0DF0ED
:101BB000800E531A55C056F054C055F056C054F01C
:101BC00047C056F04BC047F056C04BF048C056F0E7
:101BD0004CC048F056C04CF049C056F04DC049F0DA
:101BE00056C04DF04AC056F04EC04AF056C04EF0B6
:101BF000000E566E555054C04FF0506A4F5E000EA6
:101C0000505A50BE0DEF0EF0505009E11A0E4F5CC5
:101C1000D8A00DEF0EF00FEF0EF046EF0EF047508C
:101C2000481049104A10D8A418EF0EF01BEF0EF020
:101C3000010E1CEF0EF0000E566E000E476E000EE9
:101C4000486E000E496E000E4A6E54C055F04FEFBC
:101C50000EF056A02EEF0EF030EF0EF036EF0EF035
:101C6000D89056300109566E38EF0EF0D8905632A3
:101C700047A03DEF0EF03FEF0EF040EF0EF0568E16
:101C80004A344A32493248324732552A5450555C18
:101C9000D8A04DEF0EF04FEF0EF029EF0EF053BC31
:101CA00054EF0EF056EF0EF096EF0EF05550D8A40C
:101CB0005CEF0EF05EEF0EF068EF0EF0000E476E78
:101CC000000E486E000E496E000E4A6EB7EF0FF020
:101CD0004B5047264C5048224D5049224E504A22E4
:101CE0004AA075EF0EF077EF0EF023EF0FF056A03D
:101CF0007CEF0EF07EEF0EF084EF0EF0D8905630B1
:101D00000109566E86EF0EF0D890563247A08BEF41
:101D10000EF08DEF0EF08EEF0EF0568E4A344A32F2
:101D2000493248324732552A23EF0FF04B50475C77
:101D30004C5048584D5049584A50800A4F6E4E50AA
:101D4000800A4F58D8B0A7EF0EF0A9EF0EF0D4EFED
:101D50000EF047504B5C4F6E48504C58506E4950F7
:101D60004D58516E4A504E58526EFF0E4F24476EDA
:101D7000FF0E5020486EFF0E5120496EFF0E52207C
:101D80004A6E800E531A566C5650D8A4CAEF0EF005
:101D9000CCEF0EF0DCEF0EF0010E4726000E4822CD
:101DA00049224A22DCEF0EF04B50475E4C50485A15
:101DB0004D50495A4E504A5A4750481049104A10FF
:101DC000D8A4E5EF0EF0E7EF0EF01CEF0FF0565041
:101DD000D8A4EDEF0EF0EFEF0EF01CEF0FF0000EB9
:101DE000476E000E486E000E496E000E4A6EB7EF49
:101DF0000FF0D8904736483649364A3656AE03EF8C
:101E00000FF005EF0FF006EF0FF0478056A00BEF35
:101E10000FF00DEF0FF011EF0FF0D880563613EFE3
:101E20000FF0D89056365550D8B419EF0FF01BEF7D
:101E30000FF01CEF0FF0550649AE21EF0FF023EF26
:101E40000FF0F9EF0EF0000E546E56AE2AEF0FF0C1
:101E50002CEF0FF044EF0FF056C04FF07F0E4F16EF
:101E6000D8B435EF0FF037EF0FF03BEF0FF0010E66
:101E7000546E44EF0FF047A040EF0FF042EF0FF029
:101E800044EF0FF037EF0FF05450D8B44AEF0FF093
:101E90004CEF0FF077EF0FF0010E4726000E4822AF
:101EA00049224A224AA057EF0FF059EF0FF077EF7F
:101EB0000FF047C04FF048C050F049C051F04AC041
:101EC00052F052345232513250324F324FC047F0FA
:101ED00050C048F051C049F052C04AF05528D8B41B
:101EE00074EF0FF076EF0FF077EF0FF0552A5528CB
:101EF000D8B47DEF0FF07FEF0FF087EF0FF0555064
:101F0000D8A485EF0FF087EF0FF099EF0FF0000ED8
:101F1000476E000E486E000E496E000E4A6E555018
:101F2000D8A495EF0FF097EF0FF099EF0FF0000E98
:101F3000536E55A09EEF0FF0A0EF0FF0A3EF0FF040
:101F4000498EA4EF0FF0499ED89055304A6E53AE9B
:101F5000ACEF0FF0AEEF0FF0AFEF0FF04A8E47C0CF
:101F600047F048C048F049C049F04AC04AF0120062
:101F70001850800B216E18501824276E17AEC3EF2F
:101F80000FF0C5EF0FF0C6EF0FF027802750D8B441
:101F9000CCEF0FF0CEEF0FF0E1EF0FF02728D8A431
:101FA000D4EF0FF0D6EF0FF0DEEF0FF0000E156E4E
:101FB000000E166E000E176E000E186E178EE9EFEB
:101FC0000FF0000E156E000E166E000E176E000E4E
:101FD000186E1C50800B211A1C501C24266E1BAE40
:101FE000F4EF0FF0F6EF0FF0F7EF0FF0268026502A
:101FF000D8B4FDEF0FF0FFEF0FF012EF10F026282E
:10200000D8A405EF10F007EF10F00FEF10F0000E5E
:10201000196E000E1A6E000E1B6E000E1C6E1B8ECB
:102020001AEF10F0000E196E000E1A6E000E1B6EE5
:10203000000E1C6E2650D8B420EF10F022EF10F0E6
:102040002AEF10F02750D8A428EF10F02AEF10F054
:1020500034EF10F0000E156E000E166E000E176EA7
:10206000000E186ECCEF11F01B501502F3CF2CF0C0
:10207000F4CF2DF02C50226E236A246A256A2D504D
:10208000286E296A2A6A2B6A1A501602F3CF2CF09E
:10209000F4CF2DF02C502226000E232224222522BC
:1020A0002D502826000E29222A222B2219501702F1
:1020B000F3CF2CF0F4CF2DF02C502226000E23224B
:1020C000242225222D502826000E29222A222B22C6
:1020D00024C025F023C024F022C023F0226A195026
:1020E0001602F3CF2CF0F4CF2DF02C5022262D50D9
:1020F0002322000E2422000E25221A501502F3CFAF
:102100002CF0F4CF2DF02C5022262D502322000E3F
:102110002422000E252224C025F023C024F022C052
:1021200023F0226A19501502F3CF2CF0F4CF2DF0D2
:102130002C5022262D502322000E2422000E252270
:102140001B501602F3CF2CF0F4CF2DF02C50282684
:102150002D502922000E2A22000E2B221A5017027F
:10216000F3CF2CF0F4CF2DF02C5028262D5029221F
:10217000000E2A22000E2B221B501702F3CF2CF048
:10218000F4CF2DF02C501D6E2D501E6E1F6A206A4C
:102190001FC020F01EC01FF01DC01EF01D6A1D5084
:1021A00028261E5029221F502A2220502B2222C0CE
:1021B0001DF023C01EF024C01FF025C020F0190E12
:1021C000E7EF10F0D89020321F321E321D32E82E79
:1021D000E2EF10F01D5028261E5029221F502A22FF
:1021E00020502B2224C025F023C024F022C023F04D
:1021F000226A265027C01DF01E6A1D26000E1E22D0
:10220000820E1D242C6EFF0E1E202D6E1DEF11F070
:10221000D890283629362A362B3625AE12EF11F003
:1022200014EF11F015EF11F02880D89022362336E4
:10223000243625362C06D8A02D062AAE22EF11F022
:1022400024EF11F008EF11F0000E266E25AE2BEFF3
:1022500011F02DEF11F051EF11F0FF0E22141D6E51
:10226000FF0E23141E6EFF0E24141F6E7F0E251406
:10227000206E1D501E101F102010D8B442EF11F018
:1022800044EF11F048EF11F0010E266E51EF11F0FE
:1022900028A04DEF11F04FEF11F051EF11F044EF86
:1022A00011F02650D8B457EF11F059EF11F07DEF2F
:1022B00011F0010E2826000E29222A222B222BA003
:1022C00064EF11F066EF11F07DEF11F028C01DF002
:1022D00029C01EF02AC01FF02BC020F0203420326D
:1022E0001F321E321D321DC028F01EC029F01FC033
:1022F0002AF020C02BF02C4A2D2A2DBE88EF11F099
:102300002D5008E12C28D8A088EF11F08AEF11F0A9
:1023100094EF11F0000E286E000E296E800E2A6ECA
:102320007F0E2B6EC2EF11F02DBEA1EF11F02D50DC
:1023300006E12C04D8B09FEF11F0A1EF11F0ADEF42
:1023400011F0000E286E000E296E000E2A6E000E8F
:102350002B6E000E216EC2EF11F02CC027F0FF0E85
:102360002816FF0E29167F0E2A16000E2B1627A000
:10237000BCEF11F0BEEF11F0BFEF11F02A8ED89034
:1023800027302B6E21502B1228C015F029C016F0D3
:102390002AC017F02BC018F01200720ED36E000E78
:1023A000966E98EC24F02EEC24F0C3EC24F0ADEC07
:1023B0001CF0000162C0E0F063C0E1F0E26BE36B8F
:1023C000E0C007F0E1C008F0E2C009F0E3C00AF0A5
:1023D000000E59EC19F007C0F4F008C0F5F009C080
:1023E000F6F00AC0F7F04FEC20F001C007F002C091
:1023F00008F0096A0A6A000E59EC19F007C0F0F0FB
:1024000008C0F1F009C0F2F00AC0F3F06BEC15F06F
:10241000000E026E0A0E016E62EC22F0000E2E6EAD
:10242000000E2F6E700E306E410E316EF4C032F021
:10243000F5C033F0F6C034F0F7C035F02BEC1CF0EB
:10244000D8B025EF12F027EF12F089EF12F0000E4E
:102450002E6E000E2F6E000E306E000E316EF0C02C
:1024600032F0F1C033F0F2C034F0F3C035F02BECB1
:102470001CF0D8B03EEF12F040EF12F089EF12F0EE
:10248000F0C02EF0F1C02FF0F2C030F0F3C031F008
:10249000000E326E000E336EC80E346E430E356E73
:1024A0002BEC1CF0D8B057EF12F059EF12F089EF77
:1024B00012F08D908D928D94620E0001CE6F010E00
:1024C000CF6F010ED06F080ED16FF4C0D2F0F5C0FF
:1024D000D3F0F6C0D4F0F7C0D5F09CEC21F0000E9C
:1024E0000B6E620E0C6E010E0D6E010E13EC23F0DE
:1024F000E10E096E010E0A6E000E87EC22F0C00E8E
:1025000016EC22F0000E3CEC22F0FBEC1AF092EFFD
:1025100013F0F4C02EF0F5C02FF0F6C030F0F7C085
:1025200031F0000E326E000E336E400E346E410EEE
:10253000356E2BEC1CF0D8A0A0EF12F0A2EF12F039
:102540001BEF13F0000E2E6E000E2F6E700E306E0D
:10255000410E316EF4C032F0F5C033F0F6C034F005
:10256000F7C035F02BEC1CF0D8A0B9EF12F0BBEFA0
:1025700012F01BEF13F0000E2E6E000E2F6EC80E21
:10258000306E430E316EF0C032F0F1C033F0F2C065
:1025900034F0F3C035F02BEC1CF0D8B0D2EF12F0D1
:1025A000D4EF12F01BEF13F0F0C02EF0F1C02FF0BB
:1025B000F2C030F0F3C031F0000E326E000E336E18
:1025C0002F0E346E440E356E2BEC1CF0D8B0EBEFB2
:1025D00012F0EDEF12F01BEF13F08D808D828D94D1
:1025E000620E0001CE6F010ECF6F010ED06F080E8C
:1025F000D16FF4C0D2F0F5C0D3F0F6C0D4F0F7C07C
:10260000D5F09CEC21F0000E0B6E620E0C6E010EEC
:102610000D6E010E13EC23F0D90E096E010E0A6E39
:10262000000E87EC22F0C00E16EC22F0000E3CECFF
:1026300022F092EF13F0F4C02EF0F5C02FF0F6C0A8
:1026400030F0F7C031F0000E326E000E336E400EE7
:10265000346E410E356E2BEC1CF0D8B032EF13F017
:1026600034EF13F092EF13F0000E2E6E000E2F6E6B
:102670002F0E306E440E316EF0C032F0F1C033F0E8
:10268000F2C034F0F3C035F02BEC1CF0D8B04BEFB7
:1026900013F04DEF13F092EF13F0F0C02EF0F1C0F5
:1026A0002FF0F2C030F0F3C031F0000E326E800E29
:1026B000336EBB0E346E440E356E2BEC1CF0D8B06E
:1026C00064EF13F066EF13F092EF13F08D808D82BC
:1026D0008D84620E0001CE6F010ECF6F010ED06FA0
:1026E000080ED16FF4C0D2F0F5C0D3F0F6C0D4F02C
:1026F000F7C0D5F09CEC21F0000E0B6E620E0C6E54
:10270000010E0D6E010E13EC23F0E90E096E010EA1
:102710000A6E000E87EC22F0C00E16EC22F0000EBE
:102720003CEC22F00B0E026EB80E016E62EC22F051
:10273000C3EC24F0D7EF11F000EF00F03150800B24
:102740003E6E31503124456E30AEA9EF13F0ABEF41
:1027500013F0ACEF13F045804550D8B4B2EF13F04E
:10276000B4EF13F0C9EF13F04528D8A4BAEF13F073
:10277000BCEF13F0C4EF13F0000E2E6E000E2F6EA0
:10278000000E306E000E316E308E000E316ED1EFC5
:1027900013F0000E2E6E000E2F6E000E306E000E27
:1027A000316E3550800B3E1A35503524466E34AEAE
:1027B000DCEF13F0DEEF13F0DFEF13F0468046504E
:1027C000D8B4E5EF13F0E7EF13F0FCEF13F0462871
:1027D000D8A4EDEF13F0EFEF13F0F7EF13F0000EC6
:1027E000326E000E336E000E346E000E356E348E77
:1027F000000E356E04EF14F0000E326E000E336ED4
:10280000000E346E000E356E325033103410351019
:10281000D8A40DEF14F00FEF14F027EF14F0000E12
:102820002E6E000E2F6E000E306E000E316E800E7A
:1028300030127F0E31123E5031122EC02EF02FC0BA
:102840002FF030C030F031C031F06AEF15F0455054
:10285000D8A42DEF14F02FEF14F039EF14F0000E80
:102860002E6E000E2F6E000E306E000E316E6AEF6F
:1028700015F0465045C036F0376A365E000E375ABE
:102880007F0E36243F6E000E3720406E2EC03AF089
:102890002FC03BF030C03CF031C03DF0000E2E6E3A
:1028A000000E2F6E000E306E000E316E000E416E67
:1028B000000E426E000E436E000E446E000E466E19
:1028C0009AEF14F04650D8B468EF14F06AEF14F0A1
:1028D00081EF14F0D8903A363B363C363D36D890EE
:1028E0002E362F363036313644AE79EF14F07BEF8A
:1028F00014F07CEF14F02E80D890413642364336E7
:10290000443632503A5C33503B5834503C58355082
:102910003D58D8A08EEF14F090EF14F099EF14F01A
:10292000448C32503A5E33503B5A34503C5A355006
:102930003D5A462A190E4664A0EF14F0A2EF14F097
:1029400062EF14F03A503B103C103D10D8B4ABEF9E
:1029500014F0ADEF14F0C5EF14F04180C5EF14F0A2
:10296000D8902E362F363036313644AEBAEF14F0CA
:10297000BCEF14F0BDEF14F02E80D89041364236F3
:10298000433644363F06D8A0400630AECAEF14F0B6
:10299000CCEF14F0B0EF14F0000E466E44AED3EF5F
:1029A00014F0D5EF14F0F9EF14F0FF0E4114366E69
:1029B000FF0E4214376EFF0E4314386E7F0E441420
:1029C000396E3650371038103910D8B4EAEF14F099
:1029D000ECEF14F0F0EF14F0010E466EF9EF14F086
:1029E0002EA0F5EF14F0F7EF14F0F9EF14F0ECEF80
:1029F00014F04650D8B4FFEF14F001EF15F025EFB6
:102A000015F0010E2E26000E2F223022312231A089
:102A10000CEF15F00EEF15F025EF15F02EC036F087
:102A20002FC037F030C038F031C039F03934393286
:102A300038323732363236C02EF037C02FF038C039
:102A400030F039C031F03F4A402A40BE30EF15F037
:102A5000405008E13F28D8A030EF15F032EF15F0D4
:102A60003DEF15F0000E406E3F68000E2E6E000E1A
:102A70002F6E000E306E000E316E40BE4AEF15F024
:102A8000405006E13F04D8B048EF15F04AEF15F08A
:102A900058EF15F0000E406E000E3F6E000E2E6EC9
:102AA000000E2F6E000E306E000E316E000E3E6E68
:102AB0003FC045F045A05FEF15F061EF15F064EF02
:102AC00015F0308E65EF15F0309ED8904530316EA0
:102AD0001BEF14F01200050E0101B96F21EED2F0C8
:102AE00011EE76F0060EDBCFE3FFE806FCE2720E95
:102AF000D36E98EC24F02EEC24F0C3EC24F0000EFE
:102B0000026E0A0E016E62EC22F0000ECEEC22F094
:102B100001010CAD8EEF15F090EF15F0F4EF15F00C
:102B20000CAB95EF15F097EF15F0A2EF15F00E0E28
:102B30000B6E460E0C6E080E0D6E010E13EC23F09C
:102B4000ABEF15F00E0E0B6E430E0C6E080E0D6EF5
:102B5000010E13EC23F01F0E01010C150C6F0D6B11
:102B60009B0E0001CE6F010ECF6F180ED06F080EB6
:102B7000D16F10C1D2F011C1D3F09CEC21F0A50EA1
:102B80000001CE6F010ECF6F200ED06F080ED16FF7
:102B90000EC1D2F00FC1D3F09CEC21F0AF0E0001BA
:102BA000CE6F010ECF6F200ED06F080ED16F0CC10B
:102BB000D2F00DC1D3F09CEC21F0040E0B6EAF0EE1
:102BC0000C6E010E0D6E000E13EC23F0A50E096EB7
:102BD000010E0A6E12EC21F09B0E096E010E0A6EB8
:102BE00012EC21F030EF16F03F0E0C150C6F0D6B50
:102BF0009B0E0001CE6F010ECF6F180ED06F080E26
:102C0000D16F10C1D2F011C1D3F09CEC21F0A50E10
:102C10000001CE6F010ECF6F200ED06F080ED16F66
:102C20000EC1D2F00FC1D3F09CEC21F0AF0E000129
:102C3000CE6F010ECF6F200ED06F080ED16F0CC17A
:102C4000D2F00DC1D3F09CEC21F0040E0B6EAF0E50
:102C50000C6E010E0D6E000E13EC23F0E6EF15F076
:102C6000030E6FEC21F0A5EC24F07D0E0001CE6F79
:102C7000010ECF6F1C0ED06F080ED16F08C1D2F0BD
:102C800009C1D3F09CEC21F0870E0001CE6F010E3C
:102C9000CF6F1C0ED06F080ED16F06C1D2F007C1E6
:102CA000D3F09CEC21F0910E0001CE6F010ECF6F9E
:102CB000180ED06F080ED16F04C1D2F005C1D3F049
:102CC0009CEC21F0020E0B6E7D0E0C6E010E0D6E53
:102CD000020E13EC23F0870E096E010E0A6E12EC41
:102CE00021F0910E096E010E0A6E12EC21F0B1EF87
:102CF00016F0340E096E080E0A6E12EC21F0E2EFA7
:102D000016F0300E096E080E0A6E12EC21F0E2EF9A
:102D100016F0280E096E080E0A6E12EC21F0E2EF92
:102D200016F0240E096E080E0A6E12EC21F0E2EF86
:102D300016F03C0E096E080E0A6E12EC21F0E2EF5E
:102D400016F02C0E096E080E0A6E12EC21F0E2EF5E
:102D500016F0380E096E080E0A6E12EC21F0E2EF42
:102D600016F0760E01010A25D96E010E0B21DA6EDE
:102D7000DF500001DE6FDF6BDF51000AD8B4C3EF14
:102D800016F0E2EF16F0DE51460AD8B4A1EF16F0C5
:102D90000B0AD8B481EF16F01E0AD8B479EF16F0FA
:102DA000070AD8B489EF16F0030AD8B491EF16F0E9
:102DB000240AD8B4A9EF16F0070AD8B499EF16F090
:102DC000E2EF16F012000001FDBFE9EF16F0EBEFA5
:102DD00016F0ECEF16F0FE93FDBFF9EF16F0FD5183
:102DE00006E1FC05D8B0F7EF16F0F9EF16F0FFEFAB
:102DF00016F0000E346E010E336E03EF17F0FCC0B8
:102E000033F0FDC034F0FAC035F0FBC036F0FEA957
:102E10000CEF17F00EEF17F012EF17F0FE0E35263D
:102E2000FF0E36221EC037F01FC038F020C039F028
:102E300021C03AF022C03BF023C03CF024C03DF05A
:102E400025C03EF0000E406E4F0E3F6E000E010199
:102E5000616FDEEF17F03F06D8A040060F0E371463
:102E6000416E426A42BE3EEF17F0425009E10A0E3F
:102E7000415CD8A03EEF17F040EF17F048EF17F095
:102E8000570E4124416E000E4220426E4EEF17F065
:102E9000300E4124416E000E4220426EBF0E276E5E
:102EA000FF0E286E2650296E2A6A275029262850A0
:102EB0002A222A500AE11A0E295CD8A062EF17F0E4
:102EC00065EF17F0010E66EF17F0000E2F6E306AF7
:102ED0002F503010D8B46FEF17F071EF17F0A1EF4B
:102EE00017F09F0E276EFF0E286E200E4110296EE0
:102EF000000E42102A6E2750292628502A222A50D6
:102F00000AE11A0E295CD8A088EF17F08BEF17F0B2
:102F1000010E8CEF17F0000E316E326A3150321014
:102F2000D8B495EF17F097EF17F0A1EF17F041C065
:102F300007F042C008F0E3EC20F007C041F008C001
:102F400042F0120E3F24D96E010E4020DA6E41C0CD
:102F5000DFFF3306D8A034063506D8A0360637C0C2
:102F600027F038C028F039C029F03AC02AF03BC019
:102F70002BF03CC02CF03DC02DF03EC02EF0050ED5
:102F8000CBEF17F0D8902E322D322C322B322A3242
:102F9000293228322732E82EC2EF17F027C037F047
:102FA00028C038F029C039F02AC03AF02BC03BF0D5
:102FB0002CC03CF02DC03DF02EC03EF040BEEAEFEC
:102FC00017F0405009E1020E3F5CD8A0EAEF17F07D
:102FD000ECEF17F01DEF18F03750381039103A1099
:102FE0003B103C103D103E10D8A4F9EF17F0FBEF5A
:102FF00017F02BEF17F034BE08EF18F0345006E14D
:103000003304D8B006EF18F008EF18F02BEF17F0E4
:1030100036BE13EF18F0365008E13504D8A013EF90
:1030200018F015EF18F01DEF18F00001FEB31BEFBC
:1030300018F01DEF18F02BEF17F00001FEA923EF99
:1030400018F025EF18F03BEF18F03F06D8A0400627
:10305000120E3F24D96E010E4020DA6E26C0DFFF2B
:103060003F06D8A04006120E3F24D96E010E402024
:10307000DA6E300EDF6E1CC011F01DC012F0120EA1
:103080003F24136E010E4020146E35C015F036C07B
:1030900016F07BEC1EF011C01CF012C01DF01200E7
:1030A000E4C057F0E5C058F0E6C059F0E7C05AF068
:1030B00047C057F048C058F049C059F04AC05AF0CC
:1030C000810E4B6EFF0E4C6E57C04DF058C04EF047
:1030D00059C04FF05AC050F0180E74EF18F0D89045
:1030E00050324F324E324D32E82E6FEF18F04D50C5
:1030F0004B24556E000E4C20566E56BE89EF18F0CC
:10310000565009E1170E555CD8A089EF18F08BEFE7
:1031100018F095EF18F047C047F048C048F049C094
:1031200049F04AC04AF058EF19F056BE9AEF18F02D
:103130009CEF18F00CEF19F055C04BF0FF0E4C6EE1
:10314000FF0E4D6E7F0E4E6E000E4F6E4B66ABEF58
:1031500018F0B3EF18F04F344F324E324D324C323C
:103160004B2EA6EF18F04CC051F04DC052F04EC09F
:1031700053F04FC054F0515057144B6E52505814E6
:103180004C6E535059144D6E54505A144E6E4B5051
:103190004C104D104E10D8A4D0EF18F0D2EF18F00C
:1031A000D4EF18F08BEF18F057C04BF058C04CF02C
:1031B00059C04DF05AC04EF0200EE4EF18F0D890F0
:1031C0004E324D324C324B32E82EDFEF18F04B507E
:1031D0004C104D104E10D8B4F0EF18F0F2EF18F07C
:1031E000FAEF18F051505726525058225350592296
:1031F00054505A22511C4B6E521C4C6E531C4D6E37
:10320000541C4E6E4B5057164C5058164D50591674
:103210004E505A1650EF19F057C04BF058C04CF0B2
:1032200059C04DF05AC04EF0200E1CEF19F0D89046
:103230004E324D324C324B32E82E17EF19F04B50D4
:103240004C104D104E10D8A428EF19F02AEF19F0A9
:1032500034EF19F0000E576E000E586E000E596EC6
:10326000000E5A6E50EF19F0D89057344B6E583408
:103270004C6E59344D6E5A344E6E4B504C104D10AE
:103280004E10D8B446EF19F048EF19F050EF19F08E
:10329000000E576E000E586E800E596EBF0E5A6E9D
:1032A00057C047F058C048F059C049F05AC04AF0DA
:1032B00012000F6E0F50D8B460EF19F062EF19F0E2
:1032C00084EF19F00ABE69EF19F067EF19F084EF87
:1032D00019F007C00BF008C00CF009C00DF00AC0CF
:1032E0000EF00B1E0C1E0D1E0E1E0B2A000E0C22C5
:1032F0000D220E220BC011F00CC012F00DC013F005
:103300000EC014F08CEF19F007C011F008C012F0D5
:1033100009C013F00AC014F00750081009100A1071
:10332000D8A495EF19F097EF19F0A1EF19F0000E5E
:10333000076E000E086E000E096E000E0A6E32EF68
:103340001AF0960E106EABEF19F0102AD8901432C6
:10335000133212321132000E11140B6E000E1214C1
:103360000C6E000E13140D6EFE0E14140E6E0B5028
:103370000C100D100E10D8A4C0EF19F0C2EF19F008
:10338000A5EF19F0D0EF19F0102A010E1126000E4A
:10339000122213221422D890143213321232113214
:1033A000000E11140B6E000E12140C6E000E13148E
:1033B0000D6EFF0E14140E6E0B500C100D100E102F
:1033C000D8A4E5EF19F0E7EF19F0C4EF19F0EFEF2B
:1033D00019F01006D890113612361336143613BE73
:1033E000F4EF19F0F6EF19F0FEEF19F0020E10608D
:1033F000FCEF19F0FEEF19F0E9EF19F010B003EF50
:103400001AF005EF1AF006EF1AF0139ED89010325A
:1034100010C00BF00C6A0D6A0E6A0BC00EF00D6A3C
:103420000C6A0B6A0B5011120C5012120D50131231
:103430000E5014120F50D8B420EF1AF022EF1AF0E9
:103440002AEF1AF00ABE29EF1AF027EF1AF02AEF36
:103450001AF0148E11C007F012C008F013C009F062
:1034600014C00AF01200000E166E000E156E000E4B
:103470000F6E000E0E6E3FEF1AF0084A092A010E79
:10348000146E08C0F6FF09C0F7FF0800F550200AC7
:10349000D8B44DEF1AF04FEF1AF06CEF1AF0F70EA8
:1034A0000A6EFF0E0B6E08C0F6FF09C0F7FF08009A
:1034B000F5500C6E0D6A0A500C260B500D220D5063
:1034C00009E1050E0C5CD8A068EF1AF06AEF1AF05B
:1034D0006CEF1AF0000E146E14C010F0116A105048
:1034E0001110D8A476EF1AF078EF1AF03DEF1AF029
:1034F00082EF1AF0000E0F6E010E0E6E084A092AB6
:10350000B7EF1AF008C0F6FF09C0F7FF0800F55042
:103510000A6E0B6A0B50000AD8B491EF1AF0B7EF9D
:103520001AF00A502B0AD8B47EEF1AF0060AD8B463
:103530007AEF1AF0B7EF1AF015C001F016C002F0DA
:10354000000E046E0A0E036E74EC24F008C0F6FF41
:1035500009C0F7FF0800F550015E000E025A300E58
:103560000124156E000E0220166E7EEF1AF0D00EAA
:103570000A6EFF0E0B6E08C0F6FF09C0F7FF0800C9
:10358000F5500C6E0D6A0A500C260B500D220D5092
:103590000AE10A0E0C5CD8A0D0EF1AF0D3EF1AF0B3
:1035A000010ED4EF1AF0000E126E136A12501310AF
:1035B000D8A4DDEF1AF0DFEF1AF09CEF1AF00E50EE
:1035C0000F10D8A4E6EF1AF0E8EF1AF0F6EF1AF0B1
:1035D00015C00AF016C00BF00A1E0B1E0A4A0B2A71
:1035E0000AC008F00BC009F0FAEF1AF015C008F095
:1035F00016C009F01200000E076E040E066E000ED3
:10360000096E040E086E000E0B6E960E0A6E40ECEC
:103610001FF0820E136EDE0EE82EFED7132EFCD79F
:10362000000E076E040E066E000E096E040E086E84
:10363000000E0B6E960E0A6E40EC1FF0020E146E1A
:10364000860E136E990EE82EFED7132EFCD7142E7D
:10365000FAD700F0000E076E040E066E000E096E1B
:10366000040E086E000E0B6E960E0A6E40EC1FF0F4
:10367000030E146E080E136E770EE82EFED7132E6F
:10368000FCD7142EFAD700F0000E076E000E066E5F
:10369000000E096E040E086E000E0B6E7D0E0A6E93
:1036A00040EC1FF0820E136EDE0EE82EFED7132EB6
:1036B000FCD7000E076E040E066E000E096E040E97
:1036C000086E000E0B6E7D0E0A6E40EC1FF0020EAF
:1036D000146E860E136E990EE82EFED7132EFCD7AD
:1036E000142EFAD700F0000E076E070E066E000EBD
:1036F000096E040E086E000E0B6EC80E0A6E40ECCA
:103700001FF0050E146E0F0E136EF10EE82EFED78D
:10371000132EFCD7142EFAD700F0000E076E070EFA
:10372000066E000E096E030E086E010E0B6E5E0E25
:103730000A6E40EC1FF0040E146E0C0E136E340E65
:10374000E82EFED7132EFCD7142EFAD712005934C8
:103750005A340001616F6151D8A4B1EF1BF0B3EF8F
:103760001BF0BDEF1BF0000E576E000E586E000EE2
:10377000596E000E5A6E2AEF1CF057C05BF058C00D
:103780005CF059C05DF05AC05EF0200ECDEF1BF02A
:10379000D8905E325D325C325B32E82EC8EF1BF0AF
:1037A0005B50606F598EFF0E5716FF0E5816FF0EB6
:1037B0005916000E5A16960E615F61BFE4EF1BF0BA
:1037C000E2EF1BF0FAEF1BF06151800A970FD8B0BF
:1037D000ECEF1BF0EEEF1BF0F0EF1BF0B3EF1BF084
:1037E000D8905A32593258325732613FF0EF1BF0BD
:1037F00012EF1CF01F0E616500EF1CF002EF1CF0D1
:103800000AEF1CF0B3EF1BF0D890573658365936F4
:103810005A3661076151D8A410EF1CF012EF1CF06A
:1038200004EF1CF06051D8B418EF1CF01AEF1CF034
:1038300022EF1CF05A1E591E581E576C000E5822BB
:1038400059225A2257C057F058C058F059C059F061
:103850005AC05AF01200000E2E14366E000E2F14AD
:10386000376E800E3014386E7F0E3114396E36503C
:10387000371038103910D8A440EF1CF042EF1CF07C
:103880004AEF1CF0000E2E6E000E2F6E000E306EF2
:10389000000E316E000E3214366E000E3314376E89
:1038A000800E3414386E7F0E3514396E3650371052
:1038B00038103910D8A45FEF1CF061EF1CF069EFED
:1038C0001CF0000E326E000E336E000E346E000ED1
:1038D000356E31AE6EEF1CF070EF1CF079EF1CF01E
:1038E0002E6C2F1ED8B02F2A301ED8B0302A800E52
:1038F000315635AE7EEF1CF080EF1CF089EF1CF0E6
:10390000326C331ED8B0332A341ED8B0342A800E1D
:103910003556000E2E1A000E2F1A000E301A800E89
:10392000311A000E321A000E331A000E341A800EAD
:10393000351A32502E5C33502F5834503058355091
:103940003158D8B0A6EF1CF0A8EF1CF0ABEF1CF07C
:10395000D890ACEF1CF0D8801200000E956E9268E3
:10396000700ED312D350FC0B0209D36EC150F00B72
:103970000E09C16ECF0EC116C30EC216C050C70BC2
:103980001009C06EC050F80B0109C06EC08EC28015
:10399000C282C2B2CEEF1CF0D0EF1CF0C9EF1CF017
:1039A000C4CF66F00001676B6651646FC350666FE9
:1039B00064C067F0000E4B6E000E4C6E460E4D6EEE
:1039C000C20E4E6E000E326EC00E336E7F0E346E1F
:1039D000440E356E000E196E000E1A6EFA0E1B6E36
:1039E000430E1C6E66C007F067C008F0096A0A6AD9
:1039F000000E59EC19F007C015F008C016F009C008
:103A000017F00AC018F0B8EC0FF015C02EF016C071
:103A10002FF017C030F018C031F09EEC13F02EC01C
:103A200047F02FC048F030C049F031C04AF058ECA0
:103A30000DF047C057F048C058F049C059F04AC08F
:103A40005AF0A7EC1BF057C066F058C067F066C08C
:103A500062F067C063F01200E8C00BF0E9C00CF040
:103A6000EAC00DF0EBC00EF001C00BF002C00CF08C
:103A700003C00DF004C00EF00BC005F00CC006F042
:103A80000DC007F00EC008F0180E4CEF1DF0D890D6
:103A90000832073206320532E82E47EF1DF0055096
:103AA000096E0A6A09500A10D8A459EF1DF05BEF9D
:103AB0001DF07BEF1DF0D8900B34056E0C34066EB4
:103AC0000D34076E0E34086E0550061007100810EE
:103AD000D8A46DEF1DF06FEF1DF075EF1DF0000E17
:103AE000026E020E016EAAEF1DF0000E026E030EB2
:103AF000016EAAEF1DF009280A10D8A482EF1DF06C
:103B000084EF1DF0A6EF1DF00BC005F00CC006F011
:103B10000DC007F00EC008F0090ED8900536063625
:103B200007360836E82E8DEF1DF0055006100710F9
:103B30000810D8B49EEF1DF0A1EF1DF0010EA2EF0A
:103B40001DF0000E016E026AAAEF1DF0000E026E5B
:103B5000040E016E120001C008F002C009F003C09B
:103B60000AF004C00BF00506D8A00606052806E1F9
:103B70000628D8A4BEEF1DF0C0EF1DF0CDEF1DF05C
:103B8000000E026E000E016E15EF1EF0084A092AA3
:103B90000A4A0B2A0506D8A0060608C0D9FF09C0A4
:103BA000DAFFDF50D8B4D7EF1DF0D9EF1DF004EFE6
:103BB0001EF00AC0F6FF0BC0F7FF0800F550000921
:103BC000D8B4E5EF1DF0E7EF1DF004EF1EF005504F
:103BD0000610D8B4EEEF1DF0F0EF1DF004EF1EF06C
:103BE00008C0D9FF09C0DAFFDF50076E0AC0F6FF30
:103BF0000BC0F7FF0800F5500718D8B402EF1EF00D
:103C000004EF1EF0C6EF1DF008C0D9FF09C0DAFFAF
:103C1000DF50076E0AC0F6FF0BC0F7FF0800F55033
:103C2000075C016E026AD8A002061200035004105D
:103C3000D8B41DEF1EF01FEF1EF028EF1EF003504A
:103C40000410D8A426EF1EF028EF1EF02DEF1EF072
:103C50000150D6EC24F07AEF1EF020EE04F0035071
:103C6000D9260450DA22DE50DE10D8B43AEF1EF026
:103C70003CEF1EF057EF1EF020EE04F00350D92663
:103C80000450DA2210EE02F00350E1260450E22242
:103C9000DE50E65CE650800A096EDE50800A095864
:103CA000D8B055EF1EF057EF1EF07AEF1EF020EE61
:103CB00002F00350D9260450DA22DECF05F0DDCF22
:103CC00006F003C0D9FF04C0DAFFDECF07F0DDCF76
:103CD00008F005500724D96E06500820DA6E01C09E
:103CE000DFFF20EE02F00350D9260450DA22DE2A4C
:103CF000000EDD2212000001FEA181EF1EF083EF15
:103D00001EF08DEF1EF013C00AF014C00BF011C0AE
:103D10000CF012C00DF0F1EC22F016BE92EF1EF086
:103D200094EF1EF09AEF1EF015C01AF016C01BF0AB
:103D30009EEF1EF0000E1B6E000E1A6E000E196E26
:103D4000000E186EB0EF1EF0000E026E200E016E17
:103D500011C003F012C004F016EC1EF0184A192A24
:103D60001A50185C1950800A176E1B50800A175899
:103D7000D8A0BDEF1EF0BFEF1EF0A4EF1EF00001B3
:103D8000FEB1C5EF1EF0C7EF1EF0D1EF1EF013C05D
:103D90000AF014C00BF011C00CF012C00DF0F1ECE1
:103DA00022F013C001F014C002F0FAEC23F01A5014
:103DB0000124116E1B500220126E1200000E066EBE
:103DC00004BEE7EF1EF0E5EF1EF0EDEF1EF0036C12
:103DD000041ED8B0042A010E066E02BEF4EF1EF0D7
:103DE000F2EF1EF0FAEF1EF0016C021ED8B0022AAC
:103DF000010E061A000E086E000E076E0350041026
:103E0000D8B405EF1FF007EF1FF02FEF1FF0010EE2
:103E1000056E0FEF1FF0D89003360436052A04AE66
:103E200014EF1FF016EF1FF00BEF1FF0D8900736BE
:103E300008360350015C04500258D8A022EF1FF04E
:103E400024EF1FF029EF1FF00350015E0450025AC7
:103E50000780D89004320332052E16EF1FF006506B
:103E6000D8B435EF1FF037EF1FF03BEF1FF0076CB2
:103E7000081ED8B0082A07C001F008C002F01200DE
:103E8000000E0E6E000E0D6E000E106E000E0F6E08
:103E9000D8900634D96E0734DA6EBA0ED926010EE0
:103EA000DA22DECF11F0DDCF12F008280C6E5CEFC5
:103EB0001FF01234123211320C2E59EF1FF094926F
:103EC0008B8211C001F012C002F015EC24F01150E9
:103ED0000F26125010228B9211C001F012C002F076
:103EE00015EC24F011500F2612501022190E0F2637
:103EF000000E102284EF1FF0180E0F26FC0E102269
:103F00000D4A0E2A76EF1FF010BE92EF1FF0E80E5A
:103F10000F5C030E1058D8B090EF1FF092EF1FF017
:103F20007CEF1FF00A500D5C0E50800A0C6E0B5097
:103F3000800A0C58D8A09FEF1FF0A1EF1FF05FEF91
:103F40001FF01200000E066E02BEABEF1FF0A9EFCD
:103F50001FF0B1EF1FF0016C021ED8B0022A010E53
:103F6000066E04BEB8EF1FF0B6EF1FF0BCEF1FF0F7
:103F7000036C041ED8B0042A03500410D8B4C3EF55
:103F80001FF0C5EF1FF0E9EF1FF0010E056ECDEF3A
:103F90001FF0D89003360436052A04AED2EF1FF086
:103FA000D4EF1FF0C9EF1FF00350015C045002581A
:103FB000D8A0DDEF1FF0DFEF1FF0E3EF1FF003509D
:103FC000015E0450025AD89004320332052ED4EF19
:103FD0001FF00650D8B4EFEF1FF0F1EF1FF0F5EF30
:103FE0001FF0016C021ED8B0022A01C001F002C00D
:103FF00002F01200000E0114096E000E02140A6E87
:10400000800E03140B6E7F0E04140C6E09500A1000
:104010000B100C10D8A40FEF20F011EF20F019EFC7
:1040200020F0000E016E000E026E000E036E000EF8
:10403000046E000E0514096E000E06140A6E800E42
:1040400007140B6E7F0E08140C6E09500A100B102B
:104050000C10D8A42EEF20F030EF20F038EF20F035
:10406000000E056E000E066E000E076E000E086E46
:10407000055001180FE1065002180CE10750031813
:1040800009E108500418D8B448EF20F04AEF20F0B6
:104090004DEF20F0D8904EEF20F0D8801200000EA7
:1040A000956E9268700ED312D350FC0B0209D36E3A
:1040B000C150F00B0D09C16ECF0EC116C250C30B1B
:1040C0000409C26EC050C70B1009C06EC050F80B77
:1040D0000109C06EC08EC280C282C2B272EF20F0EF
:1040E00074EF20F06DEF20F0C4CF05F0066A0550A4
:1040F000036EC350056E03C006F005C001F006C094
:1041000002F01200C8C0CCF0C9C0CDF0000E000112
:10411000F96F000EF86FA0EF20F0C6C0A6F0C7C080
:10412000A7F0CC0EA86F000EA96FCAC0AAF0CBC032
:10413000ABF051EC0AF00001A651F827A751F92382
:10414000CCC0F6FFCDC0F7FF0800F5500009D8A499
:10415000ACEF20F0AEEF20F08DEF20F0F8C0C6F00D
:10416000F9C0C7F01200BF0E096EFF0E0A6E07C03D
:104170000BF008C00CF009500B260A500C220C5012
:104180000AE11A0E0B5CD8A0C8EF20F0CBEF20F0AC
:10419000010ECCEF20F0000E0D6E0E6A0D500E10C9
:1041A000D8B4D5EF20F0D7EF20F0DEEF20F0200ECE
:1041B0000710076E0850086EE2EF20F007C007F006
:1041C00008C008F012009F0E096EFF0E0A6E07C0AD
:1041D0000BF008C00CF009500B260A500C220C50B2
:1041E0000AE11A0E0B5CD8A0F8EF20F0FBEF20F0EC
:1041F000010EFCEF20F0000E0D6E0E6A0D500E1039
:10420000D8B405EF21F007EF21F00DEF21F05F0E9C
:104210000714076E086A11EF21F007C007F008C005
:1042200008F0120028EF21F009C0F6FF0AC0F7FFDE
:10423000F86A070EF76403D00800F55005D0F6CFF2
:10424000E1FFF7CFE2FFE7503CEC22F0094A0A2AEF
:1042500009C0F6FF0AC0F7FFF86A070EF76403D03B
:104260000800F55005D0F6CFE1FFF7CFE2FFE750A9
:104270000009D8A43EEF21F040EF21F014EF21F027
:10428000120003C007F004C008F001C009F002C02A
:104290000AF00750056E0850066E074A082A05C046
:1042A000F6FF06C0F7FFF86A09C0D9FF0AC0DAFFB7
:1042B000094A0A2A070EF76403D00800F55005D012
:1042C000F6CFE1FFF7CFE2FFE750DF6EDF50D8A473
:1042D0006CEF21F06EEF21F049EF21F01200046E37
:1042E000D00E46EC24F0045087EC24F0D10E5DECA7
:1042F00024F0000E51EC23F0036E035001010A6F0D
:104300000B6B000E51EC23F0036E03500101086F9C
:10431000096B000E51EC23F0036E03500101066F90
:10432000076B010E51EC23F0036E03500101046F83
:10433000056BA5EC24F01200D20E0001D66F000E22
:10434000D76FCEC0D8F0CFC0D9F0000EDB6F000E13
:10435000DA6F000EDD6F000EDC6FD80EC66F000E38
:10436000C76FD0C0C8F0D1C0C9F0D60ECA6F000E5A
:10437000CB6F82EC20F00001DA51CE25D96EDB51F3
:10438000CF21DA6E000EDF6E1200010E076E200ED6
:1043900001180210D8B4CFEF21F0D1EF21F0EAEFED
:1043A00021F0F70E036EFF0E046E01C005F002C08F
:1043B00006F00350052604500622065009E1050EBA
:1043C000055CD8A0E6EF21F0E8EF21F0EAEF21F05C
:1043D000000E076E07C001F0026A1200BC0EF66EF6
:1043E000470EF76E000EF86E01EEBAF010EE37F0E1
:1043F0000900F5CFEEFFE550E150FAE102EE00F0E2
:10440000140EEE6AE806FDE101EE00F0760EEE6AAB
:10441000E806FDE100EEE4F01C0EEE6AE806FDE1C0
:104420005F6A000EF86E0001CDEF11F0086E08C053
:1044300007F0F00E07168C500F0B07108C6E8C9047
:104440008C8200F08C92000E026E010E016E62EC06
:1044500022F008C007F0073AF00E07168C500F0B39
:1044600007108C6E8C8200F08C92000E026E030E90
:10447000016E62EC22F01200086E08C007F0F00E28
:1044800007168C500F0B07108C6E8C808C8200F0FE
:104490008C92000E026E010E016E62EC22F008C0DA
:1044A00007F0073AF00E07168C500F0B07108C6EB2
:1044B0008C8200F08C92000E026E030E016E62EC94
:1044C00022F01200000E046E000E036E7BEF22F04D
:1044D000000E066E000E056E054A062A065009E11A
:1044E000A50E055CD8A077EF22F079EF22F06CEFF3
:1044F00022F0034A042A0150035C02500458D8A059
:1045000084EF22F086EF22F068EF22F012000B6EAB
:10451000080E0B608EEF22F090EF22F0AAEF22F04F
:104520000B50080DF350400F16EC22F0000E0C6EED
:104530000C500924D96E000E0A20DA6EDF503CECD4
:1045400022F00C2A070E0C64A8EF22F0AAEF22F04A
:1045500098EF22F01200000E5B1A000E5C1A000E9B
:104560005D1A800E5E1A57C047F058C048F059C017
:1045700049F05AC04AF05BC04BF05CC04CF05DC0E3
:104580004DF05EC04EF058EC0DF047C057F048C0FB
:1045900058F049C059F04AC05AF01200046ED00ECB
:1045A00046EC24F0045087EC24F0D10E5DEC24F0AE
:1045B000000E51EC23F0036E03500101106F116BDC
:1045C000000E51EC23F0036E035001010E6F0F6BD0
:1045D000010E51EC23F0036E035001010C6F0D6BC3
:1045E0001200000E106E000E0F6E02EF23F00EC0D0
:1045F00001F0026A0CC003F00DC004F016EC1EF0CE
:104600000F4A102A0F500A24D96E10500B20DA6E70
:10461000DF500E6E0E50D8A410EF23F012EF23F0EF
:10462000F7EF22F012000E6E020E0E601AEF23F06A
:104630001CEF23F025EF23F00B500F0B80090F6EBA
:104640000F5016EC22F02CEF23F00B500F0BC0098B
:104650000F6E0F5016EC22F00CC009F00DC00AF0DE
:1046600012EC21F012009F0E036EFF0E046E200E5E
:104670000110056E000E0210066E03500526045050
:10468000062206500AE11A0E055CD8A04AEF23F074
:104690004DEF23F0010E4EEF23F0000E016E026A83
:1046A0001200016EC586C7A058EF23F05AEF23F021
:1046B00053EF23F0C9CF02F00150D8A462EF23F0EA
:1046C00064EF23F068EF23F0B9EC24F06AEF23F0F5
:1046D000AFEC24F0CDEC24F0025012009F0E036EDC
:1046E000FF0E046E01C005F002C006F0035005265F
:1046F0000450062206500AE11A0E055CD8A083EF8A
:1047000023F086EF23F0010E87EF23F0000E016EF9
:10471000026A1200BF0E036EFF0E046E01C005F0A8
:1047200002C006F0035005260450062206500AE196
:104730001A0E055CD8A09FEF23F0A2EF23F0010E24
:10474000A3EF23F0000E016E026A12000150021066
:1047500003100410D8B4AFEF23F0B1EF23F0B9EF9A
:1047600023F0000E011A000E021A000E031A800E2A
:10477000041A01C001F002C002F003C003F004C03B
:1047800004F01200D00E036EFF0E046E01C005F09F
:1047900002C006F0035005260450062206500AE126
:1047A0000A0E055CD8A0D7EF23F0DAEF23F0010E54
:1047B000DBEF23F0000E016E026A1200B93B5E3897
:1047C00034353832662FBD2C3A2ADC279F258223C8
:1047D0008421A31F534D54577446730008161F1F9E
:1047E000160800150E11110E1500000E1F1F0E00E9
:0347F0000A0A00B2
:1047F40001C003F002C004F002EF24F0014A022ACF
:1048040001C0D9FF02C0DAFFDF50D8A40CEF24F0B6
:104814000EEF24F000EF24F00350015C016E04500D
:104824000258026E1200000E056E000E046E1EEF9A
:1048340024F000D0044A052A0450015C0250800A86
:10484400036E0550800A0358D8B02BEF24F02DEFE7
:1048540024F01BEF24F01200000E956E000E026E81
:104864000F0E016E62EC22F0020E16EC22F0280EFE
:1048740016EC22F0010E16EC22F00C0E16EC22F0CF
:10488400060E16EC22F01200026EC580C5B04DEF84
:1048940024F04FEF24F048EF24F09E96C7B655EF6E
:1048A40024F057EF24F059EF24F05CEF24F0025089
:1048B40087EC24F01200026EC582C5B264EF24F0C6
:1048C40066EF24F05FEF24F09E96C7B66CEF24F0F9
:1048D4006EEF24F070EF24F073EF24F0025087ECB5
:1048E40024F0120001500302F3CF05F0F4CF06F0D8
:1048F40001500402F350062602500302F350062628
:1049040005C001F006C002F01200016E01C0C9FF2B
:10491400CDEC24F0C5AC91EF24F093EF24F096EFA6
:1049240024F0010E97EF24F0020E1200938093827C
:10493400500EC76E280EC66E000EC56E130EC86EDE
:104944009D869E961200C584C5B4ABEF24F0ADEFEE
:1049540024F0A6EF24F0C7501200C58AC588C5B854
:10496400B6EF24F0B8EF24F0B1EF24F01200C59AAA
:10497400C588C5B8C0EF24F0C2EF24F0BBEF24F023
:104984001200010E16EC22F0000E026E030E016EF0
:1049940062EC22F012009EA6D2EF24F0D4EF24F0B1
:0A49A400CDEF24F09E9612001200E1
:020000040020DA
:08000000FFFFFFFFFFFFFFFF00
:020000040030CA
:0E0000000009181EFF8180FF0FC00FE00F40A7
:00000001FF
