:020000040000FA
:0400000007EF00F016
:0A0008005F82E1ED23F0F6EF21F036
:1008000000204275656E6F73204469617320002576
:10081000302E30664300494E46004E414E00696E10
:1008200066006E616E002578200025782D00257801
:100830003A005765640054756500467269004D6F53
:100840006E0053756E0053617400546875006C66D9
:1008500000414D00504D0000000E0001896F000E58
:10086000886F64C09AF065C09BF066C09CF067C05A
:100870009DF09DBF40EF04F03EEF04F056EF04F012
:10088000000E896F010E886F9AC001F09BC002F0C4
:100890009CC003F09DC004F014EC23F001C09AF05A
:1008A00002C09BF003C09CF004C09DF0000E00014C
:1008B000A16F000EA06FF7C08CF0F8C08DF08851CA
:1008C0008911D8A466EF04F068EF04F06FEF04F02C
:1008D000FBA56DEF04F06FEF04F089EF04F0885191
:1008E0008911D8A476EF04F078EF04F07EEF04F0DD
:1008F000000E6F6F2B0E6E6F82EF04F0000E6F6FA5
:100900002D0E6E6F6EC02AF1A04BA12B8C07D8A0C4
:100910008D079AC001F09BC002F09CC003F09DC0FF
:1009200004F0C1EC1CF001040210D8A49AEF04F00A
:100930009CEF04F0F3EF04F0BF0E0001696FFF0EAF
:100940006A6F68516B6F6C6B69516B276A516C23CE
:100950006C510AE11A0E6B5DD8A0B1EF04F0B4EF50
:1009600004F0010EB5EF04F0000E706F716B705162
:100970007111D8B4BEEF04F0C0EF04F0CEEF04F074
:100980002A0EA025016E010EA121026E160E036E25
:10099000080E046EB4EC20F0DAEF04F02A0EA02565
:1009A000016E010EA121026E1E0E036E080E046E72
:1009B000B4EC20F00001FD0E8C27FF0E8D2362C0E9
:1009C00011F063C012F02A0E136E010E146E8CC06B
:1009D00015F08DC016F010EC1EF011C062F012C0C0
:1009E00063F057EF0AF09AC001F09BC002F09CC080
:1009F00003F09DC004F0C1EC1CF001500210D8A41B
:100A000004EF05F006EF05F046EF05F0BF0E00011C
:100A1000696FFF0E6A6F68516B6F6C6B69516B2762
:100A20006A516C236C510AE11A0E6B5DD8A01BEF62
:100A300005F01EEF05F0010E1FEF05F0000E726FBE
:100A4000736B72517311D8B428EF05F02AEF05F0DB
:100A500038EF05F02A0EA025016E010EA121026ECD
:100A60001A0E036E080E046EB4EC20F0DAEF04F0F8
:100A70002A0EA025016E010EA121026E220E036E28
:100A8000080E046EB4EC20F0DAEF04F0000E000162
:100A9000A26F000EA36F800EA46F3F0EA56F000E15
:100AA0009F6F000E9E6F9AC001F09BC002F09CC029
:100AB00003F09DC004F0000E056E000E066E000EE1
:100AC000076E000E086E2DEC1FF0D8B06AEF05F02F
:100AD0006CEF05F0EFEF05F08BEF05F0A2C015F01D
:100AE000A3C016F0A4C017F0A5C018F0000E196E30
:100AF000000E1A6E200E1B6E410E1C6EBFEC0FF026
:100B000015C0A2F016C0A3F017C0A4F018C0A5F03D
:100B100000019E4B9F2B9AC02EF09BC02FF09CC0D3
:100B200030F09DC031F0000E196E000E1A6E200ECE
:100B30001B6E410E1C6EA2C015F0A3C016F0A4C01F
:100B400017F0A5C018F0BFEC0FF015C032F016C0BA
:100B500033F017C034F018C035F0C0EC1BF0D8B03B
:100B6000B4EF05F0B6EF05F06EEF05F0D6EF05F047
:100B7000A2C02EF0A3C02FF0A4C030F0A5C031F069
:100B8000000E326E000E336E200E346E410E356E46
:100B9000AAEC13F02EC0A2F02FC0A3F030C0A4F036
:100BA00031C0A5F000019E07D8A09F079AC02EF083
:100BB0009BC02FF09CC030F09DC031F0A2C032F03D
:100BC000A3C033F0A4C034F0A5C035F0C0EC1BF0D6
:100BD000D8A0EDEF05F0EFEF05F0B8EF05F068C035
:100BE00007F0086A26EC20F0075000018F6F8FC0D5
:100BF0008EF0670E8F19D8A400EF06F002EF06F012
:100C000028EF06F0F951FA11D8A409EF06F00BEF1E
:100C100006F00FEF06F0000EFA6F010EF96FFABF43
:100C20001CEF06F0FA5106E1F905D8B01AEF06F00C
:100C30001CEF06F022EF06F0000E8B6F060E8A6F97
:100C400031EF06F0F9C08AF0FAC08BF031EF06F010
:100C5000FABF2DEF06F02FEF06F01CEF06F022EFA3
:100C600006F0670E8F19D8A438EF06F03AEF06F0B9
:100C700069EF06F09FAF48EF06F0FC0E9E5DFF0E99
:100C80009F59D8A046EF06F048EF06F067EF06F050
:100C9000FF0E696FFF0E6A6F8AC06BF08BC06CF03D
:100CA00069516B276A516C239E516B5D6C51800AB0
:100CB0006D6F9F51800A6D59D8A061EF06F063EF08
:100CC00006F067EF06F0660E8E6F69EF06F0650EB0
:100CD0008E6F8AC080F08BC081F0670E8F19D8A408
:100CE00074EF06F076EF06F086EF06F0660E8E19CA
:100CF000D8A47DEF06F07FEF06F088EF06F09FBFE7
:100D000086EF06F084EF06F088EF06F0804B812B2B
:100D1000660E8E19D8A48FEF06F091EF06F0B1EFB2
:100D200006F09FBF98EF06F096EF06F0A4EF06F0EE
:100D3000000EA26F000EA36F800EA46F3F0EA56F72
:100D4000000E9F6F000E9E6F670E8F19D8B4ABEF29
:100D500006F0ADEF06F0B1EF06F09E5180279F51EF
:100D60008123000E996F000E986F9AC090F09BC07F
:100D700091F09CC092F09DC093F0A2C082F0A3C0FD
:100D800083F0A4C084F0A5C085F042EF07F090C0C6
:100D90002EF091C02FF092C030F093C031F0A2C07D
:100DA00032F0A3C033F0A4C034F0A5C035F0AAECF3
:100DB00013F02EC047F02FC048F030C049F031C0CA
:100DC0004AF091EC18F047C094F048C095F049C043
:100DD00096F04AC097F094C057F095C058F096C06E
:100DE00059F097C05AF03CEC1BF057C086F058C041
:100DF00087F090C057F091C058F092C059F093C05E
:100E00005AF0A2C019F0A3C01AF0A4C01BF0A5C0EC
:100E10001CF094C015F095C016F096C017F097C05E
:100E200018F0BFEC0FF015C05BF016C05CF017C0F7
:100E30005DF018C05EF019EC22F057C090F058C079
:100E400091F059C092F05AC093F0A2C02EF0A3C006
:100E50002FF0A4C030F0A5C031F0000E326E000EAD
:100E6000336E200E346E410E356EAAEC13F02EC098
:100E7000A2F02FC0A3F030C0A4F031C0A5F0000153
:100E8000984B992B8051985D9951800A696F8151D7
:100E9000800A6959D8A04FEF07F051EF07F0C7EF6C
:100EA00006F0A2C015F0A3C016F0A4C017F0A5C0AC
:100EB00018F0000E196E000E1A6EA00E1B6E400E7A
:100EC0001C6EBFEC0FF015C094F016C095F017C063
:100ED00096F018C097F090C02EF091C02FF092C0FD
:100EE00030F093C031F094C032F095C033F096C02A
:100EF00034F097C035F0C0EC1BF0D8B082EF07F0AB
:100F000084EF07F08FEF07F0000E0001946F000EE2
:100F1000956F000E966F000E976FB8EF07F090C0B8
:100F200001F091C002F092C003F093C004F094C0AD
:100F300005F095C006F096C007F097C008F02DECBC
:100F40001FF0D8A0A6EF07F0A8EF07F0B8EF07F062
:100F5000000186B1AEEF07F0B0EF07F0B8EF07F091
:100F6000000E946F000E956F000E966F000E976F37
:100F70009AC047F09BC048F09CC049F09DC04AF021
:100F800094C04BF095C04CF096C04DF097C04EF019
:100F90005FEC0DF047C090F048C091F049C092F06E
:100FA0004AC093F090C02EF091C02FF092C030F064
:100FB00093C031F0000E196E000E1A6E200E1B6EDB
:100FC000410E1C6E82C015F083C016F084C017F06D
:100FD00085C018F0BFEC0FF015C032F016C033F02A
:100FE00017C034F018C035F0C0EC1BF0D8A0FBEFF0
:100FF00007F0FDEF07F026EF08F000019E4B9F2B56
:1010000082C015F083C016F084C017F085C018F0B8
:10101000000E196E000E1A6E200E1B6E410E1C6E15
:10102000BFEC0FF015C082F016C083F017C084F03B
:1010300018C085F0660E00018E19D8A422EF08F0C2
:1010400024EF08F026EF08F0804B812B82C0A2F03D
:1010500083C0A3F084C0A4F085C0A5F0650E000194
:101060008E19D8B436EF08F038EF08F03EEF08F0EC
:101070009EC07EF09FC07FF042EF08F0000E7F6FB1
:10108000000E7E6F000E7D6F000E7C6F000E7B6F7A
:10109000000E7A6F000E996F000E986F3DEF09F009
:1010A00090C02EF091C02FF092C030F093C031F07C
:1010B000A2C032F0A3C033F0A4C034F0A5C035F014
:1010C000AAEC13F02EC047F02FC048F030C049F012
:1010D00031C04AF091EC18F047C094F048C095F048
:1010E00049C096F04AC097F094C057F095C058F0A8
:1010F00096C059F097C05AF03CEC1BF057C086F0F0
:1011000058C087F00001FBB988EF08F08AEF08F0BB
:10111000A7EF08F086518711D8A491EF08F093EF5C
:1011200008F0A7EF08F0670E8F19D8A49AEF08F01F
:101130009CEF08F0A7EF08F07FBFA3EF08F0A1EF46
:1011400008F0A7EF08F07A4B7B2BF1EF08F07C5109
:101150007D11D8A4AEEF08F0B0EF08F0DAEF08F098
:101160007FBFB7EF08F0B5EF08F0DAEF08F02A0E0E
:10117000A025D96E010EA121DA6E2E0EDF6EA04BD6
:10118000A12B8C07D8A08D07000E7D6F010E7C6F00
:10119000DAEF08F02A0EA025D96E010EA121DA6E31
:1011A000300EDF6EA04BA12B8C07D8A08D077A07DD
:1011B000D8A07B077A517B11D8A4E1EF08F0E3EFC8
:1011C00008F0CAEF08F02A0EA025D96E010EA12161
:1011D000DA6E8651300FDF6EA04BA12B8C07D8A0A2
:1011E0008D0790C057F091C058F092C059F093C04D
:1011F0005AF0A2C019F0A3C01AF0A4C01BF0A5C0F9
:101200001CF094C015F095C016F096C017F097C06A
:1012100018F0BFEC0FF015C05BF016C05CF017C003
:101220005DF018C05EF019EC22F057C090F058C085
:1012300091F059C092F05AC093F0A2C02EF0A3C012
:101240002FF0A4C030F0A5C031F0000E326E000EB9
:10125000336E200E346E410E356EAAEC13F02EC0A4
:10126000A2F02FC0A3F030C0A4F031C0A5F000015F
:101270007E07D8A07F07984B992B8051985D995194
:10128000800A696F8151800A6959D8B04AEF09F024
:101290004CEF09F05AEF09F0A1BF58EF09F0A15146
:1012A00009E14B0EA05DD8A058EF09F05AEF09F004
:1012B00050EF08F07C517D11D8A461EF09F063EF85
:1012C00009F074EF09F0FBA968EF09F06AEF09F083
:1012D00074EF09F02A0EA025D96E010EA121DA6E55
:1012E0002E0EDF6EA04BA12B2A0EA025D96E010E6B
:1012F000A121DA6E000EDF6E650E8E19D8A483EF81
:1013000009F085EF09F0DFEF04F0000E996F4F0E42
:10131000986F2A0E9825D96E010E9921DA6E000E6B
:10132000DF6E000E896F000E886F9FBF9CEF09F083
:101330009AEF09F0A4EF09F0000E896F010E886F93
:101340009E6D9F1FD8B09F2B000E8B6F020E8A6F71
:10135000D5EF09F09807D8A099072A0E9825D96EDD
:10136000010E9921DA6E9EC001F09FC002F0000EBE
:10137000046E0A0E036ED5EC1EF00150300FDF6EC6
:101380009EC001F09FC002F0000E046E0A0E036EB4
:1013900073EC1EF001C09EF002C09FF000018A07AE
:1013A000D8A08B078C07D8A08D079E519F11D8A479
:1013B000DCEF09F0DEEF09F0AAEF09F08BBFEBEFED
:1013C00009F08B5106E18A05D8B0E9EF09F0EBEF9F
:1013D00009F0AAEF09F09807D8A099078851891158
:1013E000D8A4F5EF09F0F7EF09F0FDEF09F0000ED2
:1013F000756F2B0E746F01EF0AF0000E756F2D0ED6
:10140000746F2A0E9825D96E010E9921DA6E74C078
:10141000DFFF8C07D8A08D079807D8A09907BF0ECB
:10142000696FFF0E6A6F68516B6F6C6B69516B2748
:101430006A516C236C510AE11A0E6B5DD8A023EF40
:101440000AF026EF0AF0010E27EF0AF0000E786F7F
:10145000796B78517911D8A430EF0AF032EF0AF0A5
:1014600038EF0AF0000E776F650E766F3CEF0AF0EA
:10147000000E776F450E766F2A0E9825D96E010EF5
:101480009921DA6E76C0DFFF8C07D8A08D072A0E6F
:10149000A025016E010EA121026E2A0E9825036E71
:1014A000010E9921046EB4EC20F0DFEF04F012007D
:1014B000A8C0D9FFA9C0DAFFDECFF6FFDDCFF7FF66
:1014C0000800F550250AD8A468EF0AF06AEF0AF080
:1014D00043EF0DF0A8C0D9FFA9C0DAFFDE2A000E45
:1014E000DD22000E0001F86F000EF76FF7C0FBF071
:1014F000F8C0FCF0F969FA69000EB96F000EB86F18
:10150000C8EF0AF0FB81A8C0D9FFA9C0DAFFDE2A24
:10151000000EDD22C8EF0AF0FB8383EF0AF0FB85A3
:1015200083EF0AF0FB8783EF0AF0FB8983EF0AF071
:10153000000EB96F010EB86FC8EF0AF0A8C0D9FF4E
:10154000A9C0DAFFDECFF6FFDDCFF7FF0800F550C8
:10155000AC6FAD6BAD51000AD8B4B1EF0AF098EFA3
:101560000AF0AC51200AD8B492EF0AF0030AD8B4BA
:1015700095EF0AF0080AD8B48FEF0AF0060AD8B43B
:1015800082EF0AF01D0AD8B48CEF0AF098EF0AF047
:10159000B851B911D8B4CFEF0AF0D1EF0AF09EEFED
:1015A0000AF0FBA1D6EF0AF0D8EF0AF0D9EF0AF063
:1015B000FB93A8C0D9FFA9C0DAFFDECFF6FFDDCFCD
:1015C000F7FF0800F5502E0AD8A4E9EF0AF0EBEF78
:1015D0000AF069EF0BF0000EFA6F000EF96FA8C069
:1015E000D9FFA9C0DAFFDE2A000EDD22A8C0D9FF8C
:1015F000A9C0DAFFDECFF6FFDDCFF7FF0800F55018
:101600002A0AD8A406EF0BF008EF0BF025EF0BF039
:10161000A8C0D9FFA9C0DAFFDE2A000EDD22AAC0C9
:10162000D9FFABC0DAFFDFCFACF0020EDE26DFCF92
:10163000ADF0000EDD22ACC0D9FFADC0DAFFDECFC9
:10164000F9F0DDCFFAF069EF0BF0A8C0D9FFA9C01F
:10165000DAFFDECF08F0DDCF09F074EC1AF008C035
:10166000F9F009C0FAF03CEF0BF0A8C0D9FFA9C00F
:10167000DAFFDE2A000EDD22D00E0001AC6FFF0E75
:10168000AD6FA8C0D9FFA9C0DAFFDECFF6FFDDCF6E
:10169000F7FF0800F550AE6FAF6BAC51AE27AD5100
:1016A000AF23AF510AE10A0EAE5DD8A05AEF0BF09E
:1016B0005DEF0BF0010E5EEF0BF0000EBA6FBB6B2F
:1016C000BA51BB11D8A467EF0BF069EF0BF035EFFF
:1016D0000BF0A8C0D9FFA9C0DAFFDECFF6FFDDCF3F
:1016E000F7FF0800F550076E086A26EC20F0075057
:1016F0000001C26FC251D8B480EF0BF082EF0BF043
:10170000BCEF0BF0A8C0D9FFA9C0DAFFDECFACF068
:10171000DDCFADF0010EAC27000EAD23ACC0F6FF5F
:10172000ADC0F7FF0800F550076E086A26EC20F000
:1017300007500001C36FC351D8B4A1EF0BF0A3EF62
:101740000BF0BCEF0BF0A8C0D9FFA9C0DAFFDECFC9
:10175000ACF0DDCFADF0020EAC27000EAD23ACC077
:10176000F6FFADC0F7FF0800F550076E086A26ECDB
:1017700020F007500001C46F660EC219D8A4C3EF51
:101780000BF0C5EF0BF005EF0CF0A8C0D9FFA9C016
:10179000DAFFDECFF6FFDDCFF7FF0800F5CFC5F0AB
:1017A000A8C0D9FFA9C0DAFFDE2A000EDD22AAC038
:1017B000D9FFABC0DAFFDFCFACF0040EDE26DFCFFF
:1017C000ADF0000EDD22ACC0D9FFADC0DAFFDECF38
:1017D000BEF0DECFBFF0DECFC0F0DECFC1F0A6C0DE
:1017E00062F0A7C063F0BEC064F0BFC065F0C0C0C7
:1017F00066F0C1C067F0C5C068F02CEC04F062C0B0
:10180000A6F063C0A7F05EEF0DF0C20E016E000EF1
:10181000026E4E0E036E080E046E000E066E020E71
:10182000056E40EC1DF001500210D8A41AEF0CF028
:101830001CEF0CF098EF0CF0A8C0D9FFA9C0DAFF9C
:10184000DECFACF0DDCFADF0010E0001AC27000E15
:10185000AD23ACC0F6FFADC0F7FF0800F5CFC5F073
:10186000BF0EAC6FFF0EAD6FA8C0D9FFA9C0DAFFE5
:10187000DECFF6FFDDCFF7FF0800F550AE6FAF6BA0
:10188000AC51AE27AD51AF23AF510AE11A0EAE5D98
:10189000D8A04DEF0CF050EF0CF0010E51EF0CF012
:1018A000000EBC6FBD6BBC51BD11D8B45AEF0CF02B
:1018B0005CEF0CF076EF0CF0AAC0D9FFABC0DAFFFA
:1018C000DFCFACF0040EDE26DFCFADF0000EDD2260
:1018D000ACC0D9FFADC0DAFFDECFBEF0DECFBFF0C7
:1018E000DECFC0F0DECFC1F08EEF0CF0AAC0D9FF82
:1018F000ABC0DAFFDFCFACF0040EDE26DFCFADF0F9
:10190000000EDD22ACC0D9FFADC0DAFFDECFBEF0E5
:10191000DECFBFF0DECFC0F0DECFC1F0020EA8C038
:10192000D9FFA9C0DAFFDE26000EDD22EFEF0BF0B3
:10193000A8C0D9FFA9C0DAFFDECFF6FFDDCFF7FFE1
:101940000800F550780AD8B4A8EF0CF0AAEF0CF014
:10195000BCEF0CF0A8C0D9FFA9C0DAFFDECFF6FFBC
:10196000DDCFF7FF0800F550580AD8A4BAEF0CF005
:10197000BCEF0CF00BEF0DF0A8C0D9FFA9C0DAFF47
:10198000DECFF6FFDDCFF7FF0800F5CFC5F0A8C02A
:10199000D9FFA9C0DAFFDE2A000EDD22AAC0D9FFD6
:1019A000ABC0DAFFDFCFACF0020EDE26DFCFADF04A
:1019B000000EDD22ACC0D9FFADC0DAFFDECFAEF045
:1019C000DDCFAFF0AEC0B0F0AFC0B1F00001B26B90
:1019D000B36BB46BB56BB66BB76BA6C01CF0A7C08E
:1019E0001DF0B0C01EF0B1C01FF0B2C020F0B3C0F7
:1019F00021F0B4C022F0B5C023F0B6C024F0B7C0C7
:101A000025F0C5C026F024EC17F01CC0A6F01DC0C0
:101A1000A7F05EEF0DF0A8C0D9FFA9C0DAFFDECFB6
:101A2000F6FFDDCFF7FF0800F550250AD8A41BEF1D
:101A30000DF01DEF0DF035EF0DF0A8C0D9FFA9C0D6
:101A4000DAFFDE2A000EDD22000E026E250E016E88
:101A5000A6C003F0A7C004F0ABEC1DF0000E00011F
:101A6000A76F010EA66F5EEF0DF0A8C0D9FFA9C049
:101A7000DAFFDE2A000EDD22000E0001A76F000E45
:101A8000A66F5EEF0DF0A8C0D9FFA9C0DAFFDECFC8
:101A9000F6FFDDCFF7FF0800F550016E026AA6C021
:101AA00003F0A7C004F0ABEC1DF0A8C0D9FFA9C09B
:101AB000DAFFDE2A000EDD222EEF0DF012004A5072
:101AC000800B536E4A504A24556E49AE6AEF0DF0B2
:101AD0006CEF0DF06DEF0DF055805550D8B473EFED
:101AE0000DF075EF0DF08AEF0DF05528D8A47BEFBF
:101AF0000DF07DEF0DF085EF0DF0000E476E000E3E
:101B0000486E000E496E000E4A6E498E000E4A6EF7
:101B100092EF0DF0000E476E000E486E000E496EFB
:101B2000000E4A6E4E50800B546E53505418D8B469
:101B30009CEF0DF09EEF0DF09FEF0DF0538C4E508B
:101B40004E24546E4DAEA7EF0DF0A9EF0DF0AAEFA5
:101B50000DF054805450D8B4B0EF0DF0B2EF0DF04A
:101B6000C7EF0DF05428D8A4B8EF0DF0BAEF0DF080
:101B7000C2EF0DF0000E4B6E000E4C6E000E4D6E5F
:101B8000000E4E6E4D8E000E4E6ECFEF0DF0000E1D
:101B90004B6E000E4C6E000E4D6E000E4E6E55508C
:101BA000545CD8B0D6EF0DF0D8EF0DF0FFEF0DF08C
:101BB00053ACDDEF0DF0DFEF0DF0E1EF0DF0800E37
:101BC000531A55C056F054C055F056C054F047C093
:101BD00056F04BC047F056C04BF048C056F04CC0D2
:101BE00048F056C04CF049C056F04DC049F056C0C0
:101BF0004DF04AC056F04EC04AF056C04EF0000EAE
:101C0000566E555054C04FF0506A4F5E000E505AF9
:101C100050BE14EF0EF0505009E11A0E4F5CD8A0E0
:101C200014EF0EF016EF0EF04DEF0EF04750481087
:101C300049104A10D8A41FEF0EF022EF0EF0010E4B
:101C400023EF0EF0000E566E000E476E000E486E2B
:101C5000000E496E000E4A6E54C055F056EF0EF05D
:101C600056A035EF0EF037EF0EF03DEF0EF0D890A6
:101C700056300109566E3FEF0EF0D890563247A00D
:101C800044EF0EF046EF0EF047EF0EF0568E4A345A
:101C90004A32493248324732552A5450555CD8A00E
:101CA00054EF0EF056EF0EF030EF0EF053BC5BEF3A
:101CB0000EF05DEF0EF09DEF0EF05550D8A463EFDF
:101CC0000EF065EF0EF06FEF0EF0000E476E000E97
:101CD000486E000E496E000E4A6EBEEF0FF04B507C
:101CE00047264C5048224D5049224E504A224AA085
:101CF0007CEF0EF07EEF0EF02AEF0FF056A083EF90
:101D00000EF085EF0EF08BEF0EF0D89056300109F3
:101D1000566E8DEF0EF0D890563247A092EF0EF02F
:101D200094EF0EF095EF0EF0568E4A344A32493257
:101D300048324732552A2AEF0FF04B50475C4C503F
:101D400048584D5049584A50800A4F6E4E50800AAC
:101D50004F58D8B0AEEF0EF0B0EF0EF0DBEF0EF054
:101D600047504B5C4F6E48504C58506E49504D5840
:101D7000516E4A504E58526EFF0E4F24476EFF0E62
:101D80005020486EFF0E5120496EFF0E52204A6EC1
:101D9000800E531A566C5650D8A4D1EF0EF0D3EFE4
:101DA0000EF0E3EF0EF0010E4726000E4822492206
:101DB0004A22E3EF0EF04B50475E4C50485A4D50CC
:101DC000495A4E504A5A4750481049104A10D8A410
:101DD000ECEF0EF0EEEF0EF023EF0FF05650D8A41C
:101DE000F4EF0EF0F6EF0EF023EF0FF0000E476E5B
:101DF000000E486E000E496E000E4A6EBEEF0FF0E8
:101E0000D8904736483649364A3656AE0AEF0FF074
:101E10000CEF0FF00DEF0FF0478056A012EF0FF010
:101E200014EF0FF018EF0FF0D88056361AEF0FF0BE
:101E3000D89056365550D8B420EF0FF022EF0FF05F
:101E400023EF0FF0550649AE28EF0FF02AEF0FF001
:101E500000EF0FF0000E546E56AE31EF0FF033EF7F
:101E60000FF04BEF0FF056C04FF07F0E4F16D8B467
:101E70003CEF0FF03EEF0FF042EF0FF0010E546E0B
:101E80004BEF0FF047A047EF0FF049EF0FF04BEF8C
:101E90000FF03EEF0FF05450D8B451EF0FF053EF66
:101EA0000FF07EEF0FF0010E4726000E4822492268
:101EB0004A224AA05EEF0FF060EF0FF07EEF0FF0C6
:101EC00047C04FF048C050F049C051F04AC052F0EE
:101ED00052345232513250324F324FC047F050C01C
:101EE00048F051C049F052C04AF05528D8B47BEFB1
:101EF0000FF07DEF0FF07EEF0FF0552A5528D8B484
:101F000084EF0FF086EF0FF08EEF0FF05550D8A44E
:101F10008CEF0FF08EEF0FF0A0EF0FF0000E476E7A
:101F2000000E486E000E496E000E4A6E5550D8A441
:101F30009CEF0FF09EEF0FF0A0EF0FF0000E536E2E
:101F400055A0A5EF0FF0A7EF0FF0AAEF0FF0498E05
:101F5000ABEF0FF0499ED89055304A6E53AEB3EFB9
:101F60000FF0B5EF0FF0B6EF0FF04A8E47C047F015
:101F700048C048F049C049F04AC04AF01200185021
:101F8000800B216E18501824276E17AECAEF0FF081
:101F9000CCEF0FF0CDEF0FF027802750D8B4D3EF60
:101FA0000FF0D5EF0FF0E8EF0FF02728D8A4DBEF04
:101FB0000FF0DDEF0FF0E5EF0FF0000E156E000EE5
:101FC000166E000E176E000E186E178EF0EF0FF0E3
:101FD000000E156E000E166E000E176E000E186EB7
:101FE0001C50800B211A1C501C24266E1BAEFBEFCC
:101FF0000FF0FDEF0FF0FEEF0FF026802650D8B463
:1020000004EF10F006EF10F019EF10F02628D8A416
:102010000CEF10F00EEF10F016EF10F0000E196E2E
:10202000000E1A6E000E1B6E000E1C6E1B8E21EF32
:1020300010F0000E196E000E1A6E000E1B6E000ED0
:102040001C6E2650D8B427EF10F029EF10F031EFB6
:1020500010F02750D8A42FEF10F031EF10F03BEF25
:1020600010F0000E156E000E166E000E176E000EAC
:10207000186ED3EF11F01B501502F3CF2CF0F4CFF4
:102080002DF02C50226E236A246A256A2D50286E6A
:10209000296A2A6A2B6A1A501602F3CF2CF0F4CF61
:1020A0002DF02C502226000E2322242225222D50F2
:1020B0002826000E29222A222B2219501702F3CF9C
:1020C0002CF0F4CF2DF02C502226000E23222422B7
:1020D00025222D502826000E29222A222B2224C018
:1020E00025F023C024F022C023F0226A19501602E2
:1020F000F3CF2CF0F4CF2DF02C5022262D5023229C
:10210000000E2422000E25221A501502F3CF2CF0C7
:10211000F4CF2DF02C5022262D502322000E242205
:10212000000E252224C025F023C024F022C023F075
:10213000226A19501502F3CF2CF0F4CF2DF02C5059
:1021400022262D502322000E2422000E25221B5071
:102150001602F3CF2CF0F4CF2DF02C5028262D5062
:102160002922000E2A22000E2B221A501702F3CF2A
:102170002CF0F4CF2DF02C5028262D502922000EC3
:102180002A22000E2B221B501702F3CF2CF0F4CF83
:102190002DF02C501D6E2D501E6E1F6A206A1FC020
:1021A00020F01EC01FF01DC01EF01D6A1D50282605
:1021B0001E5029221F502A2220502B2222C01DF0FF
:1021C00023C01EF024C01FF025C020F0190EEEEF32
:1021D00010F0D89020321F321E321D32E82EE9EF67
:1021E00010F01D5028261E5029221F502A22205050
:1021F0002B2224C025F023C024F022C023F0226A21
:10220000265027C01DF01E6A1D26000E1E22820EBB
:102210001D242C6EFF0E1E202D6E24EF11F0D89081
:10222000283629362A362B3625AE19EF11F01BEF4A
:1022300011F01CEF11F02880D89022362336243676
:1022400025362C06D8A02D062AAE29EF11F02BEF4B
:1022500011F00FEF11F0000E266E25AE32EF11F0E7
:1022600034EF11F058EF11F0FF0E22141D6EFF0E27
:1022700023141E6EFF0E24141F6E7F0E2514206E75
:102280001D501E101F102010D8B449EF11F04BEF55
:1022900011F04FEF11F0010E266E58EF11F028A04B
:1022A00054EF11F056EF11F058EF11F04BEF11F021
:1022B0002650D8B45EEF11F060EF11F084EF11F00A
:1022C000010E2826000E29222A222B222BA06BEF9A
:1022D00011F06DEF11F084EF11F028C01DF029C04E
:1022E0001EF02AC01FF02BC020F0203420321F32F5
:1022F0001E321D321DC028F01EC029F01FC02AF05A
:1023000020C02BF02C4A2D2A2DBE8FEF11F02D501E
:1023100008E12C28D8A08FEF11F091EF11F09BEF7E
:1023200011F0000E286E000E296E800E2A6E7F0EB0
:102330002B6EC9EF11F02DBEA8EF11F02D5006E164
:102340002C04D8B0A6EF11F0A8EF11F0B4EF11F003
:10235000000E286E000E296E000E2A6E000E2B6EE7
:10236000000E216EC9EF11F02CC027F0FF0E2816C9
:10237000FF0E29167F0E2A16000E2B1627A0C3EF7C
:1023800011F0C5EF11F0C6EF11F02A8ED89027306A
:102390002B6E21502B1228C015F029C016F02AC030
:1023A00017F02BC018F01200720ED36E000E966E4E
:1023B000F0EC23F067EC23F0000E0B6E010E0C6EB8
:1023C000080E0D6E010E81EC22F01BEC24F042ECA5
:1023D0001CF0000162C0E1F063C0E2F0E36BE46B6B
:1023E000E1C007F0E2C008F0E3C009F0E4C00AF081
:1023F000000E9AEC19F007C0F1F008C0F2F009C025
:10240000F3F00AC0F4F0C2EC1FF001C007F002C004
:1024100008F0096A0A6A000E9AEC19F007C0EDF09C
:1024200008C0EEF009C0EFF00AC0F0F077EC15F04C
:10243000000E026E0A0E016EADEC21F0000E2E6E43
:10244000000E2F6E700E306E410E316EF1C032F004
:10245000F2C033F0F3C034F0F4C035F0C0EC1BF040
:10246000D8B035EF12F037EF12F097EF12F0000E00
:102470002E6E000E2F6E000E306E000E316EEDC00F
:1024800032F0EEC033F0EFC034F0F0C035F0C0EC05
:102490001BF0D8B04EEF12F050EF12F097EF12F0A1
:1024A000EDC02EF0EEC02FF0EFC030F0F0C031F0F4
:1024B000000E326E000E336EC80E346E430E356E53
:1024C000C0EC1BF0D8B067EF12F069EF12F097EF95
:1024D00012F08D908D928D947A0E0001CE6F010EC8
:1024E000CF6F0F0ED06F080ED16FF1C0D2F0F2C0D7
:1024F000D3F0F3C0D4F0F4C0D5F00FEC21F0000E0F
:102500000B6E7A0E0C6E010E0D6E010E81EC22F038
:10251000E20E096E010E0A6E000ED2EC21F0C00E22
:1025200061EC21F0000E87EC21F082EC1FF0F1C08D
:102530002EF0F2C02FF0F3C030F0F4C031F0000EF6
:10254000326E000E336E400E346E410E356EC0ECAE
:102550001BF0D8A0AEEF12F0B0EF12F027EF13F09F
:10256000000E2E6E000E2F6E700E306E410E316E0C
:10257000F1C032F0F2C033F0F3C034F0F4C035F003
:10258000C0EC1BF0D8A0C7EF12F0C9EF12F027EF94
:1025900013F0000E2E6E000E2F6EC80E306E430E1E
:1025A000316EEDC032F0EEC033F0EFC034F0F0C069
:1025B00035F0C0EC1BF0D8B0E0EF12F0E2EF12F013
:1025C00027EF13F0EDC02EF0EEC02FF0EFC030F08B
:1025D000F0C031F0000E326E000E336E2F0E346EEE
:1025E000440E356EC0EC1BF0D8B0F9EF12F0FBEFE3
:1025F00012F027EF13F08D808D828D947A0E0001FA
:10260000CE6F010ECF6F0F0ED06F080ED16FF1C0DD
:10261000D2F0F2C0D3F0F3C0D4F0F4C0D5F00FEC98
:1026200021F0000E0B6E7A0E0C6E010E0D6E010E77
:1026300081EC22F0DA0E096E010E0A6E000ED2EC69
:1026400021F0C00E61EC21F0000E87EC21F0F1C00A
:102650002EF0F2C02FF0F3C030F0F4C031F0000ED5
:10266000326E000E336E400E346E410E356EC0EC8D
:102670001BF0D8B03EEF13F040EF13F09EEF13F0D5
:10268000000E2E6E000E2F6E2F0E306E440E316E29
:10269000EDC032F0EEC033F0EFC034F0F0C035F0F2
:1026A000C0EC1BF0D8B057EF13F059EF13F09EEFCA
:1026B00013F0EDC02EF0EEC02FF0EFC030F0F0C000
:1026C00031F0000E326E800E336EBB0E346E440E4F
:1026D000356EC0EC1BF0D8B070EF13F072EF13F052
:1026E0009EEF13F08D808D828D847A0E0001CE6F67
:1026F000010ECF6F0F0ED06F080ED16FF1C0D2F068
:10270000F2C0D3F0F3C0D4F0F4C0D5F00FEC21F058
:10271000000E0B6E7A0E0C6E010E0D6E010E81EC2A
:1027200022F0EA0E096E010E0A6E000ED2EC21F0C4
:10273000C00E61EC21F0000E87EC21F00B0E026E52
:10274000B80E016EADEC21F01BEC24F0E7EF11F0B8
:1027500007EF00F03150800B3E6E31503124456E52
:1027600030AEB5EF13F0B7EF13F0B8EF13F04580CC
:102770004550D8B4BEEF13F0C0EF13F0D5EF13F00F
:102780004528D8A4C6EF13F0C8EF13F0D0EF13F02C
:10279000000E2E6E000E2F6E000E306E000E316E8B
:1027A000308E000E316EDDEF13F0000E2E6E000E37
:1027B0002F6E000E306E000E316E3550800B3E1ABB
:1027C00035503524466E34AEE8EF13F0EAEF13F0DF
:1027D000EBEF13F046804650D8B4F1EF13F0F3EF6F
:1027E00013F008EF14F04628D8A4F9EF13F0FBEF2C
:1027F00013F003EF14F0000E326E000E336E000E75
:10280000346E000E356E348E000E356E10EF14F0FF
:10281000000E326E000E336E000E346E000E356EFA
:102820003250331034103510D8A419EF14F01BEFC8
:1028300014F033EF14F0000E2E6E000E2F6E000E0B
:10284000306E000E316E800E30127F0E31123E500F
:1028500031122EC02EF02FC02FF030C030F031C01A
:1028600031F076EF15F04550D8A439EF14F03BEF76
:1028700014F045EF14F0000E2E6E000E2F6E000EB9
:10288000306E000E316E76EF15F0465045C036F0D2
:10289000376A365E000E375A7F0E36243F6E000EC2
:1028A0003720406E2EC03AF02FC03BF030C03CF0D5
:1028B00031C03DF0000E2E6E000E2F6E000E306EF9
:1028C000000E316E000E416E000E426E000E436E21
:1028D000000E446E000E466EA6EF14F04650D8B4BB
:1028E00074EF14F076EF14F08DEF14F0D8903A36C0
:1028F0003B363C363D36D8902E362F363036313684
:1029000044AE85EF14F087EF14F088EF14F02E80BA
:10291000D890413642364336443632503A5C3350D2
:102920003B5834503C5835503D58D8A09AEF14F0DD
:102930009CEF14F0A5EF14F0448C32503A5E335003
:102940003B5A34503C5A35503D5A462A190E46647B
:10295000ACEF14F0AEEF14F06EEF14F03A503B1001
:102960003C103D10D8B4B7EF14F0B9EF14F0D1EF2C
:1029700014F04180D1EF14F0D8902E362F36303637
:10298000313644AEC6EF14F0C8EF14F0C9EF14F0BE
:102990002E80D89041364236433644363F06D8A082
:1029A000400630AED6EF14F0D8EF14F0BCEF14F0C0
:1029B000000E466E44AEDFEF14F0E1EF14F005EFC9
:1029C00015F0FF0E4114366EFF0E4214376EFF0EE7
:1029D0004314386E7F0E4414396E36503710381059
:1029E0003910D8B4F6EF14F0F8EF14F0FCEF14F04F
:1029F000010E466E05EF15F02EA001EF15F003EF66
:102A000015F005EF15F0F8EF14F04650D8B40BEFC1
:102A100015F00DEF15F031EF15F0010E2E26000E1A
:102A20002F223022312231A018EF15F01AEF15F0C5
:102A300031EF15F02EC036F02FC037F030C038F02F
:102A400031C039F03934393238323732363236C063
:102A50002EF037C02FF038C030F039C031F03F4A87
:102A6000402A40BE3CEF15F0405008E13F28D8A076
:102A70003CEF15F03EEF15F049EF15F0000E406EFB
:102A80003F68000E2E6E000E2F6E000E306E000E90
:102A9000316E40BE56EF15F0405006E13F04D8B00D
:102AA00054EF15F056EF15F064EF15F0000E406E80
:102AB000000E3F6E000E2E6E000E2F6E000E306E5A
:102AC000000E316E000E3E6E3FC045F045A06BEF2C
:102AD00015F06DEF15F070EF15F0308E71EF15F009
:102AE000309ED8904530316E27EF14F01200060E5C
:102AF0000101D16F050ED26F21EED3F011EE8EF0F1
:102B0000060EDBCFE3FFE806FCE2720ED36EF0ECBC
:102B100023F067EC23F01BEC24F0000E026E0A0E8B
:102B2000016EADEC21F0000E3CEC22F0D1C1DEF0E4
:102B3000010E0001DF6F000EE06FDE2BA3EF15F03A
:102B4000D890DF37E037DE2FA0EF15F001012451D8
:102B50000001DF17010125510001E017DF51E011ED
:102B6000D8B4B5EF15F0B7EF15F034EF16F0D2C1C9
:102B7000DEF0010EDF6F000EE06FDE2BC3EF15F00D
:102B8000D890DF37E037DE2FC0EF15F00101245178
:102B90000001DF17010125510001E017DF51E011AD
:102BA000D8B4D5EF15F0D7EF15F0E2EF15F00E0E13
:102BB0000B6E540E0C6E080E0D6E010E81EC22F0A1
:102BC000EBEF15F00E0E0B6E510E0C6E080E0D6E27
:102BD000010E81EC22F01F0E01012415246F256BDC
:102BE000B30E0001CE6F010ECF6F260ED06F080E10
:102BF000D16F28C1D2F029C1D3F00FEC21F0BD0E66
:102C00000001CE6F010ECF6F2E0ED06F080ED16F68
:102C100026C1D2F027C1D3F00FEC21F0C70E00017E
:102C2000CE6F010ECF6F2E0ED06F080ED16F24C164
:102C3000D2F025C1D3F00FEC21F0040E0B6EC70EBD
:102C40000C6E010E0D6E000E81EC22F0BD0E096EB1
:102C5000010E0A6E85EC20F0B30E096E010E0A6EAD
:102C600085EC20F071EF16F03F0E01012415246F62
:102C7000256BB30E0001CE6F010ECF6F260ED06F05
:102C8000080ED16F28C1D2F029C1D3F00FEC21F08A
:102C9000BD0E0001CE6F010ECF6F2E0ED06F080E4D
:102CA000D16F26C1D2F027C1D3F00FEC21F0C70EAF
:102CB0000001CE6F010ECF6F2E0ED06F080ED16FB8
:102CC00024C1D2F025C1D3F00FEC21F0040E0B6E1D
:102CD000C70E0C6E010E0D6E000E81EC22F026EF79
:102CE00016F0030EE2EC20F0FDEC23F0950E00014F
:102CF000CE6F010ECF6F2A0ED06F080ED16F20C19C
:102D0000D2F021C1D3F00FEC21F09F0E0001CE6F65
:102D1000010ECF6F2A0ED06F080ED16F1EC1D2F0F8
:102D20001FC1D3F00FEC21F0A90E0001CE6F010EF0
:102D3000CF6F260ED06F080ED16F1CC1D2F01DC10F
:102D4000D3F00FEC21F0020E0B6E950E0C6E010EFF
:102D50000D6E020E81EC22F09F0E096E010E0A6EBE
:102D600085EC20F0A90E096E010E0A6E85EC20F0AC
:102D7000F2EF16F0420E096E080E0A6E85EC20F096
:102D800023EF17F03E0E096E080E0A6E85EC20F058
:102D900023EF17F0360E096E080E0A6E85EC20F050
:102DA00023EF17F0320E096E080E0A6E85EC20F044
:102DB00023EF17F04A0E096E080E0A6E85EC20F01C
:102DC00023EF17F03A0E096E080E0A6E85EC20F01C
:102DD00023EF17F0460E096E080E0A6E85EC20F000
:102DE00023EF17F08E0E01012225D96E010E23214B
:102DF000DA6EDF500001DE6FDF6BDF51000AD8B4FE
:102E000004EF17F093EF15F0DE51460AD8B4E2EF65
:102E100016F00B0AD8B4C2EF16F01E0AD8B4BAEFF7
:102E200016F0070AD8B4CAEF16F0030AD8B4D2EFE6
:102E300016F0240AD8B4EAEF16F0070AD8B4DAEF8D
:102E400016F093EF15F012000001FABF2AEF17F009
:102E50002CEF17F02DEF17F0FB93FABF3AEF17F0B6
:102E6000FA5106E1F905D8B038EF17F03AEF17F04C
:102E700040EF17F0000E346E010E336E44EF17F082
:102E8000F9C033F0FAC034F0F7C035F0F8C036F0CE
:102E9000FBA94DEF17F04FEF17F053EF17F0FE0EB1
:102EA0003526FF0E36221EC037F01FC038F020C076
:102EB00039F021C03AF022C03BF023C03CF024C0DE
:102EC0003DF025C03EF0000E406E4F0E3F6E000EEE
:102ED0000101796F1FEF18F03F06D8A040060F0ED2
:102EE0003714416E426A42BE7FEF17F0425009E14B
:102EF0000A0E415CD8A07FEF17F081EF17F089EF41
:102F000017F0570E4124416E000E4220426E8FEFA3
:102F100017F0300E4124416E000E4220426EBF0E6B
:102F2000276EFF0E286E2650296E2A6A2750292602
:102F300028502A222A500AE11A0E295CD8A0A3EFB1
:102F400017F0A6EF17F0010EA7EF17F0000E2F6E87
:102F5000306A2F503010D8B4B0EF17F0B2EF17F03E
:102F6000E2EF17F09F0E276EFF0E286E200E411025
:102F7000296E000E42102A6E2750292628502A2238
:102F80002A500AE11A0E295CD8A0C9EF17F0CCEF3D
:102F900017F0010ECDEF17F0000E316E326A31508E
:102FA0003210D8B4D6EF17F0D8EF17F0E2EF17F0E1
:102FB00041C007F042C008F056EC20F007C041F0D5
:102FC00008C042F02A0E3F24D96E010E4020DA6E6E
:102FD00041C0DFFF3306D8A034063506D8A0360638
:102FE00037C027F038C028F039C029F03AC02AF09D
:102FF0003BC02BF03CC02CF03DC02DF03EC02EF06D
:10300000050E0CEF18F0D8902E322D322C322B32C8
:103010002A32293228322732E82E03EF18F027C04F
:1030200037F028C038F029C039F02AC03AF02BC058
:103030003BF02CC03CF02DC03DF02EC03EF040BE19
:103040002BEF18F0405009E1020E3F5CD8A02BEFA7
:1030500018F02DEF18F05EEF18F0375038103910D7
:103060003A103B103C103D103E10D8A43AEF18F037
:103070003CEF18F06CEF17F034BE49EF18F0345005
:1030800006E13304D8B047EF18F049EF18F06CEFC1
:1030900017F036BE54EF18F0365008E13504D8A0CA
:1030A00054EF18F056EF18F05EEF18F00001FBB384
:1030B0005CEF18F05EEF18F06CEF17F00001FBA961
:1030C00064EF18F066EF18F07CEF18F03F06D8A018
:1030D00040062A0E3F24D96E010E4020DA6E26C02B
:1030E000DFFF3F06D8A040062A0E3F24D96E010E0E
:1030F0004020DA6E300EDF6E1CC011F01DC012F0E1
:103100002A0E3F24136E010E4020146E35C015F0B8
:1031100036C016F010EC1EF011C01CF012C01DF0ED
:103120001200E5C057F0E6C058F0E7C059F0E8C01B
:103130005AF047C057F048C058F049C059F04AC04B
:103140005AF0810E4B6EFF0E4C6E57C04DF058C0BA
:103150004EF059C04FF05AC050F0180EB5EF18F0AD
:10316000D89050324F324E324D32E82EB0EF18F038
:103170004D504B24556E000E4C20566E56BECAEF75
:1031800018F0565009E1170E555CD8A0CAEF18F098
:10319000CCEF18F0D6EF18F047C047F048C048F021
:1031A00049C049F04AC04AF099EF19F056BEDBEF2A
:1031B00018F0DDEF18F04DEF19F055C04BF0FF0E91
:1031C0004C6EFF0E4D6E7F0E4E6E000E4F6E4B66B8
:1031D000ECEF18F0F4EF18F04F344F324E324D321E
:1031E0004C324B2EE7EF18F04CC051F04DC052F06E
:1031F0004EC053F04FC054F0515057144B6E5250C4
:1032000058144C6E535059144D6E54505A144E6EFF
:103210004B504C104D104E10D8A411EF19F013EF75
:1032200019F015EF19F0CCEF18F057C04BF058C05B
:103230004CF059C04DF05AC04EF0200E25EF19F059
:10324000D8904E324D324C324B32E82E20EF19F0EE
:103250004B504C104D104E10D8B431EF19F033EFE5
:1032600019F03BEF19F05150572652505822535045
:10327000592254505A22511C4B6E521C4C6E531CF6
:103280004D6E541C4E6E4B5057164C5058164D50A8
:1032900059164E505A1691EF19F057C04BF058C0BE
:1032A0004CF059C04DF05AC04EF0200E5DEF19F0B1
:1032B000D8904E324D324C324B32E82E58EF19F046
:1032C0004B504C104D104E10D8A469EF19F06BEF15
:1032D00019F075EF19F0000E576E000E586E000EC3
:1032E000596E000E5A6E91EF19F0D89057344B6E0C
:1032F00058344C6E59344D6E5A344E6E4B504C10FF
:103300004D104E10D8B487EF19F089EF19F091EFF6
:1033100019F0000E576E000E586E800E596EBF0EDB
:103320005A6E57C047F058C048F059C049F05AC0CB
:103330004AF012000F6E0F50D8B4A1EF19F0A3EFAE
:1033400019F0C5EF19F00ABEAAEF19F0A8EF19F0AD
:10335000C5EF19F007C00BF008C00CF009C00DF064
:103360000AC00EF00B1E0C1E0D1E0E1E0B2A000EA8
:103370000C220D220E220BC011F00CC012F00DC059
:1033800013F00EC014F0CDEF19F007C011F008C013
:1033900012F009C013F00AC014F007500810091009
:1033A0000A10D8A4D6EF19F0D8EF19F0E2EF19F00F
:1033B000000E076E000E086E000E096E000E0A6EFB
:1033C00073EF1AF0960E106EECEF19F0102AD890E9
:1033D0001432133212321132000E11140B6E000E21
:1033E00012140C6E000E13140D6EFE0E14140E6EDD
:1033F0000B500C100D100E10D8A401EF1AF003EFB3
:103400001AF0E6EF19F011EF1AF0102A010E11264A
:10341000000E122213221422D890143213321232C8
:103420001132000E11140B6E000E12140C6E000EF1
:1034300013140D6EFF0E14140E6E0B500C100D10A5
:103440000E10D8A426EF1AF028EF1AF005EF1AF0A4
:1034500030EF1AF01006D8901136123613361436A3
:1034600013BE35EF1AF037EF1AF03FEF1AF0020EE5
:1034700010603DEF1AF03FEF1AF02AEF1AF010B08B
:1034800044EF1AF046EF1AF047EF1AF0139ED89067
:10349000103210C00BF00C6A0D6A0E6A0BC00EF0F1
:1034A0000D6A0C6A0B6A0B5011120C5012120D505F
:1034B00013120E5014120F50D8B461EF1AF063EFCC
:1034C0001AF06BEF1AF00ABE6AEF1AF068EF1AF002
:1034D0006BEF1AF0148E11C007F012C008F013C081
:1034E00009F014C00AF01200000E166E000E156EE0
:1034F000000E0F6E000E0E6E80EF1AF0084A092AB9
:10350000010E146E08C0F6FF09C0F7FF0800F55061
:10351000200AD8B48EEF1AF090EF1AF0ADEF1AF03F
:10352000F70E0A6EFF0E0B6E08C0F6FF09C0F7FF1C
:103530000800F5500C6E0D6A0A500C260B500D2237
:103540000D5009E1050E0C5CD8A0A9EF1AF0ABEF05
:103550001AF0ADEF1AF0000E146E14C010F0116ADC
:1035600010501110D8A4B7EF1AF0B9EF1AF07EEF8F
:103570001AF0C3EF1AF0000E0F6E010E0E6E084A1D
:10358000092AF8EF1AF008C0F6FF09C0F7FF080093
:10359000F5500A6E0B6A0B50000AD8B4D2EF1AF03D
:1035A000F8EF1AF00A502B0AD8B4BFEF1AF0060A47
:1035B000D8B4BBEF1AF0F8EF1AF015C001F016C03E
:1035C00002F0000E046E0A0E036EADEC23F008C08C
:1035D000F6FF09C0F7FF0800F550015E000E025A21
:1035E000300E0124156E000E0220166EBFEF1AF089
:1035F000D00E0A6EFF0E0B6E08C0F6FF09C0F7FF73
:103600000800F5500C6E0D6A0A500C260B500D2266
:103610000D500AE10A0E0C5CD8A011EF1BF014EF5C
:103620001BF0010E15EF1BF0000E126E136A125004
:103630001310D8A41EEF1BF020EF1BF0DDEF1AF0E3
:103640000E500F10D8A427EF1BF029EF1BF037EF17
:103650001BF015C00AF016C00BF00A1E0B1E0A4A1A
:103660000B2A0AC008F00BC009F03BEF1BF015C095
:1036700008F016C009F0120059345A340001616F85
:103680006151D8A446EF1BF048EF1BF052EF1BF03E
:10369000000E576E000E586E000E596E000E5A6ED8
:1036A000BFEF1BF057C05BF058C05CF059C05DF035
:1036B0005AC05EF0200E62EF1BF0D8905E325D3291
:1036C0005C325B32E82E5DEF1BF05B50606F598E11
:1036D000FF0E5716FF0E5816FF0E5916000E5A16FB
:1036E000960E615F61BF79EF1BF077EF1BF08FEFF4
:1036F0001BF06151800A970FD8B081EF1BF083EF68
:103700001BF085EF1BF048EF1BF0D8905A3259326E
:1037100058325732613F85EF1BF0A7EF1BF01F0EA9
:10372000616595EF1BF097EF1BF09FEF1BF048EFE3
:103730001BF0D8905736583659365A3661076151C2
:10374000D8A4A5EF1BF0A7EF1BF099EF1BF0605179
:10375000D8B4ADEF1BF0AFEF1BF0B7EF1BF05A1E64
:10376000591E581E576C000E582259225A2257C013
:1037700057F058C058F059C059F05AC05AF01200CA
:10378000000E2E14366E000E2F14376E800E30147D
:10379000386E7F0E3114396E3650371038103910AC
:1037A000D8A4D5EF1BF0D7EF1BF0DFEF1BF0000E16
:1037B0002E6E000E2F6E000E306E000E316E000E5B
:1037C0003214366E000E3314376E800E3414386E99
:1037D0007F0E3514396E3650371038103910D8A492
:1037E000F4EF1BF0F6EF1BF0FEEF1BF0000E326E55
:1037F000000E336E000E346E000E356E31AE03EFE8
:103800001CF005EF1CF00EEF1CF02E6C2F1ED8B034
:103810002F2A301ED8B0302A800E315635AE13EF25
:103820001CF015EF1CF01EEF1CF0326C331ED8B0EC
:10383000332A341ED8B0342A800E3556000E2E1A84
:10384000000E2F1A000E301A800E311A000E321A96
:10385000000E331A000E341A800E351A32502E5CC8
:1038600033502F583450305835503158D8B03BEF82
:103870001CF03DEF1CF040EF1CF0D89041EF1CF025
:10388000D8801200000E956E9268700ED312D3503D
:10389000FC0B0209D36EC150F00B0E09C16ECF0EA6
:1038A000C116C30EC216C050C70B1009C06EC0505F
:1038B000F80B0109C06EC08EC280C282C2B263EF33
:1038C0001CF065EF1CF05EEF1CF0C4CF66F0000149
:1038D000676B6651646FC350666F64C067F0000E1B
:1038E0004B6E000E4C6E460E4D6EC20E4E6E000EAE
:1038F000326EC00E336E7F0E346E440E356E000E87
:10390000196E000E1A6EFA0E1B6E430E1C6E66C008
:1039100007F067C008F0096A0A6A000E9AEC19F00D
:1039200007C015F008C016F009C017F00AC018F05B
:10393000BFEC0FF015C02EF016C02FF017C030F0FE
:1039400018C031F0AAEC13F02EC047F02FC048F099
:1039500030C049F031C04AF05FEC0DF047C057F07D
:1039600048C058F049C059F04AC05AF03CEC1BF02E
:1039700057C066F058C067F066C062F067C063F079
:103980001200E9C00BF0EAC00CF0EBC00DF0ECC087
:103990000EF001C00BF002C00CF003C00DF004C02B
:1039A0000EF00BC005F00CC006F00DC007F00EC005
:1039B00008F0180EE1EF1CF0D890083207320632FA
:1039C0000532E82EDCEF1CF00550096E0A6A09503A
:1039D0000A10D8A4EEEF1CF0F0EF1CF010EF1DF071
:1039E000D8900B34056E0C34066E0D34076E0E3411
:1039F000086E0550061007100810D8A402EF1DF03D
:103A000004EF1DF00AEF1DF0000E026E020E016EB3
:103A10003FEF1DF0000E026E030E016E3FEF1DF032
:103A200009280A10D8A417EF1DF019EF1DF03BEF7D
:103A30001DF00BC005F00CC006F00DC007F00EC065
:103A400008F0090ED8900536063607360836E82EF7
:103A500022EF1DF00550061007100810D8B433EF00
:103A60001DF036EF1DF0010E37EF1DF0000E016E58
:103A7000026A3FEF1DF0000E026E040E016E12008E
:103A800001C008F002C009F003C00AF004C00BF046
:103A90000506D8A00606052806E10628D8A453EF97
:103AA0001DF055EF1DF062EF1DF0000E026E000ECE
:103AB000016EAAEF1DF0084A092A0A4A0B2A0506D8
:103AC000D8A0060608C0D9FF09C0DAFFDF50D8B475
:103AD0006CEF1DF06EEF1DF099EF1DF00AC0F6FFC0
:103AE0000BC0F7FF0800F5500009D8B47AEF1DF0BD
:103AF0007CEF1DF099EF1DF005500610D8B483EF50
:103B00001DF085EF1DF099EF1DF008C0D9FF09C029
:103B1000DAFFDF50076E0AC0F6FF0BC0F7FF0800A0
:103B2000F5500718D8B497EF1DF099EF1DF05BEF33
:103B30001DF008C0D9FF09C0DAFFDF50076E0AC0C8
:103B4000F6FF0BC0F7FF0800F550075C016E026A34
:103B5000D8A00206120003500410D8B4B2EF1DF032
:103B6000B4EF1DF0BDEF1DF003500410D8A4BBEF5F
:103B70001DF0BDEF1DF0C2EF1DF0015046EC24F02A
:103B80000FEF1EF020EE04F00350D9260450DA2285
:103B9000DE50DE10D8B4CFEF1DF0D1EF1DF0ECEF0A
:103BA0001DF020EE04F00350D9260450DA2210EE66
:103BB00002F00350E1260450E222DE50E65CE650BB
:103BC000800A096EDE50800A0958D8B0EAEF1DF06D
:103BD000ECEF1DF00FEF1EF020EE02F00350D9269F
:103BE0000450DA22DECF05F0DDCF06F003C0D9FFA6
:103BF00004C0DAFFDECF07F0DDCF08F00550072460
:103C0000D96E06500820DA6E01C0DFFF20EE02F008
:103C10000350D9260450DA22DE2A000EDD221200DB
:103C20000001FBA116EF1EF018EF1EF022EF1EF0B0
:103C300013C00AF014C00BF011C00CF012C00DF04C
:103C40005FEC22F016BE27EF1EF029EF1EF02FEFDB
:103C50001EF015C01AF016C01BF033EF1EF0000E58
:103C60001B6E000E1A6E000E196E000E186E45EFD8
:103C70001EF0000E026E200E016E11C003F012C085
:103C800004F0ABEC1DF0184A192A1A50185C1950B0
:103C9000800A176E1B50800A1758D8A052EF1EF0EA
:103CA00054EF1EF039EF1EF00001FBB15AEF1EF089
:103CB0005CEF1EF066EF1EF013C00AF014C00BF0AC
:103CC00011C00CF012C00DF05FEC22F013C001F037
:103CD00014C002F04CEC23F01A500124116E1B505A
:103CE0000220126E1200000E066E04BE7CEF1EF063
:103CF0007AEF1EF082EF1EF0036C041ED8B0042A87
:103D0000010E066E02BE89EF1EF087EF1EF08FEFE8
:103D10001EF0016C021ED8B0022A010E061A000E17
:103D2000086E000E076E03500410D8B49AEF1EF010
:103D30009CEF1EF0C4EF1EF0010E056EA4EF1EF006
:103D4000D89003360436052A04AEA9EF1EF0ABEF77
:103D50001EF0A0EF1EF0D890073608360350015C25
:103D600004500258D8A0B7EF1EF0B9EF1EF0BEEF16
:103D70001EF00350015E0450025A0780D8900432AE
:103D80000332052EABEF1EF00650D8B4CAEF1EF07A
:103D9000CCEF1EF0D0EF1EF0076C081ED8B0082A3A
:103DA00007C001F008C002F01200000E066E02BE4D
:103DB000DEEF1EF0DCEF1EF0E4EF1EF0016C021EE1
:103DC000D8B0022A010E066E04BEEBEF1EF0E9EF3A
:103DD0001EF0EFEF1EF0036C041ED8B0042A03504F
:103DE0000410D8B4F6EF1EF0F8EF1EF01CEF1FF031
:103DF000010E056E00EF1FF0D89003360436052A39
:103E000004AE05EF1FF007EF1FF0FCEF1EF00350AC
:103E1000015C04500258D8A010EF1FF012EF1FF001
:103E200016EF1FF00350015E0450025AD89004327E
:103E30000332052E07EF1FF00650D8B422EF1FF013
:103E400024EF1FF028EF1FF0016C021ED8B0022AE9
:103E500001C001F002C002F01200000E0114096E50
:103E6000000E02140A6E800E03140B6E7F0E0414F3
:103E70000C6E09500A100B100C10D8A442EF1FF062
:103E800044EF1FF04CEF1FF0000E016E000E026EAB
:103E9000000E036E000E046E000E0514096E000E77
:103EA00006140A6E800E07140B6E7F0E08140C6E3B
:103EB00009500A100B100C10D8A461EF1FF063EF2B
:103EC0001FF06BEF1FF0000E056E000E066E000E69
:103ED000076E000E086E055001180FE1065002181B
:103EE0000CE10750031809E108500418D8B47BEF1F
:103EF0001FF07DEF1FF080EF1FF0D89081EF1FF0D3
:103F0000D8801200000E026E000E036E38EC24F012
:103F100041EC24F025EC24F0F28CF28E3C0E0218D9
:103F2000D8A495EF1FF097EF1FF0B4EF1FF0060E27
:103F300003609DEF1FF09FEF1FF0B4EF1FF08CB4F4
:103F4000A4EF1FF0A7EF1FF0010EA8EF1FF0000E67
:103F5000FF0A016E014601468C500118FB0B011847
:103F60008C6E032AC1EF1FF0050E0364BAEF1FF039
:103F7000BCEF1FF0BEEF1FF0C1EF1FF0022A8EEF63
:103F80001FF01200000E956E9268700ED312D3507F
:103F9000FC0B0209D36EC150F00B0D09C16ECF0EA0
:103FA000C116C250C30B0409C26EC050C70B100922
:103FB000C06EC050F80B0109C06EC08EC280C282B4
:103FC000C2B2E5EF1FF0E7EF1FF0E0EF1FF0C4CF44
:103FD00005F0066A0550036EC350056E03C006F077
:103FE00005C001F006C002F01200C8C0CCF0C9C084
:103FF000CDF0000E0001F66F000EF56F13EF20F00C
:10400000C6C0A6F0C7C0A7F0CC0EA86F000EA96F5F
:10401000CAC0AAF0CBC0ABF058EC0AF00001A65120
:10402000F527A751F623CCC0F6FFCDC0F7FF080057
:10403000F5500009D8A41FEF20F021EF20F000EF89
:1040400020F0F5C0C6F0F6C0C7F01200BF0E096E32
:10405000FF0E0A6E07C00BF008C00CF009500B26CB
:104060000A500C220C500AE11A0E0B5CD8A03BEF50
:1040700020F03EEF20F0010E3FEF20F0000E0D6E1D
:104080000E6A0D500E10D8B448EF20F04AEF20F021
:1040900051EF20F0200E0710076E0850086E55EF04
:1040A00020F007C007F008C008F012009F0E096E4C
:1040B000FF0E0A6E07C00BF008C00CF009500B266B
:1040C0000A500C220C500AE11A0E0B5CD8A06BEFC0
:1040D00020F06EEF20F0010E6FEF20F0000E0D6E5D
:1040E0000E6A0D500E10D8B478EF20F07AEF20F061
:1040F00080EF20F05F0E0714076E086A84EF20F04F
:1041000007C007F008C008F012009BEF20F009C0BC
:10411000F6FF0AC0F7FFF86A070EF76403D008003D
:10412000F55005D0F6CFE1FFF7CFE2FFE75087EC7F
:1041300021F0094A0A2A09C0F6FF0AC0F7FFF86A07
:10414000070EF76403D00800F55005D0F6CFE1FF65
:10415000F7CFE2FFE7500009D8A4B1EF20F0B3EFAA
:1041600020F087EF20F0120003C007F004C008F031
:1041700001C009F002C00AF00750056E0850066E33
:10418000074A082A05C0F6FF06C0F7FFF86A09C00B
:10419000D9FF0AC0DAFF094A0A2A070EF76403D0DA
:1041A0000800F55005D0F6CFE1FFF7CFE2FFE7506A
:1041B000DF6EDF50D8A4DFEF20F0E1EF20F0BCEF9E
:1041C00020F01200046ED00E7FEC23F00450C0ECFF
:1041D00023F0D10E96EC23F0000EBFEC22F0036E1C
:1041E00003500101226F236B000EBFEC22F0036E1F
:1041F00003500101206F216B000EBFEC22F0036E13
:10420000035001011E6F1F6B010EBFEC22F0036E05
:10421000035001011C6F1D6BFDEC23F01200D20E48
:104220000001D66F000ED76FCEC0D8F0CFC0D9F046
:10423000000EDB6F000EDA6F000EDD6F000EDC6F1C
:10424000D80EC66F000EC76FD0C0C8F0D1C0C9F07D
:10425000D60ECA6F000ECB6FF5EC1FF00001DA51DD
:10426000CE25D96EDB51CF21DA6E000EDF6E120043
:10427000010E076E200E01180210D8B442EF21F093
:1042800044EF21F05DEF21F0F70E036EFF0E046E98
:1042900001C005F002C006F00350052604500622B6
:1042A000065009E1050E055CD8A059EF21F05BEF3F
:1042B00021F05DEF21F0000E076E07C001F0026AE9
:1042C0001200086E08C007F0F00E07168C500F0B96
:1042D00007108C6E8C908C8200F08C92000E026E17
:1042E000010E016EADEC21F008C007F0073AF00EA8
:1042F00007168C500F0B07108C6E8C8200F08C927E
:10430000000E026E030E016EADEC21F01200086E7D
:1043100008C007F0F00E07168C500F0B07108C6EBC
:104320008C808C8200F08C92000E026E010E016E69
:10433000ADEC21F008C007F0073AF00E07168C50DC
:104340000F0B07108C6E8C8200F08C92000E026EA8
:10435000030E016EADEC21F01200000E046E000E93
:10436000036EC6EF21F0000E066E000E056E054AC4
:10437000062A065009E1A50E055CD8A0C2EF21F07F
:10438000C4EF21F0B7EF21F0034A042A0150035C87
:1043900002500458D8A0CFEF21F0D1EF21F0B3EFB5
:1043A00021F012000B6E080E0B60D9EF21F0DBEF4D
:1043B00021F0F5EF21F00B50080DF350400F61ECA8
:1043C00021F0000E0C6E0C500924D96E000E0A204C
:1043D000DA6EDF5087EC21F00C2A070E0C64F3EF45
:1043E00021F0F5EF21F0E3EF21F01200A20EF66EBE
:1043F000470EF76E000EF86E01EED3F010EE1FF0D0
:104400000900F5CFEEFFE550E150FAE101EE00F0D2
:104410008E0EEE6AE806FDE100EEE5F0190EEE6A9A
:10442000E806FDE15F905F92000EF86E0001D4EFA8
:1044300011F0000E5B1A000E5C1A000E5D1A800E61
:104440005E1A57C047F058C048F059C049F05AC0EA
:104450004AF05BC04BF05CC04CF05DC04DF05EC0FC
:104460004EF05FEC0DF047C057F048C058F049C01F
:1044700059F04AC05AF01200046ED00E7FEC23F0BF
:104480000450C0EC23F0D10E96EC23F0000EBFECEC
:1044900022F0036E03500101286F296B000EBFEC60
:1044A00022F0036E03500101266F276B010EBFEC53
:1044B00022F0036E03500101246F256B1200000EE1
:1044C000106E000E0F6E70EF22F00EC001F0026A47
:1044D0000CC003F00DC004F0ABEC1DF00F4A102A25
:1044E0000F500A24D96E10500B20DA6EDF500E6E7A
:1044F0000E50D8A47EEF22F080EF22F065EF22F07C
:1045000012000E6E020E0E6088EF22F08AEF22F08B
:1045100093EF22F00B500F0B80090F6E0F5061ECE0
:1045200021F09AEF22F00B500F0BC0090F6E0F50C5
:1045300061EC21F00CC009F00DC00AF085EC20F010
:1045400012009F0E036EFF0E046E200E0110056E0A
:10455000000E0210066E0350052604500622065077
:104560000AE11A0E055CD8A0B8EF22F0BBEF22F0EA
:10457000010EBCEF22F0000E016E026A1200016E05
:10458000C586C7A0C6EF22F0C8EF22F0C1EF22F027
:10459000C9CF02F00150D8A4D0EF22F0D2EF22F020
:1045A000D6EF22F011EC24F0D8EF22F007EC24F043
:1045B0002FEC24F0025012009F0E036EFF0E046ECB
:1045C00001C005F002C006F0035005260450062283
:1045D00006500AE11A0E055CD8A0F1EF22F0F4EFC4
:1045E00022F0010EF5EF22F0000E016E026A1200B9
:1045F000BF0E036EFF0E046E01C005F002C006F090
:10460000035005260450062206500AE11A0E055CE6
:10461000D8A00DEF23F010EF23F0010E11EF23F0DF
:10462000000E016E026A1200015002100310041005
:10463000D8B41DEF23F01FEF23F027EF23F0000E77
:10464000011A000E021A000E031A800E041A01C08D
:1046500001F002C002F003C003F004C004F0120035
:10466000D00E036EFF0E046E01C005F002C006F00E
:10467000035005260450062206500AE10A0E055C86
:10468000D8A045EF23F048EF23F0010E49EF23F0C7
:10469000000E016E026A120001C003F002C004F0B5
:1046A00054EF23F0014A022A01C0D9FF02C0DAFF09
:1046B000DF50D8A45EEF23F060EF23F052EF23F039
:1046C0000350015C016E04500258026E1200000E8D
:1046D000956E000E026E0F0E016EADEC21F0020E13
:1046E00061EC21F0280E61EC21F0010E61EC21F06B
:1046F0000C0E61EC21F0060E61EC21F01200026E4E
:10470000C580C5B086EF23F088EF23F081EF23F05A
:104710009E96C7B68EEF23F090EF23F092EF23F032
:1047200095EF23F00250C0EC23F01200026EC58218
:10473000C5B29DEF23F09FEF23F098EF23F09E96F4
:10474000C7B6A5EF23F0A7EF23F0A9EF23F0ACEF56
:1047500023F00250C0EC23F0120001500302F3CF0B
:1047600005F0F4CF06F001500402F3500626025083
:104770000302F350062605C001F006C002F0120045
:10478000016E01C0C9FF2FEC24F0C5ACCAEF23F0C5
:10479000CCEF23F0CFEF23F0010ED0EF23F0020E89
:1047A0001200534D545774467300000E1F0E000044
:1047B00000150E11110E1500000E1F1F0E000A0A23
:0147C00000F8
:1047C20006009EA0E7EF23F0E9EF23F0EEEF23F0DF
:1047D200CF0ECF6E2C0ECE6E9E905F921100938004
:1047E2009382500EC76E280EC66E000EC56E130E53
:1047F200C86E9D869E961200C584C5B403EF24F050
:1048020005EF24F0FEEF23F0C7501200C58AC588D9
:10481200C5B80EEF24F010EF24F009EF24F01200D7
:10482200C59AC588C5B818EF24F01AEF24F013EF23
:1048320024F01200010E61EC21F0000E026E030E54
:10484200016EADEC21F01200CD88CD8ACF0ECF6E75
:104852002C0ECE6E9E909D80CD8012009EA634EFCF
:1048620024F036EF24F02FEF24F09E961200D38826
:10487200D38AD38CD350FC0B0209D36ED39E120081
:0C4882000F0EC11295948C9412001200CD
:020000040020DA
:08000000FFFFFFFFFFFFFFFF00
:020000040030CA
:0E0000000009181EFF8180FF0FC00FE00F40A7
:00000001FF
