:020000040000FA
:040000002AEF22F0D1
:100800000025302E30664300494E46004E414E00D2
:10081000696E66006E616E002578200025782D00D7
:1008200025783A0057656400547565004672690082
:100830004D6F6E0053756E005361740054687500FF
:100840006C6600414D00504D0000000E0001876FA6
:10085000000E866F62C098F063C099F064C09AF091
:1008600065C09BF09BBF39EF04F037EF04F04FEF0A
:1008700004F0000E876F010E866F98C001F099C0DA
:1008800002F09AC003F09BC004F0E2EC23F001C038
:1008900098F002C099F003C09AF004C09BF0000EDB
:1008A00000019F6F000E9E6FF4C08AF0F5C08BF0C0
:1008B00086518711D8A45FEF04F061EF04F068EF70
:1008C00004F0F8A566EF04F068EF04F082EF04F09E
:1008D00086518711D8A46FEF04F071EF04F077EF21
:1008E00004F0000E6D6F2B0E6C6F7BEF04F0000EAA
:1008F0006D6F2D0E6C6F6CC00EF19E4B9F2B8A0797
:10090000D8A08B0798C001F099C002F09AC003F0FC
:100910009BC004F097EC1CF001040210D8A493EFE4
:1009200004F095EF04F0ECEF04F0BF0E0001676FE8
:10093000FF0E686F6651696F6A6B6751692768516E
:100940006A236A510AE11A0E695DD8A0AAEF04F081
:10095000ADEF04F0010EAEEF04F0000E6E6F6F6BA2
:100960006E516F11D8B4B7EF04F0B9EF04F0C7EFD0
:1009700004F00E0E9E25016E010E9F21026E080EE0
:10098000036E080E046E23EC21F0D3EF04F00E0E7C
:100990009E25016E010E9F21026E100E036E080E41
:1009A000046E23EC21F00001FD0E8A27FF0E8B233D
:1009B00060C011F061C012F00E0E136E010E146EC5
:1009C0008AC015F08BC016F0E6EC1DF011C060F087
:1009D00012C061F050EF0AF098C001F099C002F027
:1009E0009AC003F09BC004F097EC1CF00150021079
:1009F000D8A4FDEF04F0FFEF04F03FEF05F0BF0EC9
:100A00000001676FFF0E686F6651696F6A6B67510F
:100A1000692768516A236A510AE11A0E695DD8A0F4
:100A200014EF05F017EF05F0010E18EF05F0000EBA
:100A3000706F716B70517111D8B421EF05F023EF15
:100A400005F031EF05F00E0E9E25016E010E9F217F
:100A5000026E0C0E036E080E046E23EC21F0D3EF31
:100A600004F00E0E9E25016E010E9F21026E140EE3
:100A7000036E080E046E23EC21F0D3EF04F0000E99
:100A80000001A06F000EA16F800EA26F3F0EA36F3A
:100A9000000E9D6F000E9C6F98C001F099C002F08F
:100AA0009AC003F09BC004F0000E056E000E066EA7
:100AB000000E076E000E086E65EC1FF0D8B063EFF5
:100AC00005F065EF05F0E8EF05F084EF05F0A0C054
:100AD00013F0A1C014F0A2C015F0A3C016F0000ED0
:100AE000176E000E186E200E196E410E1A6EB8ECBD
:100AF0000FF013C0A0F014C0A1F015C0A2F016C0F2
:100B0000A3F000019C4B9D2B98C02CF099C02DF0B8
:100B10009AC02EF09BC02FF0000E176E000E186EBC
:100B2000200E196E410E1A6EA0C013F0A1C014F071
:100B3000A2C015F0A3C016F0B8EC0FF013C030F04F
:100B400014C031F015C032F016C033F096EC1BF033
:100B5000D8B0ADEF05F0AFEF05F067EF05F0CFEFE0
:100B600005F0A0C02CF0A1C02DF0A2C02EF0A3C0B3
:100B70002FF0000E306E000E316E200E326E410EE0
:100B8000336ECDEC11F02CC0A0F02DC0A1F02EC022
:100B9000A2F02FC0A3F000019C07D8A09D0798C029
:100BA0002CF099C02DF09AC02EF09BC02FF0A0C061
:100BB00030F0A1C031F0A2C032F0A3C033F096EC07
:100BC0001BF0D8A0E6EF05F0E8EF05F0B1EF05F077
:100BD00066C007F0086A66EC20F0075000018D6FD0
:100BE0008DC08CF0670E8D19D8A4F9EF05F0FBEFDE
:100BF00005F021EF06F0F651F711D8A402EF06F048
:100C000004EF06F008EF06F0000EF76F010EF66F26
:100C1000F7BF15EF06F0F75106E1F605D8B013EF70
:100C200006F015EF06F01BEF06F0000E896F060EBA
:100C3000886F2AEF06F0F6C088F0F7C089F02AEF37
:100C400006F0F7BF26EF06F028EF06F015EF06F0E6
:100C50001BEF06F0670E8D19D8A431EF06F033EFC5
:100C600006F062EF06F09DAF41EF06F0FC0E9C5DD2
:100C7000FF0E9D59D8A03FEF06F041EF06F060EF60
:100C800006F0FF0E676FFF0E686F88C069F089C0BD
:100C90006AF06751692768516A239C51695D6A51FE
:100CA000800A6B6F9D51800A6B59D8A05AEF06F0ED
:100CB0005CEF06F060EF06F0660E8C6F62EF06F0F8
:100CC000650E8C6F88C07EF089C07FF0670E8D192D
:100CD000D8A46DEF06F06FEF06F07FEF06F0660E1A
:100CE0008C19D8A476EF06F078EF06F081EF06F0C5
:100CF0009DBF7FEF06F07DEF06F081EF06F07E4BA3
:100D00007F2B660E8C19D8A488EF06F08AEF06F0C8
:100D1000AAEF06F09DBF91EF06F08FEF06F09DEF72
:100D200006F0000EA06F000EA16F800EA26F3F0EA6
:100D3000A36F000E9D6F000E9C6F670E8D19D8B4C7
:100D4000A4EF06F0A6EF06F0AAEF06F09C517E276E
:100D50009D517F23000E976F000E966F98C08EF006
:100D600099C08FF09AC090F09BC091F0A0C080F025
:100D7000A1C081F0A2C082F0A3C083F03BEF07F0D6
:100D80008EC02CF08FC02DF090C02EF091C02FF0AF
:100D9000A0C030F0A1C031F0A2C032F0A3C033F047
:100DA000CDEC11F02CC045F02DC046F02EC047F020
:100DB0002FC048F0BCEC17F045C092F046C093F04D
:100DC00047C094F048C095F092C055F093C056F0DB
:100DD00094C057F095C058F013EC1BF055C084F048
:100DE00056C085F08EC055F08FC056F090C057F0B9
:100DF00091C058F0A0C017F0A1C018F0A2C019F01F
:100E0000A3C01AF092C013F093C014F094C015F070
:100E100095C016F0B8EC0FF013C059F014C05AF09A
:100E200015C05BF016C05CF00AEC23F055C08EF0E4
:100E300056C08FF057C090F058C091F0A0C02CF071
:100E4000A1C02DF0A2C02EF0A3C02FF0000E306E76
:100E5000000E316E200E326E410E336ECDEC11F06D
:100E60002CC0A0F02DC0A1F02EC0A2F02FC0A3F086
:100E70000001964B972B7E51965D9751800A676FC4
:100E80007F51800A6759D8A048EF07F04AEF07F072
:100E9000C0EF06F0A0C013F0A1C014F0A2C015F07E
:100EA000A3C016F0000E176E000E186EA00E196E7D
:100EB000400E1A6EB8EC0FF013C092F014C093F00D
:100EC00015C094F016C095F08EC02CF08FC02DF098
:100ED00090C02EF091C02FF092C030F093C031F04E
:100EE00094C032F095C033F096EC1BF0D8B07BEF95
:100EF00007F07DEF07F088EF07F0000E0001926F1A
:100F0000000E936F000E946F000E956FB1EF07F017
:100F10008EC001F08FC002F090C003F091C004F0C9
:100F200092C005F093C006F094C007F095C008F099
:100F300065EC1FF0D8A09FEF07F0A1EF07F0B1EF2D
:100F400007F0000184B1A7EF07F0A9EF07F0B1EFB8
:100F500007F0000E926F000E936F000E946F000E5C
:100F6000956F98C045F099C046F09AC047F09BC075
:100F700048F092C049F093C04AF094C04BF095C03D
:100F80004CF058EC0DF045C08EF046C08FF047C0D5
:100F900090F048C091F08EC02CF08FC02DF090C022
:100FA0002EF091C02FF0000E176E000E186E200E5E
:100FB000196E410E1A6E80C013F081C014F082C009
:100FC00015F083C016F0B8EC0FF013C030F014C069
:100FD00031F015C032F016C033F096EC1BF0D8A0FB
:100FE000F4EF07F0F6EF07F01FEF08F000019C4B5D
:100FF0009D2B80C013F081C014F082C015F083C017
:1010000016F0000E176E000E186E200E196E410EAF
:101010001A6EB8EC0FF013C080F014C081F015C048
:1010200082F016C083F0660E00018C19D8A41BEF65
:1010300008F01DEF08F01FEF08F07E4B7F2B80C0FB
:10104000A0F081C0A1F082C0A2F083C0A3F0650E21
:1010500000018C19D8B42FEF08F031EF08F037EF0A
:1010600008F09CC07CF09DC07DF03BEF08F0000EC6
:101070007D6F000E7C6F000E7B6F000E7A6F000E8E
:10108000796F000E786F000E976F000E966F36EF37
:1010900009F08EC02CF08FC02DF090C02EF091C0C2
:1010A0002FF0A0C030F0A1C031F0A2C032F0A3C038
:1010B00033F0CDEC11F02CC045F02DC046F02EC021
:1010C00047F02FC048F0BCEC17F045C092F046C086
:1010D00093F047C094F048C095F092C055F093C08B
:1010E00056F094C057F095C058F013EC1BF055C063
:1010F00084F056C085F00001F8B981EF08F083EF65
:1011000008F0A0EF08F084518511D8A48AEF08F008
:101110008CEF08F0A0EF08F0670E8D19D8A493EFBC
:1011200008F095EF08F0A0EF08F07DBF9CEF08F005
:101130009AEF08F0A0EF08F0784B792BEAEF08F06F
:101140007A517B11D8A4A7EF08F0A9EF08F0D3EFEC
:1011500008F07DBFB0EF08F0AEEF08F0D3EF08F075
:101160000E0E9E25D96E010E9F21DA6E2E0EDF6EB9
:101170009E4B9F2B8A07D8A08B07000E7B6F010E1A
:101180007A6FD3EF08F00E0E9E25D96E010E9F21C7
:10119000DA6E300EDF6E9E4B9F2B8A07D8A08B072E
:1011A0007807D8A0790778517911D8A4DAEF08F038
:1011B000DCEF08F0C3EF08F00E0E9E25D96E010E8D
:1011C0009F21DA6E8451300FDF6E9E4B9F2B8A0772
:1011D000D8A08B078EC055F08FC056F090C057F046
:1011E00091C058F0A0C017F0A1C018F0A2C019F02B
:1011F000A3C01AF092C013F093C014F094C015F07D
:1012000095C016F0B8EC0FF013C059F014C05AF0A6
:1012100015C05BF016C05CF00AEC23F055C08EF0F0
:1012200056C08FF057C090F058C091F0A0C02CF07D
:10123000A1C02DF0A2C02EF0A3C02FF0000E306E82
:10124000000E316E200E326E410E336ECDEC11F079
:101250002CC0A0F02DC0A1F02EC0A2F02FC0A3F092
:1012600000017C07D8A07D07964B972B7E51965D99
:101270009751800A676F7F51800A6759D8B043EF52
:1012800009F045EF09F053EF09F09FBF51EF09F066
:101290009F5109E14B0E9E5DD8A051EF09F053EF2D
:1012A00009F049EF08F07A517B11D8A45AEF09F000
:1012B0005CEF09F06DEF09F0F8A961EF09F063EF59
:1012C00009F06DEF09F00E0E9E25D96E010E9F21DB
:1012D000DA6E2E0EDF6E9E4B9F2B0E0E9E25D96E64
:1012E000010E9F21DA6E000EDF6E650E8C19D8A4F8
:1012F0007CEF09F07EEF09F0D8EF04F0000E976F55
:101300004F0E966F0E0E9625D96E010E9721DA6E4E
:10131000000EDF6E000E876F000E866F9DBF95EF8B
:1013200009F093EF09F09DEF09F0000E876F010EB1
:10133000866F9C6D9D1FD8B09D2B000E896F020E8D
:10134000886FCEEF09F09607D8A097070E0E962566
:10135000D96E010E9721DA6E9CC001F09DC002F09B
:10136000000E046E0A0E036E0DEC1FF00150300FDC
:10137000DF6E9CC001F09DC002F0000E046E0A0EEC
:10138000036EABEC1EF001C09CF002C09DF00001AA
:101390008807D8A089078A07D8A08B079C519D1180
:1013A000D8A4D5EF09F0D7EF09F0A3EF09F089BF72
:1013B000E4EF09F0895106E18805D8B0E2EF09F0C1
:1013C000E4EF09F0A3EF09F09607D8A0970786513C
:1013D0008711D8A4EEEF09F0F0EF09F0F6EF09F06D
:1013E000000E736F2B0E726FFAEF09F0000E736F21
:1013F0002D0E726F0E0E9625D96E010E9721DA6EA4
:1014000072C0DFFF8A07D8A08B079607D8A097077E
:10141000BF0E676FFF0E686F6651696F6A6B675129
:10142000692768516A236A510AE11A0E695DD8A0DA
:101430001CEF0AF01FEF0AF0010E20EF0AF0000E79
:10144000766F776B76517711D8A429EF0AF02BEFDE
:101450000AF031EF0AF0000E756F650E746F35EF0C
:101460000AF0000E756F450E746F0E0E9625D96E3C
:10147000010E9721DA6E74C0DFFF8A07D8A08B07B0
:101480000E0E9E25016E010E9F21026E0E0E9625F8
:10149000036E010E9721046E23EC21F0D8EF04F0C7
:1014A0001200A6C0D9FFA7C0DAFFDECFF6FFDDCF5E
:1014B000F7FF0800F550250AD8A461EF0AF063EFA2
:1014C0000AF03CEF0DF0A6C0D9FFA7C0DAFFDE2A74
:1014D000000EDD22000E0001F56F000EF46FF4C067
:1014E000F8F0F5C0F9F0F669F769000EB76F000E75
:1014F000B66FC1EF0AF0F881A6C0D9FFA7C0DAFF26
:10150000DE2A000EDD22C1EF0AF0F8837CEF0AF03C
:10151000F8857CEF0AF0F8877CEF0AF0F8897CEF19
:101520000AF0000EB76F010EB66FC1EF0AF0A6C049
:10153000D9FFA7C0DAFFDECFF6FFDDCFF7FF080047
:10154000F550AA6FAB6BAB51000AD8B4AAEF0AF002
:1015500091EF0AF0AA51200AD8B48BEF0AF0030ADF
:10156000D8B48EEF0AF0080AD8B488EF0AF0060A59
:10157000D8B47BEF0AF01D0AD8B485EF0AF091EFDA
:101580000AF0B651B711D8B4C8EF0AF0CAEF0AF0A2
:1015900097EF0AF0F8A1CFEF0AF0D1EF0AF0D2EFFF
:1015A0000AF0F893A6C0D9FFA7C0DAFFDECFF6FF96
:1015B000DDCFF7FF0800F5502E0AD8A4E2EF0AF0BD
:1015C000E4EF0AF062EF0BF0000EF76F000EF66F1B
:1015D000A6C0D9FFA7C0DAFFDE2A000EDD22A6C012
:1015E000D9FFA7C0DAFFDECFF6FFDDCFF7FF080097
:1015F000F5502A0AD8A4FFEF0AF001EF0BF01EEF16
:101600000BF0A6C0D9FFA7C0DAFFDE2A000EDD224C
:10161000A8C0D9FFA9C0DAFFDFCFAAF0020EDE26EC
:10162000DFCFABF0000EDD22AAC0D9FFABC0DAFFDE
:10163000DECFF6F0DDCFF7F062EF0BF0A6C0D9FFFA
:10164000A7C0DAFFDECF08F0DDCF09F09FEC19F07C
:1016500008C0F6F009C0F7F035EF0BF0A6C0D9FFCF
:10166000A7C0DAFFDE2A000EDD22D00E0001AA6F2D
:10167000FF0EAB6FA6C0D9FFA7C0DAFFDECFF6FF23
:10168000DDCFF7FF0800F550AC6FAD6BAA51AC276A
:10169000AB51AD23AD510AE10A0EAC5DD8A053EFBA
:1016A0000BF056EF0BF0010E57EF0BF0000EB86F7A
:1016B000B96BB851B911D8A460EF0BF062EF0BF021
:1016C0002EEF0BF0A6C0D9FFA7C0DAFFDECFF6FFE2
:1016D000DDCFF7FF0800F550076E086A66EC20F0D2
:1016E00007500001C06FC051D8B479EF0BF07BEF09
:1016F0000BF0B5EF0BF0A6C0D9FFA7C0DAFFDECF25
:10170000AAF0DDCFABF0010EAA27000EAB23AAC0D2
:10171000F6FFABC0F7FF0800F550076E086A66ECED
:1017200020F007500001C16FC151D8B49AEF0BF0FF
:101730009CEF0BF0B5EF0BF0A6C0D9FFA7C0DAFF06
:10174000DECFAAF0DDCFABF0020EAA27000EAB234E
:10175000AAC0F6FFABC0F7FF0800F550076E086A95
:1017600066EC20F007500001C26F660EC019D8A4C5
:10177000BCEF0BF0BEEF0BF0FEEF0BF0A6C0D9FFF5
:10178000A7C0DAFFDECFF6FFDDCFF7FF0800F5CF09
:10179000C3F0A6C0D9FFA7C0DAFFDE2A000EDD2203
:1017A000A8C0D9FFA9C0DAFFDFCFAAF0040EDE2659
:1017B000DFCFABF0000EDD22AAC0D9FFABC0DAFF4D
:1017C000DECFBCF0DECFBDF0DECFBEF0DECFBFF0AF
:1017D000A4C060F0A5C061F0BCC062F0BDC063F001
:1017E000BEC064F0BFC065F0C3C066F025EC04F075
:1017F00060C0A4F061C0A5F057EF0DF0C00E016EFF
:10180000000E026E400E036E080E046E000E066E91
:10181000020E056E16EC1DF001500210D8A413EF55
:101820000CF015EF0CF091EF0CF0A6C0D9FFA7C09B
:10183000DAFFDECFAAF0DDCFABF0010E0001AA2760
:10184000000EAB23AAC0F6FFABC0F7FF0800F5CF30
:10185000C3F0BF0EAA6FFF0EAB6FA6C0D9FFA7C023
:10186000DAFFDECFF6FFDDCFF7FF0800F550AC6FF3
:10187000AD6BAA51AC27AB51AD23AD510AE11A0EA5
:10188000AC5DD8A046EF0CF049EF0CF0010E4AEF2A
:101890000CF0000EBA6FBB6BBA51BB11D8B453EF4A
:1018A0000CF055EF0CF06FEF0CF0A8C0D9FFA9C0F9
:1018B000DAFFDFCFAAF0040EDE26DFCFABF0000E9A
:1018C000DD22AAC0D9FFABC0DAFFDECFBCF0DECF8D
:1018D000BDF0DECFBEF0DECFBFF087EF0CF0A8C0CA
:1018E000D9FFA9C0DAFFDFCFAAF0040EDE26DFCFD2
:1018F000ABF0000EDD22AAC0D9FFABC0DAFFDECF0D
:10190000BCF0DECFBDF0DECFBEF0DECFBFF0020E0A
:10191000A6C0D9FFA7C0DAFFDE26000EDD22E8EF61
:101920000BF0A6C0D9FFA7C0DAFFDECFF6FFDDCFF0
:10193000F7FF0800F550780AD8B4A1EF0CF0A3EF38
:101940000CF0B5EF0CF0A6C0D9FFA7C0DAFFDECFD0
:10195000F6FFDDCFF7FF0800F550580AD8A4B3EF23
:101960000CF0B5EF0CF004EF0DF0A6C0D9FFA7C046
:10197000DAFFDECFF6FFDDCFF7FF0800F5CFC3F0CB
:10198000A6C0D9FFA7C0DAFFDE2A000EDD22A8C05C
:10199000D9FFA9C0DAFFDFCFAAF0020EDE26DFCF23
:1019A000ABF0000EDD22AAC0D9FFABC0DAFFDECF5C
:1019B000ACF0DDCFADF0ACC0AEF0ADC0AFF000012B
:1019C000B06BB16BB26BB36BB46BB56BA4C01CF0F6
:1019D000A5C01DF0AEC01EF0AFC01FF0B0C020F01B
:1019E000B1C021F0B2C022F0B3C023F0B4C024F0E3
:1019F000B5C025F0C3C026F012EC15F01CC0A4F051
:101A00001DC0A5F057EF0DF0A6C0D9FFA7C0DAFFA3
:101A1000DECFF6FFDDCFF7FF0800F550250AD8A48A
:101A200014EF0DF016EF0DF02EEF0DF0A6C0D9FF5C
:101A3000A7C0DAFFDE2A000EDD22000E026E250EA0
:101A4000016EA4C003F0A5C004F081EC1DF0000EEF
:101A50000001A56F010EA46F57EF0DF0A6C0D9FFCE
:101A6000A7C0DAFFDE2A000EDD22000E0001A56FFE
:101A7000000EA46F57EF0DF0A6C0D9FFA7C0DAFF84
:101A8000DECFF6FFDDCFF7FF0800F550016E026AEA
:101A9000A4C003F0A5C004F081EC1DF0A6C0D9FFDE
:101AA000A7C0DAFFDE2A000EDD2227EF0DF01200BC
:101AB0004850800B516E48504824536E47AE63EF38
:101AC0000DF065EF0DF066EF0DF053805350D8B474
:101AD0006CEF0DF06EEF0DF083EF0DF05328D8A4EE
:101AE00074EF0DF076EF0DF07EEF0DF0000E456E09
:101AF000000E466E000E476E000E486E478E000EBA
:101B0000486E8BEF0DF0000E456E000E466E000E17
:101B1000476E000E486E4C50800B526E515052185A
:101B2000D8B495EF0DF097EF0DF098EF0DF0518CC4
:101B30004C504C24526E4BAEA0EF0DF0A2EF0DF0C6
:101B4000A3EF0DF052805250D8B4A9EF0DF0ABEFD7
:101B50000DF0C0EF0DF05228D8A4B1EF0DF0B3EFA7
:101B60000DF0BBEF0DF0000E496E000E4A6E000E38
:101B70004B6E000E4C6E4B8E000E4C6EC8EF0DF08F
:101B8000000E496E000E4A6E000E4B6E000E4C6E3B
:101B90005350525CD8B0CFEF0DF0D1EF0DF0F8EF0D
:101BA0000DF051ACD6EF0DF0D8EF0DF0DAEF0DF0EF
:101BB000800E511A53C054F052C053F054C052F02A
:101BC00045C054F049C045F054C049F046C054F0F7
:101BD0004AC046F054C04AF047C054F04BC047F0EA
:101BE00054C04BF048C054F04CC048F054C04CF0C6
:101BF000000E546E535052C04DF04E6A4D5E000EB2
:101C00004E5A4EBE0DEF0EF04E5009E11A0E4D5CCD
:101C1000D8A00DEF0EF00FEF0EF046EF0EF045508E
:101C2000461047104810D8A418EF0EF01BEF0EF026
:101C3000010E1CEF0EF0000E546E000E456E000EED
:101C4000466E000E476E000E486E52C053F04FEFC6
:101C50000EF054A02EEF0EF030EF0EF036EF0EF037
:101C6000D89054300109546E38EF0EF0D8905432A9
:101C700045A03DEF0EF03FEF0EF040EF0EF0548E1A
:101C800048344832473246324532532A5250535C28
:101C9000D8A04DEF0EF04FEF0EF029EF0EF051BC33
:101CA00054EF0EF056EF0EF096EF0EF05350D8A40E
:101CB0005CEF0EF05EEF0EF068EF0EF0000E456E7A
:101CC000000E466E000E476E000E486EB7EF0FF026
:101CD000495045264A5046224B5047224C504822F4
:101CE00048A075EF0EF077EF0EF023EF0FF054A041
:101CF0007CEF0EF07EEF0EF084EF0EF0D8905430B3
:101D00000109546E86EF0EF0D890543245A08BEF47
:101D10000EF08DEF0EF08EEF0EF0548E48344832F8
:101D2000473246324532532A23EF0FF04950455C83
:101D30004A5046584B5047584850800A4D6E4C50B8
:101D4000800A4D58D8B0A7EF0EF0A9EF0EF0D4EFEF
:101D50000EF04550495C4D6E46504A584E6E475005
:101D60004B584F6E48504C58506EFF0E4D24456EE8
:101D7000FF0E4E20466EFF0E4F20476EFF0E502086
:101D8000486E800E511A546C5450D8A4CAEF0EF00D
:101D9000CCEF0EF0DCEF0EF0010E4526000E4622D1
:101DA00047224822DCEF0EF04950455E4A50465A21
:101DB0004B50475A4C50485A45504610471048100F
:101DC000D8A4E5EF0EF0E7EF0EF01CEF0FF0545043
:101DD000D8A4EDEF0EF0EFEF0EF01CEF0FF0000EB9
:101DE000456E000E466E000E476E000E486EB7EF51
:101DF0000FF0D890453646364736483654AE03EF96
:101E00000FF005EF0FF006EF0FF0458054A00BEF39
:101E10000FF00DEF0FF011EF0FF0D880543613EFE5
:101E20000FF0D89054365350D8B419EF0FF01BEF81
:101E30000FF01CEF0FF0530647AE21EF0FF023EF2A
:101E40000FF0F9EF0EF0000E526E54AE2AEF0FF0C5
:101E50002CEF0FF044EF0FF054C04DF07F0E4D16F5
:101E6000D8B435EF0FF037EF0FF03BEF0FF0010E66
:101E7000526E44EF0FF045A040EF0FF042EF0FF02D
:101E800044EF0FF037EF0FF05250D8B44AEF0FF095
:101E90004CEF0FF077EF0FF0010E4526000E4622B3
:101EA0004722482248A057EF0FF059EF0FF077EF85
:101EB0000FF045C04DF046C04EF047C04FF048C04F
:101EC00050F0503450324F324E324D324DC045F00A
:101ED0004EC046F04FC047F050C048F05328D8B429
:101EE00074EF0FF076EF0FF077EF0FF0532A5328CF
:101EF000D8B47DEF0FF07FEF0FF087EF0FF0535066
:101F0000D8A485EF0FF087EF0FF099EF0FF0000ED8
:101F1000456E000E466E000E476E000E486E535022
:101F2000D8A495EF0FF097EF0FF099EF0FF0000E98
:101F3000516E53A09EEF0FF0A0EF0FF0A3EF0FF044
:101F4000478EA4EF0FF0479ED8905330486E51AEA5
:101F5000ACEF0FF0AEEF0FF0AFEF0FF0488E45C0D3
:101F600045F046C046F047C047F048C048F0120070
:101F70001650800B1F6E16501624256E15AEC3EF3B
:101F80000FF0C5EF0FF0C6EF0FF025802550D8B445
:101F9000CCEF0FF0CEEF0FF0E1EF0FF02528D8A433
:101FA000D4EF0FF0D6EF0FF0DEEF0FF0000E136E50
:101FB000000E146E000E156E000E166E158EE9EFF3
:101FC0000FF0000E136E000E146E000E156E000E54
:101FD000166E1A50800B1F1A1A501A24246E19AE4E
:101FE000F4EF0FF0F6EF0FF0F7EF0FF0248024502E
:101FF000D8B4FDEF0FF0FFEF0FF012EF10F0242830
:10200000D8A405EF10F007EF10F00FEF10F0000E5E
:10201000176E000E186E000E196E000E1A6E198ED5
:102020001AEF10F0000E176E000E186E000E196EEB
:10203000000E1A6E2450D8B420EF10F022EF10F0EA
:102040002AEF10F02550D8A428EF10F02AEF10F056
:1020500034EF10F0000E136E000E146E000E156EAD
:10206000000E166ECCEF11F019501302F3CF2AF0C8
:10207000F4CF2BF02A50206E216A226A236A2B505B
:10208000266E276A286A296A18501402F3CF2AF0AC
:10209000F4CF2BF02A502026000E212222222322C8
:1020A0002B502626000E27222822292217501502FF
:1020B000F3CF2AF0F4CF2BF02A502026000E212255
:1020C000222223222B502626000E272228222922D4
:1020D00022C023F021C022F020C021F0206A175036
:1020E0001402F3CF2AF0F4CF2BF02A5020262B50E5
:1020F0002122000E2222000E232218501302F3CFB9
:102100002AF0F4CF2BF02A5020262B502122000E4B
:102110002222000E232222C023F021C022F020C060
:1021200021F0206A17501302F3CF2AF0F4CF2BF0DE
:102130002A5020262B502122000E2222000E23227C
:1021400019501402F3CF2AF0F4CF2BF02A50262690
:102150002B502722000E2822000E2922185015028B
:10216000F3CF2AF0F4CF2BF02A5026262B5027222B
:10217000000E2822000E292219501502F3CF2AF052
:10218000F4CF2BF02A501B6E2B501C6E1D6A1E6A5A
:102190001DC01EF01CC01DF01BC01CF01B6A1B5094
:1021A00026261C5027221D5028221E50292220C0DE
:1021B0001BF021C01CF022C01DF023C01EF0190E20
:1021C000E7EF10F0D8901E321D321C321B32E82E81
:1021D000E2EF10F01B5026261C5027221D5028220B
:1021E0001E50292222C023F021C022F020C021F05D
:1021F000206A245025C01BF01C6A1B26000E1C22DE
:10220000820E1B242A6EFF0E1C202B6E1DEF11F078
:10221000D890263627362836293623AE12EF11F00D
:1022200014EF11F015EF11F02680D89020362136EA
:10223000223623362A06D8A02B0628AE22EF11F02C
:1022400024EF11F008EF11F0000E246E23AE2BEFF7
:1022500011F02DEF11F051EF11F0FF0E20141B6E55
:10226000FF0E21141C6EFF0E22141D6E7F0E231410
:102270001E6E1B501C101D101E10D8B442EF11F022
:1022800044EF11F048EF11F0010E246E51EF11F000
:1022900026A04DEF11F04FEF11F051EF11F044EF88
:1022A00011F02450D8B457EF11F059EF11F07DEF31
:1022B00011F0010E2626000E27222822292229A00D
:1022C00064EF11F066EF11F07DEF11F026C01BF006
:1022D00027C01CF028C01DF029C01EF01E341E327D
:1022E0001D321C321B321BC026F01CC027F01DC043
:1022F00028F01EC029F02A4A2B2A2BBE88EF11F0A5
:102300002B5008E12A28D8A088EF11F08AEF11F0AD
:1023100094EF11F0000E266E000E276E800E286ED0
:102320007F0E296EC2EF11F02BBEA1EF11F02B50E2
:1023300006E12A04D8B09FEF11F0A1EF11F0ADEF44
:1023400011F0000E266E000E276E000E286E000E95
:10235000296E000E1F6EC2EF11F02AC025F0FF0E8D
:102360002616FF0E27167F0E2816000E291625A00A
:10237000BCEF11F0BEEF11F0BFEF11F0288ED89036
:102380002530296E1F50291226C013F027C014F0E3
:1023900028C015F029C016F012002F50800B3C6E9B
:1023A0002F502F24436E2EAED8EF11F0DAEF11F03C
:1023B000DBEF11F043804350D8B4E1EF11F0E3EFCD
:1023C00011F0F8EF11F04328D8A4E9EF11F0EBEF8A
:1023D00011F0F3EF11F0000E2C6E000E2D6E000EBA
:1023E0002E6E000E2F6E2E8E000E2F6E00EF12F04E
:1023F000000E2C6E000E2D6E000E2E6E000E2F6E37
:102400003350800B3C1A33503324446E32AE0BEF02
:1024100012F00DEF12F00EEF12F044804450D8B4D9
:1024200014EF12F016EF12F02BEF12F04428D8A49C
:102430001CEF12F01EEF12F026EF12F0000E306EBD
:10244000000E316E000E326E000E336E328E000EB4
:10245000336E33EF12F0000E306E000E316E000E50
:10246000326E000E336E3050311032103310D8A45B
:102470003CEF12F03EEF12F056EF12F0000E2C6E11
:10248000000E2D6E000E2E6E000E2F6E800E2E1280
:102490007F0E2F123C502F122CC02CF02DC02DF08F
:1024A0002EC02EF02FC02FF099EF13F04350D8A478
:1024B0005CEF12F05EEF12F068EF12F0000E2C6E7F
:1024C000000E2D6E000E2E6E000E2F6E99EF13F083
:1024D000445043C034F0356A345E000E355A7F0EE6
:1024E00034243D6E000E35203E6E2CC038F02DC0D9
:1024F00039F02EC03AF02FC03BF0000E2C6E000ECB
:102500002D6E000E2E6E000E2F6E000E3F6E000E12
:10251000406E000E416E000E426E000E446EC9EF1A
:1025200012F04450D8B497EF12F099EF12F0B0EFD8
:1025300012F0D890383639363A363B36D8902C36A9
:102540002D362E362F3642AEA8EF12F0AAEF12F03B
:10255000ABEF12F02C80D8903F36403641364236F1
:102560003050385C3150395832503A5833503B581B
:10257000D8A0BDEF12F0BFEF12F0C8EF12F0428CFE
:102580003050385E3150395A32503A5A33503B5AF3
:10259000442A190E4464CFEF12F0D1EF12F091EFFC
:1025A00012F0385039103A103B10D8B4DAEF12F06C
:1025B000DCEF12F0F4EF12F03F80F4EF12F0D8905D
:1025C0002C362D362E362F3642AEE9EF12F0EBEFD9
:1025D00012F0ECEF12F02C80D8903F3640364136A6
:1025E00042363D06D8A03E062EAEF9EF12F0FBEFC4
:1025F00012F0DFEF12F0000E446E42AE02EF13F065
:1026000004EF13F028EF13F0FF0E3F14346EFF0EAB
:102610004014356EFF0E4114366E7F0E4214376E35
:102620003450351036103710D8B419EF13F01BEFB3
:1026300013F01FEF13F0010E446E28EF13F02CA0DF
:1026400024EF13F026EF13F028EF13F01BEF13F035
:102650004450D8B42EEF13F030EF13F054EF13F0D2
:10266000010E2C26000E2D222E222F222FA03BEF12
:1026700013F03DEF13F054EF13F02CC034F02DC0E5
:1026800035F02EC036F02FC037F0373437323632BF
:102690003532343234C02CF035C02DF036C02EF037
:1026A00037C02FF03D4A3E2A3EBE5FEF13F03E504A
:1026B00008E13D28D8A05FEF13F061EF13F06CEF55
:1026C00013F0000E3E6E3D68000E2C6E000E2D6E57
:1026D000000E2E6E000E2F6E3EBE79EF13F03E50B0
:1026E00006E13D04D8B077EF13F079EF13F087EFF0
:1026F00013F0000E3E6E000E3D6E000E2C6E000EAE
:102700002D6E000E2E6E000E2F6E000E3C6E3DC024
:1027100043F043A08EEF13F090EF13F093EF13F01C
:102720002E8E94EF13F02E9ED89043302F6E4AEFEA
:1027300012F01200050E0101B56F21EECEF011EE80
:1027400072F0060EDBCFE3FFE806FCE2720ED36EFA
:10275000D4EC24F06AEC24F0FFEC24F0000E026EBE
:102760000A0E016E9EEC22F0000EE7EC22F0010151
:1027700008ADBDEF13F0BFEF13F023EF14F008AB7B
:10278000C4EF13F0C6EF13F0D1EF13F00E0E0B6E83
:10279000460E0C6E080E0D6E010E4FEC23F0DAEFB4
:1027A00013F00E0E0B6E430E0C6E080E0D6E010E26
:1027B0004FEC23F01F0E01010815086F096B970EEF
:1027C0000001CC6F010ECD6F180ECE6F080ECF6FCB
:1027D0000CC1D0F00DC1D1F0D8EC21F0A10E000158
:1027E000CC6F010ECD6F200ECE6F080ECF6F0AC1D9
:1027F000D0F00BC1D1F0D8EC21F0AB0E0001CC6FC2
:10280000010ECD6F200ECE6F080ECF6F08C1D0F035
:1028100009C1D1F0D8EC21F0040E0B6EAB0E0C6E9A
:10282000010E0D6E000E4FEC23F0A10E096E010E8D
:102830000A6EF4EC20F0970E096E010E0A6EF4ECAD
:1028400020F05FEF14F03F0E0815086F096B970E2C
:102850000001CC6F010ECD6F180ECE6F080ECF6F3A
:102860000CC1D0F00DC1D1F0D8EC21F0A10E0001C7
:10287000CC6F010ECD6F200ECE6F080ECF6F0AC148
:10288000D0F00BC1D1F0D8EC21F0AB0E0001CC6F31
:10289000010ECD6F200ECE6F080ECF6F08C1D0F0A5
:1028A00009C1D1F0D8EC21F0040E0B6EAB0E0C6E0A
:1028B000010E0D6E000E4FEC23F015EF14F0030E19
:1028C00051EC21F0E1EC24F0790E0001CC6F010E07
:1028D000CD6F1C0ECE6F080ECF6F04C1D0F005C1B6
:1028E000D1F0D8EC21F0830E0001CC6F010ECD6F3A
:1028F0001C0ECE6F080ECF6F02C1D0F003C1D1F015
:10290000D8EC21F08D0E0001CC6F010ECD6F180EAA
:10291000CE6F080ECF6F00C1D0F001C1D1F0D8EC5E
:1029200021F0020E0B6E790E0C6E010E0D6E020E72
:102930004FEC23F0830E096E010E0A6EF4EC20F0CA
:102940008D0E096E010E0A6EF4EC20F0E0EF14F02B
:10295000340E096E080E0A6EF4EC20F011EF15F03B
:10296000300E096E080E0A6EF4EC20F011EF15F02F
:10297000280E096E080E0A6EF4EC20F011EF15F027
:10298000240E096E080E0A6EF4EC20F011EF15F01B
:102990003C0E096E080E0A6EF4EC20F011EF15F0F3
:1029A0002C0E096E080E0A6EF4EC20F011EF15F0F3
:1029B000380E096E080E0A6EF4EC20F011EF15F0D7
:1029C000720E01010625D96E010E0721DA6EDF5065
:1029D0000001DC6FDD6BDD51000AD8B4F2EF14F0BA
:1029E00011EF15F0DC51460AD8B4D0EF14F00B0A01
:1029F000D8B4B0EF14F01E0AD8B4A8EF14F0070A48
:102A0000D8B4B8EF14F0030AD8B4C0EF14F0240A15
:102A1000D8B4D8EF14F0070AD8B4C8EF14F011EF07
:102A200015F012000001F7BF18EF15F01AEF15F0BE
:102A30001BEF15F0F893F7BF28EF15F0F75106E1FB
:102A4000F605D8B026EF15F028EF15F02EEF15F0AB
:102A5000000E346E010E336E32EF15F0F6C033F017
:102A6000F7C034F0F4C035F0F5C036F0F8A93BEF0C
:102A700015F03DEF15F041EF15F0FE0E3526FF0E77
:102A800036221EC037F01FC038F020C039F021C0F8
:102A90003AF022C03BF023C03CF024C03DF025C0FA
:102AA0003EF0000E406E4F0E3F6E000E01015D6F56
:102AB0000DEF16F03F06D8A040060F0E3714416EFA
:102AC000426A42BE6DEF15F0425009E10A0E415CC8
:102AD000D8A06DEF15F06FEF15F077EF15F0570EEA
:102AE0004124416E000E4220426E7DEF15F0300E03
:102AF0004124416E000E4220426EBF0E276EFF0E33
:102B0000286E2650296E2A6A2750292628502A2204
:102B10002A500AE11A0E295CD8A091EF15F094EF23
:102B200015F0010E95EF15F0000E2F6E306A2F5044
:102B30003010D8B49EEF15F0A0EF15F0D0EF15F0DF
:102B40009F0E276EFF0E286E200E4110296E000E7C
:102B500042102A6E2750292628502A222A500AE19C
:102B60001A0E295CD8A0B7EF15F0BAEF15F0010ED8
:102B7000BBEF15F0000E316E326A31503210D8B40E
:102B8000C4EF15F0C6EF15F0D0EF15F041C007F017
:102B900042C008F0C5EC20F007C041F008C042F088
:102BA0000E0E3F24D96E010E4020DA6E41C0DFFFC9
:102BB0003306D8A034063506D8A0360637C027F02D
:102BC00038C028F039C029F03AC02AF03BC02BF0B9
:102BD0003CC02CF03DC02DF03EC02EF0050EFAEFAB
:102BE00015F0D8902E322D322C322B322A32293247
:102BF00028322732E82EF1EF15F027C037F028C031
:102C000038F029C039F02AC03AF02BC03BF02CC074
:102C10003CF02DC03DF02EC03EF040BE19EF16F046
:102C2000405009E1020E3F5CD8A019EF16F01BEFEF
:102C300016F04CEF16F03750381039103A103B10A0
:102C40003C103D103E10D8A428EF16F02AEF16F0E5
:102C50005AEF15F034BE37EF16F0345006E1330466
:102C6000D8B035EF16F037EF16F05AEF15F036BE44
:102C700042EF16F0365008E13504D8A042EF16F0C6
:102C800044EF16F04CEF16F00001F8B34AEF16F0DF
:102C90004CEF16F05AEF15F00001F8A952EF16F0BC
:102CA00054EF16F06AEF16F03F06D8A040060E0E5D
:102CB0003F24D96E010E4020DA6E26C0DFFF3F06AA
:102CC000D8A040060E0E3F24D96E010E4020DA6EC9
:102CD000300EDF6E1CC011F01DC012F00E0E3F242E
:102CE000136E010E4020146E35C015F036C016F07C
:102CF000E6EC1DF011C01CF012C01DF0120018EC23
:102D00001CF0000160C068F061C069F06A6B6B6B19
:102D100068C005F069C006F06AC007F06BC008F033
:102D2000000EC5EC18F005C0EEF006C0EFF007C0CD
:102D3000F0F008C0F1F001EC20F001C005F002C095
:102D400006F0076A086A000EC5EC18F005C0EAF044
:102D500006C0EBF007C0ECF008C0EDF0000E2C6EE2
:102D6000000E2D6E700E2E6E410E2F6EEEC030F0E6
:102D7000EFC031F0F0C032F0F1C033F096EC1BF050
:102D8000D8B0C5EF16F0C7EF16F000EF17F0000E41
:102D90002C6E000E2D6E000E2E6E000E2F6EEAC0F1
:102DA00030F0EBC031F0ECC032F0EDC033F096EC17
:102DB0001BF0D8B0DEEF16F0E0EF16F000EF17F0E2
:102DC000EAC02CF0EBC02DF0ECC02EF0EDC02FF0DF
:102DD000000E306E000E316EC80E326E430E336E32
:102DE00096EC1BF0D8B0F7EF16F0F9EF16F000EF05
:102DF00017F0000E0001676F010E666FBBEF17F052
:102E0000EEC02CF0EFC02DF0F0C02EF0F1C02FF08E
:102E1000000E306E000E316E400E326E410E336E7B
:102E200096EC1BF0D8A017EF17F019EF17F06BEF27
:102E300017F0000E2C6E000E2D6E700E2E6E410ED1
:102E40002F6EEEC030F0EFC031F0F0C032F0F1C0C4
:102E500033F096EC1BF0D8A030EF17F032EF17F0FC
:102E60006BEF17F0000E2C6E000E2D6EC80E2E6E3E
:102E7000430E2F6EEAC030F0EBC031F0ECC032F000
:102E8000EDC033F096EC1BF0D8B049EF17F04BEFE4
:102E900017F06BEF17F0EAC02CF0EBC02DF0ECC090
:102EA0002EF0EDC02FF0000E306E000E316E2F0EA2
:102EB000326E440E336E96EC1BF0D8B062EF17F012
:102EC00064EF17F06BEF17F0000E0001676F020E52
:102ED000666FBBEF17F0EEC02CF0EFC02DF0F0C026
:102EE0002EF0F1C02FF0000E306E000E316E400E4D
:102EF000326E410E336E96EC1BF0D8B082EF17F0B5
:102F000084EF17F0BBEF17F0000E2C6E000E2D6E45
:102F10002F0E2E6E440E2F6EEAC030F0EBC031F053
:102F2000ECC032F0EDC033F096EC1BF0D8B09BEF64
:102F300017F09DEF17F0BBEF17F0EAC02CF0EBC0D5
:102F40002DF0ECC02EF0EDC02FF0000E306E800E94
:102F5000316EBB0E326E440E336E96EC1BF0D8B061
:102F6000B4EF17F0B6EF17F0BBEF17F0000E00014B
:102F7000676F030E666F1200E2C055F0E3C056F0B3
:102F8000E4C057F0E5C058F045C055F046C056F0D3
:102F900047C057F048C058F0810E496EFF0E4A6E88
:102FA00055C04BF056C04CF057C04DF058C04EF0D5
:102FB000180EE0EF17F0D8904E324D324C324B32B3
:102FC000E82EDBEF17F04B504924536E000E4A20D9
:102FD000546E54BEF5EF17F0545009E1170E535CD0
:102FE000D8A0F5EF17F0F7EF17F001EF18F045C094
:102FF00045F046C046F047C047F048C048F0C4EF2F
:1030000018F054BE06EF18F008EF18F078EF18F03B
:1030100053C049F0FF0E4A6EFF0E4B6E7F0E4C6E92
:10302000000E4D6E496617EF18F01FEF18F04D3483
:103030004D324C324B324A32492E12EF18F04AC010
:103040004FF04BC050F04CC051F04DC052F04F50BB
:103050005514496E505056144A6E515057144B6EC9
:10306000525058144C6E49504A104B104C10D8A472
:103070003CEF18F03EEF18F040EF18F0F7EF17F0C4
:1030800055C049F056C04AF057C04BF058C04CF0FC
:10309000200E50EF18F0D8904C324B324A32493261
:1030A000E82E4BEF18F049504A104B104C10D8B492
:1030B0005CEF18F05EEF18F066EF18F04F505526F1
:1030C0005050562251505722525058224F1C496E90
:1030D000501C4A6E511C4B6E521C4C6E495055167A
:1030E0004A5056164B5057164C505816BCEF18F015
:1030F00055C049F056C04AF057C04BF058C04CF08C
:10310000200E88EF18F0D8904C324B324A324932B8
:10311000E82E83EF18F049504A104B104C10D8A4F9
:1031200094EF18F096EF18F0A0EF18F0000E556E1F
:10313000000E566E000E576E000E586EBCEF18F063
:10314000D8905534496E56344A6E57344B6E5834C5
:103150004C6E49504A104B104C10D8B4B2EF18F0D6
:10316000B4EF18F0BCEF18F0000E556E000E566E5E
:10317000800E576EBF0E586E55C045F056C046F0D3
:1031800057C047F058C048F012000D6E0D50D8B42B
:10319000CCEF18F0CEEF18F0F0EF18F008BED5EF36
:1031A00018F0D3EF18F0F0EF18F005C009F006C0E2
:1031B0000AF007C00BF008C00CF0091E0A1E0B1E17
:1031C0000C1E092A000E0A220B220C2209C00FF045
:1031D0000AC010F00BC011F00CC012F0F8EF18F09C
:1031E00005C00FF006C010F007C011F008C012F0C3
:1031F0000550061007100810D8A401EF19F003EFCE
:1032000019F00DEF19F0000E056E000E066E000E9F
:10321000076E000E086E9EEF19F0960E0E6E17EFF9
:1032200019F00E2AD8901232113210320F32000EDD
:103230000F14096E000E10140A6E000E11140B6E9E
:10324000FE0E12140C6E09500A100B100C10D8A4AC
:103250002CEF19F02EEF19F011EF19F03CEF19F0E7
:103260000E2A010E0F26000E102211221222D890D3
:103270001232113210320F32000E0F14096E000E8E
:1032800010140A6E000E11140B6EFF0E12140C6E49
:1032900009500A100B100C10D8A451EF19F053EF7D
:1032A00019F030EF19F05BEF19F00E06D8900F36D9
:1032B00010361136123611BE60EF19F062EF19F0B8
:1032C0006AEF19F0020E0E6068EF19F06AEF19F05C
:1032D00055EF19F00EB06FEF19F071EF19F072EFB2
:1032E00019F0119ED8900E320EC009F00A6A0B6ACE
:1032F0000C6A09C00CF00B6A0A6A096A09500F12BD
:103300000A5010120B5011120C5012120D50D8B45A
:103310008CEF19F08EEF19F096EF19F008BE95EFCB
:1033200019F093EF19F096EF19F0128E0FC005F017
:1033300010C006F011C007F012C008F01200000E15
:10334000166E000E156E000E0F6E000E0E6EABEFB9
:1033500019F0084A092A010E146E08C0F6FF09C0C8
:10336000F7FF0800F550200AD8B4B9EF19F0BBEF09
:1033700019F0D8EF19F0F70E0A6EFF0E0B6E08C0A9
:10338000F6FF09C0F7FF0800F5500C6E0D6A0A50F1
:103390000C260B500D220D5009E1050E0C5CD8A037
:1033A000D4EF19F0D6EF19F0D8EF19F0000E146E23
:1033B00014C010F0116A10501110D8A4E2EF19F0E7
:1033C000E4EF19F0A9EF19F0EEEF19F0000E0F6E0F
:1033D000010E0E6E084A092A23EF1AF008C0F6FF04
:1033E00009C0F7FF0800F5500A6E0B6A0B50000A7F
:1033F000D8B4FDEF19F023EF1AF00A502B0AD8B415
:10340000EAEF19F0060AD8B4E6EF19F023EF1AF044
:1034100015C001F016C002F0000E046E0A0E036E15
:10342000B0EC24F008C0F6FF09C0F7FF0800F55023
:10343000015E000E025A300E0124156E000E0220AD
:10344000166EEAEF19F0D00E0A6EFF0E0B6E08C072
:10345000F6FF09C0F7FF0800F5500C6E0D6A0A5020
:103460000C260B500D220D500AE10A0E0C5CD8A060
:103470003CEF1AF03FEF1AF0010E40EF1AF0000E89
:10348000126E136A12501310D8A449EF1AF04BEFC2
:103490001AF008EF1AF00E500F10D8A452EF1AF0DD
:1034A00054EF1AF062EF1AF015C00AF016C00BF0D4
:1034B0000A1E0B1E0A4A0B2A0AC008F00BC009F0AC
:1034C00066EF1AF015C008F016C009F01200000EE1
:1034D000076E040E066E000E096E040E086E000ED6
:1034E0000B6E960E0A6E49EC1EF0820E136EDE0E07
:1034F000E82EFED7132EFCD7000E076E040E066EC4
:10350000000E096E040E086E000E0B6E960E0A6E0B
:1035100049EC1EF0020E146E860E136E990EE82E04
:10352000FED7132EFCD7142EFAD700F0000E076E2C
:10353000040E066E000E096E040E086E000E0B6E71
:10354000960E0A6E49EC1EF0030E146E080E136EF2
:10355000770EE82EFED7132EFCD7142EFAD700F0E4
:10356000000E076E000E066E000E096E040E086E49
:10357000000E0B6E7D0E0A6E49EC1EF0820E136E6D
:10358000DE0EE82EFED7132EFCD7000E076E040EBB
:10359000066E000E096E040E086E000E0B6E7D0E98
:1035A0000A6E49EC1EF0020E146E860E136E990E12
:1035B000E82EFED7132EFCD7142EFAD700F0000EFB
:1035C000076E070E066E000E096E040E086E000EE2
:1035D0000B6EC80E0A6E49EC1EF0050E146E0F0E2F
:1035E000136EF10EE82EFED7132EFCD7142EFAD749
:1035F00000F0000E076E070E066E000E096E030E39
:10360000086E010E0B6E5E0E0A6E49EC1EF0040E83
:10361000146E0C0E136E340EE82EFED7132EFCD74C
:10362000142EFAD71200573458345E6E5E50D8A468
:103630001CEF1BF01EEF1BF028EF1BF0000E556E69
:10364000000E566E000E576E000E586E95EF1BF072
:1036500055C059F056C05AF057C05BF058C05CF0E6
:10366000200E38EF1BF0D8905C325B325A32593260
:10367000E82E33EF1BF059505D6E578EFF0E551636
:10368000FF0E5616FF0E5716000E5816960E5E5E6B
:103690005EBE4FEF1BF04DEF1BF065EF1BF05E5071
:1036A000800A970FD8B057EF1BF059EF1BF05BEF74
:1036B0001BF01EEF1BF0D89058325732563255325D
:1036C0005E3E5BEF1BF07DEF1BF01F0E5E646BEF49
:1036D0001BF06DEF1BF075EF1BF01EEF1BF0D89089
:1036E00055365636573658365E065E50D8A47BEFB0
:1036F0001BF07DEF1BF06FEF1BF05D50D8B483EF34
:103700001BF085EF1BF08DEF1BF0581E571E561E49
:10371000556C000E56225722582255C055F056C0FF
:1037200056F057C057F058C058F01200000E2C1435
:10373000346E000E2D14356E800E2E14366E7F0EF4
:103740002F14376E3450351036103710D8A4ABEF25
:103750001BF0ADEF1BF0B5EF1BF0000E2C6E000E52
:103760002D6E000E2E6E000E2F6E000E3014346E75
:10377000000E3114356E800E3214366E7F0E331407
:10378000376E3450351036103710D8A4CAEF1BF0FE
:10379000CCEF1BF0D4EF1BF0000E306E000E316E3C
:1037A000000E326E000E336E2FAED9EF1BF0DBEF42
:1037B0001BF0E4EF1BF02C6C2D1ED8B02D2A2E1E12
:1037C000D8B02E2A800E2F5633AEE9EF1BF0EBEF68
:1037D0001BF0F4EF1BF0306C311ED8B0312A321ED2
:1037E000D8B0322A800E3356000E2C1A000E2D1A35
:1037F000000E2E1A800E2F1A000E301A000E311AEB
:10380000000E321A800E331A30502C5C31502D5875
:1038100032502E5833502F58D8B011EF1CF013EF00
:103820001CF016EF1CF0D89017EF1CF0D880120097
:10383000000E956E9268700ED312D350FC0B0209E5
:10384000D36EC150F00B0E09C16ECF0EC116C30E60
:10385000C216C050C70B1009C06EC050F80B01094A
:10386000C06EC08EC280C282C2B239EF1CF03BEF84
:103870001CF034EF1CF0C4CF64F00001656B6451A0
:10388000626FC350646F62C065F0000E496E000E37
:103890004A6E460E4B6EC20E4C6E000E306EC00E5F
:1038A000316E7F0E326E440E336E000E176E000EB8
:1038B000186EFA0E196E430E1A6E64C005F065C0DC
:1038C00006F0076A086A000EC5EC18F005C013F090
:1038D00006C014F007C015F008C016F0B8EC0FF0E1
:1038E00013C02CF014C02DF015C02EF016C02FF010
:1038F000CDEC11F02CC045F02DC046F02EC047F0A5
:103900002FC048F058EC0DF045C055F046C056F0B9
:1039100047C057F048C058F013EC1BF055C064F096
:1039200056C065F064C060F065C061F01200E6C08A
:103930000BF0E7C00CF0E8C00DF0E9C00EF001C0DC
:103940000BF002C00CF003C00DF004C00EF00BC071
:1039500005F00CC006F00DC007F00EC008F0180E00
:10396000B7EF1CF0D8900832073206320532E82E45
:10397000B2EF1CF00550096E0A6A09500A10D8A46B
:10398000C4EF1CF0C6EF1CF0E6EF1CF0D8900B342F
:10399000056E0C34066E0D34076E0E34086E05503D
:1039A000061007100810D8A4D8EF1CF0DAEF1CF0AE
:1039B000E0EF1CF0000E026E020E016E15EF1DF01E
:1039C000000E026E030E016E15EF1DF009280A109D
:1039D000D8A4EDEF1CF0EFEF1CF011EF1DF00BC0C1
:1039E00005F00CC006F00DC007F00EC008F0090E7F
:1039F000D8900536063607360836E82EF8EF1CF064
:103A00000550061007100810D8B409EF1DF00CEF90
:103A10001DF0010E0DEF1DF0000E016E026A15EF94
:103A20001DF0000E026E040E016E120001C008F0BF
:103A300002C009F003C00AF004C00BF00506D8A0CC
:103A40000606052806E10628D8A429EF1DF02BEF6D
:103A50001DF038EF1DF0000E026E000E016E80EFBB
:103A60001DF0084A092A0A4A0B2A0506D8A00606AC
:103A700008C0D9FF09C0DAFFDF50D8B442EF1DF00B
:103A800044EF1DF06FEF1DF00AC0F6FF0BC0F7FF0B
:103A90000800F5500009D8B450EF1DF052EF1DF0AA
:103AA0006FEF1DF005500610D8B459EF1DF05BEF15
:103AB0001DF06FEF1DF008C0D9FF09C0DAFFDF501D
:103AC000076E0AC0F6FF0BC0F7FF0800F550071895
:103AD000D8B46DEF1DF06FEF1DF031EF1DF008C091
:103AE000D9FF09C0DAFFDF50076E0AC0F6FF0BC02E
:103AF000F7FF0800F550075C016E026AD8A00206C5
:103B0000120003500410D8B488EF1DF08AEF1DF0A6
:103B100093EF1DF003500410D8A491EF1DF093EF24
:103B20001DF098EF1DF0015012EC25F0E5EF1DF0AF
:103B300020EE04F00350D9260450DA22DE50DE10C5
:103B4000D8B4A5EF1DF0A7EF1DF0C2EF1DF020EED9
:103B500004F00350D9260450DA2210EE02F003508C
:103B6000E1260450E222DE50E65CE650800A096E4F
:103B7000DE50800A0958D8B0C0EF1DF0C2EF1DF02A
:103B8000E5EF1DF020EE02F00350D9260450DA22B2
:103B9000DECF05F0DDCF06F003C0D9FF04C0DAFFA9
:103BA000DECF07F0DDCF08F005500724D96E0650B0
:103BB0000820DA6E01C0DFFF20EE02F00350D926A4
:103BC0000450DA22DE2A000EDD2212000001F8A1E4
:103BD000ECEF1DF0EEEF1DF0F8EF1DF013C00AF052
:103BE00014C00BF011C00CF012C00DF02DEC23F03E
:103BF00016BEFDEF1DF0FFEF1DF005EF1EF015C026
:103C00001AF016C01BF009EF1EF0000E1B6E000E1E
:103C10001A6E000E196E000E186E1BEF1EF0000ECD
:103C2000026E200E016E11C003F012C004F081EC90
:103C30001DF0184A192A1A50185C1950800A176E7C
:103C40001B50800A1758D8A028EF1EF02AEF1EF04C
:103C50000FEF1EF00001F8B130EF1EF032EF1EF052
:103C60003CEF1EF013C00AF014C00BF011C00CF0B2
:103C700012C00DF02DEC23F013C001F014C002F0BF
:103C800036EC24F01A500124116E1B500220126EE3
:103C90001200000E0E6E000E0D6E000E106E000E65
:103CA0000F6ED8900634D96E0734DA6EB60ED92668
:103CB000010EDA22DECF11F0DDCF12F008280C6EF3
:103CC00065EF1EF01234123211320C2E62EF1EF02C
:103CD00094928B8211C001F012C002F051EC24F0DA
:103CE00011500F26125010228B9211C001F012C0F9
:103CF00002F051EC24F011500F2612501022190E30
:103D00000F26000E10228DEF1EF0180E0F26FC0E4F
:103D100010220D4A0E2A7FEF1EF010BE9BEF1EF000
:103D2000E80E0F5C030E1058D8B099EF1EF09BEF11
:103D30001EF085EF1EF00A500D5C0E50800A0C6ECE
:103D40000B50800A0C58D8A0A8EF1EF0AAEF1EF066
:103D500068EF1EF01200000E066E04BEB4EF1EF0F7
:103D6000B2EF1EF0BAEF1EF0036C041ED8B0042AA6
:103D7000010E066E02BEC1EF1EF0BFEF1EF0C7EFD0
:103D80001EF0016C021ED8B0022A010E061A000EA7
:103D9000086E000E076E03500410D8B4D2EF1EF068
:103DA000D4EF1EF0FCEF1EF0010E056EDCEF1EF0EE
:103DB000D89003360436052A04AEE1EF1EF0E3EF97
:103DC0001EF0D8EF1EF0D890073608360350015C7D
:103DD00004500258D8A0EFEF1EF0F1EF1EF0F6EFFE
:103DE0001EF00350015E0450025A0780D89004323E
:103DF0000332052EE3EF1EF00650D8B402EF1FF099
:103E000004EF1FF008EF1FF0076C081ED8B0082A57
:103E100007C001F008C002F01200000E066E02BEDC
:103E200016EF1FF014EF1FF01CEF1FF0016C021EC5
:103E3000D8B0022A010E066E04BE23EF1FF021EF58
:103E40001FF027EF1FF0036C041ED8B0042A0350A4
:103E50000410D8B42EEF1FF030EF1FF054EF1FF016
:103E6000010E056E38EF1FF0D89003360436052A90
:103E700004AE3DEF1FF03FEF1FF034EF1FF0035093
:103E8000015C04500258D8A048EF1FF04AEF1FF021
:103E90004EEF1FF00350015E0450025AD8900432D6
:103EA0000332052E3FEF1FF00650D8B45AEF1FF033
:103EB0005CEF1FF060EF1FF0016C021ED8B0022A09
:103EC00001C001F002C002F01200000E0114096EE0
:103ED000000E02140A6E800E03140B6E7F0E041483
:103EE0000C6E09500A100B100C10D8A47AEF1FF0BA
:103EF0007CEF1FF084EF1FF0000E016E000E026ECB
:103F0000000E036E000E046E000E0514096E000E06
:103F100006140A6E800E07140B6E7F0E08140C6ECA
:103F200009500A100B100C10D8A499EF1FF09BEF4A
:103F30001FF0A3EF1FF0000E056E000E066E000EC0
:103F4000076E000E086E055001180FE106500218AA
:103F50000CE10750031809E108500418D8B4B3EF76
:103F60001FF0B5EF1FF0B8EF1FF0D890B9EF1FF0BA
:103F7000D8801200720ED36E000E966ED4EC24F030
:103F80006AEC24F0FFEC24F09AEC13F07FEC16F0CE
:103F900066C0E0F067C0E1F0DAEF1FF096EC20F0C9
:103FA000F5EF1FF07EEC21F0F5EF1FF0ABEC21F008
:103FB000F5EF1FF0E0C0DEF0E1C0DFF00001DF51FF
:103FC000000AD8B4E6EF1FF0F5EF1FF0DE51010A4A
:103FD000D8B4CEEF1FF0030AD8B4D2EF1FF0010A15
:103FE000D8B4D6EF1FF0F5EF1FF00B0E026EB80E2F
:103FF000016E9EEC22F0FFEC24F0C4EF1FF000EF06
:1040000000F0000E956E9268700ED312D350FC0B28
:104010000209D36EC150F00B0D09C16ECF0EC1164F
:10402000C250C30B0409C26EC050C70B1009C06E4A
:10403000C050F80B0109C06EC08EC280C282C2B2ED
:1040400024EF20F026EF20F01FEF20F0C4CFFAF08D
:104050000001FB6BFA51036EC350FA6F03C0FBF013
:10406000FAC001F0FBC002F01200C6C0CAF0C7C01F
:10407000CBF0000E0001F36F000EF26F53EF20F053
:10408000C4C0A4F0C5C0A5F0CA0EA66F000EA76FED
:10409000C8C0A8F0C9C0A9F051EC0AF00001A451B1
:1040A000F227A551F323CAC0F6FFCBC0F7FF0800E3
:1040B000F5500009D8A45FEF20F061EF20F040EF49
:1040C00020F0F2C0C4F0F3C0C5F01200BF0E096EBC
:1040D000FF0E0A6E07C00BF008C00CF009500B264B
:1040E0000A500C220C500AE11A0E0B5CD8A07BEF90
:1040F00020F07EEF20F0010E7FEF20F0000E0D6E1D
:104100000E6A0D500E10D8B488EF20F08AEF20F020
:1041100091EF20F0200E0710076E0850086E95EF03
:1041200020F007C007F008C008F012008D908D92B3
:104130008D945E0E0001CC6F010ECD6F010ECE6F1F
:10414000080ECF6FEEC0D0F0EFC0D1F0F0C0D2F0CB
:10415000F1C0D3F0D8EC21F0000E0B6E5E0E0C6EA9
:10416000010E0D6E010E4FEC23F0DD0E096E010EF7
:104170000A6E000EC3EC22F0C00E52EC22F0000ECC
:1041800078EC22F067EC1AF012009F0E096EFF0E19
:104190000A6E07C00BF008C00CF009500B260A503D
:1041A0000C220C500AE11A0E0B5CD8A0DAEF20F0BA
:1041B000DDEF20F0010EDEEF20F0000E0D6E0E6A36
:1041C0000D500E10D8B4E7EF20F0E9EF20F0EFEF3C
:1041D00020F05F0E0714076E086AF3EF20F007C0A7
:1041E00007F008C008F012000AEF21F009C0F6FF3E
:1041F0000AC0F7FFF86A070EF76403D00800F5500D
:1042000005D0F6CFE1FFF7CFE2FFE75078EC22F0E0
:10421000094A0A2A09C0F6FF0AC0F7FFF86A070E22
:10422000F76403D00800F55005D0F6CFE1FFF7CFD3
:10423000E2FFE7500009D8A420EF21F022EF21F09F
:10424000F6EF20F0120003C007F004C008F001C030
:1042500009F002C00AF00750056E0850066E074AC2
:10426000082A05C0F6FF06C0F7FFF86A09C0D9FFA3
:104270000AC0DAFF094A0A2A070EF76403D00800C9
:10428000F55005D0F6CFE1FFF7CFE2FFE750DF6E44
:10429000DF50D8A44EEF21F050EF21F02BEF21F0AA
:1042A0001200046ED00E82EC24F00450C3EC24F013
:1042B000D10E99EC24F0000E8DEC23F0036E035028
:1042C0000101066F076B000E8DEC23F0036E0350A7
:1042D0000101046F056B000E8DEC23F0036E03509B
:1042E0000101026F036B010E8DEC23F0036E03508E
:1042F0000101006F016BE1EC24F012008D808D82D2
:104300008D945E0E0001CC6F010ECD6F010ECE6F4D
:10431000080ECF6FEEC0D0F0EFC0D1F0F0C0D2F0F9
:10432000F1C0D3F0D8EC21F0000E0B6E5E0E0C6ED7
:10433000010E0D6E010E4FEC23F0D50E096E010E2D
:104340000A6E000EC3EC22F0C00E52EC22F0000EFA
:1043500078EC22F012008D808D828D845E0E00013B
:10436000CC6F010ECD6F010ECE6F080ECF6FEEC079
:10437000D0F0EFC0D1F0F0C0D2F0F1C0D3F0D8EC63
:1043800021F0000E0B6E5E0E0C6E010E0D6E010E16
:104390004FEC23F0E50E096E010E0A6E000EC3EC21
:1043A00022F0C00E52EC22F0000E78EC22F0120047
:1043B000D00E0001D46F000ED56FCCC0D6F0CDC0AA
:1043C000D7F0000ED96F000ED86F000EDB6F000E15
:1043D000DA6FD60EC46F000EC56FCEC0C6F0CFC068
:1043E000C7F0D40EC86F000EC96F35EC20F0000185
:1043F000D851CC25D96ED951CD21DA6E000EDF6EA1
:104400001200010E076E200E01180210D8B40BEF37
:1044100022F00DEF22F026EF22F0F70E036EFF0ED2
:10442000046E01C005F002C006F0035005260450DA
:104430000622065009E1050E055CD8A022EF22F005
:1044400024EF22F026EF22F0000E076E07C001F0E5
:10445000026A1200340EF66E480EF76E000EF86E09
:1044600001EEB6F010EE37F00900F5CFEEFFE550A3
:10447000E150FAE102EE00F0140EEE6AE806FDE10A
:1044800001EE00F0720EEE6AE806FDE100EEE2F0E9
:104490001A0EEE6AE806FDE15F6A000EF86E000192
:1044A000BAEF1FF0086E08C007F0F00E07168C5028
:1044B0000F0B07108C6E8C908C8200F08C92000E8B
:1044C000026E010E016E9EEC22F008C007F0073A62
:1044D000F00E07168C500F0B07108C6E8C8200F0BC
:1044E0008C92000E026E030E016E9EEC22F0120002
:1044F000086E08C007F0F00E07168C500F0B07105F
:104500008C6E8C808C8200F08C92000E026E010EFC
:10451000016E9EEC22F008C007F0073AF00E071675
:104520008C500F0B07108C6E8C8200F08C92000E5A
:10453000026E030E016E9EEC22F01200000E046E5D
:10454000000E036EB7EF22F0000E066E000E056E31
:10455000054A062A065009E1A50E055CD8A0B3EF6E
:1045600022F0B5EF22F0A8EF22F0034A042A01500E
:10457000035C02500458D8A0C0EF22F0C2EF22F032
:10458000A4EF22F012000B6E080E0B60CAEF22F0AF
:10459000CCEF22F0E6EF22F00B50080DF350400F65
:1045A00052EC22F0000E0C6E0C500924D96E000E55
:1045B0000A20DA6EDF5078EC22F00C2A070E0C6429
:1045C000E4EF22F0E6EF22F0D4EF22F01200046EC6
:1045D000D00E82EC24F00450C3EC24F0D10E99EC00
:1045E00024F0000E8DEC23F0036E035001010C6FDC
:1045F0000D6B000E8DEC23F0036E035001010A6F6A
:104600000B6B010E8DEC23F0036E03500101086F5C
:10461000096B1200000E591A000E5A1A000E5B1A8E
:10462000800E5C1A55C045F056C046F057C047F0A2
:1046300058C048F059C049F05AC04AF05BC04BF02E
:104640005CC04CF058EC0DF045C055F046C056F03B
:1046500047C057F048C058F01200000E106E000E10
:104660000F6E3EEF23F00EC001F0026A0CC003F0A3
:104670000DC004F081EC1DF00F4A102A0F500A24DF
:10468000D96E10500B20DA6EDF500E6E0E50D8A48B
:104690004CEF23F04EEF23F033EF23F012000E6EB9
:1046A000020E0E6056EF23F058EF23F061EF23F077
:1046B0000B500F0B80090F6E0F5052EC22F068EF79
:1046C00023F00B500F0BC0090F6E0F5052EC22F06D
:1046D0000CC009F00DC00AF0F4EC20F012009F0E9F
:1046E000036EFF0E046E200E0110056E000E021008
:1046F000066E035005260450062206500AE11A0EE3
:10470000055CD8A086EF23F089EF23F0010E8AEF35
:1047100023F0000E016E026A1200016EC586C7A06A
:1047200094EF23F096EF23F08FEF23F0C9CF02F040
:104730000150D8A49EEF23F0A0EF23F0A4EF23F0C4
:10474000F5EC24F0A6EF23F0EBEC24F009EC25F0D7
:10475000025012009F0E036EFF0E046E01C005F0A2
:1047600002C006F0035005260450062206500AE156
:104770001A0E055CD8A0BFEF23F0C2EF23F0010EA4
:10478000C3EF23F0000E016E026A1200BF0E036E2B
:10479000FF0E046E01C005F002C006F003500526AE
:1047A0000450062206500AE11A0E055CD8A0DBEF81
:1047B00023F0DEEF23F0010EDFEF23F0000E016E99
:1047C000026A12000150021003100410D8B4EBEF7B
:1047D00023F0EDEF23F0F5EF23F0000E011A000EA9
:1047E000021A000E031A800E041A01C001F002C062
:1047F00002F003C003F004C004F01200D00E036EF8
:10480000FF0E046E01C005F002C006F0035005263D
:104810000450062206500AE10A0E055CD8A013EFE8
:1048200024F016EF24F0010E17EF24F0000E016EB5
:10483000026A1200B93B5E3834353832662FBD2C1F
:104840003A2ADC279F2582238421A31F534D5457E6
:104850007446730008161F1F160800150E11110E5E
:0B4860001500000E1F1F0E000A0A00CA
:10486C0001C003F002C004F03EEF24F0014A022A1A
:10487C0001C0D9FF02C0DAFFDF50D8A448EF24F002
:10488C004AEF24F03CEF24F00350015C016E04501D
:10489C000258026E1200000E056E000E046E5AEFE6
:1048AC0024F000D0044A052A0450015C0250800A0E
:1048BC00036E0550800A0358D8B067EF24F069EFF7
:1048CC0024F057EF24F01200000E956E000E026ECD
:1048DC000F0E016E9EEC22F0020E52EC22F0280E0E
:1048EC0052EC22F0010E52EC22F00C0E52EC22F0A3
:1048FC00060E52EC22F01200026EC580C5B089EF94
:10490C0024F08BEF24F084EF24F09E96C7B691EF41
:10491C0024F093EF24F095EF24F098EF24F002505C
:10492C00C3EC24F01200026EC582C5B2A0EF24F0D5
:10493C00A2EF24F09BEF24F09E96C7B6A8EF24F0CC
:10494C00AAEF24F0ACEF24F0AFEF24F00250C3EC4C
:10495C0024F0120001500302F3CF05F0F4CF06F05F
:10496C0001500402F350062602500302F3500626AF
:10497C0005C001F006C002F01200016E01C0C9FFB3
:10498C0009EC25F0C5ACCDEF24F0CFEF24F0D2EF3D
:10499C0024F0010ED3EF24F0020E120093809382C8
:1049AC00500EC76E280EC66E000EC56E130EC86E66
:1049BC009D869E961200C584C5B4E7EF24F0E9EFFE
:1049CC0024F0E2EF24F0C7501200C58AC588C5B8A0
:1049DC00F2EF24F0F4EF24F0EDEF24F01200C59A7E
:1049EC00C588C5B8FCEF24F0FEEF24F0F7EF24F0F7
:1049FC001200010E52EC22F0000E026E030E016E3C
:104A0C009EEC22F012009EA60EEF25F010EF25F082
:0A4A1C0009EF25F09E96120012002B
:020000040020DA
:08000000FFFFFFFFFFFFFFFF00
:020000040030CA
:0E0000000009181EFF8180FF0FC00FE00F40A7
:00000001FF
