:020000040000FA
:040000002FEF1EF0D0
:1008000000204275656E6F73204469617320002576
:10081000302E316620430025302E316600494E4689
:10082000004E414E00696E66006E616E006C66009F
:0108300000C7
:10083200000E0001896F000E886F64C09AF065C0D7
:100842009BF066C09CF067C09DF09DBF2DEF04F049
:100852002BEF04F043EF04F0000E896F010E886F56
:100862009AC001F09BC002F09CC003F09DC004F04E
:10087200AFEC1EF001C09AF002C09BF003C09CF0E6
:1008820004C09DF0000E0001A16F000EA06FF4C025
:100892008CF0F5C08DF088518911D8A453EF04F083
:1008A20055EF04F05CEF04F0F8A55AEF04F05CEFAA
:1008B20004F076EF04F088518911D8A463EF04F0B4
:1008C20065EF04F06BEF04F0000E6F6F2B0E6E6F8E
:1008D2006FEF04F0000E6F6F2D0E6E6F6EC000F1A1
:1008E200A04BA12B8C07D8A08D079AC001F09BC00A
:1008F20002F09CC003F09DC004F0F4EC18F0010477
:100902000210D8A487EF04F089EF04F0E0EF04F0BE
:10091200BF0E0001696FFF0E6A6F68516B6F6C6BDF
:1009220069516B276A516C236C510AE11A0E6B5D97
:10093200D8A09EEF04F0A1EF04F0010EA2EF04F0A4
:10094200000E706F716B70517111D8B4ABEF04F07F
:10095200ADEF04F0BBEF04F0000EA025016E010E16
:10096200A121026E1D0E036E080E046EF7EC1CF040
:10097200C7EF04F0000EA025016E010EA121026E48
:10098200250E036E080E046EF7EC1CF00001FD0E3E
:100992008C27FF0E8D2362C011F063C012F0000E8F
:1009A200136E010E146E8CC015F08DC016F0C2ECE1
:1009B2001AF011C062F012C063F044EF0AF09AC05C
:1009C20001F09BC002F09CC003F09DC004F0F4EC67
:1009D20018F001500210D8A4F1EF04F0F3EF04F084
:1009E20033EF05F0BF0E0001696FFF0E6A6F6851A9
:1009F2006B6F6C6B69516B276A516C236C510AE106
:100A02001A0E6B5DD8A008EF05F00BEF05F0010E92
:100A12000CEF05F0000E726F736B72517311D8B444
:100A220015EF05F017EF05F025EF05F0000EA025F4
:100A3200016E010EA121026E210E036E080E046EDC
:100A4200F7EC1CF0C7EF04F0000EA025016E010EBA
:100A5200A121026E290E036E080E046EF7EC1CF043
:100A6200C7EF04F0000E0001A26F000EA36F800E0C
:100A7200A46F3F0EA56F000E9F6F000E9E6F9AC06F
:100A820001F09BC002F09CC003F09DC004F0000E78
:100A9200056E000E066E000E076E000E086EDFEC8D
:100AA2001BF0D8B057EF05F059EF05F0DCEF05F079
:100AB20078EF05F0A2C015F0A3C016F0A4C017F09D
:100AC200A5C018F0000E196E000E1A6E200E1B6ED5
:100AD200410E1C6E61EC11F015C0A2F016C0A3F01D
:100AE20017C0A4F018C0A5F000019E4B9F2B9AC01E
:100AF2002EF09BC02FF09CC030F09DC031F0000E54
:100B0200196E000E1A6E200E1B6E410E1C6EA2C0D4
:100B120015F0A3C016F0A4C017F0A5C018F061EC40
:100B220011F015C032F016C033F017C034F018C0FF
:100B320035F072EC18F0D8B0A1EF05F0A3EF05F094
:100B42005BEF05F0C3EF05F0A2C02EF0A3C02FF0BB
:100B5200A4C030F0A5C031F0000E326E000E336E2C
:100B6200200E346E410E356E76EC13F02EC0A2F0DC
:100B72002FC0A3F030C0A4F031C0A5F000019E0741
:100B8200D8A09F079AC02EF09BC02FF09CC030F0D7
:100B92009DC031F0A2C032F0A3C033F0A4C034F043
:100BA200A5C035F072EC18F0D8A0DAEF05F0DCEF52
:100BB20005F0A5EF05F068C007F0086A98EC1CF094
:100BC200075000018F6F8FC08EF0670E8F19D8A467
:100BD200EDEF05F0EFEF05F015EF06F0F651F71126
:100BE200D8A4F6EF05F0F8EF05F0FCEF05F0000EE3
:100BF200F76F010EF66FF7BF09EF06F0F75106E146
:100C0200F605D8B007EF06F009EF06F00FEF06F091
:100C1200000E8B6F060E8A6F1EEF06F0F6C08AF08A
:100C2200F7C08BF01EEF06F0F7BF1AEF06F01CEFCD
:100C320006F009EF06F00FEF06F0670E8F19D8A441
:100C420025EF06F027EF06F056EF06F09FAF35EFDF
:100C520006F0FC0E9E5DFF0E9F59D8A033EF06F002
:100C620035EF06F054EF06F0FF0E696FFF0E6A6F64
:100C72008AC06BF08BC06CF069516B276A516C2390
:100C82009E516B5D6C51800A6D6F9F51800A6D5948
:100C9200D8A04EEF06F050EF06F054EF06F0660EC5
:100CA2008E6F56EF06F0650E8E6F8AC080F08BC095
:100CB20081F0670E8F19D8A461EF06F063EF06F09A
:100CC20073EF06F0660E8E19D8A46AEF06F06CEF89
:100CD20006F075EF06F09FBF73EF06F071EF06F0B6
:100CE20075EF06F0804B812B660E8E19D8A47CEF2F
:100CF20006F07EEF06F09EEF06F09FBF85EF06F04E
:100D020083EF06F091EF06F0000EA26F000EA36FC4
:100D1200800EA46F3F0EA56F000E9F6F000E9E6F98
:100D2200670E8F19D8B498EF06F09AEF06F09EEF8F
:100D320006F09E5180279F518123000E996F000E6D
:100D4200986F9AC090F09BC091F09CC092F09DC0A9
:100D520093F0A2C082F0A3C083F0A4C084F0A5C027
:100D620085F02FEF07F090C02EF091C02FF092C0C7
:100D720030F093C031F0A2C032F0A3C033F0A4C06F
:100D820034F0A5C035F076EC13F02EC047F02FC03A
:100D920048F030C049F031C04AF043EC15F047C08A
:100DA20094F048C095F049C096F04AC097F094C0BC
:100DB20057F095C058F096C059F097C05AF0EEEC33
:100DC20017F057C086F058C087F090C057F091C016
:100DD20058F092C059F093C05AF0A2C019F0A3C0C3
:100DE2001AF0A4C01BF0A5C01CF094C015F095C069
:100DF20016F096C017F097C018F061EC11F015C00C
:100E02005BF016C05CF017C05DF018C05EF00CEC31
:100E12001EF057C090F058C091F059C092F05AC0DD
:100E220093F0A2C02EF0A3C02FF0A4C030F0A5C052
:100E320031F0000E326E000E336E200E346E410E13
:100E4200356E76EC13F02EC0A2F02FC0A3F030C0A6
:100E5200A4F031C0A5F00001984B992B8051985D08
:100E62009951800A696F8151800A6959D8A03CEF73
:100E720007F03EEF07F0B4EF06F0A2C015F0A3C0F2
:100E820016F0A4C017F0A5C018F0000E196E000EDF
:100E92001A6EA00E1B6E400E1C6E61EC11F015C096
:100EA20094F016C095F017C096F018C097F090C055
:100EB2002EF091C02FF092C030F093C031F094C068
:100EC20032F095C033F096C034F097C035F072EC32
:100ED20018F0D8B06FEF07F071EF07F07CEF07F072
:100EE200000E0001946F000E956F000E966F000EBB
:100EF200976FA5EF07F090C001F091C002F092C089
:100F020003F093C004F094C005F095C006F096C0BB
:100F120007F097C008F0DFEC1BF0D8A093EF07F0C2
:100F220095EF07F0A5EF07F0000186B19BEF07F000
:100F32009DEF07F0A5EF07F0000E946F000E956F7E
:100F4200000E966F000E976F9AC047F09BC048F054
:100F52009CC049F09DC04AF094C04BF095C04CF043
:100F620096C04DF097C04EF0D9EC0CF047C090F00F
:100F720048C091F049C092F04AC093F090C02EF060
:100F820091C02FF092C030F093C031F0000E196E74
:100F9200000E1A6E200E1B6E410E1C6E82C015F0E2
:100FA20083C016F084C017F085C018F061EC11F010
:100FB20015C032F016C033F017C034F018C035F047
:100FC20072EC18F0D8A0E8EF07F0EAEF07F013EFA1
:100FD20008F000019E4B9F2B82C015F083C016F0D3
:100FE20084C017F085C018F0000E196E000E1A6E3C
:100FF200200E1B6E410E1C6E61EC11F015C082F0CA
:1010020016C083F017C084F018C085F0660E000188
:101012008E19D8A40FEF08F011EF08F013EF08F0C3
:10102200804B812B82C0A2F083C0A3F084C0A4F0C5
:1010320085C0A5F0650E00018E19D8B423EF08F023
:1010420025EF08F02BEF08F09EC07EF09FC07FF0E6
:101052002FEF08F0000E7F6F000E7E6F000E7D6F87
:10106200000E7C6F000E7B6F000E7A6F000E996F80
:10107200000E986F2AEF09F090C02EF091C02FF069
:1010820092C030F093C031F0A2C032F0A3C033F06E
:10109200A4C034F0A5C035F076EC13F02EC047F0B2
:1010A2002FC048F030C049F031C04AF043EC15F08F
:1010B20047C094F048C095F049C096F04AC097F0F6
:1010C20094C057F095C058F096C059F097C05AF0A6
:1010D200EEEC17F057C086F058C087F00001F8B95F
:1010E20075EF08F077EF08F094EF08F0865187115A
:1010F200D8A47EEF08F080EF08F094EF08F0670EB6
:101102008F19D8A487EF08F089EF08F094EF08F060
:101112007FBF90EF08F08EEF08F094EF08F07A4B63
:101122007B2BDEEF08F07C517D11D8A49BEF08F0F9
:101132009DEF08F0C7EF08F07FBFA4EF08F0A2EF21
:1011420008F0C7EF08F0000EA025D96E010EA1210C
:10115200DA6E2E0EDF6EA04BA12B8C07D8A08D0766
:10116200000E7D6F010E7C6FC7EF08F0000EA02508
:10117200D96E010EA121DA6E300EDF6EA04BA12BCB
:101182008C07D8A08D077A07D8A07B077A517B11EC
:10119200D8A4CEEF08F0D0EF08F0B7EF08F0000EB9
:1011A200A025D96E010EA121DA6E8651300FDF6EB5
:1011B200A04BA12B8C07D8A08D0790C057F091C0EF
:1011C20058F092C059F093C05AF0A2C019F0A3C0CF
:1011D2001AF0A4C01BF0A5C01CF094C015F095C075
:1011E20016F096C017F097C018F061EC11F015C018
:1011F2005BF016C05CF017C05DF018C05EF00CEC3E
:101202001EF057C090F058C091F059C092F05AC0E9
:1012120093F0A2C02EF0A3C02FF0A4C030F0A5C05E
:1012220031F0000E326E000E336E200E346E410E1F
:10123200356E76EC13F02EC0A2F02FC0A3F030C0B2
:10124200A4F031C0A5F000017E07D8A07F07984B1B
:10125200992B8051985D9951800A696F8151800A5A
:101262006959D8B037EF09F039EF09F047EF09F0C3
:10127200A1BF45EF09F0A15109E14B0EA05DD8A035
:1012820045EF09F047EF09F03DEF08F07C517D1181
:10129200D8A44EEF09F050EF09F061EF09F0F8A978
:1012A20055EF09F057EF09F061EF09F0000EA025A4
:1012B200D96E010EA121DA6E2E0EDF6EA04BA12B8C
:1012C200000EA025D96E010EA121DA6E000EDF6E8E
:1012D200650E8E19D8A470EF09F072EF09F0CCEF09
:1012E20004F0000E996F4F0E986F000E9825D96E7C
:1012F200010E9921DA6E000EDF6E000E896F000E6C
:10130200886F9FBF89EF09F087EF09F091EF09F02D
:10131200000E896F010E886F9E6D9F1FD8B09F2BA4
:10132200000E8B6F020E8A6FC2EF09F09807D8A0E9
:101332009907000E9825D96E010E9921DA6E9EC08A
:1013420001F09FC002F0000E046E0A0E036E87ECDD
:101352001BF00150300FDF6E9EC001F09FC002F003
:10136200000E046E0A0E036E25EC1BF001C09EF007
:1013720002C09FF000018A07D8A08B078C07D8A073
:101382008D079E519F11D8A4C9EF09F0CBEF09F048
:1013920097EF09F08BBFD8EF09F08B5106E18A0570
:1013A200D8B0D6EF09F0D8EF09F097EF09F0980717
:1013B200D8A0990788518911D8A4E2EF09F0E4EF87
:1013C20009F0EAEF09F0000E756F2B0E746FEEEF65
:1013D20009F0000E756F2D0E746F000E9825D96EF0
:1013E200010E9921DA6E74C0DFFF8C07D8A08D0739
:1013F2009807D8A09907BF0E696FFF0E6A6F6851F0
:101402006B6F6C6B69516B276A516C236C510AE1EB
:101412001A0E6B5DD8A010EF0AF013EF0AF0010E5E
:1014220014EF0AF0000E786F796B78517911D8A415
:101432001DEF0AF01FEF0AF025EF0AF0000E776F9A
:10144200650E766F29EF0AF0000E776F450E766F04
:10145200000E9825D96E010E9921DA6E76C0DFFF53
:101462008C07D8A08D07000EA025016E010EA121C8
:10147200026E000E9825036E010E9921046EF7ECA0
:101482001CF0CCEF04F01200A8C0D9FFA9C0DAFF0B
:10149200DECFF6FFDDCFF7FF0800F550250AD8A40E
:1014A20055EF0AF057EF0AF0BDEF0CF0A8C0D9FFD4
:1014B200A9C0DAFFDE2A000EDD22000E0001F56F60
:1014C200000EF46FF4C0F8F0F5C0F9F0F669F769B0
:1014D200000EB16F000EB06FB5EF0AF0F881A8C030
:1014E200D9FFA9C0DAFFDE2A000EDD22B5EF0AF02D
:1014F200F88370EF0AF0F88570EF0AF0F88770EF62
:101502000AF0F88970EF0AF0000EB16F010EB06FA9
:10151200B5EF0AF0A8C0D9FFA9C0DAFFDECFF6FF07
:10152200DDCFF7FF0800F550AC6FAD6BAD51000A8F
:10153200D8B49EEF0AF085EF0AF0AC51200AD8B475
:101542007FEF0AF0030AD8B482EF0AF0080AD8B48F
:101552007CEF0AF0060AD8B46FEF0AF01D0AD8B47D
:1015620079EF0AF085EF0AF0B051B111D8B4BCEFAF
:101572000AF0BEEF0AF08BEF0AF0F8A1C3EF0AF00F
:10158200C5EF0AF0C6EF0AF0F893A8C0D9FFA9C0C8
:10159200DAFFDECFF6FFDDCFF7FF0800F5502E0AA7
:1015A200D8A4D6EF0AF0D8EF0AF056EF0BF0000EEF
:1015B200F76F000EF66FA8C0D9FFA9C0DAFFDE2AC6
:1015C200000EDD22A8C0D9FFA9C0DAFFDECFF6FFE8
:1015D200DDCFF7FF0800F5502A0AD8A4F3EF0AF08E
:1015E200F5EF0AF012EF0BF0A8C0D9FFA9C0DAFF9D
:1015F200DE2A000EDD22AAC0D9FFABC0DAFFDFCFA0
:10160200ACF0020EDE26DFCFADF0000EDD22ACC064
:10161200D9FFADC0DAFFDECFF6F0DDCFF7F056EF3F
:101622000BF0A8C0D9FFA9C0DAFFDECF08F0DDCFEA
:1016320009F026EC17F008C0F6F009C0F7F029EF20
:101642000BF0A8C0D9FFA9C0DAFFDE2A000EDD2206
:10165200D00E0001AC6FFF0EAD6FA8C0D9FFA9C0BC
:10166200DAFFDECFF6FFDDCFF7FF0800F550AE6FF1
:10167200AF6BAC51AE27AD51AF23AF510AE10A0EA9
:10168200AE5DD8A047EF0BF04AEF0BF0010E4BEF27
:101692000BF0000EB26FB36BB251B311D8A454EF7A
:1016A2000BF056EF0BF022EF0BF0A8C0D9FFA9C048
:1016B200DAFFDECFF6FFDDCFF7FF0800F550076E49
:1016C200086A98EC1CF007500001BA6FBA51D8B4FE
:1016D2006DEF0BF06FEF0BF0A9EF0BF0A8C0D9FF85
:1016E200A9C0DAFFDECFACF0DDCFADF0010EAC2742
:1016F200000EAD23ACC0F6FFADC0F7FF0800F550F9
:10170200076E086A98EC1CF007500001BB6FBB51D2
:10171200D8B48EEF0BF090EF0BF0A9EF0BF0A8C04E
:10172200D9FFA9C0DAFFDECFACF0DDCFADF0020EFB
:10173200AC27000EAD23ACC0F6FFADC0F7FF08002A
:10174200F550076E086A98EC1CF007500001BC6F58
:10175200660EBA19D8A4B0EF0BF0B2EF0BF0F2EFAD
:101762000BF0A8C0D9FFA9C0DAFFDECFF6FFDDCFAC
:10177200F7FF0800F5CFBDF0A8C0D9FFA9C0DAFF76
:10178200DE2A000EDD22AAC0D9FFABC0DAFFDFCF0E
:10179200ACF0040EDE26DFCFADF0000EDD22ACC0D1
:1017A200D9FFADC0DAFFDECFB6F0DECFB7F0DECFC5
:1017B200B8F0DECFB9F0A6C062F0A7C063F0B6C041
:1017C20064F0B7C065F0B8C066F0B9C067F0BDC0DC
:1017D20068F019EC04F062C0A6F063C0A7F0D8EF7D
:1017E2000CF0BA0E016E000E026E2D0E036E080E84
:1017F200046E000E066E020E056EF2EC19F0015038
:101802000210D8A407EF0CF009EF0CF085EF0CF0F2
:10181200A8C0D9FFA9C0DAFFDECFACF0DDCFADF0B2
:10182200010E0001AC27000EAD23ACC0F6FFADC027
:10183200F7FF0800F5CFBDF0BF0EAC6FFF0EAD6F26
:10184200A8C0D9FFA9C0DAFFDECFF6FFDDCFF7FFD0
:101852000800F550AE6FAF6BAC51AE27AD51AF2360
:10186200AF510AE11A0EAE5DD8A03AEF0CF03DEF8F
:101872000CF0010E3EEF0CF0000EB46FB56BB451DC
:10188200B511D8B447EF0CF049EF0CF063EF0CF050
:10189200AAC0D9FFABC0DAFFDFCFACF0040EDE2660
:1018A200DFCFADF0000EDD22ACC0D9FFADC0DAFF54
:1018B200DECFB6F0DECFB7F0DECFB8F0DECFB9F0D4
:1018C2007BEF0CF0AAC0D9FFABC0DAFFDFCFACF0E0
:1018D200040EDE26DFCFADF0000EDD22ACC0D9FF54
:1018E200ADC0DAFFDECFB6F0DECFB7F0DECFB8F0B4
:1018F200DECFB9F0020EA8C0D9FFA9C0DAFFDE26FA
:10190200000EDD22DCEF0BF0A8C0D9FFA9C0DAFF80
:10191200DECFF6FFDDCFF7FF0800F550250AD8A489
:1019220095EF0CF097EF0CF0AFEF0CF0A8C0D9FFD9
:10193200A9C0DAFFDE2A000EDD22000E026E250E9D
:10194200016EA6C003F0A7C004F05DEC1AF0000E11
:101952000001A76F010EA66FD8EF0CF0A8C0D9FF47
:10196200A9C0DAFFDE2A000EDD22000E0001A76FF9
:10197200000EA66FD8EF0CF0A8C0D9FFA9C0DAFFFD
:10198200DECFF6FFDDCFF7FF0800F550016E026AE9
:10199200A6C003F0A7C004F05DEC1AF0A8C0D9FFFE
:1019A200A9C0DAFFDE2A000EDD22A8EF0CF0120039
:1019B2004A50800B536E4A504A24556E49AEE4EFAA
:1019C2000CF0E6EF0CF0E7EF0CF055805550D8B470
:1019D200EDEF0CF0EFEF0CF004EF0DF05528D8A46A
:1019E200F5EF0CF0F7EF0CF0FFEF0CF0000E476E86
:1019F200000E486E000E496E000E4A6E498E000EB1
:101A02004A6E0CEF0DF0000E476E000E486E000E8F
:101A1200496E000E4A6E4E50800B546E535054184D
:101A2200D8B416EF0DF018EF0DF019EF0DF0538C3E
:101A32004E504E24546E4DAE21EF0DF023EF0DF0BB
:101A420024EF0DF054805450D8B42AEF0DF02CEF4F
:101A52000DF041EF0DF05428D8A432EF0DF034EF21
:101A62000DF03CEF0DF0000E4B6E000E4C6E000EB2
:101A72004D6E000E4E6E4D8E000E4E6E49EF0DF005
:101A8200000E4B6E000E4C6E000E4D6E000E4E6E32
:101A92005550545CD8B050EF0DF052EF0DF079EF85
:101AA2000DF053AC57EF0DF059EF0DF05BEF0DF069
:101AB200800E531A55C056F054C055F056C054F01B
:101AC20047C056F04BC047F056C04BF048C056F0E6
:101AD2004CC048F056C04CF049C056F04DC049F0D9
:101AE20056C04DF04AC056F04EC04AF056C04EF0B5
:101AF200000E566E555054C04FF0506A4F5E000EA5
:101B0200505A50BE8EEF0DF0505009E11A0E4F5C44
:101B1200D8A08EEF0DF090EF0DF0C7EF0DF047500B
:101B2200481049104A10D8A499EF0DF09CEF0DF01F
:101B3200010E9DEF0DF0000E566E000E476E000E68
:101B4200486E000E496E000E4A6E54C055F0D0EF3A
:101B52000DF056A0AFEF0DF0B1EF0DF0B7EF0DF0B5
:101B6200D89056300109566EB9EF0DF0D890563222
:101B720047A0BEEF0DF0C0EF0DF0C1EF0DF0568E95
:101B82004A344A32493248324732552A5450555C17
:101B9200D8A0CEEF0DF0D0EF0DF0AAEF0DF053BCB0
:101BA200D5EF0DF0D7EF0DF017EF0EF05550D8A48A
:101BB200DDEF0DF0DFEF0DF0E9EF0DF0000E476EF7
:101BC200000E486E000E496E000E4A6E38EF0FF09E
:101BD2004B5047264C5048224D5049224E504A22E3
:101BE2004AA0F6EF0DF0F8EF0DF0A4EF0EF056A0BC
:101BF200FDEF0DF0FFEF0DF005EF0EF0D89056302F
:101C02000109566E07EF0EF0D890563247A00CEF3E
:101C12000EF00EEF0EF00FEF0EF0568E4A344A32EF
:101C2200493248324732552AA4EF0EF04B50475CF6
:101C32004C5048584D5049584A50800A4F6E4E50A9
:101C4200800A4F58D8B028EF0EF02AEF0EF055EF69
:101C52000EF047504B5C4F6E48504C58506E4950F6
:101C62004D58516E4A504E58526EFF0E4F24476ED9
:101C7200FF0E5020486EFF0E5120496EFF0E52207B
:101C82004A6E800E531A566C5650D8A44BEF0EF083
:101C92004DEF0EF05DEF0EF0010E4726000E4822CA
:101CA20049224A225DEF0EF04B50475E4C50485A93
:101CB2004D50495A4E504A5A4750481049104A10FE
:101CC200D8A466EF0EF068EF0EF09DEF0EF05650BE
:101CD200D8A46EEF0EF070EF0EF09DEF0EF0000E36
:101CE200476E000E486E000E496E000E4A6E38EFC7
:101CF2000FF0D8904736483649364A3656AE84EF0A
:101D02000EF086EF0EF087EF0EF0478056A08CEFB4
:101D12000EF08EEF0EF092EF0EF0D880563694EF62
:101D22000EF0D89056365550D8B49AEF0EF09CEF7C
:101D32000EF09DEF0EF0550649AEA2EF0EF0A4EFA5
:101D42000EF07AEF0EF0000E546E56AEABEF0EF0C0
:101D5200ADEF0EF0C5EF0EF056C04FF07F0E4F16EE
:101D6200D8B4B6EF0EF0B8EF0EF0BCEF0EF0010EE5
:101D7200546EC5EF0EF047A0C1EF0EF0C3EF0EF0A8
:101D8200C5EF0EF0B8EF0EF05450D8B4CBEF0EF012
:101D9200CDEF0EF0F8EF0EF0010E4726000E4822AE
:101DA20049224A224AA0D8EF0EF0DAEF0EF0F8EFFD
:101DB2000EF047C04FF048C050F049C051F04AC041
:101DC20052F052345232513250324F324FC047F0F9
:101DD20050C048F051C049F052C04AF05528D8B41A
:101DE200F5EF0EF0F7EF0EF0F8EF0EF0552A55284A
:101DF200D8B4FEEF0EF000EF0FF008EF0FF05550E1
:101E0200D8A406EF0FF008EF0FF01AEF0FF0000E54
:101E1200476E000E486E000E496E000E4A6E555017
:101E2200D8A416EF0FF018EF0FF01AEF0FF0000E14
:101E3200536E55A01FEF0FF021EF0FF024EF0FF0BC
:101E4200498E25EF0FF0499ED89055304A6E53AE19
:101E52002DEF0FF02FEF0FF030EF0FF04A8E47C04B
:101E620047F048C048F049C049F04AC04AF0120061
:101E7200720ED36E000E966E02EC1FF0000E0B6E09
:101E8200010E0C6E080E0D6E010E73EC1EF039EC95
:101E92001FF073EC19F0000162C0D6F063C0D7F0F6
:101EA200D86BD96BD6C007F0D7C008F0D8C009F0FC
:101EB200D9C00AF0000E4CEC16F007C0EEF008C0D4
:101EC200EFF009C0F0F00AC0F1F034EC1CF001C0F0
:101ED20007F002C008F0096A0A6A000E4CEC16F01C
:101EE20007C0EAF008C0EBF009C0ECF00AC0EDF060
:101EF200000E2E6E000E2F6EA00E306E410E316E51
:101F0200EEC032F0EFC033F0F0C034F0F1C035F083
:101F120072EC18F0D8B090EF0FF092EF0FF012EFD2
:101F220010F0000E2E6E000E2F6E000E306E000EA0
:101F3200316EEAC032F0EBC033F0ECC034F0EDC0E9
:101F420035F072EC18F0D8B0A9EF0FF0ABEF0FF04C
:101F520012EF10F0EAC02EF0EBC02FF0ECC030F020
:101F6200EDC031F0000E326E000E336EC80E346ECC
:101F7200430E356E72EC18F0D8B0C2EF0FF0C4EF1A
:101F82000FF012EF10F0640E0001C66F010EC76F62
:101F92000F0EC86F080EC96FEEC0CAF0EFC0CBF0CB
:101FA200F0C0CCF0F1C0CDF025EC1DF0000E0B6EB0
:101FB200640E0C6E010E0D6E010E73EC1EF0500ECF
:101FC2000001C66F010EC76F170EC86F080EC96FEA
:101FD200EAC0CAF0EBC0CBF0ECC0CCF0EDC0CDF063
:101FE20025EC1DF0060E0B6E500E0C6E010E0D6EE2
:101FF200010E73EC1EF0800E096E010E0A6E000EC9
:10200200E8EC1DF0C00E9DEC1DF0000E77EC1DF00B
:10201200130E026E880E016EC3EC1DF08D808D8250
:102022008D84000E2E6E000E2F6E200E306E410E2D
:10203200316EEEC032F0EFC033F0F0C034F0F1C0D8
:1020420035F072EC18F0D8B029EF10F02BEF10F049
:10205200C4EF10F0000E2E6E000E2F6EA00E306E2A
:10206200410E316EEEC032F0EFC033F0F0C034F00A
:10207200F1C035F072EC18F0D8A042EF10F044EF46
:1020820010F0C4EF10F0000E2E6E000E2F6EC80E70
:10209200306E430E316EEAC032F0EBC033F0ECC06A
:1020A20034F0EDC035F072EC18F0D8B05BEF10F000
:1020B2005DEF10F0C4EF10F0EAC02EF0EBC02FF08D
:1020C200ECC030F0EDC031F0000E326E000E336E17
:1020D2002F0E346E440E356E72EC18F0D8B074EFD9
:1020E20010F076EF10F0C4EF10F0640E0001C66F2E
:1020F200010EC76F0F0EC86F080EC96FEEC0CAF08F
:10210200EFC0CBF0F0C0CCF0F1C0CDF025EC1DF06B
:10211200000E0B6E640E0C6E010E0D6E010E73EC52
:102122001EF0500E0001C66F010EC76F170EC86F6A
:10213200080EC96FEAC0CAF0EBC0CBF0ECC0CCF01D
:10214200EDC0CDF025EC1DF0060E0B6E500E0C6EA0
:10215200010E0D6E010E73EC1EF0880E096E010E5B
:102162000A6E000EE8EC1DF0C00E9DEC1DF0000E94
:1021720077EC1DF0130E026E880E016EC3EC1DF09B
:102182008D808D828D94EEC02EF0EFC02FF0F0C0C6
:1021920030F0F1C031F0000E326E000E336E200EC0
:1021A200346E410E356E72EC18F0D8B0DBEF10F0E1
:1021B200DDEF10F048EF0FF0000E2E6E000E2F6EC6
:1021C2002F0E306E440E316EEAC032F0EBC033F0A7
:1021D200ECC034F0EDC035F072EC18F0D8B0F4EF8A
:1021E20010F0F6EF10F048EF0FF0EAC02EF0EBC05F
:1021F2002FF0ECC030F0EDC031F0000E326E800EE8
:10220200336EBB0E346E440E356E72EC18F0D8B0DD
:102212000DEF11F00FEF11F048EF0FF0640E000117
:10222200C66F010EC76F0F0EC86F080EC96FEEC0E2
:10223200CAF0EFC0CBF0F0C0CCF0F1C0CDF025EC8D
:102242001DF0000E0B6E640E0C6E010E0D6E010E73
:1022520073EC1EF0500E0001C66F010EC76F170E11
:10226200C86F080EC96FEAC0CAF0EBC0CBF0ECC071
:10227200CCF0EDC0CDF025EC1DF0060E0B6E500E2D
:102282000C6E010E0D6E010E73EC1EF0880E096EBF
:10229200010E0A6E000EE8EC1DF0C00E9DEC1DF062
:1022A200000E77EC1DF0130E026E880E016EC3EC69
:1022B2001DF08D908D928D9448EF0FF000EF00F09D
:1022C2001850800B216E18501824276E17AE6CEF31
:1022D20011F06EEF11F06FEF11F027802750D8B494
:1022E20075EF11F077EF11F08AEF11F02728D8A4DB
:1022F2007DEF11F07FEF11F087EF11F0000E156EF8
:10230200000E166E000E176E000E186E178E92EFEC
:1023120011F0000E156E000E166E000E176E000EF6
:10232200186E1C50800B211A1C501C24266E1BAEEA
:102332009DEF11F09FEF11F0A0EF11F026802650D3
:10234200D8B4A6EF11F0A8EF11F0BBEF11F02628D8
:10235200D8A4AEEF11F0B0EF11F0B8EF11F0000E0B
:10236200196E000E1A6E000E1B6E000E1C6E1B8E76
:10237200C3EF11F0000E196E000E1A6E000E1B6EE6
:10238200000E1C6E2650D8B4C9EF11F0CBEF11F03D
:10239200D3EF11F02750D8A4D1EF11F0D3EF11F001
:1023A200DDEF11F0000E156E000E166E000E176EA8
:1023B200000E186E75EF13F01B501502F3CF2CF0C0
:1023C200F4CF2DF02C50226E236A246A256A2D50F8
:1023D200286E296A2A6A2B6A1A501602F3CF2CF049
:1023E200F4CF2DF02C502226000E23222422252267
:1023F2002D502826000E29222A222B22195017029C
:10240200F3CF2CF0F4CF2DF02C502226000E2322F5
:10241200242225222D502826000E29222A222B2270
:1024220024C025F023C024F022C023F0226A1950D0
:102432001602F3CF2CF0F4CF2DF02C5022262D5083
:102442002322000E2422000E25221A501502F3CF59
:102452002CF0F4CF2DF02C5022262D502322000EEA
:102462002422000E252224C025F023C024F022C0FD
:1024720023F0226A19501502F3CF2CF0F4CF2DF07D
:102482002C5022262D502322000E2422000E25221B
:102492001B501602F3CF2CF0F4CF2DF02C5028262F
:1024A2002D502922000E2A22000E2B221A5017022A
:1024B200F3CF2CF0F4CF2DF02C5028262D502922CA
:1024C200000E2A22000E2B221B501702F3CF2CF0F3
:1024D200F4CF2DF02C501D6E2D501E6E1F6A206AF7
:1024E2001FC020F01EC01FF01DC01EF01D6A1D502F
:1024F20028261E5029221F502A2220502B2222C079
:102502001DF023C01EF024C01FF025C020F0190EBC
:1025120090EF12F0D89020321F321E321D32E82E78
:102522008BEF12F01D5028261E5029221F502A22FE
:1025320020502B2224C025F023C024F022C023F0F7
:10254200226A265027C01DF01E6A1D26000E1E227A
:10255200820E1D242C6EFF0E1E202D6EC6EF12F071
:10256200D890283629362A362B3625AEBBEF12F004
:10257200BDEF12F0BEEF12F02880D890223623363B
:10258200243625362C06D8A02D062AAECBEF12F023
:10259200CDEF12F0B1EF12F0000E266E25AED4EFA1
:1025A20012F0D6EF12F0FAEF12F0FF0E22141D6EA7
:1025B200FF0E23141E6EFF0E24141F6E7F0E2514B1
:1025C200206E1D501E101F102010D8B4EBEF12F019
:1025D200EDEF12F0F1EF12F0010E266EFAEF12F0AB
:1025E20028A0F6EF12F0F8EF12F0FAEF12F0EDEF8A
:1025F20012F02650D8B400EF13F002EF13F026EFDA
:1026020013F0010E2826000E29222A222B222BA0AB
:102612000DEF13F00FEF13F026EF13F028C01DF0AB
:1026220029C01EF02AC01FF02BC020F02034203217
:102632001F321E321D321DC028F01EC029F01FC0DD
:102642002AF020C02BF02C4A2D2A2DBE31EF13F098
:102652002D5008E12C28D8A031EF13F033EF13F0FE
:102662003DEF13F0000E286E000E296E800E2A6ECA
:102672007F0E2B6E6BEF13F02DBE4AEF13F02D5031
:1026820006E12C04D8B048EF13F04AEF13F056EFEE
:1026920013F0000E286E000E296E000E2A6E000E38
:1026A2002B6E000E216E6BEF13F02CC027F0FF0E85
:1026B2002816FF0E29167F0E2A16000E2B1627A0AB
:1026C20065EF13F067EF13F068EF13F02A8ED890DE
:1026D20027302B6E21502B1228C015F029C016F07E
:1026E2002AC017F02BC018F012003150800B3E6E3A
:1026F20031503124456E30AE81EF13F083EF13F089
:1027020084EF13F045804550D8B48AEF13F08CEF74
:1027120013F0A1EF13F04528D8A492EF13F094EF31
:1027220013F09CEF13F0000E2E6E000E2F6E000EB3
:10273200306E000E316E308E000E316EA9EF13F046
:10274200000E2E6E000E2F6E000E306E000E316ED9
:102752003550800B3E1A35503524466E34AEB4EFF8
:1027620013F0B6EF13F0B7EF13F046804650D8B42B
:10277200BDEF13F0BFEF13F0D4EF13F04628D8A447
:10278200C5EF13F0C7EF13F0CFEF13F0000E326E68
:10279200000E336E000E346E000E356E348E000E57
:1027A200356EDCEF13F0000E326E000E336E000E4B
:1027B200346E000E356E3250331034103510D8A4FA
:1027C200E5EF13F0E7EF13F0FFEF13F0000E2E6EBC
:1027D200000E2F6E000E306E000E316E800E301223
:1027E2007F0E31123E5031122EC02EF02FC02FF02C
:1027F20030C030F031C031F042EF15F04550D8A46E
:1028020005EF14F007EF14F011EF14F0000E2E6E26
:10281200000E2F6E000E306E000E316E42EF15F07C
:10282200465045C036F0376A365E000E375A7F0E84
:1028320036243F6E000E3720406E2EC03AF02FC075
:102842003BF030C03CF031C03DF0000E2E6E000E69
:102852002F6E000E306E000E316E000E416E000EB5
:10286200426E000E436E000E446E000E466E72EF14
:1028720014F04650D8B440EF14F042EF14F059EF80
:1028820014F0D8903A363B363C363D36D8902E3648
:102892002F363036313644AE51EF14F053EF14F088
:1028A20054EF14F02E80D8904136423643364436E7
:1028B20032503A5C33503B5834503C5835503D58B6
:1028C200D8A066EF14F068EF14F071EF14F0448CA6
:1028D20032503A5E33503B5A34503C5A35503D5A8E
:1028E200462A190E466478EF14F07AEF14F03AEFA4
:1028F20014F03A503B103C103D10D8B483EF14F062
:1029020085EF14F09DEF14F041809DEF14F0D89004
:102912002E362F363036313644AE92EF14F094EF25
:1029220014F095EF14F02E80D8904136423643369B
:1029320044363F06D8A0400630AEA2EF14F0A4EF12
:1029420014F088EF14F0000E466E44AEABEF14F0B4
:10295200ADEF14F0D1EF14F0FF0E4114366EFF0EFE
:102962004214376EFF0E4314386E7F0E4414396ED4
:102972003650371038103910D8B4C2EF14F0C4EF03
:1029820014F0C8EF14F0010E466ED1EF14F02EA031
:10299200CDEF14F0CFEF14F0D1EF14F0C4EF14F038
:1029A2004650D8B4D7EF14F0D9EF14F0FDEF14F07D
:1029B200010E2E26000E2F223022312231A0E4EF0A
:1029C20014F0E6EF14F0FDEF14F02EC036F02FC035
:1029D20037F030C038F031C039F03934393238325A
:1029E2003732363236C02EF037C02FF038C030F0D2
:1029F20039C031F03F4A402A40BE08EF15F040503E
:102A020008E13F28D8A008EF15F00AEF15F015EFFE
:102A120015F0000E406E3F68000E2E6E000E2F6EF7
:102A2200000E306E000E316E40BE22EF15F04050A7
:102A320006E13F04D8B020EF15F022EF15F030EF99
:102A420015F0000E406E000E3F6E000E2E6E000E50
:102A52002F6E000E306E000E316E000E3E6E3FC0C5
:102A620045F045A037EF15F039EF15F03CEF15F0C2
:102A7200308E3DEF15F0309ED8904530316EF3EF39
:102A820013F01200DAC057F0DBC058F0DCC059F086
:102A9200DDC05AF047C057F048C058F049C059F05D
:102AA2004AC05AF0810E4B6EFF0E4C6E57C04DF06D
:102AB20058C04EF059C04FF05AC050F0180E67EF90
:102AC20015F0D89050324F324E324D32E82E62EF2E
:102AD20015F04D504B24556E000E4C20566E56BECE
:102AE2007CEF15F0565009E1170E555CD8A07CEF2B
:102AF20015F07EEF15F088EF15F047C047F048C09B
:102B020048F049C049F04AC04AF04BEF16F056BEB1
:102B12008DEF15F08FEF15F0FFEF15F055C04BF06C
:102B2200FF0E4C6EFF0E4D6E7F0E4E6E000E4F6E00
:102B32004B669EEF15F0A6EF15F04F344F324E3232
:102B42004D324C324B2E99EF15F04CC051F04DC026
:102B520052F04EC053F04FC054F0515057144B6EC8
:102B6200525058144C6E535059144D6E54505A14BE
:102B72004E6E4B504C104D104E10D8A4C3EF15F0B2
:102B8200C5EF15F0C7EF15F07EEF15F057C04BF00B
:102B920058C04CF059C04DF05AC04EF0200ED7EF3D
:102BA20015F0D8904E324D324C324B32E82ED2EFE5
:102BB20015F04B504C104D104E10D8B4E3EF15F0F9
:102BC200E5EF15F0EDEF15F051505726525058220F
:102BD2005350592254505A22511C4B6E521C4C6E67
:102BE200531C4D6E541C4E6E4B5057164C5058167B
:102BF2004D5059164E505A1643EF16F057C04BF02F
:102C020058C04CF059C04DF05AC04EF0200E0FEF94
:102C120016F0D8904E324D324C324B32E82E0AEF3B
:102C220016F04B504C104D104E10D8A41BEF16F05E
:102C32001DEF16F027EF16F0000E576E000E586EBD
:102C4200000E596E000E5A6E43EF16F0D8905734AC
:102C52004B6E58344C6E59344D6E5A344E6E4B5046
:102C62004C104D104E10D8B439EF16F03BEF16F061
:102C720043EF16F0000E576E000E586E800E596E1E
:102C8200BF0E5A6E57C047F058C048F059C049F0BD
:102C92005AC04AF012000F6E0F50D8B453EF16F01C
:102CA20055EF16F077EF16F00ABE5CEF16F05AEF0A
:102CB20016F077EF16F007C00BF008C00CF009C051
:102CC2000DF00AC00EF00B1E0C1E0D1E0E1E0B2A5E
:102CD200000E0C220D220E220BC011F00CC012F0BD
:102CE2000DC013F00EC014F07FEF16F007C011F004
:102CF20008C012F009C013F00AC014F007500810FF
:102D020009100A10D8A488EF16F08AEF16F094EF93
:102D120016F0000E076E000E086E000E096E000E11
:102D22000A6E25EF17F0960E106E9EEF16F0102A1F
:102D3200D8901432133212321132000E11140B6E6B
:102D4200000E12140C6E000E13140D6EFE0E1414EF
:102D52000E6E0B500C100D100E10D8A4B3EF16F01F
:102D6200B5EF16F098EF16F0C3EF16F0102A010E29
:102D72001126000E122213221422D890143213327A
:102D820012321132000E11140B6E000E12140C6E60
:102D9200000E13140D6EFF0E14140E6E0B500C1059
:102DA2000D100E10D8A4D8EF16F0DAEF16F0B7EF28
:102DB20016F0E2EF16F01006D890113612361336DE
:102DC200143613BEE7EF16F0E9EF16F0F1EF16F046
:102DD200020E1060EFEF16F0F1EF16F0DCEF16F0D6
:102DE20010B0F6EF16F0F8EF16F0F9EF16F0139EAA
:102DF200D890103210C00BF00C6A0D6A0E6A0BC02C
:102E02000EF00D6A0C6A0B6A0B5011120C50121262
:102E12000D5013120E5014120F50D8B413EF17F0B6
:102E220015EF17F01DEF17F00ABE1CEF17F01AEF9F
:102E320017F01DEF17F0148E11C007F012C008F042
:102E420013C009F014C00AF01200000E166E000E34
:102E5200156E000E0F6E000E0E6E32EF17F0084A5E
:102E6200092A010E146E08C0F6FF09C0F7FF080018
:102E7200F550200AD8B440EF17F042EF17F05FEF99
:102E820017F0F70E0A6EFF0E0B6E08C0F6FF09C0B0
:102E9200F7FF0800F5500C6E0D6A0A500C260B5015
:102EA2000D220D5009E1050E0C5CD8A05BEF17F066
:102EB2005DEF17F05FEF17F0000E146E14C010F004
:102EC200116A10501110D8A469EF17F06BEF17F0C8
:102ED20030EF17F075EF17F0000E0F6E010E0E6E49
:102EE200084A092AAAEF17F008C0F6FF09C0F7FF3F
:102EF2000800F5500A6E0B6A0B50000AD8B484EF32
:102F020017F0AAEF17F00A502B0AD8B471EF17F096
:102F1200060AD8B46DEF17F0AAEF17F015C001F04A
:102F220016C002F0000E046E0A0E036E1AEC1FF0B9
:102F320008C0F6FF09C0F7FF0800F550015E000E59
:102F4200025A300E0124156E000E0220166E71EF29
:102F520017F0D00E0A6EFF0E0B6E08C0F6FF09C006
:102F6200F7FF0800F5500C6E0D6A0A500C260B5044
:102F72000D220D500AE10A0E0C5CD8A0C3EF17F027
:102F8200C6EF17F0010EC7EF17F0000E126E136AAC
:102F920012501310D8A4D0EF17F0D2EF17F08FEF22
:102FA20017F00E500F10D8A4D9EF17F0DBEF17F07F
:102FB200E9EF17F015C00AF016C00BF00A1E0B1E3F
:102FC2000A4A0B2A0AC008F00BC009F0EDEF17F00D
:102FD20015C008F016C009F0120059345A34000125
:102FE200616F6151D8A4F8EF17F0FAEF17F004EF10
:102FF20018F0000E576E000E586E000E596E000E3D
:103002005A6E71EF18F057C05BF058C05CF059C0AF
:103012005DF05AC05EF0200E14EF18F0D8905E32C8
:103022005D325C325B32E82E0FEF18F05B50606F5E
:10303200598EFF0E5716FF0E5816FF0E5916000E28
:103042005A16960E615F61BF2BEF18F029EF18F048
:1030520041EF18F06151800A970FD8B033EF18F0A2
:1030620035EF18F037EF18F0FAEF17F0D8905A3220
:10307200593258325732613F37EF18F059EF18F092
:103082001F0E616547EF18F049EF18F051EF18F085
:10309200FAEF17F0D8905736583659365A36610734
:1030A2006151D8A457EF18F059EF18F04BEF18F010
:1030B2006051D8B45FEF18F061EF18F069EF18F0C3
:1030C2005A1E591E581E576C000E582259225A2257
:1030D20057C057F058C058F059C059F05AC05AF06A
:1030E2001200000E2E14366E000E2F14376E800E54
:1030F2003014386E7F0E3114396E36503710381056
:103102003910D8A487EF18F089EF18F091EF18F072
:10311200000E2E6E000E2F6E000E306E000E316EFF
:10312200000E3214366E000E3314376E800E3414D5
:10313200386E7F0E3514396E36503710381039100C
:10314200D8A4A6EF18F0A8EF18F0B0EF18F0000E10
:10315200326E000E336E000E346E000E356E31AEDE
:10316200B5EF18F0B7EF18F0C0EF18F02E6C2F1E65
:10317200D8B02F2A301ED8B0302A800E315635AE44
:10318200C5EF18F0C7EF18F0D0EF18F0326C331E0D
:10319200D8B0332A341ED8B0342A800E3556000EE9
:1031A2002E1A000E2F1A000E301A800E311A000E3F
:1031B200321A000E331A000E341A800E351A3250AB
:1031C2002E5C33502F583450305835503158D8B0C7
:1031D200EDEF18F0EFEF18F0F2EF18F0D890F3EFF0
:1031E20018F0D8801200DEC00BF0DFC00CF0E0C097
:1031F2000DF0E1C00EF001C00BF002C00CF003C0F4
:103202000DF004C00EF00BC005F00CC006F00DC0AE
:1032120007F00EC008F0180E14EF19F0D89008321B
:10322200073206320532E82E0FEF19F00550096E0B
:103232000A6A09500A10D8A421EF19F023EF19F0F5
:1032420043EF19F0D8900B34056E0C34066E0D3432
:10325200076E0E34086E0550061007100810D8A429
:1032620035EF19F037EF19F03DEF19F0000E026E4D
:10327200020E016E72EF19F0000E026E030E016E65
:1032820072EF19F009280A10D8A44AEF19F04CEF8E
:1032920019F06EEF19F00BC005F00CC006F00DC06E
:1032A20007F00EC008F0090ED8900536063607362C
:1032B2000836E82E55EF19F00550061007100810D1
:1032C200D8B466EF19F069EF19F0010E6AEF19F040
:1032D200000E016E026A72EF19F0000E026E040E09
:1032E200016E1200000E956E9268700ED312D350CA
:1032F200FC0B0209D36EC150F00B0E09C16ECF0E4A
:10330200C116C30EC216C050C70B1009C06EC05002
:10331200F80B0109C06EC08EC280C282C2B294EFA5
:1033220019F096EF19F08FEF19F0C4CF66F0000193
:10333200676B6651646FC350666F64C067F0000EBE
:103342004B6E000E4C6E480E4D6EC20E4E6E000E4F
:10335200326EC00E336E7F0E346E440E356E000E2A
:10336200196E000E1A6EFA0E1B6E430E1C6E66C0AC
:1033720007F067C008F0096A0A6A000E4CEC16F002
:1033820007C015F008C016F009C017F00AC018F0FF
:1033920061EC11F015C02EF016C02FF017C030F0FE
:1033A20018C031F076EC13F02EC047F02FC048F071
:1033B20030C049F031C04AF0D9EC0CF047C057F0A8
:1033C20048C058F049C059F04AC05AF0EEEC17F024
:1033D20057C066F058C067F066C062F067C063F01D
:1033E200120001C008F002C009F003C00AF004C0D4
:1033F2000BF00506D8A00606052806E10628D8A483
:1034020005EF1AF007EF1AF014EF1AF0000E026E31
:10341200000E016E5CEF1AF0084A092A0A4A0B2ACA
:103422000506D8A0060608C0D9FF09C0DAFFDF509A
:10343200D8B41EEF1AF020EF1AF04BEF1AF00AC0C0
:10344200F6FF0BC0F7FF0800F5500009D8B42CEFC7
:103452001AF02EEF1AF04BEF1AF005500610D8B4FE
:1034620035EF1AF037EF1AF04BEF1AF008C0D9FF18
:1034720009C0DAFFDF50076E0AC0F6FF0BC0F7FF84
:103482000800F5500718D8B449EF1AF04BEF1AF0BC
:103492000DEF1AF008C0D9FF09C0DAFFDF50076E3E
:1034A2000AC0F6FF0BC0F7FF0800F550075C016E7B
:1034B200026AD8A00206120003500410D8B464EFC6
:1034C2001AF066EF1AF06FEF1AF003500410D8A446
:1034D2006DEF1AF06FEF1AF074EF1AF0015043EC2F
:1034E2001FF0C1EF1AF020EE04F00350D926045069
:1034F200DA22DE50DE10D8B481EF1AF083EF1AF030
:103502009EEF1AF020EE04F00350D9260450DA227E
:1035120010EE02F00350E1260450E222DE50E65C97
:10352200E650800A096EDE50800A0958D8B09CEF36
:103532001AF09EEF1AF0C1EF1AF020EE02F00350DB
:10354200D9260450DA22DECF05F0DDCF06F003C023
:10355200D9FF04C0DAFFDECF07F0DDCF08F0055057
:103562000724D96E06500820DA6E01C0DFFF20EE74
:1035720002F00350D9260450DA22DE2A000EDD22A0
:1035820012000001F8A1C8EF1AF0CAEF1AF0D4EF46
:103592001AF013C00AF014C00BF011C00CF012C0E4
:1035A2000DF051EC1EF016BED9EF1AF0DBEF1AF057
:1035B200E1EF1AF015C01AF016C01BF0E5EF1AF091
:1035C200000E1B6E000E1A6E000E196E000E186EA3
:1035D200F7EF1AF0000E026E200E016E11C003F01A
:1035E20012C004F05DEC1AF0184A192A1A50185C3D
:1035F2001950800A176E1B50800A1758D8A004EF82
:103602001BF006EF1BF0EBEF1AF00001F8B10CEF24
:103612001BF00EEF1BF018EF1BF013C00AF014C0E2
:103622000BF011C00CF012C00DF051EC1EF013C0E3
:1036320001F014C002F0E7EC1EF01A500124116EE2
:103642001B500220126E1200000E066E04BE2EEFF8
:103652001BF02CEF1BF034EF1BF0036C041ED8B0F0
:10366200042A010E066E02BE3BEF1BF039EF1BF07F
:1036720041EF1BF0016C021ED8B0022A010E061A9D
:10368200000E086E000E076E03500410D8B44CEF03
:103692001BF04EEF1BF076EF1BF0010E056E56EF9E
:1036A2001BF0D89003360436052A04AE5BEF1BF0FC
:1036B2005DEF1BF052EF1BF0D8900736083603502F
:1036C200015C04500258D8A069EF1BF06BEF1BF0AD
:1036D20070EF1BF00350015E0450025A0780D8902D
:1036E20004320332052E5DEF1BF00650D8B47CEF96
:1036F2001BF07EEF1BF082EF1BF0076C081ED8B0A8
:10370200082A07C001F008C002F01200000E066E7F
:1037120002BE90EF1BF08EEF1BF096EF1BF0016CD8
:10372200021ED8B0022A010E066E04BE9DEF1BF0E7
:103732009BEF1BF0A1EF1BF0036C041ED8B0042A10
:1037420003500410D8B4A8EF1BF0AAEF1BF0CEEF81
:103752001BF0010E056EB2EF1BF0D8900336043653
:10376200052A04AEB7EF1BF0B9EF1BF0AEEF1BF06A
:103772000350015C04500258D8A0C2EF1BF0C4EF02
:103782001BF0C8EF1BF00350015E0450025AD890A0
:1037920004320332052EB9EF1BF00650D8B4D4EF31
:1037A2001BF0D6EF1BF0DAEF1BF0016C021ED8B053
:1037B200022A01C001F002C002F01200000E011440
:1037C200096E000E02140A6E800E03140B6E7F0E39
:1037D20004140C6E09500A100B100C10D8A4F4EF4C
:1037E2001BF0F6EF1BF0FEEF1BF0000E016E000E59
:1037F200026E000E036E000E046E000E0514096EBA
:10380200000E06140A6E800E07140B6E7F0E08144B
:103812000C6E09500A100B100C10D8A413EF1CF0F8
:1038220015EF1CF01DEF1CF0000E056E000E066E6B
:10383200000E076E000E086E055001180FE10650CB
:1038420002180CE10750031809E108500418D8B413
:103852002DEF1CF02FEF1CF032EF1CF0D89033EF5D
:103862001CF0D8801200000E956E9268700ED31272
:10387200D350FC0B0209D36EC150F00B0D09C16E7F
:10388200CF0EC116C250C30B0409C26EC050C70B83
:103892001009C06EC050F80B0109C06EC08EC28004
:1038A200C282C2B257EF1CF059EF1CF052EF1CF06B
:1038B200C4CF05F0066A0550036EC350056E03C0FF
:1038C20006F005C001F006C002F01200C0C0C4F04C
:1038D200C1C0C5F0000E0001F36F000EF26F85EF5C
:1038E2001CF0BEC0A6F0BFC0A7F0C40EA86F000EA9
:1038F200A96FC2C0AAF0C3C0ABF045EC0AF0000148
:10390200A651F227A751F323C4C0F6FFC5C0F7FFA3
:103912000800F5500009D8A491EF1CF093EF1CF0B9
:1039220072EF1CF0F2C0BEF0F3C0BFF01200BF0E87
:10393200096EFF0E0A6E07C00BF008C00CF00950AA
:103942000B260A500C220C500AE11A0E0B5CD8A06E
:10395200ADEF1CF0B0EF1CF0010EB1EF1CF0000E49
:103962000D6E0E6A0D500E10D8B4BAEF1CF0BCEFFB
:103972001CF0C3EF1CF0200E0710076E0850086EF3
:10398200C7EF1CF007C007F008C008F01200DEEF16
:103992001CF009C0F6FF0AC0F7FFF86A070EF764C9
:1039A20003D00800F55005D0F6CFE1FFF7CFE2FFD4
:1039B200E75077EC1DF0094A0A2A09C0F6FF0AC04F
:1039C200F7FFF86A070EF76403D00800F55005D038
:1039D200F6CFE1FFF7CFE2FFE7500009D8A4F4EFFA
:1039E2001CF0F6EF1CF0CAEF1CF0120003C007F047
:1039F20004C008F001C009F002C00AF00750056EC9
:103A02000850066E074A082A05C0F6FF06C0F7FFEF
:103A1200F86A09C0D9FF0AC0DAFF094A0A2A070E62
:103A2200F76403D00800F55005D0F6CFE1FFF7CFD9
:103A3200E2FFE750DF6EDF50D8A422EF1DF024EF43
:103A42001DF0FFEF1CF01200CA0E0001CE6F000E37
:103A5200CF6FC6C0D0F0C7C0D1F0000ED36F000E3A
:103A6200D26F000ED56F000ED46FD00EBE6F000E57
:103A7200BF6FC8C0C0F0C9C0C1F0CE0EC26F000E89
:103A8200C36F67EC1CF00001D251C625D96ED35129
:103A9200C721DA6E000EDF6E1200010E076E200ED5
:103AA20001180210D8B458EF1DF05AEF1DF073EF51
:103AB2001DF0F70E036EFF0E046E01C005F002C08A
:103AC20006F00350052604500622065009E1050EB1
:103AD200055CD8A06FEF1DF071EF1DF073EF1DF0C4
:103AE200000E076E07C001F0026A1200086E08C0DD
:103AF20007F0F00E07168A500F0B07108A6E8A84A1
:103B02008A8600F08A96000E026E010E016EC3ECE8
:103B12001DF008C007F0073AF00E07168A500F0B87
:103B220007108A6E8A8600F08A96000E026E030ED5
:103B3200016EC3EC1DF01200086E08C007F0F00E13
:103B420007168A500F0B07108A6E8A948A8600F035
:103B52008A96000E026E010E016EC3EC1DF008C0C3
:103B620007F0073AF00E07168A500F0B07108A6EFD
:103B72008A8600F08A96000E026E030E016EC3EC76
:103B82001DF01200000E046E000E036EDCEF1DF03D
:103B9200000E066E000E056E054A062A065009E161
:103BA200A50E055CD8A0D8EF1DF0DAEF1DF0CDEF21
:103BB2001DF0034A042A0150035C02500458D8A0A5
:103BC200E5EF1DF0E7EF1DF0C9EF1DF012000B6EDF
:103BD200080E0B60EFEF1DF0F1EF1DF00BEF1EF082
:103BE2000B50080DF350400F9DEC1DF0000E0C6EB3
:103BF2000C500924D96E000E0A20DA6EDF5077ECE1
:103C02001DF00C2A070E0C6409EF1EF00BEF1EF0DC
:103C1200F9EF1DF01200000E5B1A000E5C1A000E86
:103C22005D1A800E5E1A57C047F058C048F059C05E
:103C320049F05AC04AF05BC04BF05CC04CF05DC02A
:103C42004DF05EC04EF0D9EC0CF047C057F048C0C2
:103C520058F049C059F04AC05AF012005A0EF66E96
:103C62003E0EF76E000EF86E01EE78F010EE18F0D0
:103C72000900F5CFEEFFE550E150FAE101EE00F068
:103C8200780EEE6AE806FDE100EEDAF0230EEE6A47
:103C9200E806FDE15F6A000EF86E000139EF0FF0F1
:103CA200000E106E000E0F6E62EF1EF00EC001F0DD
:103CB200026A0CC003F00DC004F05DEC1AF00F4A6A
:103CC200102A0F500A24D96E10500B20DA6EDF50E2
:103CD2000E6E0E50D8A470EF1EF072EF1EF057EF6A
:103CE2001EF012000E6E020E0E607AEF1EF07CEFD6
:103CF2001EF085EF1EF00B500F0B80090F6E0F5058
:103D02009DEC1DF08CEF1EF00B500F0BC0090F6ED7
:103D12000F509DEC1DF00CC009F00DC00AF0C8EC6C
:103D22001CF01200BF0E036EFF0E046E01C005F000
:103D320002C006F0035005260450062206500AE18E
:103D42001A0E055CD8A0A8EF1EF0ABEF1EF0010E14
:103D5200ACEF1EF0000E016E026A1200015002105A
:103D620003100410D8B4B8EF1EF0BAEF1EF0C2EF81
:103D72001EF0000E011A000E021A000E031A800E27
:103D8200041A01C001F002C002F003C003F004C033
:103D920004F01200D00E036EFF0E046E01C005F097
:103DA20002C006F0035005260450062206500AE11E
:103DB2000A0E055CD8A0E0EF1EF0E3EF1EF0010E44
:103DC200E4EF1EF0000E016E026A120001C003F061
:103DD20002C004F0EFEF1EF0014A022A01C0D9FF2F
:103DE20002C0DAFFDF50D8A4F9EF1EF0FBEF1EF09D
:103DF200EDEF1EF00350015C016E04500258026E9A
:103E02001200000E936E000E026E0F0E016EC3ECD6
:103E12001DF0020E9DEC1DF0280E9DEC1DF0010E12
:103E22009DEC1DF00C0E9DEC1DF0060E9DEC1DF0A0
:103E3200120001500302F3CF05F0F4CF06F0015057
:103E42000402F350062602500302F350062605C070
:103E520001F006C002F0120000000E1F0E0000006A
:103E6200150E11110E1500000E1F1F0E000A0A007A
:103E7200010E9DEC1DF0000E026E030E016EC3ECEE
:063E82001DF01200120009
:020000040020DA
:08000000FFFFFFFFFFFFFFFF00
:020000040030CA
:0E0000000088181EFF8385FF0FC00FE00F4021
:00000001FF
