:020000040000FA
:0400000004EF22F0F7
:1008000000204275656E6F73204469617320002576
:10081000302E30664300494E46004E414E00696E10
:1008200066006E616E002578200025782D00257801
:100830003A005765640054756500467269004D6F53
:100840006E0053756E0053617400546875006C66D9
:1008500000414D00504D0000000E0001896F000E58
:10086000886F64C09AF065C09BF066C09CF067C05A
:100870009DF09DBF40EF04F03EEF04F056EF04F012
:10088000000E896F010E886F9AC001F09BC002F0C4
:100890009CC003F09DC004F0DBEC22F001C09AF094
:1008A00002C09BF003C09CF004C09DF0000E00014C
:1008B000A16F000EA06FF7C08CF0F8C08DF08851CA
:1008C0008911D8A466EF04F068EF04F06FEF04F02C
:1008D000FBA56DEF04F06FEF04F089EF04F0885191
:1008E0008911D8A476EF04F078EF04F07EEF04F0DD
:1008F000000E6F6F2B0E6E6F82EF04F0000E6F6FA5
:100900002D0E6E6F6EC02AF1A04BA12B8C07D8A0C4
:100910008D079AC001F09BC002F09CC003F09DC0FF
:1009200004F0C9EC1CF001040210D8A49AEF04F002
:100930009CEF04F0F3EF04F0BF0E0001696FFF0EAF
:100940006A6F68516B6F6C6B69516B276A516C23CE
:100950006C510AE11A0E6B5DD8A0B1EF04F0B4EF50
:1009600004F0010EB5EF04F0000E706F716B705162
:100970007111D8B4BEEF04F0C0EF04F0CEEF04F074
:100980002A0EA025016E010EA121026E160E036E25
:10099000080E046E7CEC20F0DAEF04F02A0EA0259D
:1009A000016E010EA121026E1E0E036E080E046E72
:1009B0007CEC20F00001FD0E8C27FF0E8D2362C021
:1009C00011F063C012F02A0E136E010E146E8CC06B
:1009D00015F08DC016F018EC1EF011C062F012C0B8
:1009E00063F057EF0AF09AC001F09BC002F09CC080
:1009F00003F09DC004F0C9EC1CF001500210D8A413
:100A000004EF05F006EF05F046EF05F0BF0E00011C
:100A1000696FFF0E6A6F68516B6F6C6B69516B2762
:100A20006A516C236C510AE11A0E6B5DD8A01BEF62
:100A300005F01EEF05F0010E1FEF05F0000E726FBE
:100A4000736B72517311D8B428EF05F02AEF05F0DB
:100A500038EF05F02A0EA025016E010EA121026ECD
:100A60001A0E036E080E046E7CEC20F0DAEF04F030
:100A70002A0EA025016E010EA121026E220E036E28
:100A8000080E046E7CEC20F0DAEF04F0000E00019A
:100A9000A26F000EA36F800EA46F3F0EA56F000E15
:100AA0009F6F000E9E6F9AC001F09BC002F09CC029
:100AB00003F09DC004F0000E056E000E066E000EE1
:100AC000076E000E086E35EC1FF0D8B06AEF05F027
:100AD0006CEF05F0EFEF05F08BEF05F0A2C015F01D
:100AE000A3C016F0A4C017F0A5C018F0000E196E30
:100AF000000E1A6E200E1B6E410E1C6EBFEC0FF026
:100B000015C0A2F016C0A3F017C0A4F018C0A5F03D
:100B100000019E4B9F2B9AC02EF09BC02FF09CC0D3
:100B200030F09DC031F0000E196E000E1A6E200ECE
:100B30001B6E410E1C6EA2C015F0A3C016F0A4C01F
:100B400017F0A5C018F0BFEC0FF015C032F016C0BA
:100B500033F017C034F018C035F0C8EC1BF0D8B033
:100B6000B4EF05F0B6EF05F06EEF05F0D6EF05F047
:100B7000A2C02EF0A3C02FF0A4C030F0A5C031F069
:100B8000000E326E000E336E200E346E410E356E46
:100B9000B2EC13F02EC0A2F02FC0A3F030C0A4F02E
:100BA00031C0A5F000019E07D8A09F079AC02EF083
:100BB0009BC02FF09CC030F09DC031F0A2C032F03D
:100BC000A3C033F0A4C034F0A5C035F0C8EC1BF0CE
:100BD000D8A0EDEF05F0EFEF05F0B8EF05F068C035
:100BE00007F0086AEEEC1FF0075000018F6F8FC00E
:100BF0008EF0670E8F19D8A400EF06F002EF06F012
:100C000028EF06F0F951FA11D8A409EF06F00BEF1E
:100C100006F00FEF06F0000EFA6F010EF96FFABF43
:100C20001CEF06F0FA5106E1F905D8B01AEF06F00C
:100C30001CEF06F022EF06F0000E8B6F060E8A6F97
:100C400031EF06F0F9C08AF0FAC08BF031EF06F010
:100C5000FABF2DEF06F02FEF06F01CEF06F022EFA3
:100C600006F0670E8F19D8A438EF06F03AEF06F0B9
:100C700069EF06F09FAF48EF06F0FC0E9E5DFF0E99
:100C80009F59D8A046EF06F048EF06F067EF06F050
:100C9000FF0E696FFF0E6A6F8AC06BF08BC06CF03D
:100CA00069516B276A516C239E516B5D6C51800AB0
:100CB0006D6F9F51800A6D59D8A061EF06F063EF08
:100CC00006F067EF06F0660E8E6F69EF06F0650EB0
:100CD0008E6F8AC080F08BC081F0670E8F19D8A408
:100CE00074EF06F076EF06F086EF06F0660E8E19CA
:100CF000D8A47DEF06F07FEF06F088EF06F09FBFE7
:100D000086EF06F084EF06F088EF06F0804B812B2B
:100D1000660E8E19D8A48FEF06F091EF06F0B1EFB2
:100D200006F09FBF98EF06F096EF06F0A4EF06F0EE
:100D3000000EA26F000EA36F800EA46F3F0EA56F72
:100D4000000E9F6F000E9E6F670E8F19D8B4ABEF29
:100D500006F0ADEF06F0B1EF06F09E5180279F51EF
:100D60008123000E996F000E986F9AC090F09BC07F
:100D700091F09CC092F09DC093F0A2C082F0A3C0FD
:100D800083F0A4C084F0A5C085F042EF07F090C0C6
:100D90002EF091C02FF092C030F093C031F0A2C07D
:100DA00032F0A3C033F0A4C034F0A5C035F0B2ECEB
:100DB00013F02EC047F02FC048F030C049F031C0CA
:100DC0004AF099EC18F047C094F048C095F049C03B
:100DD00096F04AC097F094C057F095C058F096C06E
:100DE00059F097C05AF044EC1BF057C086F058C039
:100DF00087F090C057F091C058F092C059F093C05E
:100E00005AF0A2C019F0A3C01AF0A4C01BF0A5C0EC
:100E10001CF094C015F095C016F096C017F097C05E
:100E200018F0BFEC0FF015C05BF016C05CF017C0F7
:100E30005DF018C05EF0BEEC21F057C090F058C0D5
:100E400091F059C092F05AC093F0A2C02EF0A3C006
:100E50002FF0A4C030F0A5C031F0000E326E000EAD
:100E6000336E200E346E410E356EB2EC13F02EC090
:100E7000A2F02FC0A3F030C0A4F031C0A5F0000153
:100E8000984B992B8051985D9951800A696F8151D7
:100E9000800A6959D8A04FEF07F051EF07F0C7EF6C
:100EA00006F0A2C015F0A3C016F0A4C017F0A5C0AC
:100EB00018F0000E196E000E1A6EA00E1B6E400E7A
:100EC0001C6EBFEC0FF015C094F016C095F017C063
:100ED00096F018C097F090C02EF091C02FF092C0FD
:100EE00030F093C031F094C032F095C033F096C02A
:100EF00034F097C035F0C8EC1BF0D8B082EF07F0A3
:100F000084EF07F08FEF07F0000E0001946F000EE2
:100F1000956F000E966F000E976FB8EF07F090C0B8
:100F200001F091C002F092C003F093C004F094C0AD
:100F300005F095C006F096C007F097C008F035ECB4
:100F40001FF0D8A0A6EF07F0A8EF07F0B8EF07F062
:100F5000000186B1AEEF07F0B0EF07F0B8EF07F091
:100F6000000E946F000E956F000E966F000E976F37
:100F70009AC047F09BC048F09CC049F09DC04AF021
:100F800094C04BF095C04CF096C04DF097C04EF019
:100F90005FEC0DF047C090F048C091F049C092F06E
:100FA0004AC093F090C02EF091C02FF092C030F064
:100FB00093C031F0000E196E000E1A6E200E1B6EDB
:100FC000410E1C6E82C015F083C016F084C017F06D
:100FD00085C018F0BFEC0FF015C032F016C033F02A
:100FE00017C034F018C035F0C8EC1BF0D8A0FBEFE8
:100FF00007F0FDEF07F026EF08F000019E4B9F2B56
:1010000082C015F083C016F084C017F085C018F0B8
:10101000000E196E000E1A6E200E1B6E410E1C6E15
:10102000BFEC0FF015C082F016C083F017C084F03B
:1010300018C085F0660E00018E19D8A422EF08F0C2
:1010400024EF08F026EF08F0804B812B82C0A2F03D
:1010500083C0A3F084C0A4F085C0A5F0650E000194
:101060008E19D8B436EF08F038EF08F03EEF08F0EC
:101070009EC07EF09FC07FF042EF08F0000E7F6FB1
:10108000000E7E6F000E7D6F000E7C6F000E7B6F7A
:10109000000E7A6F000E996F000E986F3DEF09F009
:1010A00090C02EF091C02FF092C030F093C031F07C
:1010B000A2C032F0A3C033F0A4C034F0A5C035F014
:1010C000B2EC13F02EC047F02FC048F030C049F00A
:1010D00031C04AF099EC18F047C094F048C095F040
:1010E00049C096F04AC097F094C057F095C058F0A8
:1010F00096C059F097C05AF044EC1BF057C086F0E8
:1011000058C087F00001FBB988EF08F08AEF08F0BB
:10111000A7EF08F086518711D8A491EF08F093EF5C
:1011200008F0A7EF08F0670E8F19D8A49AEF08F01F
:101130009CEF08F0A7EF08F07FBFA3EF08F0A1EF46
:1011400008F0A7EF08F07A4B7B2BF1EF08F07C5109
:101150007D11D8A4AEEF08F0B0EF08F0DAEF08F098
:101160007FBFB7EF08F0B5EF08F0DAEF08F02A0E0E
:10117000A025D96E010EA121DA6E2E0EDF6EA04BD6
:10118000A12B8C07D8A08D07000E7D6F010E7C6F00
:10119000DAEF08F02A0EA025D96E010EA121DA6E31
:1011A000300EDF6EA04BA12B8C07D8A08D077A07DD
:1011B000D8A07B077A517B11D8A4E1EF08F0E3EFC8
:1011C00008F0CAEF08F02A0EA025D96E010EA12161
:1011D000DA6E8651300FDF6EA04BA12B8C07D8A0A2
:1011E0008D0790C057F091C058F092C059F093C04D
:1011F0005AF0A2C019F0A3C01AF0A4C01BF0A5C0F9
:101200001CF094C015F095C016F096C017F097C06A
:1012100018F0BFEC0FF015C05BF016C05CF017C003
:101220005DF018C05EF0BEEC21F057C090F058C0E1
:1012300091F059C092F05AC093F0A2C02EF0A3C012
:101240002FF0A4C030F0A5C031F0000E326E000EB9
:10125000336E200E346E410E356EB2EC13F02EC09C
:10126000A2F02FC0A3F030C0A4F031C0A5F000015F
:101270007E07D8A07F07984B992B8051985D995194
:10128000800A696F8151800A6959D8B04AEF09F024
:101290004CEF09F05AEF09F0A1BF58EF09F0A15146
:1012A00009E14B0EA05DD8A058EF09F05AEF09F004
:1012B00050EF08F07C517D11D8A461EF09F063EF85
:1012C00009F074EF09F0FBA968EF09F06AEF09F083
:1012D00074EF09F02A0EA025D96E010EA121DA6E55
:1012E0002E0EDF6EA04BA12B2A0EA025D96E010E6B
:1012F000A121DA6E000EDF6E650E8E19D8A483EF81
:1013000009F085EF09F0DFEF04F0000E996F4F0E42
:10131000986F2A0E9825D96E010E9921DA6E000E6B
:10132000DF6E000E896F000E886F9FBF9CEF09F083
:101330009AEF09F0A4EF09F0000E896F010E886F93
:101340009E6D9F1FD8B09F2B000E8B6F020E8A6F71
:10135000D5EF09F09807D8A099072A0E9825D96EDD
:10136000010E9921DA6E9EC001F09FC002F0000EBE
:10137000046E0A0E036EDDEC1EF00150300FDF6EBE
:101380009EC001F09FC002F0000E046E0A0E036EB4
:101390007BEC1EF001C09EF002C09FF000018A07A6
:1013A000D8A08B078C07D8A08D079E519F11D8A479
:1013B000DCEF09F0DEEF09F0AAEF09F08BBFEBEFED
:1013C00009F08B5106E18A05D8B0E9EF09F0EBEF9F
:1013D00009F0AAEF09F09807D8A099078851891158
:1013E000D8A4F5EF09F0F7EF09F0FDEF09F0000ED2
:1013F000756F2B0E746F01EF0AF0000E756F2D0ED6
:10140000746F2A0E9825D96E010E9921DA6E74C078
:10141000DFFF8C07D8A08D079807D8A09907BF0ECB
:10142000696FFF0E6A6F68516B6F6C6B69516B2748
:101430006A516C236C510AE11A0E6B5DD8A023EF40
:101440000AF026EF0AF0010E27EF0AF0000E786F7F
:10145000796B78517911D8A430EF0AF032EF0AF0A5
:1014600038EF0AF0000E776F650E766F3CEF0AF0EA
:10147000000E776F450E766F2A0E9825D96E010EF5
:101480009921DA6E76C0DFFF8C07D8A08D072A0E6F
:10149000A025016E010EA121026E2A0E9825036E71
:1014A000010E9921046E7CEC20F0DFEF04F01200B5
:1014B000A8C0D9FFA9C0DAFFDECFF6FFDDCFF7FF66
:1014C0000800F550250AD8A468EF0AF06AEF0AF080
:1014D00043EF0DF0A8C0D9FFA9C0DAFFDE2A000E45
:1014E000DD22000E0001F86F000EF76FF7C0FBF071
:1014F000F8C0FCF0F969FA69000EB96F000EB86F18
:10150000C8EF0AF0FB81A8C0D9FFA9C0DAFFDE2A24
:10151000000EDD22C8EF0AF0FB8383EF0AF0FB85A3
:1015200083EF0AF0FB8783EF0AF0FB8983EF0AF071
:10153000000EB96F010EB86FC8EF0AF0A8C0D9FF4E
:10154000A9C0DAFFDECFF6FFDDCFF7FF0800F550C8
:10155000AC6FAD6BAD51000AD8B4B1EF0AF098EFA3
:101560000AF0AC51200AD8B492EF0AF0030AD8B4BA
:1015700095EF0AF0080AD8B48FEF0AF0060AD8B43B
:1015800082EF0AF01D0AD8B48CEF0AF098EF0AF047
:10159000B851B911D8B4CFEF0AF0D1EF0AF09EEFED
:1015A0000AF0FBA1D6EF0AF0D8EF0AF0D9EF0AF063
:1015B000FB93A8C0D9FFA9C0DAFFDECFF6FFDDCFCD
:1015C000F7FF0800F5502E0AD8A4E9EF0AF0EBEF78
:1015D0000AF069EF0BF0000EFA6F000EF96FA8C069
:1015E000D9FFA9C0DAFFDE2A000EDD22A8C0D9FF8C
:1015F000A9C0DAFFDECFF6FFDDCFF7FF0800F55018
:101600002A0AD8A406EF0BF008EF0BF025EF0BF039
:10161000A8C0D9FFA9C0DAFFDE2A000EDD22AAC0C9
:10162000D9FFABC0DAFFDFCFACF0020EDE26DFCF92
:10163000ADF0000EDD22ACC0D9FFADC0DAFFDECFC9
:10164000F9F0DDCFFAF069EF0BF0A8C0D9FFA9C01F
:10165000DAFFDECF08F0DDCF09F07CEC1AF008C02D
:10166000F9F009C0FAF03CEF0BF0A8C0D9FFA9C00F
:10167000DAFFDE2A000EDD22D00E0001AC6FFF0E75
:10168000AD6FA8C0D9FFA9C0DAFFDECFF6FFDDCF6E
:10169000F7FF0800F550AE6FAF6BAC51AE27AD5100
:1016A000AF23AF510AE10A0EAE5DD8A05AEF0BF09E
:1016B0005DEF0BF0010E5EEF0BF0000EBA6FBB6B2F
:1016C000BA51BB11D8A467EF0BF069EF0BF035EFFF
:1016D0000BF0A8C0D9FFA9C0DAFFDECFF6FFDDCF3F
:1016E000F7FF0800F550076E086AEEEC1FF0075090
:1016F0000001C26FC251D8B480EF0BF082EF0BF043
:10170000BCEF0BF0A8C0D9FFA9C0DAFFDECFACF068
:10171000DDCFADF0010EAC27000EAD23ACC0F6FF5F
:10172000ADC0F7FF0800F550076E086AEEEC1FF039
:1017300007500001C36FC351D8B4A1EF0BF0A3EF62
:101740000BF0BCEF0BF0A8C0D9FFA9C0DAFFDECFC9
:10175000ACF0DDCFADF0020EAC27000EAD23ACC077
:10176000F6FFADC0F7FF0800F550076E086AEEEC13
:101770001FF007500001C46F660EC219D8A4C3EF52
:101780000BF0C5EF0BF005EF0CF0A8C0D9FFA9C016
:10179000DAFFDECFF6FFDDCFF7FF0800F5CFC5F0AB
:1017A000A8C0D9FFA9C0DAFFDE2A000EDD22AAC038
:1017B000D9FFABC0DAFFDFCFACF0040EDE26DFCFFF
:1017C000ADF0000EDD22ACC0D9FFADC0DAFFDECF38
:1017D000BEF0DECFBFF0DECFC0F0DECFC1F0A6C0DE
:1017E00062F0A7C063F0BEC064F0BFC065F0C0C0C7
:1017F00066F0C1C067F0C5C068F02CEC04F062C0B0
:10180000A6F063C0A7F05EEF0DF0C20E016E000EF1
:10181000026E4E0E036E080E046E000E066E020E71
:10182000056E48EC1DF001500210D8A41AEF0CF020
:101830001CEF0CF098EF0CF0A8C0D9FFA9C0DAFF9C
:10184000DECFACF0DDCFADF0010E0001AC27000E15
:10185000AD23ACC0F6FFADC0F7FF0800F5CFC5F073
:10186000BF0EAC6FFF0EAD6FA8C0D9FFA9C0DAFFE5
:10187000DECFF6FFDDCFF7FF0800F550AE6FAF6BA0
:10188000AC51AE27AD51AF23AF510AE11A0EAE5D98
:10189000D8A04DEF0CF050EF0CF0010E51EF0CF012
:1018A000000EBC6FBD6BBC51BD11D8B45AEF0CF02B
:1018B0005CEF0CF076EF0CF0AAC0D9FFABC0DAFFFA
:1018C000DFCFACF0040EDE26DFCFADF0000EDD2260
:1018D000ACC0D9FFADC0DAFFDECFBEF0DECFBFF0C7
:1018E000DECFC0F0DECFC1F08EEF0CF0AAC0D9FF82
:1018F000ABC0DAFFDFCFACF0040EDE26DFCFADF0F9
:10190000000EDD22ACC0D9FFADC0DAFFDECFBEF0E5
:10191000DECFBFF0DECFC0F0DECFC1F0020EA8C038
:10192000D9FFA9C0DAFFDE26000EDD22EFEF0BF0B3
:10193000A8C0D9FFA9C0DAFFDECFF6FFDDCFF7FFE1
:101940000800F550780AD8B4A8EF0CF0AAEF0CF014
:10195000BCEF0CF0A8C0D9FFA9C0DAFFDECFF6FFBC
:10196000DDCFF7FF0800F550580AD8A4BAEF0CF005
:10197000BCEF0CF00BEF0DF0A8C0D9FFA9C0DAFF47
:10198000DECFF6FFDDCFF7FF0800F5CFC5F0A8C02A
:10199000D9FFA9C0DAFFDE2A000EDD22AAC0D9FFD6
:1019A000ABC0DAFFDFCFACF0020EDE26DFCFADF04A
:1019B000000EDD22ACC0D9FFADC0DAFFDECFAEF045
:1019C000DDCFAFF0AEC0B0F0AFC0B1F00001B26B90
:1019D000B36BB46BB56BB66BB76BA6C01CF0A7C08E
:1019E0001DF0B0C01EF0B1C01FF0B2C020F0B3C0F7
:1019F00021F0B4C022F0B5C023F0B6C024F0B7C0C7
:101A000025F0C5C026F02CEC17F01CC0A6F01DC0B8
:101A1000A7F05EEF0DF0A8C0D9FFA9C0DAFFDECFB6
:101A2000F6FFDDCFF7FF0800F550250AD8A41BEF1D
:101A30000DF01DEF0DF035EF0DF0A8C0D9FFA9C0D6
:101A4000DAFFDE2A000EDD22000E026E250E016E88
:101A5000A6C003F0A7C004F0B3EC1DF0000E000117
:101A6000A76F010EA66F5EEF0DF0A8C0D9FFA9C049
:101A7000DAFFDE2A000EDD22000E0001A76F000E45
:101A8000A66F5EEF0DF0A8C0D9FFA9C0DAFFDECFC8
:101A9000F6FFDDCFF7FF0800F550016E026AA6C021
:101AA00003F0A7C004F0B3EC1DF0A8C0D9FFA9C093
:101AB000DAFFDE2A000EDD222EEF0DF012004A5072
:101AC000800B536E4A504A24556E49AE6AEF0DF0B2
:101AD0006CEF0DF06DEF0DF055805550D8B473EFED
:101AE0000DF075EF0DF08AEF0DF05528D8A47BEFBF
:101AF0000DF07DEF0DF085EF0DF0000E476E000E3E
:101B0000486E000E496E000E4A6E498E000E4A6EF7
:101B100092EF0DF0000E476E000E486E000E496EFB
:101B2000000E4A6E4E50800B546E53505418D8B469
:101B30009CEF0DF09EEF0DF09FEF0DF0538C4E508B
:101B40004E24546E4DAEA7EF0DF0A9EF0DF0AAEFA5
:101B50000DF054805450D8B4B0EF0DF0B2EF0DF04A
:101B6000C7EF0DF05428D8A4B8EF0DF0BAEF0DF080
:101B7000C2EF0DF0000E4B6E000E4C6E000E4D6E5F
:101B8000000E4E6E4D8E000E4E6ECFEF0DF0000E1D
:101B90004B6E000E4C6E000E4D6E000E4E6E55508C
:101BA000545CD8B0D6EF0DF0D8EF0DF0FFEF0DF08C
:101BB00053ACDDEF0DF0DFEF0DF0E1EF0DF0800E37
:101BC000531A55C056F054C055F056C054F047C093
:101BD00056F04BC047F056C04BF048C056F04CC0D2
:101BE00048F056C04CF049C056F04DC049F056C0C0
:101BF0004DF04AC056F04EC04AF056C04EF0000EAE
:101C0000566E555054C04FF0506A4F5E000E505AF9
:101C100050BE14EF0EF0505009E11A0E4F5CD8A0E0
:101C200014EF0EF016EF0EF04DEF0EF04750481087
:101C300049104A10D8A41FEF0EF022EF0EF0010E4B
:101C400023EF0EF0000E566E000E476E000E486E2B
:101C5000000E496E000E4A6E54C055F056EF0EF05D
:101C600056A035EF0EF037EF0EF03DEF0EF0D890A6
:101C700056300109566E3FEF0EF0D890563247A00D
:101C800044EF0EF046EF0EF047EF0EF0568E4A345A
:101C90004A32493248324732552A5450555CD8A00E
:101CA00054EF0EF056EF0EF030EF0EF053BC5BEF3A
:101CB0000EF05DEF0EF09DEF0EF05550D8A463EFDF
:101CC0000EF065EF0EF06FEF0EF0000E476E000E97
:101CD000486E000E496E000E4A6EBEEF0FF04B507C
:101CE00047264C5048224D5049224E504A224AA085
:101CF0007CEF0EF07EEF0EF02AEF0FF056A083EF90
:101D00000EF085EF0EF08BEF0EF0D89056300109F3
:101D1000566E8DEF0EF0D890563247A092EF0EF02F
:101D200094EF0EF095EF0EF0568E4A344A32493257
:101D300048324732552A2AEF0FF04B50475C4C503F
:101D400048584D5049584A50800A4F6E4E50800AAC
:101D50004F58D8B0AEEF0EF0B0EF0EF0DBEF0EF054
:101D600047504B5C4F6E48504C58506E49504D5840
:101D7000516E4A504E58526EFF0E4F24476EFF0E62
:101D80005020486EFF0E5120496EFF0E52204A6EC1
:101D9000800E531A566C5650D8A4D1EF0EF0D3EFE4
:101DA0000EF0E3EF0EF0010E4726000E4822492206
:101DB0004A22E3EF0EF04B50475E4C50485A4D50CC
:101DC000495A4E504A5A4750481049104A10D8A410
:101DD000ECEF0EF0EEEF0EF023EF0FF05650D8A41C
:101DE000F4EF0EF0F6EF0EF023EF0FF0000E476E5B
:101DF000000E486E000E496E000E4A6EBEEF0FF0E8
:101E0000D8904736483649364A3656AE0AEF0FF074
:101E10000CEF0FF00DEF0FF0478056A012EF0FF010
:101E200014EF0FF018EF0FF0D88056361AEF0FF0BE
:101E3000D89056365550D8B420EF0FF022EF0FF05F
:101E400023EF0FF0550649AE28EF0FF02AEF0FF001
:101E500000EF0FF0000E546E56AE31EF0FF033EF7F
:101E60000FF04BEF0FF056C04FF07F0E4F16D8B467
:101E70003CEF0FF03EEF0FF042EF0FF0010E546E0B
:101E80004BEF0FF047A047EF0FF049EF0FF04BEF8C
:101E90000FF03EEF0FF05450D8B451EF0FF053EF66
:101EA0000FF07EEF0FF0010E4726000E4822492268
:101EB0004A224AA05EEF0FF060EF0FF07EEF0FF0C6
:101EC00047C04FF048C050F049C051F04AC052F0EE
:101ED00052345232513250324F324FC047F050C01C
:101EE00048F051C049F052C04AF05528D8B47BEFB1
:101EF0000FF07DEF0FF07EEF0FF0552A5528D8B484
:101F000084EF0FF086EF0FF08EEF0FF05550D8A44E
:101F10008CEF0FF08EEF0FF0A0EF0FF0000E476E7A
:101F2000000E486E000E496E000E4A6E5550D8A441
:101F30009CEF0FF09EEF0FF0A0EF0FF0000E536E2E
:101F400055A0A5EF0FF0A7EF0FF0AAEF0FF0498E05
:101F5000ABEF0FF0499ED89055304A6E53AEB3EFB9
:101F60000FF0B5EF0FF0B6EF0FF04A8E47C047F015
:101F700048C048F049C049F04AC04AF01200185021
:101F8000800B216E18501824276E17AECAEF0FF081
:101F9000CCEF0FF0CDEF0FF027802750D8B4D3EF60
:101FA0000FF0D5EF0FF0E8EF0FF02728D8A4DBEF04
:101FB0000FF0DDEF0FF0E5EF0FF0000E156E000EE5
:101FC000166E000E176E000E186E178EF0EF0FF0E3
:101FD000000E156E000E166E000E176E000E186EB7
:101FE0001C50800B211A1C501C24266E1BAEFBEFCC
:101FF0000FF0FDEF0FF0FEEF0FF026802650D8B463
:1020000004EF10F006EF10F019EF10F02628D8A416
:102010000CEF10F00EEF10F016EF10F0000E196E2E
:10202000000E1A6E000E1B6E000E1C6E1B8E21EF32
:1020300010F0000E196E000E1A6E000E1B6E000ED0
:102040001C6E2650D8B427EF10F029EF10F031EFB6
:1020500010F02750D8A42FEF10F031EF10F03BEF25
:1020600010F0000E156E000E166E000E176E000EAC
:10207000186ED3EF11F01B501502F3CF2CF0F4CFF4
:102080002DF02C50226E236A246A256A2D50286E6A
:10209000296A2A6A2B6A1A501602F3CF2CF0F4CF61
:1020A0002DF02C502226000E2322242225222D50F2
:1020B0002826000E29222A222B2219501702F3CF9C
:1020C0002CF0F4CF2DF02C502226000E23222422B7
:1020D00025222D502826000E29222A222B2224C018
:1020E00025F023C024F022C023F0226A19501602E2
:1020F000F3CF2CF0F4CF2DF02C5022262D5023229C
:10210000000E2422000E25221A501502F3CF2CF0C7
:10211000F4CF2DF02C5022262D502322000E242205
:10212000000E252224C025F023C024F022C023F075
:10213000226A19501502F3CF2CF0F4CF2DF02C5059
:1021400022262D502322000E2422000E25221B5071
:102150001602F3CF2CF0F4CF2DF02C5028262D5062
:102160002922000E2A22000E2B221A501702F3CF2A
:102170002CF0F4CF2DF02C5028262D502922000EC3
:102180002A22000E2B221B501702F3CF2CF0F4CF83
:102190002DF02C501D6E2D501E6E1F6A206A1FC020
:1021A00020F01EC01FF01DC01EF01D6A1D50282605
:1021B0001E5029221F502A2220502B2222C01DF0FF
:1021C00023C01EF024C01FF025C020F0190EEEEF32
:1021D00010F0D89020321F321E321D32E82EE9EF67
:1021E00010F01D5028261E5029221F502A22205050
:1021F0002B2224C025F023C024F022C023F0226A21
:10220000265027C01DF01E6A1D26000E1E22820EBB
:102210001D242C6EFF0E1E202D6E24EF11F0D89081
:10222000283629362A362B3625AE19EF11F01BEF4A
:1022300011F01CEF11F02880D89022362336243676
:1022400025362C06D8A02D062AAE29EF11F02BEF4B
:1022500011F00FEF11F0000E266E25AE32EF11F0E7
:1022600034EF11F058EF11F0FF0E22141D6EFF0E27
:1022700023141E6EFF0E24141F6E7F0E2514206E75
:102280001D501E101F102010D8B449EF11F04BEF55
:1022900011F04FEF11F0010E266E58EF11F028A04B
:1022A00054EF11F056EF11F058EF11F04BEF11F021
:1022B0002650D8B45EEF11F060EF11F084EF11F00A
:1022C000010E2826000E29222A222B222BA06BEF9A
:1022D00011F06DEF11F084EF11F028C01DF029C04E
:1022E0001EF02AC01FF02BC020F0203420321F32F5
:1022F0001E321D321DC028F01EC029F01FC02AF05A
:1023000020C02BF02C4A2D2A2DBE8FEF11F02D501E
:1023100008E12C28D8A08FEF11F091EF11F09BEF7E
:1023200011F0000E286E000E296E800E2A6E7F0EB0
:102330002B6EC9EF11F02DBEA8EF11F02D5006E164
:102340002C04D8B0A6EF11F0A8EF11F0B4EF11F003
:10235000000E286E000E296E000E2A6E000E2B6EE7
:10236000000E216EC9EF11F02CC027F0FF0E2816C9
:10237000FF0E29167F0E2A16000E2B1627A0C3EF7C
:1023800011F0C5EF11F0C6EF11F02A8ED89027306A
:102390002B6E21502B1228C015F029C016F02AC030
:1023A00017F02BC018F01200720ED36E000E966E4E
:1023B000A8EC23F02EEC23F0000E0B6E010E0C6E39
:1023C000080E0D6E010E48EC22F0D3EC23F04AEC1F
:1023D0001CF0000162C0E1F063C0E2F0E36BE46B6B
:1023E000E1C007F0E2C008F0E3C009F0E4C00AF081
:1023F000000EA2EC19F007C0F1F008C0F2F009C01D
:10240000F3F00AC0F4F08AEC1FF001C007F002C03C
:1024100008F0096A0A6A000EA2EC19F007C0EDF094
:1024200008C0EEF009C0EFF00AC0F0F07FEC15F044
:10243000000E026E0A0E016E75EC21F0000E2E6E7B
:10244000000E2F6E700E306E410E316EF1C032F004
:10245000F2C033F0F3C034F0F4C035F0C8EC1BF038
:10246000D8B035EF12F037EF12F09BEF12F0000EFC
:102470002E6E000E2F6E000E306E000E316EEDC00F
:1024800032F0EEC033F0EFC034F0F0C035F0C8ECFD
:102490001BF0D8B04EEF12F050EF12F09BEF12F09D
:1024A000EDC02EF0EEC02FF0EFC030F0F0C031F0F4
:1024B000000E326E000E336EC80E346E430E356E53
:1024C000C8EC1BF0D8B067EF12F069EF12F09BEF89
:1024D00012F08D908D928D947A0E0001CE6F010EC8
:1024E000CF6F0F0ED06F080ED16FF1C0D2F0F2C0D7
:1024F000D3F0F3C0D4F0F4C0D5F0D7EC20F0000E48
:102500000B6E7A0E0C6E010E0D6E010E48EC22F071
:10251000E20E096E010E0A6E000E9AEC21F0C00E5A
:102520004FEC21F0000E29EC21F00B0E026EB80EDC
:10253000016E75EC21F0F1C02EF0F2C02FF0F3C067
:1025400030F0F4C031F0000E326E000E336E400EEB
:10255000346E410E356EC8EC1BF0D8A0B2EF12F00D
:10256000B4EF12F031EF13F0000E2E6E000E2F6E4E
:10257000700E306E410E316EF1C032F0F2C033F0A9
:10258000F3C034F0F4C035F0C8EC1BF0D8A0CBEFAA
:1025900012F0CDEF12F031EF13F0000E2E6E000EA0
:1025A0002F6EC80E306E430E316EEDC032F0EEC0AD
:1025B00033F0EFC034F0F0C035F0C8EC1BF0D8B009
:1025C000E4EF12F0E6EF12F031EF13F0EDC02EF071
:1025D000EEC02FF0EFC030F0F0C031F0000E326EE0
:1025E000000E336E2F0E346E440E356EC8EC1BF0A9
:1025F000D8B0FDEF12F0FFEF12F031EF13F08D8045
:102600008D828D947A0E0001CE6F010ECF6F0F0E6A
:10261000D06F080ED16FF1C0D2F0F2C0D3F0F3C08A
:10262000D4F0F4C0D5F0D7EC20F0000E0B6E7A0E8B
:102630000C6E010E0D6E010E48EC22F0EA0E096ED2
:10264000010E0A6E000E9AEC21F0C00E4FEC21F044
:10265000000E29EC21F00B0E026EB80E016E75EC27
:1026600021F0F1C02EF0F2C02FF0F3C030F0F4C032
:1026700031F0000E326E000E336E400E346E410E9D
:10268000356EC8EC1BF0D8B048EF13F04AEF13F0EA
:10269000E5EF11F0000E2E6E000E2F6E2F0E306E35
:1026A000440E316EEDC032F0EEC033F0EFC034F0C6
:1026B000F0C035F0C8EC1BF0D8B061EF13F063EF59
:1026C00013F0E5EF11F0EDC02EF0EEC02FF0EFC0EB
:1026D00030F0F0C031F0000E326E800E336EBB0E63
:1026E000346E440E356EC8EC1BF0D8B07AEF13F0A0
:1026F0007CEF13F0E5EF11F08D808D828D847A0EE2
:102700000001CE6F010ECF6F0F0ED06F080ED16F8C
:10271000F1C0D2F0F2C0D3F0F3C0D4F0F4C0D5F0E1
:10272000D7EC20F0000E0B6E7A0E0C6E010E0D6EC3
:10273000010E48EC22F0EA0E096E010E0A6E000E40
:102740009AEC21F0C00E4FEC21F0000E29EC21F0A4
:102750000B0E026EB80E016E75EC21F0E5EF11F074
:1027600000EF00F03150800B3E6E31503124456E49
:1027700030AEBDEF13F0BFEF13F0C0EF13F04580A4
:102780004550D8B4C6EF13F0C8EF13F0DDEF13F0E7
:102790004528D8A4CEEF13F0D0EF13F0D8EF13F004
:1027A000000E2E6E000E2F6E000E306E000E316E7B
:1027B000308E000E316EE5EF13F0000E2E6E000E1F
:1027C0002F6E000E306E000E316E3550800B3E1AAB
:1027D00035503524466E34AEF0EF13F0F2EF13F0BF
:1027E000F3EF13F046804650D8B4F9EF13F0FBEF47
:1027F00013F010EF14F04628D8A401EF14F003EF03
:1028000014F00BEF14F0000E326E000E336E000E5B
:10281000346E000E356E348E000E356E18EF14F0E7
:10282000000E326E000E336E000E346E000E356EEA
:102830003250331034103510D8A421EF14F023EFA8
:1028400014F03BEF14F0000E2E6E000E2F6E000EF3
:10285000306E000E316E800E30127F0E31123E50FF
:1028600031122EC02EF02FC02FF030C030F031C00A
:1028700031F07EEF15F04550D8A441EF14F043EF4E
:1028800014F04DEF14F0000E2E6E000E2F6E000EA1
:10289000306E000E316E7EEF15F0465045C036F0BA
:1028A000376A365E000E375A7F0E36243F6E000EB2
:1028B0003720406E2EC03AF02FC03BF030C03CF0C5
:1028C00031C03DF0000E2E6E000E2F6E000E306EE9
:1028D000000E316E000E416E000E426E000E436E11
:1028E000000E446E000E466EAEEF14F04650D8B4A3
:1028F0007CEF14F07EEF14F095EF14F0D8903A3698
:102900003B363C363D36D8902E362F363036313673
:1029100044AE8DEF14F08FEF14F090EF14F02E8092
:10292000D890413642364336443632503A5C3350C2
:102930003B5834503C5835503D58D8A0A2EF14F0C5
:10294000A4EF14F0ADEF14F0448C32503A5E3350E3
:102950003B5A34503C5A35503D5A462A190E46646B
:10296000B4EF14F0B6EF14F076EF14F03A503B10D9
:102970003C103D10D8B4BFEF14F0C1EF14F0D9EF04
:1029800014F04180D9EF14F0D8902E362F3630361F
:10299000313644AECEEF14F0D0EF14F0D1EF14F096
:1029A0002E80D89041364236433644363F06D8A072
:1029B000400630AEDEEF14F0E0EF14F0C4EF14F098
:1029C000000E466E44AEE7EF14F0E9EF14F00DEFA1
:1029D00015F0FF0E4114366EFF0E4214376EFF0ED7
:1029E0004314386E7F0E4414396E36503710381049
:1029F0003910D8B4FEEF14F000EF15F004EF15F025
:102A0000010E466E0DEF15F02EA009EF15F00BEF3D
:102A100015F00DEF15F000EF15F04650D8B413EF98
:102A200015F015EF15F039EF15F0010E2E26000EFA
:102A30002F223022312231A020EF15F022EF15F0A5
:102A400039EF15F02EC036F02FC037F030C038F017
:102A500031C039F03934393238323732363236C053
:102A60002EF037C02FF038C030F039C031F03F4A77
:102A7000402A40BE44EF15F0405008E13F28D8A05E
:102A800044EF15F046EF15F051EF15F0000E406ED3
:102A90003F68000E2E6E000E2F6E000E306E000E80
:102AA000316E40BE5EEF15F0405006E13F04D8B0F5
:102AB0005CEF15F05EEF15F06CEF15F0000E406E58
:102AC000000E3F6E000E2E6E000E2F6E000E306E4A
:102AD000000E316E000E3E6E3FC045F045A073EF14
:102AE00015F075EF15F078EF15F0308E79EF15F0E1
:102AF000309ED8904530316E2FEF14F01200060E44
:102B00000101D16F050ED26F21EEDBF011EE8EF0D8
:102B1000060EDBCFE3FFE806FCE2720ED36EA8ECF4
:102B200023F02EEC23F0D3EC23F0000E026E0A0EFD
:102B3000016E75EC21F0000EE1EC21F0D1C1DEF068
:102B4000010E0001DF6F000EE06FDE2BABEF15F022
:102B5000D890DF37E037DE2FA8EF15F001012451C0
:102B60000001DF17010125510001E017DF51E011DD
:102B7000D8B4BDEF15F0BFEF15F03CEF16F0D2C1A1
:102B8000DEF0010EDF6F000EE06FDE2BCBEF15F0F5
:102B9000D890DF37E037DE2FC8EF15F00101245160
:102BA0000001DF17010125510001E017DF51E0119D
:102BB000D8B4DDEF15F0DFEF15F0EAEF15F00E0EEB
:102BC0000B6E540E0C6E080E0D6E010E48EC22F0CA
:102BD000F3EF15F00E0E0B6E510E0C6E080E0D6E0F
:102BE000010E48EC22F01F0E01012415246F256B05
:102BF000B30E0001CE6F010ECF6F260ED06F080E00
:102C0000D16F28C1D2F029C1D3F0D7EC20F0BD0E8E
:102C10000001CE6F010ECF6F2E0ED06F080ED16F58
:102C200026C1D2F027C1D3F0D7EC20F0C70E0001A7
:102C3000CE6F010ECF6F2E0ED06F080ED16F24C154
:102C4000D2F025C1D3F0D7EC20F0040E0B6EC70EE6
:102C50000C6E010E0D6E000E48EC22F0BD0E096EDA
:102C6000010E0A6E4DEC20F0B30E096E010E0A6ED5
:102C70004DEC20F079EF16F03F0E01012415246F82
:102C8000256BB30E0001CE6F010ECF6F260ED06FF5
:102C9000080ED16F28C1D2F029C1D3F0D7EC20F0B3
:102CA000BD0E0001CE6F010ECF6F2E0ED06F080E3D
:102CB000D16F26C1D2F027C1D3F0D7EC20F0C70ED8
:102CC0000001CE6F010ECF6F2E0ED06F080ED16FA8
:102CD00024C1D2F025C1D3F0D7EC20F0040E0B6E46
:102CE000C70E0C6E010E0D6E000E48EC22F02EEF9A
:102CF00016F0030EAAEC20F0B5EC23F0950E0001BF
:102D0000CE6F010ECF6F2A0ED06F080ED16F20C18B
:102D1000D2F021C1D3F0D7EC20F09F0E0001CE6F8E
:102D2000010ECF6F2A0ED06F080ED16F1EC1D2F0E8
:102D30001FC1D3F0D7EC20F0A90E0001CE6F010E19
:102D4000CF6F260ED06F080ED16F1CC1D2F01DC1FF
:102D5000D3F0D7EC20F0020E0B6E950E0C6E010E28
:102D60000D6E020E48EC22F09F0E096E010E0A6EE7
:102D70004DEC20F0A90E096E010E0A6E4DEC20F00C
:102D8000FAEF16F0420E096E080E0A6E4DEC20F0B6
:102D90002BEF17F03E0E096E080E0A6E4DEC20F078
:102DA0002BEF17F0360E096E080E0A6E4DEC20F070
:102DB0002BEF17F0320E096E080E0A6E4DEC20F064
:102DC0002BEF17F04A0E096E080E0A6E4DEC20F03C
:102DD0002BEF17F03A0E096E080E0A6E4DEC20F03C
:102DE0002BEF17F0460E096E080E0A6E4DEC20F020
:102DF0002BEF17F08E0E01012225D96E010E232133
:102E0000DA6EDF500001DE6FDF6BDF51000AD8B4ED
:102E10000CEF17F09BEF15F0DE51460AD8B4EAEF3D
:102E200016F00B0AD8B4CAEF16F01E0AD8B4C2EFD7
:102E300016F0070AD8B4D2EF16F0030AD8B4DAEFC6
:102E400016F0240AD8B4F2EF16F0070AD8B4E2EF6D
:102E500016F09BEF15F012000001FABF32EF17F0E9
:102E600034EF17F035EF17F0FB93FABF42EF17F08E
:102E7000FA5106E1F905D8B040EF17F042EF17F02C
:102E800048EF17F0000E346E010E336E4CEF17F062
:102E9000F9C033F0FAC034F0F7C035F0F8C036F0BE
:102EA000FBA955EF17F057EF17F05BEF17F0FE0E89
:102EB0003526FF0E36221EC037F01FC038F020C066
:102EC00039F021C03AF022C03BF023C03CF024C0CE
:102ED0003DF025C03EF0000E406E4F0E3F6E000EDE
:102EE0000101796F27EF18F03F06D8A040060F0EBA
:102EF0003714416E426A42BE87EF17F0425009E133
:102F00000A0E415CD8A087EF17F089EF17F091EF18
:102F100017F0570E4124416E000E4220426E97EF8B
:102F200017F0300E4124416E000E4220426EBF0E5B
:102F3000276EFF0E286E2650296E2A6A27502926F2
:102F400028502A222A500AE11A0E295CD8A0ABEF99
:102F500017F0AEEF17F0010EAFEF17F0000E2F6E67
:102F6000306A2F503010D8B4B8EF17F0BAEF17F01E
:102F7000EAEF17F09F0E276EFF0E286E200E41100D
:102F8000296E000E42102A6E2750292628502A2228
:102F90002A500AE11A0E295CD8A0D1EF17F0D4EF1D
:102FA00017F0010ED5EF17F0000E316E326A315076
:102FB0003210D8B4DEEF17F0E0EF17F0EAEF17F0B9
:102FC00041C007F042C008F01EEC20F007C041F0FD
:102FD00008C042F02A0E3F24D96E010E4020DA6E5E
:102FE00041C0DFFF3306D8A034063506D8A0360628
:102FF00037C027F038C028F039C029F03AC02AF08D
:103000003BC02BF03CC02CF03DC02DF03EC02EF05C
:10301000050E14EF18F0D8902E322D322C322B32B0
:103020002A32293228322732E82E0BEF18F027C037
:1030300037F028C038F029C039F02AC03AF02BC048
:103040003BF02CC03CF02DC03DF02EC03EF040BE09
:1030500033EF18F0405009E1020E3F5CD8A033EF87
:1030600018F035EF18F066EF18F0375038103910B7
:103070003A103B103C103D103E10D8A442EF18F01F
:1030800044EF18F074EF17F034BE51EF18F03450DD
:1030900006E13304D8B04FEF18F051EF18F074EF99
:1030A00017F036BE5CEF18F0365008E13504D8A0B2
:1030B0005CEF18F05EEF18F066EF18F00001FBB35C
:1030C00064EF18F066EF18F074EF17F00001FBA939
:1030D0006CEF18F06EEF18F084EF18F03F06D8A0F0
:1030E00040062A0E3F24D96E010E4020DA6E26C01B
:1030F000DFFF3F06D8A040062A0E3F24D96E010EFE
:103100004020DA6E300EDF6E1CC011F01DC012F0D0
:103110002A0E3F24136E010E4020146E35C015F0A8
:1031200036C016F018EC1EF011C01CF012C01DF0D5
:103130001200E5C057F0E6C058F0E7C059F0E8C00B
:103140005AF047C057F048C058F049C059F04AC03B
:103150005AF0810E4B6EFF0E4C6E57C04DF058C0AA
:103160004EF059C04FF05AC050F0180EBDEF18F095
:10317000D89050324F324E324D32E82EB8EF18F020
:103180004D504B24556E000E4C20566E56BED2EF5D
:1031900018F0565009E1170E555CD8A0D2EF18F080
:1031A000D4EF18F0DEEF18F047C047F048C048F001
:1031B00049C049F04AC04AF0A1EF19F056BEE3EF0A
:1031C00018F0E5EF18F055EF19F055C04BF0FF0E71
:1031D0004C6EFF0E4D6E7F0E4E6E000E4F6E4B66A8
:1031E000F4EF18F0FCEF18F04F344F324E324D32FE
:1031F0004C324B2EEFEF18F04CC051F04DC052F056
:103200004EC053F04FC054F0515057144B6E5250B3
:1032100058144C6E535059144D6E54505A144E6EEF
:103220004B504C104D104E10D8A419EF19F01BEF55
:1032300019F01DEF19F0D4EF18F057C04BF058C03B
:103240004CF059C04DF05AC04EF0200E2DEF19F041
:10325000D8904E324D324C324B32E82E28EF19F0D6
:103260004B504C104D104E10D8B439EF19F03BEFC5
:1032700019F043EF19F0515057265250582253502D
:10328000592254505A22511C4B6E521C4C6E531CE6
:103290004D6E541C4E6E4B5057164C5058164D5098
:1032A00059164E505A1699EF19F057C04BF058C0A6
:1032B0004CF059C04DF05AC04EF0200E65EF19F099
:1032C000D8904E324D324C324B32E82E60EF19F02E
:1032D0004B504C104D104E10D8A471EF19F073EFF5
:1032E00019F07DEF19F0000E576E000E586E000EAB
:1032F000596E000E5A6E99EF19F0D89057344B6EF4
:1033000058344C6E59344D6E5A344E6E4B504C10EE
:103310004D104E10D8B48FEF19F091EF19F099EFCE
:1033200019F0000E576E000E586E800E596EBF0ECB
:103330005A6E57C047F058C048F059C049F05AC0BB
:103340004AF012000F6E0F50D8B4A9EF19F0ABEF8E
:1033500019F0CDEF19F00ABEB2EF19F0B0EF19F085
:10336000CDEF19F007C00BF008C00CF009C00DF04C
:103370000AC00EF00B1E0C1E0D1E0E1E0B2A000E98
:103380000C220D220E220BC011F00CC012F00DC049
:1033900013F00EC014F0D5EF19F007C011F008C0FB
:1033A00012F009C013F00AC014F0075008100910F9
:1033B0000A10D8A4DEEF19F0E0EF19F0EAEF19F0E7
:1033C000000E076E000E086E000E096E000E0A6EEB
:1033D0007BEF1AF0960E106EF4EF19F0102AD890C9
:1033E0001432133212321132000E11140B6E000E11
:1033F00012140C6E000E13140D6EFE0E14140E6ECD
:103400000B500C100D100E10D8A409EF1AF00BEF92
:103410001AF0EEEF19F019EF1AF0102A010E11262A
:10342000000E122213221422D890143213321232B8
:103430001132000E11140B6E000E12140C6E000EE1
:1034400013140D6EFF0E14140E6E0B500C100D1095
:103450000E10D8A42EEF1AF030EF1AF00DEF1AF07C
:1034600038EF1AF01006D89011361236133614368B
:1034700013BE3DEF1AF03FEF1AF047EF1AF0020EBD
:10348000106045EF1AF047EF1AF032EF1AF010B063
:103490004CEF1AF04EEF1AF04FEF1AF0139ED8903F
:1034A000103210C00BF00C6A0D6A0E6A0BC00EF0E1
:1034B0000D6A0C6A0B6A0B5011120C5012120D504F
:1034C00013120E5014120F50D8B469EF1AF06BEFAC
:1034D0001AF073EF1AF00ABE72EF1AF070EF1AF0DA
:1034E00073EF1AF0148E11C007F012C008F013C069
:1034F00009F014C00AF01200000E166E000E156ED0
:10350000000E0F6E000E0E6E88EF1AF0084A092AA0
:10351000010E146E08C0F6FF09C0F7FF0800F55051
:10352000200AD8B496EF1AF098EF1AF0B5EF1AF017
:10353000F70E0A6EFF0E0B6E08C0F6FF09C0F7FF0C
:103540000800F5500C6E0D6A0A500C260B500D2227
:103550000D5009E1050E0C5CD8A0B1EF1AF0B3EFE5
:103560001AF0B5EF1AF0000E146E14C010F0116AC4
:1035700010501110D8A4BFEF1AF0C1EF1AF086EF67
:103580001AF0CBEF1AF0000E0F6E010E0E6E084A05
:10359000092A00EF1BF008C0F6FF09C0F7FF08007A
:1035A000F5500A6E0B6A0B50000AD8B4DAEF1AF025
:1035B00000EF1BF00A502B0AD8B4C7EF1AF0060A26
:1035C000D8B4C3EF1AF000EF1BF015C001F016C01D
:1035D00002F0000E046E0A0E036E74EC23F008C0B5
:1035E000F6FF09C0F7FF0800F550015E000E025A11
:1035F000300E0124156E000E0220166EC7EF1AF071
:10360000D00E0A6EFF0E0B6E08C0F6FF09C0F7FF62
:103610000800F5500C6E0D6A0A500C260B500D2256
:103620000D500AE10A0E0C5CD8A019EF1BF01CEF3C
:103630001BF0010E1DEF1BF0000E126E136A1250EC
:103640001310D8A426EF1BF028EF1BF0E5EF1AF0BB
:103650000E500F10D8A42FEF1BF031EF1BF03FEFEF
:103660001BF015C00AF016C00BF00A1E0B1E0A4A0A
:103670000B2A0AC008F00BC009F043EF1BF015C07D
:1036800008F016C009F0120059345A340001616F75
:103690006151D8A44EEF1BF050EF1BF05AEF1BF016
:1036A000000E576E000E586E000E596E000E5A6EC8
:1036B000C7EF1BF057C05BF058C05CF059C05DF01D
:1036C0005AC05EF0200E6AEF1BF0D8905E325D3279
:1036D0005C325B32E82E65EF1BF05B50606F598EF9
:1036E000FF0E5716FF0E5816FF0E5916000E5A16EB
:1036F000960E615F61BF81EF1BF07FEF1BF097EFCC
:103700001BF06151800A970FD8B089EF1BF08BEF47
:103710001BF08DEF1BF050EF1BF0D8905A3259324E
:1037200058325732613F8DEF1BF0AFEF1BF01F0E89
:1037300061659DEF1BF09FEF1BF0A7EF1BF050EFB3
:103740001BF0D8905736583659365A3661076151B2
:10375000D8A4ADEF1BF0AFEF1BF0A1EF1BF0605151
:10376000D8B4B5EF1BF0B7EF1BF0BFEF1BF05A1E3C
:10377000591E581E576C000E582259225A2257C003
:1037800057F058C058F059C059F05AC05AF01200BA
:10379000000E2E14366E000E2F14376E800E30146D
:1037A000386E7F0E3114396E36503710381039109C
:1037B000D8A4DDEF1BF0DFEF1BF0E7EF1BF0000EEE
:1037C0002E6E000E2F6E000E306E000E316E000E4B
:1037D0003214366E000E3314376E800E3414386E89
:1037E0007F0E3514396E3650371038103910D8A482
:1037F000FCEF1BF0FEEF1BF006EF1CF0000E326E2C
:10380000000E336E000E346E000E356E31AE0BEFCF
:103810001CF00DEF1CF016EF1CF02E6C2F1ED8B014
:103820002F2A301ED8B0302A800E315635AE1BEF0D
:103830001CF01DEF1CF026EF1CF0326C331ED8B0CC
:10384000332A341ED8B0342A800E3556000E2E1A74
:10385000000E2F1A000E301A800E311A000E321A86
:10386000000E331A000E341A800E351A32502E5CB8
:1038700033502F583450305835503158D8B043EF6A
:103880001CF045EF1CF048EF1CF0D89049EF1CF0FD
:10389000D8801200000E956E9268700ED312D3502D
:1038A000FC0B0209D36EC150F00B0E09C16ECF0E96
:1038B000C116C30EC216C050C70B1009C06EC0504F
:1038C000F80B0109C06EC08EC280C282C2B26BEF1B
:1038D0001CF06DEF1CF066EF1CF0C4CF66F0000129
:1038E000676B6651646FC350666F64C067F0000E0B
:1038F0004B6E000E4C6E460E4D6EC20E4E6E000E9E
:10390000326EC00E336E7F0E346E440E356E000E76
:10391000196E000E1A6EFA0E1B6E430E1C6E66C0F8
:1039200007F067C008F0096A0A6A000EA2EC19F0F5
:1039300007C015F008C016F009C017F00AC018F04B
:10394000BFEC0FF015C02EF016C02FF017C030F0EE
:1039500018C031F0B2EC13F02EC047F02FC048F081
:1039600030C049F031C04AF05FEC0DF047C057F06D
:1039700048C058F049C059F04AC05AF044EC1BF016
:1039800057C066F058C067F066C062F067C063F069
:103990001200E9C00BF0EAC00CF0EBC00DF0ECC077
:1039A0000EF001C00BF002C00CF003C00DF004C01B
:1039B0000EF00BC005F00CC006F00DC007F00EC0F5
:1039C00008F0180EE9EF1CF0D890083207320632E2
:1039D0000532E82EE4EF1CF00550096E0A6A095022
:1039E0000A10D8A4F6EF1CF0F8EF1CF018EF1DF049
:1039F000D8900B34056E0C34066E0D34076E0E3401
:103A0000086E0550061007100810D8A40AEF1DF024
:103A10000CEF1DF012EF1DF0000E026E020E016E93
:103A200047EF1DF0000E026E030E016E47EF1DF012
:103A300009280A10D8A41FEF1DF021EF1DF043EF55
:103A40001DF00BC005F00CC006F00DC007F00EC055
:103A500008F0090ED8900536063607360836E82EE7
:103A60002AEF1DF00550061007100810D8B43BEFE0
:103A70001DF03EEF1DF0010E3FEF1DF0000E016E38
:103A8000026A47EF1DF0000E026E040E016E120076
:103A900001C008F002C009F003C00AF004C00BF036
:103AA0000506D8A00606052806E10628D8A45BEF7F
:103AB0001DF05DEF1DF06AEF1DF0000E026E000EAE
:103AC000016EB2EF1DF0084A092A0A4A0B2A0506C0
:103AD000D8A0060608C0D9FF09C0DAFFDF50D8B465
:103AE00074EF1DF076EF1DF0A1EF1DF00AC0F6FF98
:103AF0000BC0F7FF0800F5500009D8B482EF1DF0A5
:103B000084EF1DF0A1EF1DF005500610D8B48BEF27
:103B10001DF08DEF1DF0A1EF1DF008C0D9FF09C009
:103B2000DAFFDF50076E0AC0F6FF0BC0F7FF080090
:103B3000F5500718D8B49FEF1DF0A1EF1DF063EF0B
:103B40001DF008C0D9FF09C0DAFFDF50076E0AC0B8
:103B5000F6FF0BC0F7FF0800F550075C016E026A24
:103B6000D8A00206120003500410D8B4BAEF1DF01A
:103B7000BCEF1DF0C5EF1DF003500410D8A4C3EF37
:103B80001DF0C5EF1DF0CAEF1DF00150E6EC23F06B
:103B900017EF1EF020EE04F00350D9260450DA226D
:103BA000DE50DE10D8B4D7EF1DF0D9EF1DF0F4EFE2
:103BB0001DF020EE04F00350D9260450DA2210EE56
:103BC00002F00350E1260450E222DE50E65CE650AB
:103BD000800A096EDE50800A0958D8B0F2EF1DF055
:103BE000F4EF1DF017EF1EF020EE02F00350D9267F
:103BF0000450DA22DECF05F0DDCF06F003C0D9FF96
:103C000004C0DAFFDECF07F0DDCF08F0055007244F
:103C1000D96E06500820DA6E01C0DFFF20EE02F0F8
:103C20000350D9260450DA22DE2A000EDD221200CB
:103C30000001FBA11EEF1EF020EF1EF02AEF1EF088
:103C400013C00AF014C00BF011C00CF012C00DF03C
:103C500026EC22F016BE2FEF1EF031EF1EF037EFEC
:103C60001EF015C01AF016C01BF03BEF1EF0000E40
:103C70001B6E000E1A6E000E196E000E186E4DEFC0
:103C80001EF0000E026E200E016E11C003F012C075
:103C900004F0B3EC1DF0184A192A1A50185C195098
:103CA000800A176E1B50800A1758D8A05AEF1EF0D2
:103CB0005CEF1EF041EF1EF00001FBB162EF1EF061
:103CC00064EF1EF06EEF1EF013C00AF014C00BF08C
:103CD00011C00CF012C00DF026EC22F013C001F060
:103CE00014C002F013EC23F01A500124116E1B5083
:103CF0000220126E1200000E066E04BE84EF1EF04B
:103D000082EF1EF08AEF1EF0036C041ED8B0042A66
:103D1000010E066E02BE91EF1EF08FEF1EF097EFC0
:103D20001EF0016C021ED8B0022A010E061A000E07
:103D3000086E000E076E03500410D8B4A2EF1EF0F8
:103D4000A4EF1EF0CCEF1EF0010E056EACEF1EF0DE
:103D5000D89003360436052A04AEB1EF1EF0B3EF57
:103D60001EF0A8EF1EF0D890073608360350015C0D
:103D700004500258D8A0BFEF1EF0C1EF1EF0C6EFEE
:103D80001EF00350015E0450025A0780D89004329E
:103D90000332052EB3EF1EF00650D8B4D2EF1EF05A
:103DA000D4EF1EF0D8EF1EF0076C081ED8B0082A1A
:103DB00007C001F008C002F01200000E066E02BE3D
:103DC000E6EF1EF0E4EF1EF0ECEF1EF0016C021EB9
:103DD000D8B0022A010E066E04BEF3EF1EF0F1EF1A
:103DE0001EF0F7EF1EF0036C041ED8B0042A035037
:103DF0000410D8B4FEEF1EF000EF1FF024EF1FF008
:103E0000010E056E08EF1FF0D89003360436052A20
:103E100004AE0DEF1FF00FEF1FF004EF1FF0035083
:103E2000015C04500258D8A018EF1FF01AEF1FF0E1
:103E30001EEF1FF00350015E0450025AD890043266
:103E40000332052E0FEF1FF00650D8B42AEF1FF0F3
:103E50002CEF1FF030EF1FF0016C021ED8B0022AC9
:103E600001C001F002C002F01200000E0114096E40
:103E7000000E02140A6E800E03140B6E7F0E0414E3
:103E80000C6E09500A100B100C10D8A44AEF1FF04A
:103E90004CEF1FF054EF1FF0000E016E000E026E8B
:103EA000000E036E000E046E000E0514096E000E67
:103EB00006140A6E800E07140B6E7F0E08140C6E2B
:103EC00009500A100B100C10D8A469EF1FF06BEF0B
:103ED0001FF073EF1FF0000E056E000E066E000E51
:103EE000076E000E086E055001180FE1065002180B
:103EF0000CE10750031809E108500418D8B483EF07
:103F00001FF085EF1FF088EF1FF0D89089EF1FF0AA
:103F1000D8801200000E956E9268700ED312D350A6
:103F2000FC0B0209D36EC150F00B0D09C16ECF0E10
:103F3000C116C250C30B0409C26EC050C70B100992
:103F4000C06EC050F80B0109C06EC08EC280C28224
:103F5000C2B2ADEF1FF0AFEF1FF0A8EF1FF0C4CF5C
:103F600005F0066A0550036EC350056E03C006F0E7
:103F700005C001F006C002F01200C8C0CCF0C9C0F4
:103F8000CDF0000E0001F66F000EF56FDBEF1FF0B5
:103F9000C6C0A6F0C7C0A7F0CC0EA86F000EA96FD0
:103FA000CAC0AAF0CBC0ABF058EC0AF00001A65191
:103FB000F527A751F623CCC0F6FFCDC0F7FF0800C8
:103FC000F5500009D8A4E7EF1FF0E9EF1FF0C8EFA4
:103FD0001FF0F5C0C6F0F6C0C7F01200BF0E096EA4
:103FE000FF0E0A6E07C00BF008C00CF009500B263C
:103FF0000A500C220C500AE11A0E0B5CD8A003EFF9
:1040000020F006EF20F0010E07EF20F0000E0D6EFD
:104010000E6A0D500E10D8B410EF20F012EF20F001
:1040200019EF20F0200E0710076E0850086E1DEFE4
:1040300020F007C007F008C008F012009F0E096EBC
:10404000FF0E0A6E07C00BF008C00CF009500B26DB
:104050000A500C220C500AE11A0E0B5CD8A033EF68
:1040600020F036EF20F0010E37EF20F0000E0D6E3D
:104070000E6A0D500E10D8B440EF20F042EF20F041
:1040800048EF20F05F0E0714076E086A4CEF20F02F
:1040900007C007F008C008F0120063EF20F009C065
:1040A000F6FF0AC0F7FFF86A070EF76403D00800AE
:1040B000F55005D0F6CFE1FFF7CFE2FFE75029EC4E
:1040C00021F0094A0A2A09C0F6FF0AC0F7FFF86A78
:1040D000070EF76403D00800F55005D0F6CFE1FFD6
:1040E000F7CFE2FFE7500009D8A479EF20F07BEF8B
:1040F00020F04FEF20F0120003C007F004C008F0DA
:1041000001C009F002C00AF00750056E0850066EA3
:10411000074A082A05C0F6FF06C0F7FFF86A09C07B
:10412000D9FF0AC0DAFF094A0A2A070EF76403D04A
:104130000800F55005D0F6CFE1FFF7CFE2FFE750DA
:10414000DF6EDF50D8A4A7EF20F0A9EF20F084EFB6
:1041500020F01200046ED00E46EC23F0045087ECE1
:1041600023F0D10E5DEC23F0000E86EC22F0036EFE
:1041700003500101226F236B000E86EC22F0036EC8
:1041800003500101206F216B000E86EC22F0036EBC
:10419000035001011E6F1F6B010E86EC22F0036EAF
:1041A000035001011C6F1D6BB5EC23F01200D20E01
:1041B0000001D66F000ED76FCEC0D8F0CFC0D9F0B7
:1041C000000EDB6F000EDA6F000EDD6F000EDC6F8D
:1041D000D80EC66F000EC76FD0C0C8F0D1C0C9F0EE
:1041E000D60ECA6F000ECB6FBDEC1FF00001DA5186
:1041F000CE25D96EDB51CF21DA6E000EDF6E1200B4
:10420000010E076E200E01180210D8B40AEF21F03B
:104210000CEF21F025EF21F0F70E036EFF0E046E78
:1042200001C005F002C006F0035005260450062226
:10423000065009E1050E055CD8A021EF21F023EF1F
:1042400021F025EF21F0000E076E07C001F0026A91
:104250001200086E08C007F0F00E07168C500F0B06
:1042600007108C6E8C808C8200F08C92000E026E97
:10427000010E016E75EC21F008C007F0073AF00E50
:1042800007168C500F0B07108C6E8C8200F08C92EE
:10429000000E026E030E016E75EC21F01200086E26
:1042A00008C007F0F00E07168C500F0B07108C6E2D
:1042B0008C908C8200F08C92000E026E010E016ECA
:1042C00075EC21F008C007F0073AF00E07168C5085
:1042D0000F0B07108C6E8C8200F08C92000E026E19
:1042E000030E016E75EC21F01200000E046E000E3C
:1042F000036E8EEF21F0000E066E000E056E054A6D
:10430000062A065009E1A50E055CD8A08AEF21F027
:104310008CEF21F07FEF21F0034A042A0150035C67
:1043200002500458D8A097EF21F099EF21F07BEFCD
:1043300021F012000B6E080E0B60A1EF21F0A3EF2D
:1043400021F0BDEF21F00B50080DF350400F4FEC62
:1043500021F0000E0C6E0C500924D96E000E0A20BC
:10436000DA6EDF5029EC21F00C2A070E0C64BBEF4B
:1043700021F0BDEF21F0ABEF21F01200000E5B1A2F
:10438000000E5C1A000E5D1A800E5E1A57C047F0D0
:1043900058C048F059C049F05AC04AF05BC04BF0D1
:1043A0005CC04CF05DC04DF05EC04EF05FEC0DF0B7
:1043B00047C057F048C058F049C059F04AC05AF0B9
:1043C0001200046ED00E46EC23F0045087EC23F06C
:1043D000D10E5DEC23F0000E86EC22F0036E03504C
:1043E0000101286F296B000E86EC22F0036E03504A
:1043F0000101266F276B010E86EC22F0036E03503D
:104400000101246F256B1200300EF66E470EF76E19
:10441000000EF86E01EED3F010EE1FF00900F5CF9C
:10442000EEFFE550E150FAE101EE00F08E0EEE6A8B
:10443000E806FDE100EEE5F0180EEE6AE806FDE1A3
:104440005F6A000EF86E0001D4EF11F0000E106EDE
:10445000000E0F6E37EF22F00EC001F0026A0CC0A2
:1044600003F00DC004F0B3EC1DF00F4A102A0F50FA
:104470000A24D96E10500B20DA6EDF500E6E0E50EB
:10448000D8A445EF22F047EF22F02CEF22F01200E3
:104490000E6E020E0E604FEF22F051EF22F05AEF37
:1044A00022F00B500F0B80090F6E0F504FEC21F0D4
:1044B00061EF22F00B500F0BC0090F6E0F504FEC45
:1044C00021F00CC009F00DC00AF04DEC20F01200F4
:1044D0009F0E036EFF0E046E200E0110056E000E7F
:1044E0000210066E035005260450062206500AE10B
:1044F0001A0E055CD8A07FEF22F082EF22F0010EA9
:1045000083EF22F0000E016E026A1200016EC58672
:10451000C7A08DEF22F08FEF22F088EF22F0C9CFF5
:1045200002F00150D8A497EF22F099EF22F09DEF0E
:1045300022F0C9EC23F09FEF22F0BFEC23F0DDEC7A
:1045400023F0025012009F0E036EFF0E046E01C096
:1045500005F002C006F0035005260450062206505E
:104560000AE11A0E055CD8A0B8EF22F0BBEF22F0EA
:10457000010EBCEF22F0000E016E026A1200BF0EA7
:10458000036EFF0E046E01C005F002C006F003507A
:1045900005260450062206500AE11A0E055CD8A032
:1045A000D4EF22F0D7EF22F0010ED8EF22F0000E68
:1045B000016E026A12000150021003100410D8B4F8
:1045C000E4EF22F0E6EF22F0EEEF22F0000E011A07
:1045D000000E021A000E031A800E041A01C001F028
:1045E00002C002F003C003F004C004F01200D00EB9
:1045F000036EFF0E046E01C005F002C006F003500A
:1046000005260450062206500AE10A0E055CD8A0D1
:104610000CEF23F00FEF23F0010E10EF23F0000E4C
:10462000016E026A120001C003F002C004F01BEF29
:1046300023F0014A022A01C0D9FF02C0DAFFDF508D
:10464000D8A425EF23F027EF23F019EF23F0035030
:10465000015C016E04500258026E1200000E956E4D
:10466000000E026E0F0E016E75EC21F0020E4FEC83
:1046700021F0280E4FEC21F0010E4FEC21F00C0E32
:104680004FEC21F0060E4FEC21F01200026EC580B7
:10469000C5B04DEF23F04FEF23F048EF23F09E9687
:1046A000C7B655EF23F057EF23F059EF23F05CEF37
:1046B00023F0025087EC23F01200026EC582C5B2CF
:1046C00064EF23F066EF23F05FEF23F09E96C7B60A
:1046D0006CEF23F06EEF23F070EF23F073EF23F015
:1046E000025087EC23F0120001500302F3CF05F0D3
:1046F000F4CF06F001500402F350062602500302E4
:10470000F350062605C001F006C002F01200016E4B
:1047100001C0C9FFDDEC23F0C5AC91EF23F093EFAE
:1047200023F096EF23F0010E97EF23F0020E120014
:1047300000000E1F0E000000534D545774467315B1
:0F4740000E11110E1500000E1F1F0E000A0A00A9
:1047500093809382500EC76E280EC66E000EC56EF3
:10476000130EC86E9D869E961200C584C5B4BBEF1D
:1047700023F0BDEF23F0B6EF23F0C7501200C58A37
:10478000C588C5B8C6EF23F0C8EF23F0C1EF23F00A
:104790001200C59AC588C5B8D0EF23F0D2EF23F038
:1047A000CBEF23F01200010E4FEC21F0000E026E51
:1047B000030E016E75EC21F012009EA6E2EF23F0CD
:0E47C000E4EF23F0DDEF23F09E9612001200CE
:020000040020DA
:08000000FFFFFFFFFFFFFFFF00
:020000040030CA
:0E0000000009181EFF8180FF0FC00FE00F40A7
:00000001FF
