:020000040000FA
:0400000007EF00F016
:0A0008005D8282ED1FF0D7EF21F0BA
:1008000000204275656E6F73204469617320002576
:10081000302E30664300494E46004E414E00696E10
:1008200066006E616E002578200025782D00257801
:100830003A005765640054756500467269004D6F53
:100840006E0053756E0053617400546875006C66D9
:1008500000414D00504D0000000E00018F6F000E52
:100860008E6F6AC0A0F06BC0A1F06CC0A2F06DC02A
:10087000A3F0A3BF40EF04F03EEF04F056EF04F006
:10088000000E8F6F010E8E6FA0C002F0A1C003F0AA
:10089000A2C004F0A3C005F01BEC23F002C0A0F03E
:1008A00003C0A1F004C0A2F005C0A3F0000E000137
:1008B000A76F000EA66FF5C092F0F6C093F08E51B0
:1008C0008F11D8A466EF04F068EF04F06FEF04F026
:1008D000F9A56DEF04F06FEF04F089EF04F08E518D
:1008E0008F11D8A476EF04F078EF04F07EEF04F0D7
:1008F000000E756F2B0E746F82EF04F0000E756F93
:100900002D0E746F74C032F1A64BA72B9207D8A09E
:100910009307A0C002F0A1C003F0A2C004F0A3C0DE
:1009200005F0C1EC1CF002040310D8A49AEF04F007
:100930009CEF04F0F3EF04F0BF0E00016F6FFF0EA9
:10094000706F6E51716F726B6F517127705172239E
:1009500072510AE11A0E715DD8A0B1EF04F0B4EF44
:1009600004F0010EB5EF04F0000E766F776B765150
:100970007711D8B4BEEF04F0C0EF04F0CEEF04F06E
:10098000320EA625026E010EA721036E160E046E0E
:10099000080E056EB9EC20F0DAEF04F0320EA62551
:1009A000026E010EA721036E1E0E046E080E056E68
:1009B000B9EC20F00001FD0E9227FF0E932368C0D2
:1009C00012F069C013F0320E146E010E156E92C053
:1009D00016F093C017F010EC1EF012C068F013C0B0
:1009E00069F057EF0AF0A0C002F0A1C003F0A2C066
:1009F00004F0A3C005F0C1EC1CF002500310D8A411
:100A000004EF05F006EF05F046EF05F0BF0E00011C
:100A10006F6FFF0E706F6E51716F726B6F51712738
:100A20007051722372510AE11A0E715DD8A01BEF4A
:100A300005F01EEF05F0010E1FEF05F0000E786FB8
:100A4000796B78517911D8B428EF05F02AEF05F0C9
:100A500038EF05F0320EA625026E010EA721036EB7
:100A60001A0E046E080E056EB9EC20F0DAEF04F0F1
:100A7000320EA625026E010EA721036E220E046E11
:100A8000080E056EB9EC20F0DAEF04F0000E00015C
:100A9000A86F000EA96F800EAA6F3F0EAB6F000EFD
:100AA000A56F000EA46FA0C002F0A1C003F0A2C009
:100AB00004F0A3C005F0000E066E000E076E000ED7
:100AC000086E000E096E2DEC1FF0D8B06AEF05F02D
:100AD0006CEF05F0EFEF05F08BEF05F0A8C016F016
:100AE000A9C017F0AAC018F0ABC019F0000E1A6E1A
:100AF000000E1B6E200E1C6E410E1D6EBFEC0FF023
:100B000016C0A8F017C0A9F018C0AAF019C0ABF021
:100B10000001A44BA52BA0C02FF0A1C030F0A2C0B3
:100B200031F0A3C032F0000E1A6E000E1B6E200EC4
:100B30001C6E410E1D6EA8C016F0A9C017F0AAC009
:100B400018F0ABC019F0BFEC0FF016C033F017C0AF
:100B500034F018C035F019C036F0C0EC1BF0D8B036
:100B6000B4EF05F0B6EF05F06EEF05F0D6EF05F047
:100B7000A8C02FF0A9C030F0AAC031F0ABC032F04D
:100B8000000E336E000E346E200E356E410E366E42
:100B9000AAEC13F02FC0A8F030C0A9F031C0AAF021
:100BA00032C0ABF00001A407D8A0A507A0C02FF069
:100BB000A1C030F0A2C031F0A3C032F0A8C033F021
:100BC000A9C034F0AAC035F0ABC036F0C0EC1BF0C1
:100BD000D8A0EDEF05F0EFEF05F0B8EF05F06EC02F
:100BE00008F0096A2BEC20F008500001956F95C0C1
:100BF00094F0670E9519D8A400EF06F002EF06F006
:100C000028EF06F0F751F811D8A409EF06F00BEF22
:100C100006F00FEF06F0000EF86F010EF76FF8BF49
:100C20001CEF06F0F85106E1F705D8B01AEF06F010
:100C30001CEF06F022EF06F0000E916F060E906F8B
:100C400031EF06F0F7C090F0F8C091F031EF06F008
:100C5000F8BF2DEF06F02FEF06F01CEF06F022EFA5
:100C600006F0670E9519D8A438EF06F03AEF06F0B3
:100C700069EF06F0A5AF48EF06F0FC0EA45DFF0E8D
:100C8000A559D8A046EF06F048EF06F067EF06F04A
:100C9000FF0E6F6FFF0E706F90C071F091C072F019
:100CA0006F51712770517223A451715D7251800A86
:100CB000736FA551800A7359D8A061EF06F063EFF6
:100CC00006F067EF06F0660E946F69EF06F0650EAA
:100CD000946F90C086F091C087F0670E9519D8A4E4
:100CE00074EF06F076EF06F086EF06F0660E9419C4
:100CF000D8A47DEF06F07FEF06F088EF06F0A5BFE1
:100D000086EF06F084EF06F088EF06F0864B872B1F
:100D1000660E9419D8A48FEF06F091EF06F0B1EFAC
:100D200006F0A5BF98EF06F096EF06F0A4EF06F0E8
:100D3000000EA86F000EA96F800EAA6F3F0EAB6F5A
:100D4000000EA56F000EA46F670E9519D8B4ABEF17
:100D500006F0ADEF06F0B1EF06F0A4518627A551DD
:100D60008723000E9F6F000E9E6FA0C096F0A1C05B
:100D700097F0A2C098F0A3C099F0A8C088F0A9C0CD
:100D800089F0AAC08AF0ABC08BF042EF07F096C0A2
:100D90002FF097C030F098C031F099C032F0A8C061
:100DA00033F0A9C034F0AAC035F0ABC036F0AAECDD
:100DB00013F02FC048F030C049F031C04AF032C0C3
:100DC0004BF091EC18F048C09AF049C09BF04AC033
:100DD0009CF04BC09DF09AC058F09BC059F09CC04D
:100DE0005AF09DC05BF03CEC1BF058C08CF059C031
:100DF0008DF096C060F097C061F098C062F099C025
:100E000063F0A8C01AF0A9C01BF0AAC01CF0ABC0C8
:100E10001DF09AC016F09BC017F09CC018F09DC042
:100E200019F0BFEC0FF016C064F017C065F018C0E1
:100E300066F019C067F0FBEC21F060C096F061C06D
:100E400097F062C098F063C099F0A8C02FF0A9C0D5
:100E500030F0AAC031F0ABC032F0000E336E000E9D
:100E6000346E200E356E410E366EAAEC13F02FC094
:100E7000A8F030C0A9F031C0AAF032C0ABF0000138
:100E80009E4B9F2B86519E5D9F51800A6F6F8751AD
:100E9000800A6F59D8A04FEF07F051EF07F0C7EF66
:100EA00006F0A8C016F0A9C017F0AAC018F0ABC091
:100EB00019F0000E1A6E000E1B6EA00E1C6E400E76
:100EC0001D6EBFEC0FF016C09AF017C09BF018C053
:100ED0009CF019C09DF096C02FF097C030F098C0DC
:100EE00031F099C032F09AC033F09BC034F09CC00E
:100EF00035F09DC036F0C0EC1BF0D8B082EF07F0A3
:100F000084EF07F08FEF07F0000E00019A6F000EDC
:100F10009B6F000E9C6F000E9D6FB8EF07F096C0A0
:100F200002F097C003F098C004F099C005F09AC091
:100F300006F09BC007F09CC008F09DC009F02DECA6
:100F40001FF0D8A0A6EF07F0A8EF07F0B8EF07F062
:100F500000018CB1AEEF07F0B0EF07F0B8EF07F08B
:100F6000000E9A6F000E9B6F000E9C6F000E9D6F1F
:100F7000A0C048F0A1C049F0A2C04AF0A3C04BF005
:100F80009AC04CF09BC04DF09CC04EF09DC04FF0FD
:100F90005FEC0DF048C096F049C097F04AC098F059
:100FA0004BC099F096C02FF097C030F098C031F048
:100FB00099C032F0000E1A6E000E1B6E200E1C6ED1
:100FC000410E1D6E88C016F089C017F08AC018F057
:100FD0008BC019F0BFEC0FF016C033F017C034F01F
:100FE00018C035F019C036F0C0EC1BF0D8A0FBEFEC
:100FF00007F0FDEF07F026EF08F00001A44BA52B4A
:1010000088C016F089C017F08AC018F08BC019F09C
:10101000000E1A6E000E1B6E200E1C6E410E1D6E11
:10102000BFEC0FF016C088F017C089F018C08AF026
:1010300019C08BF0660E00019419D8A422EF08F0B5
:1010400024EF08F026EF08F0864B872B88C0A8F025
:1010500089C0A9F08AC0AAF08BC0ABF0650E000170
:101060009419D8B436EF08F038EF08F03EEF08F0E6
:10107000A4C084F0A5C085F042EF08F0000E856F93
:10108000000E846F000E836F000E826F000E816F62
:10109000000E806F000E9F6F000E9E6F3DEF09F0F7
:1010A00096C02FF097C030F098C031F099C032F060
:1010B000A8C033F0A9C034F0AAC035F0ABC036F0F8
:1010C000AAEC13F02FC048F030C049F031C04AF00C
:1010D00032C04BF091EC18F048C09AF049C09BF038
:1010E0004AC09CF04BC09DF09AC058F09BC059F08C
:1010F0009CC05AF09DC05BF03CEC1BF058C08CF0DB
:1011000059C08DF00001F9B988EF08F08AEF08F0B6
:10111000A7EF08F08C518D11D8A491EF08F093EF50
:1011200008F0A7EF08F0670E9519D8A49AEF08F019
:101130009CEF08F0A7EF08F085BFA3EF08F0A1EF40
:1011400008F0A7EF08F0804B812BF1EF08F08251F7
:101150008311D8A4AEEF08F0B0EF08F0DAEF08F092
:1011600085BFB7EF08F0B5EF08F0DAEF08F0320E00
:10117000A625D96E010EA721DA6E2E0EDF6EA64BC4
:10118000A72B9207D8A09307000E836F010E826FE2
:10119000DAEF08F0320EA625D96E010EA721DA6E1D
:1011A000300EDF6EA64BA72B9207D8A093078007BF
:1011B000D8A0810780518111D8A4E1EF08F0E3EFB6
:1011C00008F0CAEF08F0320EA625D96E010EA7214D
:1011D000DA6E8C51300FDF6EA64BA72B9207D8A08A
:1011E000930796C060F097C061F098C062F099C014
:1011F00063F0A8C01AF0A9C01BF0AAC01CF0ABC0D5
:101200001DF09AC016F09BC017F09CC018F09DC04E
:1012100019F0BFEC0FF016C064F017C065F018C0ED
:1012200066F019C067F0FBEC21F060C096F061C079
:1012300097F062C098F063C099F0A8C02FF0A9C0E1
:1012400030F0AAC031F0ABC032F0000E336E000EA9
:10125000346E200E356E410E366EAAEC13F02FC0A0
:10126000A8F030C0A9F031C0AAF032C0ABF0000144
:101270008407D8A085079E4B9F2B86519E5D9F516A
:10128000800A6F6F8751800A6F59D8B04AEF09F012
:101290004CEF09F05AEF09F0A7BF58EF09F0A7513A
:1012A00009E14B0EA65DD8A058EF09F05AEF09F0FE
:1012B00050EF08F082518311D8A461EF09F063EF79
:1012C00009F074EF09F0F9A968EF09F06AEF09F085
:1012D00074EF09F0320EA625D96E010EA721DA6E41
:1012E0002E0EDF6EA64BA72B320EA625D96E010E51
:1012F000A721DA6E000EDF6E650E9419D8A483EF75
:1013000009F085EF09F0DFEF04F0000E9F6F4F0E3C
:101310009E6F320E9E25D96E010E9F21DA6E000E51
:10132000DF6E000E8F6F000E8E6FA5BF9CEF09F071
:101330009AEF09F0A4EF09F0000E8F6F010E8E6F87
:10134000A46DA51FD8B0A52B000E916F020E906F53
:10135000D5EF09F09E07D8A09F07320E9E25D96EC3
:10136000010E9F21DA6EA4C002F0A5C003F0000EAA
:10137000056E0A0E046ED5EC1EF00250300FDF6EC3
:10138000A4C002F0A5C003F0000E056E0A0E046EA4
:1013900073EC1EF002C0A4F003C0A5F0000190079A
:1013A000D8A091079207D8A09307A451A511D8A45B
:1013B000DCEF09F0DEEF09F0AAEF09F091BFEBEFE7
:1013C00009F0915106E19005D8B0E9EF09F0EBEF93
:1013D00009F0AAEF09F09E07D8A09F078E518F1140
:1013E000D8A4F5EF09F0F7EF09F0FDEF09F0000ED2
:1013F0007B6F2B0E7A6F01EF0AF0000E7B6F2D0EC4
:101400007A6F320E9E25D96E010E9F21DA6E7AC058
:10141000DFFF9207D8A093079E07D8A09F07BF0EB3
:101420006F6FFF0E706F6E51716F726B6F5171271E
:101430007051722372510AE11A0E715DD8A023EF28
:101440000AF026EF0AF0010E27EF0AF0000E7E6F79
:101450007F6B7E517F11D8A430EF0AF032EF0AF093
:1014600038EF0AF0000E7D6F650E7C6F3CEF0AF0DE
:10147000000E7D6F450E7C6F320E9E25D96E010EDB
:101480009F21DA6E7CC0DFFF9207D8A09307320E4F
:10149000A625026E010EA721036E320E9E25046E54
:1014A000010E9F21056EB9EC20F0DFEF04F0120071
:1014B000AEC0D9FFAFC0DAFFDECFF6FFDDCFF7FF5A
:1014C0000800F550250AD8A468EF0AF06AEF0AF080
:1014D00043EF0DF0AEC0D9FFAFC0DAFFDE2A000E39
:1014E000DD22000E0001F66F000EF56FF5C0F9F079
:1014F000F6C0FAF0F769F869000EBF6F000EBE6F14
:10150000C8EF0AF0F981AEC0D9FFAFC0DAFFDE2A1A
:10151000000EDD22C8EF0AF0F98383EF0AF0F985A7
:1015200083EF0AF0F98783EF0AF0F98983EF0AF075
:10153000000EBF6F010EBE6FC8EF0AF0AEC0D9FF3C
:10154000AFC0DAFFDECFF6FFDDCFF7FF0800F550C2
:10155000B26FB36BB351000AD8B4B1EF0AF098EF91
:101560000AF0B251200AD8B492EF0AF0030AD8B4B4
:1015700095EF0AF0080AD8B48FEF0AF0060AD8B43B
:1015800082EF0AF01D0AD8B48CEF0AF098EF0AF047
:10159000BE51BF11D8B4CFEF0AF0D1EF0AF09EEFE1
:1015A0000AF0F9A1D6EF0AF0D8EF0AF0D9EF0AF065
:1015B000F993AEC0D9FFAFC0DAFFDECFF6FFDDCFC3
:1015C000F7FF0800F5502E0AD8A4E9EF0AF0EBEF78
:1015D0000AF069EF0BF0000EF86F000EF76FAEC067
:1015E000D9FFAFC0DAFFDE2A000EDD22AEC0D9FF80
:1015F000AFC0DAFFDECFF6FFDDCFF7FF0800F55012
:101600002A0AD8A406EF0BF008EF0BF025EF0BF039
:10161000AEC0D9FFAFC0DAFFDE2A000EDD22B0C0B7
:10162000D9FFB1C0DAFFDFCFB2F0020EDE26DFCF86
:10163000B3F0000EDD22B2C0D9FFB3C0DAFFDECFB7
:10164000F7F0DDCFF8F069EF0BF0AEC0D9FFAFC017
:10165000DAFFDECF09F0DDCF0AF074EC1AF009C032
:10166000F7F00AC0F8F03CEF0BF0AEC0D9FFAFC006
:10167000DAFFDE2A000EDD22D00E0001B26FFF0E6F
:10168000B36FAEC0D9FFAFC0DAFFDECFF6FFDDCF5C
:10169000F7FF0800F550B46FB56BB251B427B351E2
:1016A000B523B5510AE10A0EB45DD8A05AEF0BF08C
:1016B0005DEF0BF0010E5EEF0BF0000EC06FC16B23
:1016C000C051C111D8A467EF0BF069EF0BF035EFF3
:1016D0000BF0AEC0D9FFAFC0DAFFDECFF6FFDDCF33
:1016E000F7FF0800F550086E096A2BEC20F008504F
:1016F0000001C46FC451D8B480EF0BF082EF0BF03F
:10170000BCEF0BF0AEC0D9FFAFC0DAFFDECFB2F056
:10171000DDCFB3F0010EB227000EB323B2C0F6FF47
:10172000B3C0F7FF0800F550086E096A2BEC20F0F3
:1017300008500001C56FC551D8B4A1EF0BF0A3EF5D
:101740000BF0BCEF0BF0AEC0D9FFAFC0DAFFDECFBD
:10175000B2F0DDCFB3F0020EB227000EB323B2C059
:10176000F6FFB3C0F7FF0800F550086E096A2BECCE
:1017700020F008500001C66F660EC419D8A4C3EF4C
:101780000BF0C5EF0BF005EF0CF0AEC0D9FFAFC00A
:10179000DAFFDECFF6FFDDCFF7FF0800F5CFCBF0A5
:1017A000AEC0D9FFAFC0DAFFDE2A000EDD22B0C026
:1017B000D9FFB1C0DAFFDFCFB2F0040EDE26DFCFF3
:1017C000B3F0000EDD22B2C0D9FFB3C0DAFFDECF26
:1017D000C7F0DECFC8F0DECFC9F0DECFCAF0ACC0B4
:1017E00068F0ADC069F0C7C06AF0C8C06BF0C9C08E
:1017F0006CF0CAC06DF0CBC06EF02CEC04F068C089
:10180000ACF069C0ADF05EEF0DF0C40E026E000EDC
:10181000036E4E0E046E080E056E000E076E020E6D
:10182000066E40EC1DF002500310D8A41AEF0CF025
:101830001CEF0CF098EF0CF0AEC0D9FFAFC0DAFF90
:10184000DECFB2F0DDCFB3F0010E0001B227000E03
:10185000B323B2C0F6FFB3C0F7FF0800F5CFCBF05B
:10186000BF0EB26FFF0EB36FAEC0D9FFAFC0DAFFCD
:10187000DECFF6FFDDCFF7FF0800F550B46FB56B94
:10188000B251B427B351B523B5510AE11A0EB45D74
:10189000D8A04DEF0CF050EF0CF0010E51EF0CF012
:1018A000000EC26FC36BC251C311D8B45AEF0CF013
:1018B0005CEF0CF076EF0CF0B0C0D9FFB1C0DAFFEE
:1018C000DFCFB2F0040EDE26DFCFB3F0000EDD2254
:1018D000B2C0D9FFB3C0DAFFDECFC7F0DECFC8F0A9
:1018E000DECFC9F0DECFCAF08EEF0CF0B0C0D9FF6A
:1018F000B1C0DAFFDFCFB2F0040EDE26DFCFB3F0E7
:10190000000EDD22B2C0D9FFB3C0DAFFDECFC7F0D0
:10191000DECFC8F0DECFC9F0DECFCAF0020EAEC017
:10192000D9FFAFC0DAFFDE26000EDD22EFEF0BF0AD
:10193000AEC0D9FFAFC0DAFFDECFF6FFDDCFF7FFD5
:101940000800F550780AD8B4A8EF0CF0AAEF0CF014
:10195000BCEF0CF0AEC0D9FFAFC0DAFFDECFF6FFB0
:10196000DDCFF7FF0800F550580AD8A4BAEF0CF005
:10197000BCEF0CF00BEF0DF0AEC0D9FFAFC0DAFF3B
:10198000DECFF6FFDDCFF7FF0800F5CFCBF0AEC01E
:10199000D9FFAFC0DAFFDE2A000EDD22B0C0D9FFCA
:1019A000B1C0DAFFDFCFB2F0020EDE26DFCFB3F038
:1019B000000EDD22B2C0D9FFB3C0DAFFDECFB4F033
:1019C000DDCFB5F0B4C0B6F0B5C0B7F00001B86B6C
:1019D000B96BBA6BBB6BBC6BBD6BACC01DF0ADC063
:1019E0001EF0B6C01FF0B7C020F0B8C021F0B9C0DB
:1019F00022F0BAC023F0BBC024F0BCC025F0BDC0AB
:101A000026F0CBC027F024EC17F01DC0ACF01EC0B0
:101A1000ADF05EEF0DF0AEC0D9FFAFC0DAFFDECFA4
:101A2000F6FFDDCFF7FF0800F550250AD8A41BEF1D
:101A30000DF01DEF0DF035EF0DF0AEC0D9FFAFC0CA
:101A4000DAFFDE2A000EDD22000E036E250E026E86
:101A5000ACC004F0ADC005F0ABEC1DF0000E000111
:101A6000AD6F010EAC6F5EEF0DF0AEC0D9FFAFC031
:101A7000DAFFDE2A000EDD22000E0001AD6F000E3F
:101A8000AC6F5EEF0DF0AEC0D9FFAFC0DAFFDECFB6
:101A9000F6FFDDCFF7FF0800F550026E036AACC019
:101AA00004F0ADC005F0ABEC1DF0AEC0D9FFAFC087
:101AB000DAFFDE2A000EDD222EEF0DF012004B5071
:101AC000800B546E4B504B24566E4AAE6AEF0DF0AD
:101AD0006CEF0DF06DEF0DF056805650D8B473EFEB
:101AE0000DF075EF0DF08AEF0DF05628D8A47BEFBE
:101AF0000DF07DEF0DF085EF0DF0000E486E000E3D
:101B0000496E000E4A6E000E4B6E4A8E000E4B6EF2
:101B100092EF0DF0000E486E000E496E000E4A6EF8
:101B2000000E4B6E4F50800B556E54505518D8B464
:101B30009CEF0DF09EEF0DF09FEF0DF0548C4F5089
:101B40004F24556E4EAEA7EF0DF0A9EF0DF0AAEFA2
:101B50000DF055805550D8B4B0EF0DF0B2EF0DF048
:101B6000C7EF0DF05528D8A4B8EF0DF0BAEF0DF07F
:101B7000C2EF0DF0000E4C6E000E4D6E000E4E6E5C
:101B8000000E4F6E4E8E000E4F6ECFEF0DF0000E1A
:101B90004C6E000E4D6E000E4E6E000E4F6E565087
:101BA000555CD8B0D6EF0DF0D8EF0DF0FFEF0DF08B
:101BB00054ACDDEF0DF0DFEF0DF0E1EF0DF0800E36
:101BC000541A56C057F055C056F057C055F048C08B
:101BD00057F04CC048F057C04CF049C057F04DC0CA
:101BE00049F057C04DF04AC057F04EC04AF057C0B8
:101BF0004EF04BC057F04FC04BF057C04FF0000EA7
:101C0000576E565055C050F0516A505E000E515AF2
:101C100051BE14EF0EF0515009E11A0E505CD8A0DD
:101C200014EF0EF016EF0EF04DEF0EF04850491085
:101C30004A104B10D8A41FEF0EF022EF0EF0010E49
:101C400023EF0EF0000E576E000E486E000E496E28
:101C5000000E4A6E000E4B6E55C056F056EF0EF059
:101C600057A035EF0EF037EF0EF03DEF0EF0D890A5
:101C700057300109576E3FEF0EF0D890573248A009
:101C800044EF0EF046EF0EF047EF0EF0578E4B3458
:101C90004B324A3249324832562A5550565CD8A007
:101CA00054EF0EF056EF0EF030EF0EF054BC5BEF39
:101CB0000EF05DEF0EF09DEF0EF05650D8A463EFDE
:101CC0000EF065EF0EF06FEF0EF0000E486E000E96
:101CD000496E000E4A6E000E4B6EBEEF0FF04C5078
:101CE00048264D5049224E504A224F504B224BA07D
:101CF0007CEF0EF07EEF0EF02AEF0FF057A083EF8F
:101D00000EF085EF0EF08BEF0EF0D89057300109F2
:101D1000576E8DEF0EF0D890573248A092EF0EF02C
:101D200094EF0EF095EF0EF0578E4B344B324A3253
:101D300049324832562A2AEF0FF04C50485C4D5039
:101D400049584E504A584B50800A506E4F50800AA6
:101D50005058D8B0AEEF0EF0B0EF0EF0DBEF0EF053
:101D600048504C5C506E49504D58516E4A504E5838
:101D7000526E4B504F58536EFF0E5024486EFF0E5C
:101D80005120496EFF0E52204A6EFF0E53204B6EBB
:101D9000800E541A576C5750D8A4D1EF0EF0D3EFE1
:101DA0000EF0E3EF0EF0010E4826000E49224A2203
:101DB0004B22E3EF0EF04C50485E4D50495A4E50C6
:101DC0004A5A4F504B5A485049104A104B10D8A409
:101DD000ECEF0EF0EEEF0EF023EF0FF05750D8A41B
:101DE000F4EF0EF0F6EF0EF023EF0FF0000E486E5A
:101DF000000E496E000E4A6E000E4B6EBEEF0FF0E5
:101E0000D890483649364A364B3657AE0AEF0FF06F
:101E10000CEF0FF00DEF0FF0488057A012EF0FF00E
:101E200014EF0FF018EF0FF0D88057361AEF0FF0BD
:101E3000D89057365650D8B420EF0FF022EF0FF05D
:101E400023EF0FF056064AAE28EF0FF02AEF0FF0FF
:101E500000EF0FF0000E556E57AE31EF0FF033EF7D
:101E60000FF04BEF0FF057C050F07F0E5016D8B464
:101E70003CEF0FF03EEF0FF042EF0FF0010E556E0A
:101E80004BEF0FF048A047EF0FF049EF0FF04BEF8B
:101E90000FF03EEF0FF05550D8B451EF0FF053EF65
:101EA0000FF07EEF0FF0010E4826000E49224A2265
:101EB0004B224BA05EEF0FF060EF0FF07EEF0FF0C4
:101EC00048C050F049C051F04AC052F04BC053F0E6
:101ED0005334533252325132503250C048F051C014
:101EE00049F052C04AF053C04BF05628D8B47BEFAB
:101EF0000FF07DEF0FF07EEF0FF0562A5628D8B482
:101F000084EF0FF086EF0FF08EEF0FF05650D8A44D
:101F10008CEF0FF08EEF0FF0A0EF0FF0000E486E79
:101F2000000E496E000E4A6E000E4B6E5650D8A43D
:101F30009CEF0FF09EEF0FF0A0EF0FF0000E546E2D
:101F400056A0A5EF0FF0A7EF0FF0AAEF0FF04A8E03
:101F5000ABEF0FF04A9ED89056304B6E54AEB3EFB5
:101F60000FF0B5EF0FF0B6EF0FF04B8E48C048F012
:101F700049C049F04AC04AF04BC04BF0120019501A
:101F8000800B226E19501924286E18AECAEF0FF07C
:101F9000CCEF0FF0CDEF0FF028802850D8B4D3EF5E
:101FA0000FF0D5EF0FF0E8EF0FF02828D8A4DBEF03
:101FB0000FF0DDEF0FF0E5EF0FF0000E166E000EE4
:101FC000176E000E186E000E196E188EF0EF0FF0DF
:101FD000000E166E000E176E000E186E000E196EB3
:101FE0001D50800B221A1D501D24276E1CAEFBEFC6
:101FF0000FF0FDEF0FF0FEEF0FF027802750D8B461
:1020000004EF10F006EF10F019EF10F02728D8A415
:102010000CEF10F00EEF10F016EF10F0000E1A6E2D
:10202000000E1B6E000E1C6E000E1D6E1C8E21EF2E
:1020300010F0000E1A6E000E1B6E000E1C6E000ECD
:102040001D6E2750D8B427EF10F029EF10F031EFB4
:1020500010F02850D8A42FEF10F031EF10F03BEF24
:1020600010F0000E166E000E176E000E186E000EA9
:10207000196ED3EF11F01C501602F3CF2DF0F4CFF0
:102080002EF02D50236E246A256A266A2E50296E62
:102090002A6A2B6A2C6A1B501702F3CF2DF0F4CF5B
:1020A0002EF02D502326000E2422252226222E50EB
:1020B0002926000E2A222B222C221A501802F3CF96
:1020C0002DF0F4CF2EF02D502326000E24222522B1
:1020D00026222E502926000E2A222B222C2225C011
:1020E00026F024C025F023C024F0236A1A501702DA
:1020F000F3CF2DF0F4CF2EF02D5023262E50242296
:10210000000E2522000E26221B501602F3CF2DF0C2
:10211000F4CF2EF02D5023262E502422000E2522FF
:10212000000E262225C026F024C025F023C024F06E
:10213000236A1A501602F3CF2DF0F4CF2EF02D5053
:1021400023262E502422000E2522000E26221C506B
:102150001702F3CF2DF0F4CF2EF02D5029262E505C
:102160002A22000E2B22000E2C221B501802F3CF25
:102170002DF0F4CF2EF02D5029262E502A22000EBD
:102180002B22000E2C221C501802F3CF2DF0F4CF7E
:102190002EF02D501E6E2E501F6E206A216A20C018
:1021A00021F01FC020F01EC01FF01E6A1E502926FD
:1021B0001F502A2220502B2221502C2223C01EF0F7
:1021C00024C01FF025C020F026C021F0190EEEEF2C
:1021D00010F0D890213220321F321E32E82EE9EF63
:1021E00010F01E5029261F502A2220502B22215049
:1021F0002C2225C026F024C025F023C024F0236A19
:10220000275028C01EF01F6A1E26000E1F22820EB5
:102210001E242D6EFF0E1F202E6E24EF11F0D8907D
:1022200029362A362B362C3626AE19EF11F01BEF45
:1022300011F01CEF11F02980D89023362436253672
:1022400026362D06D8A02E062BAE29EF11F02BEF47
:1022500011F00FEF11F0000E276E26AE32EF11F0E5
:1022600034EF11F058EF11F0FF0E23141E6EFF0E25
:1022700024141F6EFF0E2514206E7F0E2614216E6F
:102280001E501F1020102110D8B449EF11F04BEF51
:1022900011F04FEF11F0010E276E58EF11F029A049
:1022A00054EF11F056EF11F058EF11F04BEF11F021
:1022B0002750D8B45EEF11F060EF11F084EF11F009
:1022C000010E2926000E2A222B222C222CA06BEF95
:1022D00011F06DEF11F084EF11F029C01EF02AC04B
:1022E0001FF02BC020F02CC021F0213421322032ED
:1022F0001F321E321EC029F01FC02AF020C02BF052
:1023000021C02CF02D4A2E2A2EBE8FEF11F02E5018
:1023100008E12D28D8A08FEF11F091EF11F09BEF7D
:1023200011F0000E296E000E2A6E800E2B6E7F0EAD
:102330002C6EC9EF11F02EBEA8EF11F02E5006E161
:102340002D04D8B0A6EF11F0A8EF11F0B4EF11F002
:10235000000E296E000E2A6E000E2B6E000E2C6EE3
:10236000000E226EC9EF11F02DC028F0FF0E2916C5
:10237000FF0E2A167F0E2B16000E2C1628A0C3EF78
:1023800011F0C5EF11F0C6EF11F02B8ED890283068
:102390002C6E22502C1229C016F02AC017F02BC028
:1023A00018F02CC019F01200720ED36E000E966E4B
:1023B000E8EC23F06EEC23F0000E0C6E010E0D6EB7
:1023C000080E0E6E010E88EC22F013EC24F042ECA5
:1023D0001CF0000166C0E7F067C0E8F0E96BEA6B4B
:1023E000E7C008F0E8C009F0E9C00AF0EAC00BF065
:1023F000000E9AEC19F008C0EFF009C0F0F00AC026
:10240000F1F00BC0F2F0C7EC1FF002C008F003C0FF
:1024100009F00A6A0B6A000E9AEC19F008C0EBF09A
:1024200009C0ECF00AC0EDF00BC0EEF077EC15F04F
:10243000000E036E0A0E026EB2EC21F0000E2F6E3B
:10244000000E306E700E316E410E326EEFC033F002
:10245000F0C034F0F1C035F0F2C036F0C0EC1BF043
:10246000D8B035EF12F037EF12F097EF12F0000E00
:102470002F6E000E306E000E316E000E326EEBC00D
:1024800033F0ECC034F0EDC035F0EEC036F0C0EC07
:102490001BF0D8B04EEF12F050EF12F097EF12F0A1
:1024A000EBC02FF0ECC030F0EDC031F0EEC032F0F8
:1024B000000E336E000E346EC80E356E430E366E4F
:1024C000C0EC1BF0D8B067EF12F069EF12F097EF95
:1024D00012F08D908D928D94820E0001D46F010EBA
:1024E000D56F0F0ED66F080ED76FEFC0D8F0F0C0C3
:1024F000D9F0F1C0DAF0F2C0DBF014EC21F0000EFC
:102500000C6E820E0D6E010E0E6E010E88EC22F026
:10251000EA0E0A6E010E0B6E000E1FEC22F0C00ECA
:1025200066EC21F0000E8CEC21F030EC24F0EFC0D2
:102530002FF0F0C030F0F1C031F0F2C032F0000EF8
:10254000336E000E346E400E356E410E366EC0ECAA
:102550001BF0D8A0AEEF12F0B0EF12F027EF13F09F
:10256000000E2F6E000E306E700E316E410E326E08
:10257000EFC033F0F0C034F0F1C035F0F2C036F007
:10258000C0EC1BF0D8A0C7EF12F0C9EF12F027EF94
:1025900013F0000E2F6E000E306EC80E316E430E1B
:1025A000326EEBC033F0ECC034F0EDC035F0EEC06D
:1025B00036F0C0EC1BF0D8B0E0EF12F0E2EF12F012
:1025C00027EF13F0EBC02FF0ECC030F0EDC031F08E
:1025D000EEC032F0000E336E000E346E2F0E356EEC
:1025E000440E366EC0EC1BF0D8B0F9EF12F0FBEFE2
:1025F00012F027EF13F08D808D828D94820E0001F2
:10260000D46F010ED56F0F0ED66F080ED76FEFC0C7
:10261000D8F0F0C0D9F0F1C0DAF0F2C0DBF014EC81
:1026200021F0000E0C6E820E0D6E010E0E6E010E6C
:1026300088EC22F0E20E0A6E010E0B6E000E1FEC0B
:1026400022F0C00E66EC21F0000E8CEC21F0EFC001
:102650002FF0F0C030F0F1C031F0F2C032F0000ED7
:10266000336E000E346E400E356E410E366EC0EC89
:102670001BF0D8B03EEF13F040EF13F09EEF13F0D5
:10268000000E2F6E000E306E2F0E316E440E326E25
:10269000EBC033F0ECC034F0EDC035F0EEC036F0F6
:1026A000C0EC1BF0D8B057EF13F059EF13F09EEFCA
:1026B00013F0EBC02FF0ECC030F0EDC031F0EEC005
:1026C00032F0000E336E800E346EBB0E356E440E4B
:1026D000366EC0EC1BF0D8B070EF13F072EF13F051
:1026E0009EEF13F08D808D828D84820E0001D46F59
:1026F000010ED56F0F0ED66F080ED76FEFC0D8F052
:10270000F0C0D9F0F1C0DAF0F2C0DBF014EC21F047
:10271000000E0C6E820E0D6E010E0E6E010E88EC18
:1027200022F0F20E0A6E010E0B6E000E1FEC22F06C
:10273000C00E66EC21F0000E8CEC21F00B0E036E47
:10274000B80E026EB2EC21F013EC24F0E7EF11F0BA
:1027500007EF00F03250800B3F6E32503224466E4D
:1027600031AEB5EF13F0B7EF13F0B8EF13F04680CA
:102770004650D8B4BEEF13F0C0EF13F0D5EF13F00E
:102780004628D8A4C6EF13F0C8EF13F0D0EF13F02B
:10279000000E2F6E000E306E000E316E000E326E87
:1027A000318E000E326EDDEF13F0000E2F6E000E34
:1027B000306E000E316E000E326E3650800B3F1AB6
:1027C00036503624476E35AEE8EF13F0EAEF13F0DB
:1027D000EBEF13F047804750D8B4F1EF13F0F3EF6D
:1027E00013F008EF14F04728D8A4F9EF13F0FBEF2B
:1027F00013F003EF14F0000E336E000E346E000E73
:10280000356E000E366E358E000E366E10EF14F0FB
:10281000000E336E000E346E000E356E000E366EF6
:102820003350341035103610D8A419EF14F01BEFC4
:1028300014F033EF14F0000E2F6E000E306E000E09
:10284000316E000E326E800E31127F0E32123F500A
:1028500032122FC02FF030C030F031C031F032C012
:1028600032F076EF15F04650D8A439EF14F03BEF74
:1028700014F045EF14F0000E2F6E000E306E000EB7
:10288000316E000E326E76EF15F0475046C037F0CD
:10289000386A375E000E385A7F0E3724406E000EBD
:1028A0003820416E2FC03BF030C03CF031C03DF0CD
:1028B00032C03EF0000E2F6E000E306E000E316EF4
:1028C000000E326E000E426E000E436E000E446E1D
:1028D000000E456E000E476EA6EF14F04750D8B4B8
:1028E00074EF14F076EF14F08DEF14F0D8903B36BF
:1028F0003C363D363E36D8902F363036313632367D
:1029000045AE85EF14F087EF14F088EF14F02F80B8
:10291000D890423643364436453633503B5C3450CB
:102920003C5835503D5836503E58D8A09AEF14F0D8
:102930009CEF14F0A5EF14F0458C33503B5E3450FF
:102940003C5A35503D5A36503E5A472A190E476474
:10295000ACEF14F0AEEF14F06EEF14F03B503C10FF
:102960003D103E10D8B4B7EF14F0B9EF14F0D1EF2A
:1029700014F04280D1EF14F0D8902F363036313633
:10298000323645AEC6EF14F0C8EF14F0C9EF14F0BC
:102990002F80D89042364336443645364006D8A07C
:1029A000410631AED6EF14F0D8EF14F0BCEF14F0BE
:1029B000000E476E45AEDFEF14F0E1EF14F005EFC7
:1029C00015F0FF0E4214376EFF0E4314386EFF0EE3
:1029D0004414396E7F0E45143A6E37503810391052
:1029E0003A10D8B4F6EF14F0F8EF14F0FCEF14F04E
:1029F000010E476E05EF15F02FA001EF15F003EF64
:102A000015F005EF15F0F8EF14F04750D8B40BEFC0
:102A100015F00DEF15F031EF15F0010E2F26000E19
:102A200030223122322232A018EF15F01AEF15F0C1
:102A300031EF15F02FC037F030C038F031C039F029
:102A400032C03AF03A343A3239323832373237C05B
:102A50002FF038C030F039C031F03AC032F0404A7F
:102A6000412A41BE3CEF15F0415008E14028D8A072
:102A70003CEF15F03EEF15F049EF15F0000E416EFA
:102A80004068000E2F6E000E306E000E316E000E8C
:102A9000326E41BE56EF15F0415006E14004D8B009
:102AA00054EF15F056EF15F064EF15F0000E416E7F
:102AB000000E406E000E2F6E000E306E000E316E56
:102AC000000E326E000E3F6E40C046F046A06BEF27
:102AD00015F06DEF15F070EF15F0318E71EF15F008
:102AE000319ED8904630326E27EF14F01200060E59
:102AF0000101D96F050EDA6F21EEDBF011EE96F0D1
:102B0000060EDBCFE3FFE806FCE2720ED36EE8ECC4
:102B100023F06EEC23F013EC24F0000E036E0A0E8B
:102B2000026EB2EC21F0000E43EC22F0D9C1E4F0C9
:102B3000010E0001E56F000EE66FE42BA3EF15F028
:102B4000D890E537E637E42FA0EF15F001012C51BE
:102B50000001E51701012D510001E617E551E611CD
:102B6000D8B4B5EF15F0B7EF15F034EF16F0DAC1C1
:102B7000E4F0010EE56F000EE66FE42BC3EF15F0F5
:102B8000D890E537E637E42FC0EF15F001012C515E
:102B90000001E51701012D510001E617E551E6118D
:102BA000D8B4D5EF15F0D7EF15F0E2EF15F00E0E13
:102BB0000C6E540E0D6E080E0E6E010E88EC22F097
:102BC000EBEF15F00E0E0C6E510E0D6E080E0E6E24
:102BD000010E88EC22F01F0E01012C152C6F2D6BBD
:102BE000BB0E0001D46F010ED56F260ED66F080EF6
:102BF000D76F30C1D8F031C1D9F014EC21F0C50E37
:102C00000001D46F010ED56F2E0ED66F080ED76F50
:102C10002EC1D8F02FC1D9F014EC21F0CF0E000155
:102C2000D46F010ED56F2E0ED66F080ED76F2CC144
:102C3000D8F02DC1D9F014EC21F0040E0C6ECF0E9B
:102C40000D6E010E0E6E000E88EC22F0C50E0A6E9F
:102C5000010E0B6E8AEC20F0BB0E0A6E010E0B6E9D
:102C60008AEC20F071EF16F03F0E01012C152C6F4D
:102C70002D6BBB0E0001D46F010ED56F260ED66FE3
:102C8000080ED76F30C1D8F031C1D9F014EC21F063
:102C9000C50E0001D46F010ED56F2E0ED66F080E33
:102CA000D76F2EC1D8F02FC1D9F014EC21F0CF0E80
:102CB0000001D46F010ED56F2E0ED66F080ED76FA0
:102CC0002CC1D8F02DC1D9F014EC21F0040E0C6EFB
:102CD000CF0E0D6E010E0E6E000E88EC22F026EF68
:102CE00016F0030EE7EC20F0F5EC23F09D0E00014A
:102CF000D46F010ED56F2A0ED66F080ED76F28C17C
:102D0000D8F029C1D9F014EC21F0A70E0001D46F3E
:102D1000010ED56F2A0ED66F080ED76F26C1D8F0D8
:102D200027C1D9F014EC21F0B10E0001D46F010ECF
:102D3000D56F260ED66F080ED76F24C1D8F025C1E7
:102D4000D9F014EC21F0020E0C6E9D0E0D6E010EEA
:102D50000E6E020E88EC22F0A70E0A6E010E0B6EAC
:102D60008AEC20F0B10E0A6E010E0B6E8AEC20F098
:102D7000F2EF16F0420E0A6E080E0B6E8AEC20F08F
:102D800023EF17F03E0E0A6E080E0B6E8AEC20F051
:102D900023EF17F0360E0A6E080E0B6E8AEC20F049
:102DA00023EF17F0320E0A6E080E0B6E8AEC20F03D
:102DB00023EF17F04A0E0A6E080E0B6E8AEC20F015
:102DC00023EF17F03A0E0A6E080E0B6E8AEC20F015
:102DD00023EF17F0460E0A6E080E0B6E8AEC20F0F9
:102DE00023EF17F0960E01012A25D96E010E2B2133
:102DF000DA6EDF500001E46FE56BE551000AD8B4EC
:102E000004EF17F093EF15F0E451460AD8B4E2EF5F
:102E100016F00B0AD8B4C2EF16F01E0AD8B4BAEFF7
:102E200016F0070AD8B4CAEF16F0030AD8B4D2EFE6
:102E300016F0240AD8B4EAEF16F0070AD8B4DAEF8D
:102E400016F093EF15F012000001F8BF2AEF17F00B
:102E50002CEF17F02DEF17F0F993F8BF3AEF17F0BA
:102E6000F85106E1F705D8B038EF17F03AEF17F050
:102E700040EF17F0000E356E010E346E44EF17F080
:102E8000F7C034F0F8C035F0F5C036F0F6C037F0D2
:102E9000F9A94DEF17F04FEF17F053EF17F0FE0EB3
:102EA0003626FF0E37221FC038F020C039F021C06F
:102EB0003AF022C03BF023C03CF024C03DF025C0D6
:102EC0003EF026C03FF0000E416E4F0E406E000EE9
:102ED0000101816F1FEF18F04006D8A041060F0EC8
:102EE0003814426E436A43BE7FEF17F0435009E146
:102EF0000A0E425CD8A07FEF17F081EF17F089EF40
:102F000017F0570E4224426E000E4320436E8FEF9F
:102F100017F0300E4224426E000E4320436EBF0E67
:102F2000286EFF0E296E27502A6E2B6A28502A26FB
:102F300029502B222B500AE11A0E2A5CD8A0A3EFAD
:102F400017F0A6EF17F0010EA7EF17F0000E306E86
:102F5000316A30503110D8B4B0EF17F0B2EF17F03B
:102F6000E2EF17F09F0E286EFF0E296E200E421022
:102F70002A6E000E43102B6E28502A2629502B2231
:102F80002B500AE11A0E2A5CD8A0C9EF17F0CCEF3B
:102F900017F0010ECDEF17F0000E326E336A32508B
:102FA0003310D8B4D6EF17F0D8EF17F0E2EF17F0E0
:102FB00042C008F043C009F05BEC20F008C042F0CA
:102FC00009C043F0320E4024D96E010E4120DA6E62
:102FD00042C0DFFF3406D8A035063606D8A0370633
:102FE00038C028F039C029F03AC02AF03BC02BF095
:102FF0003CC02CF03DC02DF03EC02EF03FC02FF065
:10300000050E0CEF18F0D8902F322E322D322C32C4
:103010002B322A3229322832E82E03EF18F028C04A
:1030200038F029C039F02AC03AF02BC03BF02CC050
:103030003CF02DC03DF02EC03EF02FC03FF041BE11
:103040002BEF18F0415009E1020E405CD8A02BEFA5
:1030500018F02DEF18F05EEF18F0385039103A10D4
:103060003B103C103D103E103F10D8A43AEF18F032
:103070003CEF18F06CEF17F035BE49EF18F0355003
:1030800006E13404D8B047EF18F049EF18F06CEFC0
:1030900017F037BE54EF18F0375008E13604D8A0C7
:1030A00054EF18F056EF18F05EEF18F00001F9B386
:1030B0005CEF18F05EEF18F06CEF17F00001F9A963
:1030C00064EF18F066EF18F07CEF18F04006D8A017
:1030D0004106320E4024D96E010E4120DA6E27C01F
:1030E000DFFF4006D8A04106320E4024D96E010E03
:1030F0004120DA6E300EDF6E1DC012F01EC013F0DC
:10310000320E4024146E010E4120156E36C016F0AA
:1031100037C017F010EC1EF012C01DF013C01EF0E7
:10312000120014C158F015C159F016C15AF017C158
:103130005BF048C058F049C059F04AC05AF04BC043
:103140005BF0810E4C6EFF0E4D6E58C04EF059C0B4
:103150004FF05AC050F05BC051F0180EB5EF18F0A8
:10316000D890513250324F324E32E82EB0EF18F034
:103170004E504C24566E000E4D20576E57BECAEF6F
:1031800018F0575009E1170E565CD8A0CAEF18F096
:10319000CCEF18F0D6EF18F048C048F049C049F01D
:1031A0004AC04AF04BC04BF099EF19F057BEDBEF25
:1031B00018F0DDEF18F04DEF19F056C04CF0FF0E8F
:1031C0004D6EFF0E4E6E7F0E4F6E000E506E4C66B3
:1031D000ECEF18F0F4EF18F0503450324F324E321A
:1031E0004D324C2EE7EF18F04DC052F04EC053F068
:1031F0004FC054F050C055F0525058144C6E5350BC
:1032000059144D6E54505A144E6E55505B144F6EF7
:103210004C504D104E104F10D8A411EF19F013EF71
:1032200019F015EF19F0CCEF18F058C04CF059C058
:103230004DF05AC04EF05BC04FF0200E25EF19F054
:10324000D8904F324E324D324C32E82E20EF19F0EA
:103250004C504D104E104F10D8B431EF19F033EFE1
:1032600019F03BEF19F05250582653505922545040
:103270005A2255505B22521C4C6E531C4D6E541CEE
:103280004E6E551C4F6E4C5058164D5059164E50A0
:103290005A164F505B1691EF19F058C04CF059C0B8
:1032A0004DF05AC04EF05BC04FF0200E5DEF19F0AC
:1032B000D8904F324E324D324C32E82E58EF19F042
:1032C0004C504D104E104F10D8A469EF19F06BEF11
:1032D00019F075EF19F0000E586E000E596E000EC1
:1032E0005A6E000E5B6E91EF19F0D89058344C6E08
:1032F00059344D6E5A344E6E5B344F6E4C504D10F7
:103300004E104F10D8B487EF19F089EF19F091EFF4
:1033100019F0000E586E000E596E800E5A6EBF0ED8
:103320005B6E58C048F059C049F05AC04AF05BC0C3
:103330004BF01200106E1050D8B4A1EF19F0A3EFAB
:1033400019F0C5EF19F00BBEAAEF19F0A8EF19F0AC
:10335000C5EF19F008C00CF009C00DF00AC00EF05E
:103360000BC00FF00C1E0D1E0E1E0F1E0C2A000EA1
:103370000D220E220F220CC012F00DC013F00EC051
:1033800014F00FC015F0CDEF19F008C012F009C00D
:1033900013F00AC014F00BC015F0085009100A1001
:1033A0000B10D8A4D6EF19F0D8EF19F0E2EF19F00E
:1033B000000E086E000E096E000E0A6E000E0B6EF7
:1033C00073EF1AF0960E116EECEF19F0112AD890E7
:1033D0001532143213321232000E12140C6E000E1B
:1033E00013140D6E000E14140E6EFE0E15140F6ED7
:1033F0000C500D100E100F10D8A401EF1AF003EFAF
:103400001AF0E6EF19F011EF1AF0112A010E122648
:10341000000E132214221522D890153214321332C2
:103420001232000E12140C6E000E13140D6E000EEC
:1034300014140E6EFF0E15140F6E0C500D100E109E
:103440000F10D8A426EF1AF028EF1AF005EF1AF0A3
:1034500030EF1AF01106D89012361336143615369E
:1034600014BE35EF1AF037EF1AF03FEF1AF0020EE4
:1034700011603DEF1AF03FEF1AF02AEF1AF011B089
:1034800044EF1AF046EF1AF047EF1AF0149ED89066
:10349000113211C00CF00D6A0E6A0F6A0CC00FF0E9
:1034A0000E6A0D6A0C6A0C5012120D5013120E5057
:1034B00014120F5015121050D8B461EF1AF063EFC8
:1034C0001AF06BEF1AF00BBE6AEF1AF068EF1AF001
:1034D0006BEF1AF0158E12C008F013C009F014C07B
:1034E0000AF015C00BF01200000E176E000E166EDB
:1034F000000E106E000E0F6E80EF1AF0094A0A2AB5
:10350000010E156E09C0F6FF0AC0F7FF0800F5505E
:10351000200AD8B48EEF1AF090EF1AF0ADEF1AF03F
:10352000F70E0B6EFF0E0C6E09C0F6FF0AC0F7FF18
:103530000800F5500D6E0E6A0B500D260C500E2231
:103540000E5009E1050E0D5CD8A0A9EF1AF0ABEF03
:103550001AF0ADEF1AF0000E156E15C011F0126AD8
:1035600011501210D8A4B7EF1AF0B9EF1AF07EEF8D
:103570001AF0C3EF1AF0000E106E010E0F6E094A1A
:103580000A2AF8EF1AF009C0F6FF0AC0F7FF080090
:10359000F5500B6E0C6A0C50000AD8B4D2EF1AF03A
:1035A000F8EF1AF00B502B0AD8B4BFEF1AF0060A46
:1035B000D8B4BBEF1AF0F8EF1AF016C002F017C03B
:1035C00003F0000E056E0A0E046EB4EC23F009C081
:1035D000F6FF0AC0F7FF0800F550025E000E035A1E
:1035E000300E0224166E000E0320176EBFEF1AF085
:1035F000D00E0B6EFF0E0C6E09C0F6FF0AC0F7FF6F
:103600000800F5500D6E0E6A0B500D260C500E2260
:103610000E500AE10A0E0D5CD8A011EF1BF014EF5A
:103620001BF0010E15EF1BF0000E136E146A135001
:103630001410D8A41EEF1BF020EF1BF0DDEF1AF0E2
:103640000F501010D8A427EF1BF029EF1BF037EF15
:103650001BF016C00BF017C00CF00B1E0C1E0B4A13
:103660000C2A0BC009F00CC00AF03BEF1BF016C08F
:1036700009F017C00AF012005A345B340001656F7C
:103680006551D8A446EF1BF048EF1BF052EF1BF03A
:10369000000E586E000E596E000E5A6E000E5B6ED4
:1036A000BFEF1BF058C060F059C061F05AC062F023
:1036B0005BC063F0200E62EF1BF0D890633362337F
:1036C00061336033E82E5DEF1BF06051646F5A8EFA
:1036D000FF0E5816FF0E5916FF0E5A16000E5B16F7
:1036E000960E655F65BF79EF1BF077EF1BF08FEFEC
:1036F0001BF06551800A970FD8B081EF1BF083EF64
:103700001BF085EF1BF048EF1BF0D8905B325A326C
:1037100059325832653F85EF1BF0A7EF1BF01F0EA3
:10372000656595EF1BF097EF1BF09FEF1BF048EFDF
:103730001BF0D890583659365A365B3665076551B6
:10374000D8A4A5EF1BF0A7EF1BF099EF1BF0645175
:10375000D8B4ADEF1BF0AFEF1BF0B7EF1BF05B1E63
:103760005A1E591E586C000E59225A225B2258C00C
:1037700058F059C059F05AC05AF05BC05BF01200C3
:10378000000E2F14376E000E3014386E800E311478
:10379000396E7F0E32143A6E3750381039103A10A5
:1037A000D8A4D5EF1BF0D7EF1BF0DFEF1BF0000E16
:1037B0002F6E000E306E000E316E000E326E000E57
:1037C0003314376E000E3414386E800E3514396E93
:1037D0007F0E36143A6E3750381039103A10D8A48C
:1037E000F4EF1BF0F6EF1BF0FEEF1BF0000E336E54
:1037F000000E346E000E356E000E366E32AE03EFE4
:103800001CF005EF1CF00EEF1CF02F6C301ED8B032
:10381000302A311ED8B0312A800E325636AE13EF20
:103820001CF015EF1CF01EEF1CF0336C341ED8B0EA
:10383000342A351ED8B0352A800E3656000E2F1A7F
:10384000000E301A000E311A800E321A000E331A92
:10385000000E341A000E351A800E361A33502F5CC3
:10386000345030583550315836503258D8B03BEF7C
:103870001CF03DEF1CF040EF1CF0D89041EF1CF025
:10388000D8801200000E956E9268700ED312D3503D
:10389000FC0B0209D36EC150F00B0E09C16ECF0EA6
:1038A000C116C30EC216C050C70B1009C06EC0505F
:1038B000F80B0109C06EC08EC280C282C2B263EF33
:1038C0001CF065EF1CF05EEF1CF0C4CF6AF0000145
:1038D0006B6B6A51686FC3506A6F68C06BF0000E03
:1038E0004C6E000E4D6E460E4E6EC20E4F6E000EAA
:1038F000336EC00E346E7F0E356E440E366E000E83
:103900001A6E000E1B6EFA0E1C6E430E1D6E6AC000
:1039100008F06BC009F00A6A0B6A000E9AEC19F005
:1039200008C016F009C017F00AC018F00BC019F053
:10393000BFEC0FF016C02FF017C030F018C031F0F8
:1039400019C032F0AAEC13F02FC048F030C049F093
:1039500031C04AF032C04BF05FEC0DF048C058F077
:1039600049C059F04AC05AF04BC05BF03CEC1BF028
:1039700058C06AF059C06BF06AC066F06BC067F05F
:10398000120018C10CF019C10DF01AC10EF01BC1C4
:103990000FF002C00CF003C00DF004C00EF005C023
:1039A0000FF00CC006F00DC007F00EC008F00FC0FD
:1039B00009F0180EE1EF1CF0D890093208320732F6
:1039C0000632E82EDCEF1CF006500A6E0B6A0A5035
:1039D0000B10D8A4EEEF1CF0F0EF1CF010EF1DF070
:1039E000D8900C34066E0D34076E0E34086E0F340A
:1039F000096E0650071008100910D8A402EF1DF038
:103A000004EF1DF00AEF1DF0000E036E020E026EB1
:103A10003FEF1DF0000E036E030E026E3FEF1DF030
:103A20000A280B10D8A417EF1DF019EF1DF03BEF7B
:103A30001DF00CC006F00DC007F00EC008F00FC05E
:103A400009F0090ED8900636073608360936E82EF2
:103A500022EF1DF00650071008100910D8B433EFFC
:103A60001DF036EF1DF0010E37EF1DF0000E026E57
:103A7000036A3FEF1DF0000E036E040E026E12008B
:103A800002C009F003C00AF004C00BF005C00CF03E
:103A90000606D8A00706062806E10728D8A453EF93
:103AA0001DF055EF1DF062EF1DF0000E036E000ECD
:103AB000026EAAEF1DF0094A0A2A0B4A0C2A0606D2
:103AC000D8A0070609C0D9FF0AC0DAFFDF50D8B472
:103AD0006CEF1DF06EEF1DF099EF1DF00BC0F6FFBF
:103AE0000CC0F7FF0800F5500009D8B47AEF1DF0BC
:103AF0007CEF1DF099EF1DF006500710D8B483EF4E
:103B00001DF085EF1DF099EF1DF009C0D9FF0AC027
:103B1000DAFFDF50086E0BC0F6FF0CC0F7FF08009D
:103B2000F5500818D8B497EF1DF099EF1DF05BEF32
:103B30001DF009C0D9FF0AC0DAFFDF50086E0BC0C4
:103B4000F6FF0CC0F7FF0800F550085C026E036A30
:103B5000D8A00306120004500510D8B4B2EF1DF02F
:103B6000B4EF1DF0BDEF1DF004500510D8A4BBEF5D
:103B70001DF0BDEF1DF0C2EF1DF002504CEC24F023
:103B80000FEF1EF020EE04F00450D9260550DA2283
:103B9000DE50DE10D8B4CFEF1DF0D1EF1DF0ECEF0A
:103BA0001DF020EE04F00450D9260550DA2210EE64
:103BB00002F00450E1260550E222DE50E65CE650B9
:103BC000800A0A6EDE50800A0A58D8B0EAEF1DF06B
:103BD000ECEF1DF00FEF1EF020EE02F00450D9269E
:103BE0000550DA22DECF06F0DDCF07F004C0D9FFA2
:103BF00005C0DAFFDECF08F0DDCF09F0065008245B
:103C0000D96E07500920DA6E02C0DFFF20EE02F005
:103C10000450D9260550DA22DE2A000EDD221200D9
:103C20000001F9A116EF1EF018EF1EF022EF1EF0B2
:103C300014C00BF015C00CF012C00DF013C00EF044
:103C400066EC22F017BE27EF1EF029EF1EF02FEFD3
:103C50001EF016C01BF017C01CF033EF1EF0000E54
:103C60001C6E000E1B6E000E1A6E000E196E45EFD4
:103C70001EF0000E036E200E026E12C004F013C080
:103C800005F0ABEC1DF0194A1A2A1B50195C1A50AA
:103C9000800A186E1C50800A1858D8A052EF1EF0E7
:103CA00054EF1EF039EF1EF00001F9B15AEF1EF08B
:103CB0005CEF1EF066EF1EF014C00BF015C00CF0A8
:103CC00012C00DF013C00EF066EC22F014C002F02A
:103CD00015C003F053EC23F01B500224126E1C504D
:103CE0000320136E1200000E076E05BE7CEF1EF05F
:103CF0007AEF1EF082EF1EF0046C051ED8B0052A84
:103D0000010E076E03BE89EF1EF087EF1EF08FEFE6
:103D10001EF0026C031ED8B0032A010E071A000E13
:103D2000096E000E086E04500510D8B49AEF1EF00C
:103D30009CEF1EF0C4EF1EF0010E066EA4EF1EF005
:103D4000D89004360536062A05AEA9EF1EF0ABEF73
:103D50001EF0A0EF1EF0D890083609360450025C21
:103D600005500358D8A0B7EF1EF0B9EF1EF0BEEF14
:103D70001EF00450025E0550035A0880D8900532A8
:103D80000432062EABEF1EF00750D8B4CAEF1EF077
:103D9000CCEF1EF0D0EF1EF0086C091ED8B0092A37
:103DA00008C002F009C003F01200000E076E03BE47
:103DB000DEEF1EF0DCEF1EF0E4EF1EF0026C031EDF
:103DC000D8B0032A010E076E05BEEBEF1EF0E9EF37
:103DD0001EF0EFEF1EF0046C051ED8B0052A04504B
:103DE0000510D8B4F6EF1EF0F8EF1EF01CEF1FF030
:103DF000010E066E00EF1FF0D89004360536062A35
:103E000005AE05EF1FF007EF1FF0FCEF1EF00450AA
:103E1000025C05500358D8A010EF1FF012EF1FF0FE
:103E200016EF1FF00450025E0550035AD890053279
:103E30000432062E07EF1FF00750D8B422EF1FF010
:103E400024EF1FF028EF1FF0026C031ED8B0032AE6
:103E500002C002F003C003F01200000E02140A6E4A
:103E6000000E03140B6E800E04140C6E7F0E0514EE
:103E70000D6E0A500B100C100D10D8A442EF1FF05D
:103E800044EF1FF04CEF1FF0000E026E000E036EA9
:103E9000000E046E000E056E000E06140A6E000E73
:103EA00007140B6E800E08140C6E7F0E09140D6E35
:103EB0000A500B100C100D10D8A461EF1FF063EF27
:103EC0001FF06BEF1FF0000E066E000E076E000E67
:103ED000086E000E096E065002180FE10750031815
:103EE0000CE10850041809E109500518D8B47BEF1B
:103EF0001FF07DEF1FF080EF1FF0D89081EF1FF0D3
:103F0000D880120006009EA088EF1FF08AEF1FF0F5
:103F1000C5EF1FF08BB28FEF1FF092EF1FF0010E75
:103F200093EF1FF0000EFF0A016E01468B5001183F
:103F3000FD0B01188B6E3C0E0001FB19D8A4A3EFFA
:103F40001FF0A5EF1FF0B0EF1FF0060E5C60ABEFA7
:103F50001FF0ADEF1FF0B0EF1FF05C2AC0EF1FF0B5
:103F6000050E5C64B6EF1FF0B8EF1FF0BEEF1FF058
:103F7000000E5C6E000EFB6F47EC24F00001FB2B83
:103F8000CF0ECF6E2C0ECE6E9E905D921100000E65
:103F9000956E9268700ED312D350FC0B0209D36E4B
:103FA000C150F00B0D09C16ECF0EC116C250C30B2C
:103FB0000409C26EC050C70B1009C06EC050F80B88
:103FC0000109C06EC08EC280C282C2B2EAEF1FF089
:103FD000ECEF1FF0E5EF1FF0C4CF06F0076A0650C4
:103FE000046EC350066E04C007F006C002F007C09E
:103FF00003F01200CEC0D2F0CFC0D3F0000E00010B
:10400000F46F000EF36F18EF20F0CCC0ACF0CDC011
:10401000ADF0D20EAE6F000EAF6FD0C0B0F0D1C019
:10402000B1F058EC0AF00001AC51F327AD51F42384
:10403000D2C0F6FFD3C0F7FF0800F5500009D8A49E
:1040400024EF20F026EF20F005EF20F0F3C0CCF0B5
:10405000F4C0CDF01200BF0E0A6EFF0E0B6E08C04A
:104060000CF009C00DF00A500C260B500D220D501B
:104070000AE11A0E0C5CD8A040EF20F043EF20F0CC
:10408000010E44EF20F0000E0E6E0F6A0E500F105E
:10409000D8B44DEF20F04FEF20F056EF20F0200E77
:1040A0000810086E0950096E5AEF20F008C008F099
:1040B00009C009F012009F0E0A6EFF0E0B6E08C0B9
:1040C0000CF009C00DF00A500C260B500D220D50BB
:1040D0000AE11A0E0C5CD8A070EF20F073EF20F00C
:1040E000010E74EF20F0000E0E6E0F6A0E500F10CE
:1040F000D8B47DEF20F07FEF20F085EF20F05F0E49
:104100000814086E096A89EF20F008C008F009C099
:1041100009F01200A0EF20F00AC0F6FF0BC0F7FF75
:10412000F86A070EF76403D00800F55005D0F6CF03
:10413000E1FFF7CFE2FFE7508CEC21F00A4A0B2AAF
:104140000AC0F6FF0BC0F7FFF86A070EF76403D04A
:104150000800F55005D0F6CFE1FFF7CFE2FFE750BA
:104160000009D8A4B6EF20F0B8EF20F08CEF20F0D3
:10417000120004C008F005C009F002C00AF003C034
:104180000BF00850066E0950076E084A092A06C04F
:10419000F6FF07C0F7FFF86A0AC0D9FF0BC0DAFFC5
:1041A0000A4A0B2A070EF76403D00800F55005D021
:1041B000F6CFE1FFF7CFE2FFE750DF6EDF50D8A484
:1041C000E4EF20F0E6EF20F0C1EF20F01200056EE2
:1041D000D00E86EC23F00550C7EC23F0D10E9DECF9
:1041E00023F0000EC6EC22F0046E045001012A6F89
:1041F0002B6B000EC6EC22F0046E04500101286FF8
:10420000296B000EC6EC22F0046E04500101266FEB
:10421000276B010EC6EC22F0046E04500101246FDE
:10422000256BF5EC23F01200D80E0001DC6F000EB8
:10423000DD6FD4C0DEF0D5C0DFF0000EE16F000E00
:10424000E06F000EE36F000EE26FDE0ECC6F000E2B
:10425000CD6FD6C0CEF0D7C0CFF0DC0ED06F000E41
:10426000D16FFAEC1FF00001E051D425D96EE15175
:10427000D521DA6E000EDF6E1200010E086E200EE0
:1042800002180310D8B447EF21F049EF21F062EF94
:1042900021F0F70E046EFF0E056E02C006F003C09B
:1042A00007F00450062605500722075009E1050EC5
:1042B000065CD8A05EEF21F060EF21F062EF21F004
:1042C000000E086E08C002F0036A1200096E09C0F1
:1042D00008F0F00E08168C500F0B08108C6E8C90A6
:1042E0008C8200F08C92000E036E010E026EB2EC16
:1042F00021F009C008F0083AF00E08168C500F0B98
:1043000008108C6E8C8200F08C92000E036E030EEF
:10431000026EB2EC21F01200096E09C008F0F00E36
:1043200008168C500F0B08108C6E8C808C8200F05D
:104330008C92000E036E010E026EB2EC21F009C0E9
:1043400008F0083AF00E08168C500F0B08108C6E0F
:104350008C8200F08C92000E036E030E026EB2ECA3
:1043600021F01200000E056E000E046ECBEF21F05E
:10437000000E076E000E066E064A072A075009E176
:10438000A50E065CD8A0C7EF21F0C9EF21F0BCEF65
:1043900021F0044A052A0250045C03500558D8A0B5
:1043A000D4EF21F0D6EF21F0B8EF21F01200B00EDB
:1043B000F66E470EF76E000EF86E01EEDBF010EEB3
:1043C0001FF00900F5CFEEFFE550E150FAE101EEF4
:1043D00000F0960EEE6AE806FDE100EEEBF0120E3C
:1043E000EE6AE806FDE15C6A5D905D92000EF86E93
:1043F0000001D4EF11F0000E0001641B000E651BDC
:10440000000E661B800E671B60C048F061C049F05B
:1044100062C04AF063C04BF064C04CF065C04DF020
:1044200066C04EF067C04FF05FEC0DF048C060F022
:1044300049C061F04AC062F04BC063F012000C6EDC
:10444000080E0C6026EF22F028EF22F042EF22F057
:104450000C50080DF350400F66EC21F0000E0D6E6D
:104460000D500A24D96E000E0B20DA6EDF508CEC52
:1044700021F00D2A070E0D6440EF22F042EF22F0EA
:1044800030EF22F01200056ED00E86EC23F00550BE
:10449000C7EC23F0D10E9DEC23F0000EC6EC22F009
:1044A000046E04500101306F316B000EC6EC22F037
:1044B000046E045001012E6F2F6B010EC6EC22F02A
:1044C000046E045001012C6F2D6B1200000E116E52
:1044D000000E106E77EF22F00FC002F0036A0DC0DD
:1044E00004F00EC005F0ABEC1DF0104A112A10507C
:1044F0000B24D96E11500C20DA6EDF500F6E0F5066
:10450000D8A485EF22F087EF22F06CEF22F01200A2
:104510000F6E020E0F608FEF22F091EF22F09AEFF4
:1045200022F00C500F0B8009106E105066EC21F039
:10453000A1EF22F00C500F0BC009106E105066EC6A
:1045400021F00DC00AF00EC00BF08AEC20F0120032
:104550009F0E046EFF0E056E200E0210066E000EFA
:104560000310076E045006260550072207500AE183
:104570001A0E065CD8A0BFEF22F0C2EF22F0010EA7
:10458000C3EF22F0000E026E036A1200026EC586AF
:10459000C7A0CDEF22F0CFEF22F0C8EF22F0C9CFB5
:1045A00003F00250D8A4D7EF22F0D9EF22F0DDEFCC
:1045B00022F009EC24F0DFEF22F0FFEC23F027ECEF
:1045C00024F0035012009F0E046EFF0E056E02C011
:1045D00006F003C007F004500626055007220750D6
:1045E0000AE11A0E065CD8A0F8EF22F0FBEF22F0E9
:1045F000010EFCEF22F0000E026E036A1200BF0EE5
:10460000046EFF0E056E02C006F003C007F00450F2
:1046100006260550072207500AE11A0E065CD8A0AC
:1046200014EF23F017EF23F0010E18EF23F0000E24
:10463000026E036A12000250031004100510D8B471
:1046400024EF23F026EF23F02EEF23F0000E021AC2
:10465000000E031A000E041A800E051A02C002F0A2
:1046600003C003F004C004F005C005F01200D00E32
:10467000046EFF0E056E02C006F003C007F0045082
:1046800006260550072207500AE10A0E065CD8A04C
:104690004CEF23F04FEF23F0010E50EF23F0000E0C
:1046A000026E036A120002C004F003C005F05BEF63
:1046B00023F0024A032A02C0D9FF03C0DAFFDF5009
:1046C000D8A465EF23F067EF23F059EF23F00450EF
:1046D000025C026E05500358036E1200000E956EC8
:1046E000000E036E0F0E026EB2EC21F0020E66ECAD
:1046F00021F0280E66EC21F0010E66EC21F00C0E84
:1047000066EC21F0060E66EC21F01200036EC58007
:10471000C5B08DEF23F08FEF23F088EF23F09E9646
:10472000C7B695EF23F097EF23F099EF23F09CEFB6
:1047300023F00350C7EC23F01200036EC582C5B20C
:10474000A4EF23F0A6EF23F09FEF23F09E96C7B6C9
:10475000ACEF23F0AEEF23F0B0EF23F0B3EF23F094
:104760000350C7EC23F0120002500402F3CF06F00E
:10477000F4CF07F002500502F3500726035004025D
:10478000F350072606C002F007C003F01200026EC5
:1047900002C0C9FF27EC24F0C5ACD1EF23F0D3EF62
:1047A00023F0D6EF23F0010ED7EF23F0020E120014
:1047B000534D545774467300000E1F0E0000001531
:0F47C0000E11110E1500000E1F1F0E000A0A0029
:1047D00093809382500EC76E280EC66E000EC56E73
:1047E000130EC86E9D869E961200C584C5B4FBEF5D
:1047F00023F0FDEF23F0F6EF23F0C7501200C58A37
:10480000C588C5B806EF24F008EF24F001EF24F0C6
:104810001200C59AC588C5B810EF24F012EF24F035
:104820000BEF24F01200010E66EC21F0000E036E77
:10483000030E026EB2EC21F01200CD88CD8ACF0EAD
:10484000CF6E2C0ECE6E9E909D80CD8012009EA6C7
:104850002CEF24F02EEF24F027EF24F09E96120088
:1048600039EC24F042EC24F01DEC24F0F29CF28EA2
:104870001200D388D38AD38CD350FC0B0209D36E99
:10488000D38E12000F0EC11294928B9212009D9043
:0A489000CD90F29CF29E120012007F
:020000040020DA
:08000000FFFFFFFFFFFFFFFF00
:020000040030CA
:0E0000000009181EFF8180FF0FC00FE00F40A7
:00000001FF
